{
  "address": "0x5FbDB2315678afecb367f032d93F642f64180aa3",
  "abi": [
    {
      "anonymous": false,
      "inputs": [
        {
          "indexed": true,
          "internalType": "address",
          "name": "previousOwner",
          "type": "address"
        },
        {
          "indexed": true,
          "internalType": "address",
          "name": "newOwner",
          "type": "address"
        }
      ],
      "name": "OwnershipTransferred",
      "type": "event"
    },
    {
      "inputs": [
        {
          "components": [
            {
              "internalType": "string",
              "name": "name",
              "type": "string"
            },
            {
              "internalType": "string",
              "name": "color",
              "type": "string"
            }
          ],
          "internalType": "struct IPBTokenPartsStore.Color",
          "name": "color",
          "type": "tuple"
        }
      ],
      "name": "addBgColor",
      "outputs": [],
      "stateMutability": "nonpayable",
      "type": "function"
    },
    {
      "inputs": [
        {
          "components": [
            {
              "internalType": "string",
              "name": "name",
              "type": "string"
            },
            {
              "internalType": "string",
              "name": "svg",
              "type": "string"
            }
          ],
          "internalType": "struct IPBTokenPartsStore.ImagePart",
          "name": "part",
          "type": "tuple"
        }
      ],
      "name": "addCrown",
      "outputs": [],
      "stateMutability": "nonpayable",
      "type": "function"
    },
    {
      "inputs": [
        {
          "components": [
            {
              "internalType": "string",
              "name": "name",
              "type": "string"
            },
            {
              "internalType": "string",
              "name": "svg",
              "type": "string"
            }
          ],
          "internalType": "struct IPBTokenPartsStore.ImagePart",
          "name": "part",
          "type": "tuple"
        }
      ],
      "name": "addDecoration",
      "outputs": [],
      "stateMutability": "nonpayable",
      "type": "function"
    },
    {
      "inputs": [
        {
          "components": [
            {
              "internalType": "string",
              "name": "name",
              "type": "string"
            },
            {
              "internalType": "string",
              "name": "svg",
              "type": "string"
            }
          ],
          "internalType": "struct IPBTokenPartsStore.ImagePart",
          "name": "part",
          "type": "tuple"
        }
      ],
      "name": "addGarland",
      "outputs": [],
      "stateMutability": "nonpayable",
      "type": "function"
    },
    {
      "inputs": [
        {
          "components": [
            {
              "internalType": "string",
              "name": "name",
              "type": "string"
            },
            {
              "internalType": "string",
              "name": "color",
              "type": "string"
            }
          ],
          "internalType": "struct IPBTokenPartsStore.Color",
          "name": "color",
          "type": "tuple"
        }
      ],
      "name": "addGooglesColor",
      "outputs": [],
      "stateMutability": "nonpayable",
      "type": "function"
    },
    {
      "inputs": [
        {
          "components": [
            {
              "internalType": "string",
              "name": "name",
              "type": "string"
            },
            {
              "internalType": "string",
              "name": "svg",
              "type": "string"
            }
          ],
          "internalType": "struct IPBTokenPartsStore.ImagePart",
          "name": "part",
          "type": "tuple"
        }
      ],
      "name": "addLogo1",
      "outputs": [],
      "stateMutability": "nonpayable",
      "type": "function"
    },
    {
      "inputs": [
        {
          "components": [
            {
              "internalType": "string",
              "name": "name",
              "type": "string"
            },
            {
              "internalType": "string",
              "name": "svg",
              "type": "string"
            }
          ],
          "internalType": "struct IPBTokenPartsStore.ImagePart",
          "name": "part",
          "type": "tuple"
        }
      ],
      "name": "addLogo2",
      "outputs": [],
      "stateMutability": "nonpayable",
      "type": "function"
    },
    {
      "inputs": [
        {
          "components": [
            {
              "internalType": "string",
              "name": "name",
              "type": "string"
            },
            {
              "internalType": "string",
              "name": "svg",
              "type": "string"
            }
          ],
          "internalType": "struct IPBTokenPartsStore.ImagePart",
          "name": "part",
          "type": "tuple"
        }
      ],
      "name": "addLogo3",
      "outputs": [],
      "stateMutability": "nonpayable",
      "type": "function"
    },
    {
      "inputs": [
        {
          "components": [
            {
              "internalType": "string",
              "name": "name",
              "type": "string"
            },
            {
              "internalType": "string",
              "name": "svg",
              "type": "string"
            }
          ],
          "internalType": "struct IPBTokenPartsStore.ImagePart",
          "name": "part",
          "type": "tuple"
        }
      ],
      "name": "addLogo4",
      "outputs": [],
      "stateMutability": "nonpayable",
      "type": "function"
    },
    {
      "inputs": [
        {
          "components": [
            {
              "internalType": "string",
              "name": "name",
              "type": "string"
            },
            {
              "internalType": "string",
              "name": "primary",
              "type": "string"
            },
            {
              "internalType": "string",
              "name": "secondary",
              "type": "string"
            }
          ],
          "internalType": "struct IPBTokenPartsStore.Palette",
          "name": "palette",
          "type": "tuple"
        }
      ],
      "name": "addLogoPalette",
      "outputs": [],
      "stateMutability": "nonpayable",
      "type": "function"
    },
    {
      "inputs": [
        {
          "components": [
            {
              "internalType": "string",
              "name": "name",
              "type": "string"
            },
            {
              "internalType": "string",
              "name": "svg",
              "type": "string"
            }
          ],
          "internalType": "struct IPBTokenPartsStore.ImagePart",
          "name": "part",
          "type": "tuple"
        }
      ],
      "name": "addShield",
      "outputs": [],
      "stateMutability": "nonpayable",
      "type": "function"
    },
    {
      "inputs": [
        {
          "internalType": "uint256",
          "name": "",
          "type": "uint256"
        }
      ],
      "name": "bgColors",
      "outputs": [
        {
          "internalType": "string",
          "name": "name",
          "type": "string"
        },
        {
          "internalType": "string",
          "name": "color",
          "type": "string"
        }
      ],
      "stateMutability": "view",
      "type": "function"
    },
    {
      "inputs": [],
      "name": "bgColorsCount",
      "outputs": [
        {
          "internalType": "uint256",
          "name": "",
          "type": "uint256"
        }
      ],
      "stateMutability": "view",
      "type": "function"
    },
    {
      "inputs": [
        {
          "internalType": "uint256",
          "name": "",
          "type": "uint256"
        }
      ],
      "name": "crowns",
      "outputs": [
        {
          "internalType": "string",
          "name": "name",
          "type": "string"
        },
        {
          "internalType": "string",
          "name": "svg",
          "type": "string"
        }
      ],
      "stateMutability": "view",
      "type": "function"
    },
    {
      "inputs": [],
      "name": "crownsCount",
      "outputs": [
        {
          "internalType": "uint256",
          "name": "",
          "type": "uint256"
        }
      ],
      "stateMutability": "view",
      "type": "function"
    },
    {
      "inputs": [
        {
          "internalType": "uint256",
          "name": "",
          "type": "uint256"
        }
      ],
      "name": "decorations",
      "outputs": [
        {
          "internalType": "string",
          "name": "name",
          "type": "string"
        },
        {
          "internalType": "string",
          "name": "svg",
          "type": "string"
        }
      ],
      "stateMutability": "view",
      "type": "function"
    },
    {
      "inputs": [],
      "name": "decorationsCount",
      "outputs": [
        {
          "internalType": "uint256",
          "name": "",
          "type": "uint256"
        }
      ],
      "stateMutability": "view",
      "type": "function"
    },
    {
      "inputs": [
        {
          "internalType": "uint256",
          "name": "",
          "type": "uint256"
        }
      ],
      "name": "garlands",
      "outputs": [
        {
          "internalType": "string",
          "name": "name",
          "type": "string"
        },
        {
          "internalType": "string",
          "name": "svg",
          "type": "string"
        }
      ],
      "stateMutability": "view",
      "type": "function"
    },
    {
      "inputs": [],
      "name": "garlandsCount",
      "outputs": [
        {
          "internalType": "uint256",
          "name": "",
          "type": "uint256"
        }
      ],
      "stateMutability": "view",
      "type": "function"
    },
    {
      "inputs": [
        {
          "internalType": "uint8",
          "name": "id",
          "type": "uint8"
        }
      ],
      "name": "getBgColor",
      "outputs": [
        {
          "components": [
            {
              "internalType": "string",
              "name": "name",
              "type": "string"
            },
            {
              "internalType": "string",
              "name": "color",
              "type": "string"
            }
          ],
          "internalType": "struct IPBTokenPartsStore.Color",
          "name": "",
          "type": "tuple"
        }
      ],
      "stateMutability": "view",
      "type": "function"
    },
    {
      "inputs": [
        {
          "internalType": "uint8",
          "name": "id",
          "type": "uint8"
        }
      ],
      "name": "getCrown",
      "outputs": [
        {
          "components": [
            {
              "internalType": "string",
              "name": "name",
              "type": "string"
            },
            {
              "internalType": "string",
              "name": "svg",
              "type": "string"
            }
          ],
          "internalType": "struct IPBTokenPartsStore.ImagePart",
          "name": "",
          "type": "tuple"
        }
      ],
      "stateMutability": "view",
      "type": "function"
    },
    {
      "inputs": [
        {
          "internalType": "uint8",
          "name": "id",
          "type": "uint8"
        }
      ],
      "name": "getDecoration",
      "outputs": [
        {
          "components": [
            {
              "internalType": "string",
              "name": "name",
              "type": "string"
            },
            {
              "internalType": "string",
              "name": "svg",
              "type": "string"
            }
          ],
          "internalType": "struct IPBTokenPartsStore.ImagePart",
          "name": "",
          "type": "tuple"
        }
      ],
      "stateMutability": "view",
      "type": "function"
    },
    {
      "inputs": [
        {
          "internalType": "uint8",
          "name": "id",
          "type": "uint8"
        }
      ],
      "name": "getGarland",
      "outputs": [
        {
          "components": [
            {
              "internalType": "string",
              "name": "name",
              "type": "string"
            },
            {
              "internalType": "string",
              "name": "svg",
              "type": "string"
            }
          ],
          "internalType": "struct IPBTokenPartsStore.ImagePart",
          "name": "",
          "type": "tuple"
        }
      ],
      "stateMutability": "view",
      "type": "function"
    },
    {
      "inputs": [
        {
          "internalType": "uint8",
          "name": "id",
          "type": "uint8"
        }
      ],
      "name": "getGooglesColor",
      "outputs": [
        {
          "components": [
            {
              "internalType": "string",
              "name": "name",
              "type": "string"
            },
            {
              "internalType": "string",
              "name": "color",
              "type": "string"
            }
          ],
          "internalType": "struct IPBTokenPartsStore.Color",
          "name": "",
          "type": "tuple"
        }
      ],
      "stateMutability": "view",
      "type": "function"
    },
    {
      "inputs": [
        {
          "internalType": "uint8",
          "name": "id",
          "type": "uint8"
        }
      ],
      "name": "getLogo1",
      "outputs": [
        {
          "components": [
            {
              "internalType": "string",
              "name": "name",
              "type": "string"
            },
            {
              "internalType": "string",
              "name": "svg",
              "type": "string"
            }
          ],
          "internalType": "struct IPBTokenPartsStore.ImagePart",
          "name": "",
          "type": "tuple"
        }
      ],
      "stateMutability": "view",
      "type": "function"
    },
    {
      "inputs": [
        {
          "internalType": "uint8",
          "name": "id",
          "type": "uint8"
        }
      ],
      "name": "getLogo2",
      "outputs": [
        {
          "components": [
            {
              "internalType": "string",
              "name": "name",
              "type": "string"
            },
            {
              "internalType": "string",
              "name": "svg",
              "type": "string"
            }
          ],
          "internalType": "struct IPBTokenPartsStore.ImagePart",
          "name": "",
          "type": "tuple"
        }
      ],
      "stateMutability": "view",
      "type": "function"
    },
    {
      "inputs": [
        {
          "internalType": "uint8",
          "name": "id",
          "type": "uint8"
        }
      ],
      "name": "getLogo3",
      "outputs": [
        {
          "components": [
            {
              "internalType": "string",
              "name": "name",
              "type": "string"
            },
            {
              "internalType": "string",
              "name": "svg",
              "type": "string"
            }
          ],
          "internalType": "struct IPBTokenPartsStore.ImagePart",
          "name": "",
          "type": "tuple"
        }
      ],
      "stateMutability": "view",
      "type": "function"
    },
    {
      "inputs": [
        {
          "internalType": "uint8",
          "name": "id",
          "type": "uint8"
        }
      ],
      "name": "getLogo4",
      "outputs": [
        {
          "components": [
            {
              "internalType": "string",
              "name": "name",
              "type": "string"
            },
            {
              "internalType": "string",
              "name": "svg",
              "type": "string"
            }
          ],
          "internalType": "struct IPBTokenPartsStore.ImagePart",
          "name": "",
          "type": "tuple"
        }
      ],
      "stateMutability": "view",
      "type": "function"
    },
    {
      "inputs": [
        {
          "internalType": "uint8",
          "name": "id",
          "type": "uint8"
        }
      ],
      "name": "getLogoPalette",
      "outputs": [
        {
          "components": [
            {
              "internalType": "string",
              "name": "name",
              "type": "string"
            },
            {
              "internalType": "string",
              "name": "primary",
              "type": "string"
            },
            {
              "internalType": "string",
              "name": "secondary",
              "type": "string"
            }
          ],
          "internalType": "struct IPBTokenPartsStore.Palette",
          "name": "",
          "type": "tuple"
        }
      ],
      "stateMutability": "view",
      "type": "function"
    },
    {
      "inputs": [
        {
          "internalType": "uint8",
          "name": "id",
          "type": "uint8"
        }
      ],
      "name": "getShield",
      "outputs": [
        {
          "components": [
            {
              "internalType": "string",
              "name": "name",
              "type": "string"
            },
            {
              "internalType": "string",
              "name": "svg",
              "type": "string"
            }
          ],
          "internalType": "struct IPBTokenPartsStore.ImagePart",
          "name": "",
          "type": "tuple"
        }
      ],
      "stateMutability": "view",
      "type": "function"
    },
    {
      "inputs": [
        {
          "internalType": "uint256",
          "name": "",
          "type": "uint256"
        }
      ],
      "name": "googlesColors",
      "outputs": [
        {
          "internalType": "string",
          "name": "name",
          "type": "string"
        },
        {
          "internalType": "string",
          "name": "color",
          "type": "string"
        }
      ],
      "stateMutability": "view",
      "type": "function"
    },
    {
      "inputs": [],
      "name": "googlesColorsCount",
      "outputs": [
        {
          "internalType": "uint256",
          "name": "",
          "type": "uint256"
        }
      ],
      "stateMutability": "view",
      "type": "function"
    },
    {
      "inputs": [
        {
          "internalType": "uint256",
          "name": "",
          "type": "uint256"
        }
      ],
      "name": "logoPalettes",
      "outputs": [
        {
          "internalType": "string",
          "name": "name",
          "type": "string"
        },
        {
          "internalType": "string",
          "name": "primary",
          "type": "string"
        },
        {
          "internalType": "string",
          "name": "secondary",
          "type": "string"
        }
      ],
      "stateMutability": "view",
      "type": "function"
    },
    {
      "inputs": [],
      "name": "logoPalettesCount",
      "outputs": [
        {
          "internalType": "uint256",
          "name": "",
          "type": "uint256"
        }
      ],
      "stateMutability": "view",
      "type": "function"
    },
    {
      "inputs": [
        {
          "internalType": "uint256",
          "name": "",
          "type": "uint256"
        }
      ],
      "name": "logos1",
      "outputs": [
        {
          "internalType": "string",
          "name": "name",
          "type": "string"
        },
        {
          "internalType": "string",
          "name": "svg",
          "type": "string"
        }
      ],
      "stateMutability": "view",
      "type": "function"
    },
    {
      "inputs": [],
      "name": "logos1Count",
      "outputs": [
        {
          "internalType": "uint256",
          "name": "",
          "type": "uint256"
        }
      ],
      "stateMutability": "view",
      "type": "function"
    },
    {
      "inputs": [
        {
          "internalType": "uint256",
          "name": "",
          "type": "uint256"
        }
      ],
      "name": "logos2",
      "outputs": [
        {
          "internalType": "string",
          "name": "name",
          "type": "string"
        },
        {
          "internalType": "string",
          "name": "svg",
          "type": "string"
        }
      ],
      "stateMutability": "view",
      "type": "function"
    },
    {
      "inputs": [],
      "name": "logos2Count",
      "outputs": [
        {
          "internalType": "uint256",
          "name": "",
          "type": "uint256"
        }
      ],
      "stateMutability": "view",
      "type": "function"
    },
    {
      "inputs": [
        {
          "internalType": "uint256",
          "name": "",
          "type": "uint256"
        }
      ],
      "name": "logos3",
      "outputs": [
        {
          "internalType": "string",
          "name": "name",
          "type": "string"
        },
        {
          "internalType": "string",
          "name": "svg",
          "type": "string"
        }
      ],
      "stateMutability": "view",
      "type": "function"
    },
    {
      "inputs": [],
      "name": "logos3Count",
      "outputs": [
        {
          "internalType": "uint256",
          "name": "",
          "type": "uint256"
        }
      ],
      "stateMutability": "view",
      "type": "function"
    },
    {
      "inputs": [
        {
          "internalType": "uint256",
          "name": "",
          "type": "uint256"
        }
      ],
      "name": "logos4",
      "outputs": [
        {
          "internalType": "string",
          "name": "name",
          "type": "string"
        },
        {
          "internalType": "string",
          "name": "svg",
          "type": "string"
        }
      ],
      "stateMutability": "view",
      "type": "function"
    },
    {
      "inputs": [],
      "name": "logos4Count",
      "outputs": [
        {
          "internalType": "uint256",
          "name": "",
          "type": "uint256"
        }
      ],
      "stateMutability": "view",
      "type": "function"
    },
    {
      "inputs": [],
      "name": "owner",
      "outputs": [
        {
          "internalType": "address",
          "name": "",
          "type": "address"
        }
      ],
      "stateMutability": "view",
      "type": "function"
    },
    {
      "inputs": [],
      "name": "renounceOwnership",
      "outputs": [],
      "stateMutability": "nonpayable",
      "type": "function"
    },
    {
      "inputs": [
        {
          "internalType": "uint256",
          "name": "",
          "type": "uint256"
        }
      ],
      "name": "shields",
      "outputs": [
        {
          "internalType": "string",
          "name": "name",
          "type": "string"
        },
        {
          "internalType": "string",
          "name": "svg",
          "type": "string"
        }
      ],
      "stateMutability": "view",
      "type": "function"
    },
    {
      "inputs": [],
      "name": "shieldsCount",
      "outputs": [
        {
          "internalType": "uint256",
          "name": "",
          "type": "uint256"
        }
      ],
      "stateMutability": "view",
      "type": "function"
    },
    {
      "inputs": [
        {
          "internalType": "address",
          "name": "newOwner",
          "type": "address"
        }
      ],
      "name": "transferOwnership",
      "outputs": [],
      "stateMutability": "nonpayable",
      "type": "function"
    }
  ],
  "transactionHash": "0x0fb59ae06f49713273502179fe02b9a0c3f097745849c8f7426faefaa7a96e72",
  "args": [],
  "numDeployments": 1,
  "solcInputHash": "5b9ff6c266b9bb5d01233ac72c2ae17d",
  "bytecode": "0x608060405234801561001057600080fd5b5061001a3361001f565b61006f565b600080546001600160a01b038381166001600160a01b0319831681178455604051919092169283917f8be0079c531659141344cd1fd0a4f28419497f9722a3daafe3b4186f6b6457e09190a35050565b61193b8061007e6000396000f3fe608060405234801561001057600080fd5b50600436106103155760003560e01c806392529b8f116101a7578063d8a4234d116100ee578063ee9a808f11610097578063f54924a911610071578063f54924a914610644578063f862ab1b1461064c578063fad5e7091461065f57600080fd5b8063ee9a808f1461060b578063f2fde38b1461061e578063f450b1e61461063157600080fd5b8063e3ec8b98116100c8578063e3ec8b98146105e8578063e703c186146105fb578063ebfb90a71461060357600080fd5b8063d8a4234d146105ba578063ddee33b5146105cd578063e2c24605146105d557600080fd5b8063abb26ac411610150578063c3f9ab991161012a578063c3f9ab9914610581578063c9f023c214610594578063d55f8f36146105a757600080fd5b8063abb26ac41461053b578063ae2e59531461054e578063b0f364eb1461056e57600080fd5b8063a6c2167011610181578063a6c2167014610502578063aa46a23c14610515578063aae2cba21461052857600080fd5b806392529b8f146104c95780639da775d0146104dc578063a009d5ce146104ef57600080fd5b8063621dc7361161026b578063864bfa1a116102145780638ba72350116101ee5780638ba72350146104935780638da5cb5b1461049b5780639030ba3e146104b657600080fd5b8063864bfa1a1461047057806387f3078914610483578063881ae30b1461048b57600080fd5b80637576bf87116102455780637576bf87146104425780637763e3151461044a57806380942bfe1461045d57600080fd5b8063621dc736146104145780636f25dcd514610427578063715018a61461043a57600080fd5b8063303e5cdc116102cd5780634c82e406116102a75780634c82e406146103db5780635c7b96f3146103ee5780635fe1d0eb1461040157600080fd5b8063303e5cdc146103935780633d0cf8cb146103a6578063446480ba146103b957600080fd5b806320ddb91c116102fe57806320ddb91c14610358578063228946841461036a5780632360729d1461038b57600080fd5b806315c507db1461031a5780631f24954a14610343575b600080fd5b61032d61032836600461130b565b610667565b60405161033a91906113b2565b60405180910390f35b6103566103513660046113dd565b6107d5565b005b600b545b60405190815260200161033a565b61037d61037836600461141a565b610823565b60405161033a929190611433565b60095461035c565b6103566103a13660046113dd565b610967565b6103566103b43660046113dd565b6109ad565b6103cc6103c736600461141a565b6109f5565b60405161033a93929190611458565b6103566103e936600461149b565b610bc7565b61037d6103fc36600461141a565b610c10565b61035661040f3660046113dd565b610c20565b61037d61042236600461141a565b610c69565b61032d61043536600461130b565b610c79565b610356610ca3565b60065461035c565b61037d61045836600461141a565b610cb7565b61035661046b3660046113dd565b610cc7565b61037d61047e36600461141a565b610d10565b60015461035c565b60085461035c565b60075461035c565b6000546040516001600160a01b03909116815260200161033a565b6103566104c43660046113dd565b610d20565b61037d6104d736600461141a565b610d69565b6103566104ea3660046113dd565b610d79565b61032d6104fd36600461130b565b610dc2565b61032d61051036600461130b565b610dec565b61032d61052336600461130b565b610e16565b61032d61053636600461130b565b610e40565b6103566105493660046113dd565b610e6a565b61056161055c36600461130b565b610eb3565b60405161033a91906114d6565b61032d61057c36600461130b565b61103a565b61035661058f3660046113dd565b611064565b61032d6105a236600461130b565b6110ad565b6103566105b53660046113dd565b6110d7565b61032d6105c836600461130b565b611120565b60055461035c565b61037d6105e336600461141a565b61114a565b61032d6105f636600461130b565b61115a565b60035461035c565b60045461035c565b61037d61061936600461141a565b611184565b61035661062c36600461152e565b611194565b61037d61063f36600461141a565b611229565b600a5461035c565b61037d61065a36600461141a565b611239565b60025461035c565b604080518082019091526060808252602082015260018260ff168154811061069157610691611557565b90600052602060002090600202016040518060400160405290816000820180546106ba9061156d565b80601f01602080910402602001604051908101604052809291908181526020018280546106e69061156d565b80156107335780601f1061070857610100808354040283529160200191610733565b820191906000526020600020905b81548152906001019060200180831161071657829003601f168201915b5050505050815260200160018201805461074c9061156d565b80601f01602080910402602001604051908101604052809291908181526020018280546107789061156d565b80156107c55780601f1061079a576101008083540402835291602001916107c5565b820191906000526020600020905b8154815290600101906020018083116107a857829003601f168201915b5050505050815250509050919050565b6107dd611249565b600b805460018101825560009190915281906002027f0175b7a638427703f0dbe7bb9bbf987a2551717b34e79f33b5b1008d1fa01db90161081e82826117fd565b505050565b6002818154811061083357600080fd5b90600052602060002090600202016000915090508060000180546108569061156d565b80601f01602080910402602001604051908101604052809291908181526020018280546108829061156d565b80156108cf5780601f106108a4576101008083540402835291602001916108cf565b820191906000526020600020905b8154815290600101906020018083116108b257829003601f168201915b5050505050908060010180546108e49061156d565b80601f01602080910402602001604051908101604052809291908181526020018280546109109061156d565b801561095d5780601f106109325761010080835404028352916020019161095d565b820191906000526020600020905b81548152906001019060200180831161094057829003601f168201915b5050505050905082565b61096f611249565b6002805460018101825560008290528291027f405787fa12a823e0f2b7631cc41b3ba8828b3321ca811111fa75cd3aa3bb5ace0161081e82826117fd565b6109b5611249565b60018054808201825560009190915281906002027fb10e2d527612073b26eecdfd717e6a320cf44b4afac2b0732d9fcbe2b7fa0cf60161081e82826117fd565b60078181548110610a0557600080fd5b9060005260206000209060030201600091509050806000018054610a289061156d565b80601f0160208091040260200160405190810160405280929190818152602001828054610a549061156d565b8015610aa15780601f10610a7657610100808354040283529160200191610aa1565b820191906000526020600020905b815481529060010190602001808311610a8457829003601f168201915b505050505090806001018054610ab69061156d565b80601f0160208091040260200160405190810160405280929190818152602001828054610ae29061156d565b8015610b2f5780601f10610b0457610100808354040283529160200191610b2f565b820191906000526020600020905b815481529060010190602001808311610b1257829003601f168201915b505050505090806002018054610b449061156d565b80601f0160208091040260200160405190810160405280929190818152602001828054610b709061156d565b8015610bbd5780601f10610b9257610100808354040283529160200191610bbd565b820191906000526020600020905b815481529060010190602001808311610ba057829003601f168201915b5050505050905083565b610bcf611249565b6007805460018101825560009190915281906003027fa66cc928b5edb82af9bd49922954155ab7b0942694bea4ce44661d9a8736c6880161081e828261180b565b6009818154811061083357600080fd5b610c28611249565b6008805460018101825560009190915281906002027ff3f7a9fe364faab93b216da50a3214154f22a0a2b415b23a84c8169e8b636ee30161081e82826117fd565b6005818154811061083357600080fd5b604080518082019091526060808252602082015260038260ff168154811061069157610691611557565b610cab611249565b610cb560006112a3565b565b600a818154811061083357600080fd5b610ccf611249565b6003805460018101825560009190915281906002027fc2575a0e9e593c00f959f8c92f12db2869c3395a3b0502d05e2516446f71f85b0161081e82826117fd565b6008818154811061083357600080fd5b610d28611249565b6004805460018101825560009190915281906002027f8a35acfbc15ff81a39ae7d344fd709f28e8600b4aa8c65c6b64bfe7fe36bd19b0161081e82826117fd565b6004818154811061083357600080fd5b610d81611249565b6006805460018101825560009190915281906002027ff652222313e28459528d920b65115c16c04f3efc82aaedc97be59f3f377c0d3f0161081e82826117fd565b604080518082019091526060808252602082015260098260ff168154811061069157610691611557565b6040805180820190915260608082526020820152600b8260ff168154811061069157610691611557565b604080518082019091526060808252602082015260028260ff168154811061069157610691611557565b604080518082019091526060808252602082015260048260ff168154811061069157610691611557565b610e72611249565b6005805460018101825560009190915281906002027f036b6384b5eca791c62761152d0c79bb0604c104a5fb6f4eb0703f3154bb3db00161081e82826117fd565b610ed760405180606001604052806060815260200160608152602001606081525090565b60078260ff1681548110610eed57610eed611557565b9060005260206000209060030201604051806060016040529081600082018054610f169061156d565b80601f0160208091040260200160405190810160405280929190818152602001828054610f429061156d565b8015610f8f5780601f10610f6457610100808354040283529160200191610f8f565b820191906000526020600020905b815481529060010190602001808311610f7257829003601f168201915b50505050508152602001600182018054610fa89061156d565b80601f0160208091040260200160405190810160405280929190818152602001828054610fd49061156d565b80156110215780601f10610ff657610100808354040283529160200191611021565b820191906000526020600020905b81548152906001019060200180831161100457829003601f168201915b5050505050815260200160028201805461074c9061156d565b6040805180820190915260608082526020820152600a8260ff168154811061069157610691611557565b61106c611249565b6009805460018101825560009190915281906002027f6e1540171b6c0c960b71a7020d9f60077f6af931a8bbf590da0223dacf75c7af0161081e82826117fd565b604080518082019091526060808252602082015260088260ff168154811061069157610691611557565b6110df611249565b600a805460018101825560009190915281906002027fc65a7bb8d6351c1cf70c95a316cc6a92839c986682d98bc35f958f4883f9d2a80161081e82826117fd565b604080518082019091526060808252602082015260058260ff168154811061069157610691611557565b6001818154811061083357600080fd5b604080518082019091526060808252602082015260068260ff168154811061069157610691611557565b6003818154811061083357600080fd5b61119c611249565b6001600160a01b03811661121d5760405162461bcd60e51b815260206004820152602660248201527f4f776e61626c653a206e6577206f776e657220697320746865207a65726f206160448201527f646472657373000000000000000000000000000000000000000000000000000060648201526084015b60405180910390fd5b611226816112a3565b50565b600b818154811061083357600080fd5b6006818154811061083357600080fd5b6000546001600160a01b03163314610cb55760405162461bcd60e51b815260206004820181905260248201527f4f776e61626c653a2063616c6c6572206973206e6f7420746865206f776e65726044820152606401611214565b600080546001600160a01b038381167fffffffffffffffffffffffff0000000000000000000000000000000000000000831681178455604051919092169283917f8be0079c531659141344cd1fd0a4f28419497f9722a3daafe3b4186f6b6457e09190a35050565b60006020828403121561131d57600080fd5b813560ff8116811461132e57600080fd5b9392505050565b6000815180845260005b8181101561135b5760208185018101518683018201520161133f565b506000602082860101526020601f19601f83011685010191505092915050565b60008151604084526113906040850182611335565b9050602083015184820360208601526113a98282611335565b95945050505050565b60208152600061132e602083018461137b565b6000604082840312156113d757600080fd5b50919050565b6000602082840312156113ef57600080fd5b813567ffffffffffffffff81111561140657600080fd5b611412848285016113c5565b949350505050565b60006020828403121561142c57600080fd5b5035919050565b6040815260006114466040830185611335565b82810360208401526113a98185611335565b60608152600061146b6060830186611335565b828103602084015261147d8186611335565b905082810360408401526114918185611335565b9695505050505050565b6000602082840312156114ad57600080fd5b813567ffffffffffffffff8111156114c457600080fd5b82016060818503121561132e57600080fd5b6020815260008251606060208401526114f26080840182611335565b90506020840151601f19808584030160408601526115108383611335565b92506040860151915080858403016060860152506113a98282611335565b60006020828403121561154057600080fd5b81356001600160a01b038116811461132e57600080fd5b634e487b7160e01b600052603260045260246000fd5b600181811c9082168061158157607f821691505b6020821081036113d757634e487b7160e01b600052602260045260246000fd5b6000808335601e198436030181126115b857600080fd5b83018035915067ffffffffffffffff8211156115d357600080fd5b6020019150368190038213156115e857600080fd5b9250929050565b634e487b7160e01b600052604160045260246000fd5b601f82111561081e57600081815260208120601f850160051c8101602086101561162c5750805b601f850160051c820191505b8181101561164b57828155600101611638565b505050505050565b67ffffffffffffffff83111561166b5761166b6115ef565b61167f83611679835461156d565b83611605565b6000601f8411600181146116b3576000851561169b5750838201355b600019600387901b1c1916600186901b17835561170d565b600083815260209020601f19861690835b828110156116e457868501358255602094850194600190920191016116c4565b50868210156117015760001960f88860031b161c19848701351681555b505060018560011b0183555b5050505050565b61171e82836115a1565b67ffffffffffffffff811115611736576117366115ef565b61174a81611744855461156d565b85611605565b6000601f82116001811461177e57600083156117665750838201355b600019600385901b1c1916600184901b1785556117d8565b600085815260209020601f19841690835b828110156117af578685013582556020948501946001909201910161178f565b50848210156117cc5760001960f88660031b161c19848701351681555b505060018360011b0185555b505050506117e960208301836115a1565b6117f7818360018601611653565b50505050565b6118078282611714565b5050565b61181582836115a1565b67ffffffffffffffff81111561182d5761182d6115ef565b61183b81611744855461156d565b6000601f82116001811461186f57600083156118575750838201355b600019600385901b1c1916600184901b1785556118c9565b600085815260209020601f19841690835b828110156118a05786850135825560209485019460019092019101611880565b50848210156118bd5760001960f88660031b161c19848701351681555b505060018360011b0185555b505050506118da60208301836115a1565b6118e8818360018601611653565b50506118f760408301836115a1565b6117f781836002860161165356fea2646970667358221220f4a49c825f0dadb43a6bb90375b1b4dd3bad342eff1919666d63c12375063e1d64736f6c63430008110033",
  "devdoc": {
    "kind": "dev",
    "methods": {
      "owner()": {
        "details": "Returns the address of the current owner."
      },
      "renounceOwnership()": {
        "details": "Leaves the contract without owner. It will not be possible to call `onlyOwner` functions anymore. Can only be called by the current owner. NOTE: Renouncing ownership will leave the contract without an owner, thereby removing any functionality that is only available to the owner."
      },
      "transferOwnership(address)": {
        "details": "Transfers ownership of the contract to a new account (`newOwner`). Can only be called by the current owner."
      }
    },
    "version": 1
  },
  "userdoc": {
    "kind": "user",
    "methods": {},
    "version": 1
  },
  "storageLayout": {
    "storage": [
      {
        "astId": 7,
        "contract": "contracts/PBTokenPartsStore.sol:PBTokenPartsStore",
        "label": "_owner",
        "offset": 0,
        "slot": "0",
        "type": "t_address"
      },
      {
        "astId": 8074,
        "contract": "contracts/PBTokenPartsStore.sol:PBTokenPartsStore",
        "label": "bgColors",
        "offset": 0,
        "slot": "1",
        "type": "t_array(t_struct(Color)8546_storage)dyn_storage"
      },
      {
        "astId": 8078,
        "contract": "contracts/PBTokenPartsStore.sol:PBTokenPartsStore",
        "label": "googlesColors",
        "offset": 0,
        "slot": "2",
        "type": "t_array(t_struct(Color)8546_storage)dyn_storage"
      },
      {
        "astId": 8082,
        "contract": "contracts/PBTokenPartsStore.sol:PBTokenPartsStore",
        "label": "crowns",
        "offset": 0,
        "slot": "3",
        "type": "t_array(t_struct(ImagePart)8558_storage)dyn_storage"
      },
      {
        "astId": 8086,
        "contract": "contracts/PBTokenPartsStore.sol:PBTokenPartsStore",
        "label": "decorations",
        "offset": 0,
        "slot": "4",
        "type": "t_array(t_struct(ImagePart)8558_storage)dyn_storage"
      },
      {
        "astId": 8090,
        "contract": "contracts/PBTokenPartsStore.sol:PBTokenPartsStore",
        "label": "garlands",
        "offset": 0,
        "slot": "5",
        "type": "t_array(t_struct(ImagePart)8558_storage)dyn_storage"
      },
      {
        "astId": 8094,
        "contract": "contracts/PBTokenPartsStore.sol:PBTokenPartsStore",
        "label": "shields",
        "offset": 0,
        "slot": "6",
        "type": "t_array(t_struct(ImagePart)8558_storage)dyn_storage"
      },
      {
        "astId": 8098,
        "contract": "contracts/PBTokenPartsStore.sol:PBTokenPartsStore",
        "label": "logoPalettes",
        "offset": 0,
        "slot": "7",
        "type": "t_array(t_struct(Palette)8553_storage)dyn_storage"
      },
      {
        "astId": 8102,
        "contract": "contracts/PBTokenPartsStore.sol:PBTokenPartsStore",
        "label": "logos1",
        "offset": 0,
        "slot": "8",
        "type": "t_array(t_struct(ImagePart)8558_storage)dyn_storage"
      },
      {
        "astId": 8106,
        "contract": "contracts/PBTokenPartsStore.sol:PBTokenPartsStore",
        "label": "logos2",
        "offset": 0,
        "slot": "9",
        "type": "t_array(t_struct(ImagePart)8558_storage)dyn_storage"
      },
      {
        "astId": 8110,
        "contract": "contracts/PBTokenPartsStore.sol:PBTokenPartsStore",
        "label": "logos3",
        "offset": 0,
        "slot": "10",
        "type": "t_array(t_struct(ImagePart)8558_storage)dyn_storage"
      },
      {
        "astId": 8114,
        "contract": "contracts/PBTokenPartsStore.sol:PBTokenPartsStore",
        "label": "logos4",
        "offset": 0,
        "slot": "11",
        "type": "t_array(t_struct(ImagePart)8558_storage)dyn_storage"
      }
    ],
    "types": {
      "t_address": {
        "encoding": "inplace",
        "label": "address",
        "numberOfBytes": "20"
      },
      "t_array(t_struct(Color)8546_storage)dyn_storage": {
        "base": "t_struct(Color)8546_storage",
        "encoding": "dynamic_array",
        "label": "struct IPBTokenPartsStore.Color[]",
        "numberOfBytes": "32"
      },
      "t_array(t_struct(ImagePart)8558_storage)dyn_storage": {
        "base": "t_struct(ImagePart)8558_storage",
        "encoding": "dynamic_array",
        "label": "struct IPBTokenPartsStore.ImagePart[]",
        "numberOfBytes": "32"
      },
      "t_array(t_struct(Palette)8553_storage)dyn_storage": {
        "base": "t_struct(Palette)8553_storage",
        "encoding": "dynamic_array",
        "label": "struct IPBTokenPartsStore.Palette[]",
        "numberOfBytes": "32"
      },
      "t_string_storage": {
        "encoding": "bytes",
        "label": "string",
        "numberOfBytes": "32"
      },
      "t_struct(Color)8546_storage": {
        "encoding": "inplace",
        "label": "struct IPBTokenPartsStore.Color",
        "members": [
          {
            "astId": 8543,
            "contract": "contracts/PBTokenPartsStore.sol:PBTokenPartsStore",
            "label": "name",
            "offset": 0,
            "slot": "0",
            "type": "t_string_storage"
          },
          {
            "astId": 8545,
            "contract": "contracts/PBTokenPartsStore.sol:PBTokenPartsStore",
            "label": "color",
            "offset": 0,
            "slot": "1",
            "type": "t_string_storage"
          }
        ],
        "numberOfBytes": "64"
      },
      "t_struct(ImagePart)8558_storage": {
        "encoding": "inplace",
        "label": "struct IPBTokenPartsStore.ImagePart",
        "members": [
          {
            "astId": 8555,
            "contract": "contracts/PBTokenPartsStore.sol:PBTokenPartsStore",
            "label": "name",
            "offset": 0,
            "slot": "0",
            "type": "t_string_storage"
          },
          {
            "astId": 8557,
            "contract": "contracts/PBTokenPartsStore.sol:PBTokenPartsStore",
            "label": "svg",
            "offset": 0,
            "slot": "1",
            "type": "t_string_storage"
          }
        ],
        "numberOfBytes": "64"
      },
      "t_struct(Palette)8553_storage": {
        "encoding": "inplace",
        "label": "struct IPBTokenPartsStore.Palette",
        "members": [
          {
            "astId": 8548,
            "contract": "contracts/PBTokenPartsStore.sol:PBTokenPartsStore",
            "label": "name",
            "offset": 0,
            "slot": "0",
            "type": "t_string_storage"
          },
          {
            "astId": 8550,
            "contract": "contracts/PBTokenPartsStore.sol:PBTokenPartsStore",
            "label": "primary",
            "offset": 0,
            "slot": "1",
            "type": "t_string_storage"
          },
          {
            "astId": 8552,
            "contract": "contracts/PBTokenPartsStore.sol:PBTokenPartsStore",
            "label": "secondary",
            "offset": 0,
            "slot": "2",
            "type": "t_string_storage"
          }
        ],
        "numberOfBytes": "96"
      }
    }
  }
}