{
  "address": "0x9fE46736679d2D9a65F0992F2272dE9f3c7fa6e0",
  "abi": [
    {
      "inputs": [
        {
          "internalType": "contract IPBTokenPartsStore",
          "name": "store",
          "type": "IPBTokenPartsStore"
        },
        {
          "internalType": "uint96",
          "name": "dna",
          "type": "uint96"
        }
      ],
      "name": "getImageParts",
      "outputs": [
        {
          "components": [
            {
              "components": [
                {
                  "internalType": "string",
                  "name": "name",
                  "type": "string"
                },
                {
                  "internalType": "string",
                  "name": "color",
                  "type": "string"
                }
              ],
              "internalType": "struct IPBTokenPartsStore.Color",
              "name": "bgColor",
              "type": "tuple"
            },
            {
              "components": [
                {
                  "internalType": "string",
                  "name": "name",
                  "type": "string"
                },
                {
                  "internalType": "string",
                  "name": "color",
                  "type": "string"
                }
              ],
              "internalType": "struct IPBTokenPartsStore.Color",
              "name": "googlesColor",
              "type": "tuple"
            },
            {
              "components": [
                {
                  "internalType": "string",
                  "name": "name",
                  "type": "string"
                },
                {
                  "internalType": "string",
                  "name": "svg",
                  "type": "string"
                }
              ],
              "internalType": "struct IPBTokenPartsStore.ImagePart",
              "name": "crown",
              "type": "tuple"
            },
            {
              "components": [
                {
                  "internalType": "string",
                  "name": "name",
                  "type": "string"
                },
                {
                  "internalType": "string",
                  "name": "svg",
                  "type": "string"
                }
              ],
              "internalType": "struct IPBTokenPartsStore.ImagePart",
              "name": "decoration",
              "type": "tuple"
            },
            {
              "components": [
                {
                  "internalType": "string",
                  "name": "name",
                  "type": "string"
                },
                {
                  "internalType": "string",
                  "name": "svg",
                  "type": "string"
                }
              ],
              "internalType": "struct IPBTokenPartsStore.ImagePart",
              "name": "garland",
              "type": "tuple"
            },
            {
              "components": [
                {
                  "internalType": "string",
                  "name": "name",
                  "type": "string"
                },
                {
                  "internalType": "string",
                  "name": "svg",
                  "type": "string"
                }
              ],
              "internalType": "struct IPBTokenPartsStore.ImagePart",
              "name": "shield",
              "type": "tuple"
            },
            {
              "components": [
                {
                  "internalType": "string",
                  "name": "name",
                  "type": "string"
                },
                {
                  "internalType": "string",
                  "name": "primary",
                  "type": "string"
                },
                {
                  "internalType": "string",
                  "name": "secondary",
                  "type": "string"
                }
              ],
              "internalType": "struct IPBTokenPartsStore.Palette",
              "name": "logoPalette1",
              "type": "tuple"
            },
            {
              "components": [
                {
                  "internalType": "string",
                  "name": "name",
                  "type": "string"
                },
                {
                  "internalType": "string",
                  "name": "primary",
                  "type": "string"
                },
                {
                  "internalType": "string",
                  "name": "secondary",
                  "type": "string"
                }
              ],
              "internalType": "struct IPBTokenPartsStore.Palette",
              "name": "logoPalette2",
              "type": "tuple"
            },
            {
              "components": [
                {
                  "internalType": "string",
                  "name": "name",
                  "type": "string"
                },
                {
                  "internalType": "string",
                  "name": "svg",
                  "type": "string"
                }
              ],
              "internalType": "struct IPBTokenPartsStore.ImagePart",
              "name": "logo1",
              "type": "tuple"
            },
            {
              "components": [
                {
                  "internalType": "string",
                  "name": "name",
                  "type": "string"
                },
                {
                  "internalType": "string",
                  "name": "svg",
                  "type": "string"
                }
              ],
              "internalType": "struct IPBTokenPartsStore.ImagePart",
              "name": "logo2",
              "type": "tuple"
            },
            {
              "components": [
                {
                  "internalType": "string",
                  "name": "name",
                  "type": "string"
                },
                {
                  "internalType": "string",
                  "name": "svg",
                  "type": "string"
                }
              ],
              "internalType": "struct IPBTokenPartsStore.ImagePart",
              "name": "logo3",
              "type": "tuple"
            },
            {
              "components": [
                {
                  "internalType": "string",
                  "name": "name",
                  "type": "string"
                },
                {
                  "internalType": "string",
                  "name": "svg",
                  "type": "string"
                }
              ],
              "internalType": "struct IPBTokenPartsStore.ImagePart",
              "name": "logo4",
              "type": "tuple"
            }
          ],
          "internalType": "struct PBTokenComposer.ImageParts",
          "name": "",
          "type": "tuple"
        }
      ],
      "stateMutability": "view",
      "type": "function"
    },
    {
      "inputs": [
        {
          "internalType": "contract IPBTokenPartsStore",
          "name": "store",
          "type": "IPBTokenPartsStore"
        },
        {
          "internalType": "uint256",
          "name": "tokenId",
          "type": "uint256"
        },
        {
          "internalType": "uint96",
          "name": "dna",
          "type": "uint96"
        }
      ],
      "name": "getTokenMetadata",
      "outputs": [
        {
          "internalType": "string",
          "name": "",
          "type": "string"
        }
      ],
      "stateMutability": "view",
      "type": "function"
    }
  ],
  "transactionHash": "0x926ac31e59013ae26e025151cf915a21314a8af93cfa5deeea252326e8911a0b",
  "args": [],
  "numDeployments": 1,
  "solcInputHash": "5b9ff6c266b9bb5d01233ac72c2ae17d",
  "bytecode": "0x61234b61003a600b82828239805160001a60731461002d57634e487b7160e01b600052600060045260246000fd5b30600052607381538281f3fe73000000000000000000000000000000000000000030146080604052600436106100405760003560e01c80634fb3bfe3146100455780638da360311461006e575b600080fd5b610058610053366004610f59565b61008e565b604051610065919061105b565b60405180910390f35b61008161007c3660046111cb565b61081d565b6040516100659190611207565b610096610d77565b6040517fe760cef20000000000000000000000000000000000000000000000000000000081526bffffffffffffffffffffffff8316600482015260009073e7f1725E7734CE288F8367e1Bb143E90bb3F05129063e760cef29060240161018060405180830381865af4158015610110573d6000803e3d6000fd5b505050506040513d601f19601f820116820180604052508101906101349190611295565b6040805161018081019182905282517f15c507db0000000000000000000000000000000000000000000000000000000090925260ff909116610184820152909150806001600160a01b0386166315c507db6101a48301600060405180830381865afa1580156101a7573d6000803e3d6000fd5b505050506040513d6000823e601f3d908101601f191682016040526101cf9190810190611489565b81526020838101516040517faa46a23c00000000000000000000000000000000000000000000000000000000815260ff90911660048201529101906001600160a01b0387169063aa46a23c90602401600060405180830381865afa15801561023b573d6000803e3d6000fd5b505050506040513d6000823e601f3d908101601f191682016040526102639190810190611489565b815260408084015190517f6f25dcd500000000000000000000000000000000000000000000000000000000815260ff90911660048201526020909101906001600160a01b03871690636f25dcd590602401600060405180830381865afa1580156102d1573d6000803e3d6000fd5b505050506040513d6000823e601f3d908101601f191682016040526102f99190810190611489565b815260608301516040517faae2cba200000000000000000000000000000000000000000000000000000000815260ff90911660048201526020909101906001600160a01b0387169063aae2cba290602401600060405180830381865afa158015610367573d6000803e3d6000fd5b505050506040513d6000823e601f3d908101601f1916820160405261038f9190810190611489565b815260808301516040517fd8a4234d00000000000000000000000000000000000000000000000000000000815260ff90911660048201526020909101906001600160a01b0387169063d8a4234d90602401600060405180830381865afa1580156103fd573d6000803e3d6000fd5b505050506040513d6000823e601f3d908101601f191682016040526104259190810190611489565b815260a08301516040517fe3ec8b9800000000000000000000000000000000000000000000000000000000815260ff90911660048201526020909101906001600160a01b0387169063e3ec8b9890602401600060405180830381865afa158015610493573d6000803e3d6000fd5b505050506040513d6000823e601f3d908101601f191682016040526104bb9190810190611489565b815260c083015160405163ae2e595360e01b815260ff90911660048201526020909101906001600160a01b0387169063ae2e595390602401600060405180830381865afa158015610510573d6000803e3d6000fd5b505050506040513d6000823e601f3d908101601f1916820160405261053891908101906114c6565b815260e083015160405163ae2e595360e01b815260ff90911660048201526020909101906001600160a01b0387169063ae2e595390602401600060405180830381865afa15801561058d573d6000803e3d6000fd5b505050506040513d6000823e601f3d908101601f191682016040526105b591908101906114c6565b81526101008301516040517fc9f023c200000000000000000000000000000000000000000000000000000000815260ff90911660048201526020909101906001600160a01b0387169063c9f023c290602401600060405180830381865afa158015610624573d6000803e3d6000fd5b505050506040513d6000823e601f3d908101601f1916820160405261064c9190810190611489565b81526101208301516040517fa009d5ce00000000000000000000000000000000000000000000000000000000815260ff90911660048201526020909101906001600160a01b0387169063a009d5ce90602401600060405180830381865afa1580156106bb573d6000803e3d6000fd5b505050506040513d6000823e601f3d908101601f191682016040526106e39190810190611489565b81526101408301516040517fb0f364eb00000000000000000000000000000000000000000000000000000000815260ff90911660048201526020909101906001600160a01b0387169063b0f364eb90602401600060405180830381865afa158015610752573d6000803e3d6000fd5b505050506040513d6000823e601f3d908101601f1916820160405261077a9190810190611489565b81526101608301516040517fa6c2167000000000000000000000000000000000000000000000000000000000815260ff90911660048201526020909101906001600160a01b0387169063a6c2167090602401600060405180830381865afa1580156107e9573d6000803e3d6000fd5b505050506040513d6000823e601f3d908101601f191682016040526108119190810190611489565b90529150505b92915050565b6060600061082b858461008e565b80515160208083015151604080850151516060860151519151959650600095610858959491929101611597565b60408051601f198184030181529082905260c08401515160e085015151919350600092610888929060200161171c565b60408051601f1981840301815290829052610100850151516101208601515161014087015151610160880151519395506000946108c894906020016117e3565b60405160208183030381529060405290506109196108e588610945565b6108ee866109e5565b858585604051602001610905959493929190611938565b604051602081830303815290604052610af9565b6040516020016109299190611a73565b6040516020818303038152906040529450505050509392505050565b6060600061095283610c95565b600101905060008167ffffffffffffffff81111561097257610972611221565b6040519080825280601f01601f19166020018201604052801561099c576020820181803683370190505b5090508181016020015b600019017f3031323334353637383961626364656600000000000000000000000000000000600a86061a8153600a85049450846109a657509392505050565b606060008260c00151604001518360c001516020015184610100015160200151856101600151602001518660e00151604001518760e00151602001518861012001516020015189610140015160200151604051602001610a4c989796959493929190611ab8565b60405160208183030381529060405290506000836020015160200151604051602001610a789190611d98565b6040516020818303038152906040529050610ad18460000151602001518560400151602001518660a0015160200151858860800151602001518960600151602001518760405160200161090597969594939291906120a8565b604051602001610ae1919061222e565b60405160208183030381529060405292505050919050565b60608151600003610b1857505060408051602081019091526000815290565b60006040518060600160405280604081526020016122d66040913990506000600384516002610b479190612289565b610b51919061229c565b610b5c9060046122be565b90506000610b6b826020612289565b67ffffffffffffffff811115610b8357610b83611221565b6040519080825280601f01601f191660200182016040528015610bad576020820181803683370190505b509050818152600183018586518101602084015b81831015610c19576003830192508251603f8160121c168501518253600182019150603f81600c1c168501518253600182019150603f8160061c168501518253600182019150603f8116850151825350600101610bc1565b600389510660018114610c335760028114610c5f57610c87565b7f3d3d000000000000000000000000000000000000000000000000000000000000600119830152610c87565b7f3d000000000000000000000000000000000000000000000000000000000000006000198301525b509398975050505050505050565b6000807a184f03e93ff9f4daa797ed6e38ed64bf6a1f0100000000000000008310610cde577a184f03e93ff9f4daa797ed6e38ed64bf6a1f010000000000000000830492506040015b6d04ee2d6d415b85acef81000000008310610d0a576d04ee2d6d415b85acef8100000000830492506020015b662386f26fc100008310610d2857662386f26fc10000830492506010015b6305f5e1008310610d40576305f5e100830492506008015b6127108310610d5457612710830492506004015b60648310610d66576064830492506002015b600a83106108175760010192915050565b604080516101c08101909152606061018082018181526101a083019190915281908152602001610dba604051806040016040528060608152602001606081525090565b8152602001610ddc604051806040016040528060608152602001606081525090565b8152602001610dfe604051806040016040528060608152602001606081525090565b8152602001610e20604051806040016040528060608152602001606081525090565b8152602001610e42604051806040016040528060608152602001606081525090565b8152602001610e6b60405180606001604052806060815260200160608152602001606081525090565b8152602001610e9460405180606001604052806060815260200160608152602001606081525090565b8152602001610eb6604051806040016040528060608152602001606081525090565b8152602001610ed8604051806040016040528060608152602001606081525090565b8152602001610efa604051806040016040528060608152602001606081525090565b8152602001610f1c604051806040016040528060608152602001606081525090565b905290565b80356001600160a01b0381168114610f3857600080fd5b919050565b80356bffffffffffffffffffffffff81168114610f3857600080fd5b60008060408385031215610f6c57600080fd5b610f7583610f21565b9150610f8360208401610f3d565b90509250929050565b60005b83811015610fa7578181015183820152602001610f8f565b50506000910152565b60008151808452610fc8816020860160208601610f8c565b601f01601f19169290920160200192915050565b6000815160408452610ff16040850182610fb0565b90506020830151848203602086015261100a8282610fb0565b95945050505050565b60008151606084526110286060850182610fb0565b9050602083015184820360208601526110418282610fb0565b9150506040830151848203604086015261100a8282610fb0565b602081526000825161018080602085015261107a6101a0850183610fdc565b91506020850151601f19808685030160408701526110988483610fdc565b935060408701519150808685030160608701526110b58483610fdc565b935060608701519150808685030160808701526110d28483610fdc565b935060808701519150808685030160a08701526110ef8483610fdc565b935060a08701519150808685030160c087015261110c8483610fdc565b935060c08701519150808685030160e08701526111298483611013565b935060e087015191506101008187860301818801526111488584611013565b9450808801519250506101208187860301818801526111678584610fdc565b9450808801519250506101408187860301818801526111868584610fdc565b9450808801519250506101608187860301818801526111a58584610fdc565b9088015187820390920184880152935090506111c18382610fdc565b9695505050505050565b6000806000606084860312156111e057600080fd5b6111e984610f21565b9250602084013591506111fe60408501610f3d565b90509250925092565b60208152600061121a6020830184610fb0565b9392505050565b634e487b7160e01b600052604160045260246000fd5b604051610180810167ffffffffffffffff8111828210171561125b5761125b611221565b60405290565b6040516060810167ffffffffffffffff8111828210171561125b5761125b611221565b805160ff81168114610f3857600080fd5b600061018082840312156112a857600080fd5b6112b0611237565b6112b983611284565b81526112c760208401611284565b60208201526112d860408401611284565b60408201526112e960608401611284565b60608201526112fa60808401611284565b608082015261130b60a08401611284565b60a082015261131c60c08401611284565b60c082015261132d60e08401611284565b60e0820152610100611340818501611284565b90820152610120611352848201611284565b90820152610140611364848201611284565b90820152610160611376848201611284565b908201529392505050565b600082601f83011261139257600080fd5b815167ffffffffffffffff808211156113ad576113ad611221565b604051601f8301601f19908116603f011681019082821181831017156113d5576113d5611221565b816040528381528660208588010111156113ee57600080fd5b6111c1846020830160208901610f8c565b60006040828403121561141157600080fd5b6040516040810167ffffffffffffffff828210818311171561143557611435611221565b81604052829350845191508082111561144d57600080fd5b61145986838701611381565b8352602085015191508082111561146f57600080fd5b5061147c85828601611381565b6020830152505092915050565b60006020828403121561149b57600080fd5b815167ffffffffffffffff8111156114b257600080fd5b6114be848285016113ff565b949350505050565b6000602082840312156114d857600080fd5b815167ffffffffffffffff808211156114f057600080fd5b908301906060828603121561150457600080fd5b61150c611261565b82518281111561151b57600080fd5b61152787828601611381565b82525060208301518281111561153c57600080fd5b61154887828601611381565b60208301525060408301518281111561156057600080fd5b61156c87828601611381565b60408301525095945050505050565b6000815161158d818560208601610f8c565b9290920192915050565b7f2c202261747472696275746573223a205b00000000000000000000000000000081527f7b2274726169745f74797065223a20224261636b67726f756e64222c2276616c6011820152643ab2911d1160d91b603182015260008551611603816036850160208a01610f8c565b62089f4b60ea1b6036918401918201527f7b2274726169745f74797065223a2022476f6f676c6573222c2276616c75652260398201527f3a220000000000000000000000000000000000000000000000000000000000006059820152855161167281605b840160208a01610f8c565b01611685605b820162089f4b60ea1b9052565b7f7b2274726169745f74797065223a202243726f776e222c2276616c7565223a22605e8201526116b8607e82018661157b565b62089f4b60ea1b815290507f7b2274726169745f74797065223a20224465636f726174696f6e222c2276616c6003820152643ab2911d1160d91b6023820152611705602882015b8561157b565b62089f4b60ea1b8152600301979650505050505050565b7f7b2274726169745f74797065223a202250616c657474652031222c2276616c75815260007f65223a2200000000000000000000000000000000000000000000000000000000806020840152845161177b816024860160208901610f8c565b808401905062089f4b60ea1b8060248301527f7b2274726169745f74797065223a202250616c657474652032222c2276616c756027830152826047830152855192506117ce83604b840160208901610f8c565b9101604b810191909152604e01949350505050565b7f7b2274726169745f74797065223a20224c6f676f2031222c2276616c7565223a81526000601160f91b8060208401528651611826816021860160208b01610f8c565b808401905062089f4b60ea1b8060218301527f7b2274726169745f74797065223a20224c6f676f2032222c2276616c7565223a60248301528260448301528751611877816045850160208c01610f8c565b60459201918201527f7b2274726169745f74797065223a20224c6f676f2033222c2276616c7565223a6048820152606881018290526118b9606982018761157b565b9150506118cb8162089f4b60ea1b9052565b7f7b2274726169745f74797065223a20224c6f676f2034222c2276616c7565223a6003820152601160f91b6023820152611907602482016116ff565b7f227d5d7d000000000000000000000000000000000000000000000000000000008152600401979650505050505050565b7f7b226e616d65223a22506f6c6b61646f74204275696c6465727320230000000081526000865161197081601c850160208b01610f8c565b7f222c200000000000000000000000000000000000000000000000000000000000601c918401918201527f226465736372697074696f6e223a2254686973206973206d7920646573637269601f8201527f7074696f6e222c20000000000000000000000000000000000000000000000000603f8201527f22696d616765223a20220000000000000000000000000000000000000000000060478201528651611a1f816051840160208b01610f8c565b601160f91b605192909101918201528551611a41816052840160208a01610f8c565b8551910190611a57816052840160208901610f8c565b611a666052828401018661157b565b9998505050505050505050565b7f646174613a6170706c69636174696f6e2f6a736f6e3b6261736536342c000000815260008251611aab81601d850160208701610f8c565b91909101601d0192915050565b681e33903334b6361e9160b91b815260008951611adc816009850160208e01610f8c565b7f223e3c7061746820643d224d3132382e333533203133372e3031563234382e376009918401918201527f3738483234372e363034563130322e3638384c3132382e333533203133372e3060298201527f315a22202f3e3c7061746820643d224d3235372e3137203235382e333535563460498201527f30352e3334334c3235382e333235203430342e3836433236332e31313620343060698201527f322e383538203337352e353934203335342e383532203337352e35393420323760898201527f312e373938563235382e333733483235372e3137563235382e3335355a22202f60a98201527f3e3c2f673e00000000000000000000000000000000000000000000000000000060c9820152611c0260ce8201681e33903334b6361e9160b91b9052565b611c0f60d782018b61157b565b61111f60f11b81529050611c2f611c29600283018b61157b565b8961157b565b631e17b39f60e11b81529050681e33903334b6361e9160b91b6004820152611d44611c5d600d83018961157b565b7f223e3c7061746820643d224d3132382e333533203235382e333535563237312e81527f373831433132382e333533203335342e373438203234302e383438203430322e60208201527f383431203234352e3634203430342e38364c3234372e363034203430352e363860408201527f38563235382e333535483132382e3335335a22202f3e3c7061746820643d224d60608201527f3337352e363131203133372e30314c3235372e3137203130322e39313256323460808201527f382e373738483337352e363131563133372e30315a22202f3e3c2f673e00000060a082015260bd0190565b681e33903334b6361e9160b91b81529050611d62600982018761157b565b61111f60f11b81529050611d7c6116ff600283018761157b565b631e17b39f60e11b81526004019b9a5050505050505050505050565b7f3c7061746820643d224d3238342e3836372038382e36323432483236352e393981527f35563132362e333938483238342e3836375638382e363234325a222066696c6c60208201527f3d227768697465222f3e3c7061746820643d224d3330332e37342038382e363260408201527f3432483238342e383637563132372e343835483330332e37345638382e36323460608201527f325a222066696c6c3d2223323331463230222f3e3c7061746820643d224d323160808201527f392e3738372038392e32313039483230312e323234563132362e33383148323160a08201527f392e3738375638392e323130395a222066696c6c3d227768697465222f3e3c7060c08201527f61746820643d224d3233392e3535362038382e33383236483231392e3830345660e08201527f3132382e353033483233392e3535365638382e333832365a222066696c6c3d226101008201527f23323331463230222f3e000000000000000000000000000000000000000000006101208201527f3c706174682066696c6c3d22000000000000000000000000000000000000000061012a820152600061121a611f4d61013684018561157b565b7f2220643d224d3235372e3033322037392e383735335639382e3536333748323481527f372e3732355637392e38373533483139322e3030335639382e3536333748313560208201527f342e373735563132392e3431384c3136332e3931203132362e3739355631303760408201527f2e373039483139322e303033563133352e363634483234372e3732355631303760608201527f2e373039483235372e303332563133352e363634483331322e3735345637392e60808201527f38373533483235372e3033325a4d3233382e333636203132362e33393848323060a08201527f312e3234315638392e32323832483233382e333636563132362e3339385a4d3360c08201527f30332e333935203132362e333938483236362e32375638392e3232383248333060e08201527f332e333935563132362e3339385a222f3e0000000000000000000000000000006101008201526101110190565b7f3c7376672077696474683d2235303022206865696768743d223530302220766981527f6577426f783d223020302035303020353030222066696c6c3d226e6f6e65222060208201527f786d6c6e733d22687474703a2f2f7777772e77332e6f72672f323030302f737660408201527f67223e000000000000000000000000000000000000000000000000000000000060608201527f3c7061746820643d224d353030203048305635303048353030222066696c6c3d6063820152601160f91b608382015260008851612182816084850160208d01610f8c565b7f22202f3e0000000000000000000000000000000000000000000000000000000060849184019182015288516121bf816088840160208d01610f8c565b6121f26121ec6121e66121e06121da6088868801018e61157b565b8c61157b565b8a61157b565b8861157b565b8661157b565b91505061221e817f3c2f7376673e00000000000000000000000000000000000000000000000000009052565b6006019998505050505050505050565b7f646174613a696d6167652f7376672b786d6c3b6261736536342c00000000000081526000825161226681601a850160208701610f8c565b91909101601a0192915050565b634e487b7160e01b600052601160045260246000fd5b8082018082111561081757610817612273565b6000826122b957634e487b7160e01b600052601260045260246000fd5b500490565b80820281158282048414176108175761081761227356fe4142434445464748494a4b4c4d4e4f505152535455565758595a6162636465666768696a6b6c6d6e6f707172737475767778797a303132333435363738392b2fa2646970667358221220202f75fe342bf5beb714c293c2350ab245dff3a4a9fd3fac711d098a36cc704d64736f6c63430008110033",
  "deployedBytecode": "0x73000000000000000000000000000000000000000030146080604052600436106100405760003560e01c80634fb3bfe3146100455780638da360311461006e575b600080fd5b610058610053366004610f59565b61008e565b604051610065919061105b565b60405180910390f35b61008161007c3660046111cb565b61081d565b6040516100659190611207565b610096610d77565b6040517fe760cef20000000000000000000000000000000000000000000000000000000081526bffffffffffffffffffffffff8316600482015260009073__$818e336b571047c87a195fbe356458cc3b$__9063e760cef29060240161018060405180830381865af4158015610110573d6000803e3d6000fd5b505050506040513d601f19601f820116820180604052508101906101349190611295565b6040805161018081019182905282517f15c507db0000000000000000000000000000000000000000000000000000000090925260ff909116610184820152909150806001600160a01b0386166315c507db6101a48301600060405180830381865afa1580156101a7573d6000803e3d6000fd5b505050506040513d6000823e601f3d908101601f191682016040526101cf9190810190611489565b81526020838101516040517faa46a23c00000000000000000000000000000000000000000000000000000000815260ff90911660048201529101906001600160a01b0387169063aa46a23c90602401600060405180830381865afa15801561023b573d6000803e3d6000fd5b505050506040513d6000823e601f3d908101601f191682016040526102639190810190611489565b815260408084015190517f6f25dcd500000000000000000000000000000000000000000000000000000000815260ff90911660048201526020909101906001600160a01b03871690636f25dcd590602401600060405180830381865afa1580156102d1573d6000803e3d6000fd5b505050506040513d6000823e601f3d908101601f191682016040526102f99190810190611489565b815260608301516040517faae2cba200000000000000000000000000000000000000000000000000000000815260ff90911660048201526020909101906001600160a01b0387169063aae2cba290602401600060405180830381865afa158015610367573d6000803e3d6000fd5b505050506040513d6000823e601f3d908101601f1916820160405261038f9190810190611489565b815260808301516040517fd8a4234d00000000000000000000000000000000000000000000000000000000815260ff90911660048201526020909101906001600160a01b0387169063d8a4234d90602401600060405180830381865afa1580156103fd573d6000803e3d6000fd5b505050506040513d6000823e601f3d908101601f191682016040526104259190810190611489565b815260a08301516040517fe3ec8b9800000000000000000000000000000000000000000000000000000000815260ff90911660048201526020909101906001600160a01b0387169063e3ec8b9890602401600060405180830381865afa158015610493573d6000803e3d6000fd5b505050506040513d6000823e601f3d908101601f191682016040526104bb9190810190611489565b815260c083015160405163ae2e595360e01b815260ff90911660048201526020909101906001600160a01b0387169063ae2e595390602401600060405180830381865afa158015610510573d6000803e3d6000fd5b505050506040513d6000823e601f3d908101601f1916820160405261053891908101906114c6565b815260e083015160405163ae2e595360e01b815260ff90911660048201526020909101906001600160a01b0387169063ae2e595390602401600060405180830381865afa15801561058d573d6000803e3d6000fd5b505050506040513d6000823e601f3d908101601f191682016040526105b591908101906114c6565b81526101008301516040517fc9f023c200000000000000000000000000000000000000000000000000000000815260ff90911660048201526020909101906001600160a01b0387169063c9f023c290602401600060405180830381865afa158015610624573d6000803e3d6000fd5b505050506040513d6000823e601f3d908101601f1916820160405261064c9190810190611489565b81526101208301516040517fa009d5ce00000000000000000000000000000000000000000000000000000000815260ff90911660048201526020909101906001600160a01b0387169063a009d5ce90602401600060405180830381865afa1580156106bb573d6000803e3d6000fd5b505050506040513d6000823e601f3d908101601f191682016040526106e39190810190611489565b81526101408301516040517fb0f364eb00000000000000000000000000000000000000000000000000000000815260ff90911660048201526020909101906001600160a01b0387169063b0f364eb90602401600060405180830381865afa158015610752573d6000803e3d6000fd5b505050506040513d6000823e601f3d908101601f1916820160405261077a9190810190611489565b81526101608301516040517fa6c2167000000000000000000000000000000000000000000000000000000000815260ff90911660048201526020909101906001600160a01b0387169063a6c2167090602401600060405180830381865afa1580156107e9573d6000803e3d6000fd5b505050506040513d6000823e601f3d908101601f191682016040526108119190810190611489565b90529150505b92915050565b6060600061082b858461008e565b80515160208083015151604080850151516060860151519151959650600095610858959491929101611597565b60408051601f198184030181529082905260c08401515160e085015151919350600092610888929060200161171c565b60408051601f1981840301815290829052610100850151516101208601515161014087015151610160880151519395506000946108c894906020016117e3565b60405160208183030381529060405290506109196108e588610945565b6108ee866109e5565b858585604051602001610905959493929190611938565b604051602081830303815290604052610af9565b6040516020016109299190611a73565b6040516020818303038152906040529450505050509392505050565b6060600061095283610c95565b600101905060008167ffffffffffffffff81111561097257610972611221565b6040519080825280601f01601f19166020018201604052801561099c576020820181803683370190505b5090508181016020015b600019017f3031323334353637383961626364656600000000000000000000000000000000600a86061a8153600a85049450846109a657509392505050565b606060008260c00151604001518360c001516020015184610100015160200151856101600151602001518660e00151604001518760e00151602001518861012001516020015189610140015160200151604051602001610a4c989796959493929190611ab8565b60405160208183030381529060405290506000836020015160200151604051602001610a789190611d98565b6040516020818303038152906040529050610ad18460000151602001518560400151602001518660a0015160200151858860800151602001518960600151602001518760405160200161090597969594939291906120a8565b604051602001610ae1919061222e565b60405160208183030381529060405292505050919050565b60608151600003610b1857505060408051602081019091526000815290565b60006040518060600160405280604081526020016122d66040913990506000600384516002610b479190612289565b610b51919061229c565b610b5c9060046122be565b90506000610b6b826020612289565b67ffffffffffffffff811115610b8357610b83611221565b6040519080825280601f01601f191660200182016040528015610bad576020820181803683370190505b509050818152600183018586518101602084015b81831015610c19576003830192508251603f8160121c168501518253600182019150603f81600c1c168501518253600182019150603f8160061c168501518253600182019150603f8116850151825350600101610bc1565b600389510660018114610c335760028114610c5f57610c87565b7f3d3d000000000000000000000000000000000000000000000000000000000000600119830152610c87565b7f3d000000000000000000000000000000000000000000000000000000000000006000198301525b509398975050505050505050565b6000807a184f03e93ff9f4daa797ed6e38ed64bf6a1f0100000000000000008310610cde577a184f03e93ff9f4daa797ed6e38ed64bf6a1f010000000000000000830492506040015b6d04ee2d6d415b85acef81000000008310610d0a576d04ee2d6d415b85acef8100000000830492506020015b662386f26fc100008310610d2857662386f26fc10000830492506010015b6305f5e1008310610d40576305f5e100830492506008015b6127108310610d5457612710830492506004015b60648310610d66576064830492506002015b600a83106108175760010192915050565b604080516101c08101909152606061018082018181526101a083019190915281908152602001610dba604051806040016040528060608152602001606081525090565b8152602001610ddc604051806040016040528060608152602001606081525090565b8152602001610dfe604051806040016040528060608152602001606081525090565b8152602001610e20604051806040016040528060608152602001606081525090565b8152602001610e42604051806040016040528060608152602001606081525090565b8152602001610e6b60405180606001604052806060815260200160608152602001606081525090565b8152602001610e9460405180606001604052806060815260200160608152602001606081525090565b8152602001610eb6604051806040016040528060608152602001606081525090565b8152602001610ed8604051806040016040528060608152602001606081525090565b8152602001610efa604051806040016040528060608152602001606081525090565b8152602001610f1c604051806040016040528060608152602001606081525090565b905290565b80356001600160a01b0381168114610f3857600080fd5b919050565b80356bffffffffffffffffffffffff81168114610f3857600080fd5b60008060408385031215610f6c57600080fd5b610f7583610f21565b9150610f8360208401610f3d565b90509250929050565b60005b83811015610fa7578181015183820152602001610f8f565b50506000910152565b60008151808452610fc8816020860160208601610f8c565b601f01601f19169290920160200192915050565b6000815160408452610ff16040850182610fb0565b90506020830151848203602086015261100a8282610fb0565b95945050505050565b60008151606084526110286060850182610fb0565b9050602083015184820360208601526110418282610fb0565b9150506040830151848203604086015261100a8282610fb0565b602081526000825161018080602085015261107a6101a0850183610fdc565b91506020850151601f19808685030160408701526110988483610fdc565b935060408701519150808685030160608701526110b58483610fdc565b935060608701519150808685030160808701526110d28483610fdc565b935060808701519150808685030160a08701526110ef8483610fdc565b935060a08701519150808685030160c087015261110c8483610fdc565b935060c08701519150808685030160e08701526111298483611013565b935060e087015191506101008187860301818801526111488584611013565b9450808801519250506101208187860301818801526111678584610fdc565b9450808801519250506101408187860301818801526111868584610fdc565b9450808801519250506101608187860301818801526111a58584610fdc565b9088015187820390920184880152935090506111c18382610fdc565b9695505050505050565b6000806000606084860312156111e057600080fd5b6111e984610f21565b9250602084013591506111fe60408501610f3d565b90509250925092565b60208152600061121a6020830184610fb0565b9392505050565b634e487b7160e01b600052604160045260246000fd5b604051610180810167ffffffffffffffff8111828210171561125b5761125b611221565b60405290565b6040516060810167ffffffffffffffff8111828210171561125b5761125b611221565b805160ff81168114610f3857600080fd5b600061018082840312156112a857600080fd5b6112b0611237565b6112b983611284565b81526112c760208401611284565b60208201526112d860408401611284565b60408201526112e960608401611284565b60608201526112fa60808401611284565b608082015261130b60a08401611284565b60a082015261131c60c08401611284565b60c082015261132d60e08401611284565b60e0820152610100611340818501611284565b90820152610120611352848201611284565b90820152610140611364848201611284565b90820152610160611376848201611284565b908201529392505050565b600082601f83011261139257600080fd5b815167ffffffffffffffff808211156113ad576113ad611221565b604051601f8301601f19908116603f011681019082821181831017156113d5576113d5611221565b816040528381528660208588010111156113ee57600080fd5b6111c1846020830160208901610f8c565b60006040828403121561141157600080fd5b6040516040810167ffffffffffffffff828210818311171561143557611435611221565b81604052829350845191508082111561144d57600080fd5b61145986838701611381565b8352602085015191508082111561146f57600080fd5b5061147c85828601611381565b6020830152505092915050565b60006020828403121561149b57600080fd5b815167ffffffffffffffff8111156114b257600080fd5b6114be848285016113ff565b949350505050565b6000602082840312156114d857600080fd5b815167ffffffffffffffff808211156114f057600080fd5b908301906060828603121561150457600080fd5b61150c611261565b82518281111561151b57600080fd5b61152787828601611381565b82525060208301518281111561153c57600080fd5b61154887828601611381565b60208301525060408301518281111561156057600080fd5b61156c87828601611381565b60408301525095945050505050565b6000815161158d818560208601610f8c565b9290920192915050565b7f2c202261747472696275746573223a205b00000000000000000000000000000081527f7b2274726169745f74797065223a20224261636b67726f756e64222c2276616c6011820152643ab2911d1160d91b603182015260008551611603816036850160208a01610f8c565b62089f4b60ea1b6036918401918201527f7b2274726169745f74797065223a2022476f6f676c6573222c2276616c75652260398201527f3a220000000000000000000000000000000000000000000000000000000000006059820152855161167281605b840160208a01610f8c565b01611685605b820162089f4b60ea1b9052565b7f7b2274726169745f74797065223a202243726f776e222c2276616c7565223a22605e8201526116b8607e82018661157b565b62089f4b60ea1b815290507f7b2274726169745f74797065223a20224465636f726174696f6e222c2276616c6003820152643ab2911d1160d91b6023820152611705602882015b8561157b565b62089f4b60ea1b8152600301979650505050505050565b7f7b2274726169745f74797065223a202250616c657474652031222c2276616c75815260007f65223a2200000000000000000000000000000000000000000000000000000000806020840152845161177b816024860160208901610f8c565b808401905062089f4b60ea1b8060248301527f7b2274726169745f74797065223a202250616c657474652032222c2276616c756027830152826047830152855192506117ce83604b840160208901610f8c565b9101604b810191909152604e01949350505050565b7f7b2274726169745f74797065223a20224c6f676f2031222c2276616c7565223a81526000601160f91b8060208401528651611826816021860160208b01610f8c565b808401905062089f4b60ea1b8060218301527f7b2274726169745f74797065223a20224c6f676f2032222c2276616c7565223a60248301528260448301528751611877816045850160208c01610f8c565b60459201918201527f7b2274726169745f74797065223a20224c6f676f2033222c2276616c7565223a6048820152606881018290526118b9606982018761157b565b9150506118cb8162089f4b60ea1b9052565b7f7b2274726169745f74797065223a20224c6f676f2034222c2276616c7565223a6003820152601160f91b6023820152611907602482016116ff565b7f227d5d7d000000000000000000000000000000000000000000000000000000008152600401979650505050505050565b7f7b226e616d65223a22506f6c6b61646f74204275696c6465727320230000000081526000865161197081601c850160208b01610f8c565b7f222c200000000000000000000000000000000000000000000000000000000000601c918401918201527f226465736372697074696f6e223a2254686973206973206d7920646573637269601f8201527f7074696f6e222c20000000000000000000000000000000000000000000000000603f8201527f22696d616765223a20220000000000000000000000000000000000000000000060478201528651611a1f816051840160208b01610f8c565b601160f91b605192909101918201528551611a41816052840160208a01610f8c565b8551910190611a57816052840160208901610f8c565b611a666052828401018661157b565b9998505050505050505050565b7f646174613a6170706c69636174696f6e2f6a736f6e3b6261736536342c000000815260008251611aab81601d850160208701610f8c565b91909101601d0192915050565b681e33903334b6361e9160b91b815260008951611adc816009850160208e01610f8c565b7f223e3c7061746820643d224d3132382e333533203133372e3031563234382e376009918401918201527f3738483234372e363034563130322e3638384c3132382e333533203133372e3060298201527f315a22202f3e3c7061746820643d224d3235372e3137203235382e333535563460498201527f30352e3334334c3235382e333235203430342e3836433236332e31313620343060698201527f322e383538203337352e353934203335342e383532203337352e35393420323760898201527f312e373938563235382e333733483235372e3137563235382e3335355a22202f60a98201527f3e3c2f673e00000000000000000000000000000000000000000000000000000060c9820152611c0260ce8201681e33903334b6361e9160b91b9052565b611c0f60d782018b61157b565b61111f60f11b81529050611c2f611c29600283018b61157b565b8961157b565b631e17b39f60e11b81529050681e33903334b6361e9160b91b6004820152611d44611c5d600d83018961157b565b7f223e3c7061746820643d224d3132382e333533203235382e333535563237312e81527f373831433132382e333533203335342e373438203234302e383438203430322e60208201527f383431203234352e3634203430342e38364c3234372e363034203430352e363860408201527f38563235382e333535483132382e3335335a22202f3e3c7061746820643d224d60608201527f3337352e363131203133372e30314c3235372e3137203130322e39313256323460808201527f382e373738483337352e363131563133372e30315a22202f3e3c2f673e00000060a082015260bd0190565b681e33903334b6361e9160b91b81529050611d62600982018761157b565b61111f60f11b81529050611d7c6116ff600283018761157b565b631e17b39f60e11b81526004019b9a5050505050505050505050565b7f3c7061746820643d224d3238342e3836372038382e36323432483236352e393981527f35563132362e333938483238342e3836375638382e363234325a222066696c6c60208201527f3d227768697465222f3e3c7061746820643d224d3330332e37342038382e363260408201527f3432483238342e383637563132372e343835483330332e37345638382e36323460608201527f325a222066696c6c3d2223323331463230222f3e3c7061746820643d224d323160808201527f392e3738372038392e32313039483230312e323234563132362e33383148323160a08201527f392e3738375638392e323130395a222066696c6c3d227768697465222f3e3c7060c08201527f61746820643d224d3233392e3535362038382e33383236483231392e3830345660e08201527f3132382e353033483233392e3535365638382e333832365a222066696c6c3d226101008201527f23323331463230222f3e000000000000000000000000000000000000000000006101208201527f3c706174682066696c6c3d22000000000000000000000000000000000000000061012a820152600061121a611f4d61013684018561157b565b7f2220643d224d3235372e3033322037392e383735335639382e3536333748323481527f372e3732355637392e38373533483139322e3030335639382e3536333748313560208201527f342e373735563132392e3431384c3136332e3931203132362e3739355631303760408201527f2e373039483139322e303033563133352e363634483234372e3732355631303760608201527f2e373039483235372e303332563133352e363634483331322e3735345637392e60808201527f38373533483235372e3033325a4d3233382e333636203132362e33393848323060a08201527f312e3234315638392e32323832483233382e333636563132362e3339385a4d3360c08201527f30332e333935203132362e333938483236362e32375638392e3232383248333060e08201527f332e333935563132362e3339385a222f3e0000000000000000000000000000006101008201526101110190565b7f3c7376672077696474683d2235303022206865696768743d223530302220766981527f6577426f783d223020302035303020353030222066696c6c3d226e6f6e65222060208201527f786d6c6e733d22687474703a2f2f7777772e77332e6f72672f323030302f737660408201527f67223e000000000000000000000000000000000000000000000000000000000060608201527f3c7061746820643d224d353030203048305635303048353030222066696c6c3d6063820152601160f91b608382015260008851612182816084850160208d01610f8c565b7f22202f3e0000000000000000000000000000000000000000000000000000000060849184019182015288516121bf816088840160208d01610f8c565b6121f26121ec6121e66121e06121da6088868801018e61157b565b8c61157b565b8a61157b565b8861157b565b8661157b565b91505061221e817f3c2f7376673e00000000000000000000000000000000000000000000000000009052565b6006019998505050505050505050565b7f646174613a696d6167652f7376672b786d6c3b6261736536342c00000000000081526000825161226681601a850160208701610f8c565b91909101601a0192915050565b634e487b7160e01b600052601160045260246000fd5b8082018082111561081757610817612273565b6000826122b957634e487b7160e01b600052601260045260246000fd5b500490565b80820281158282048414176108175761081761227356fe4142434445464748494a4b4c4d4e4f505152535455565758595a6162636465666768696a6b6c6d6e6f707172737475767778797a303132333435363738392b2fa2646970667358221220202f75fe342bf5beb714c293c2350ab245dff3a4a9fd3fac711d098a36cc704d64736f6c63430008110033",
  "libraries": {
    "PBTokenDna": "0xe7f1725E7734CE288F8367e1Bb143E90bb3F0512"
  },
  "devdoc": {
    "kind": "dev",
    "methods": {},
    "version": 1
  },
  "userdoc": {
    "kind": "user",
    "methods": {},
    "version": 1
  },
  "storageLayout": {
    "storage": [],
    "types": null
  }
}