{
  "_format": "hh-sol-artifact-1",
  "contractName": "Crest",
  "sourceName": "contracts/Crest.sol",
  "abi": [
    {
      "inputs": [
        {
          "internalType": "address",
          "name": "_store",
          "type": "address"
        },
        {
          "internalType": "address",
          "name": "_auctionHouse",
          "type": "address"
        },
        {
          "internalType": "address",
          "name": "_founders",
          "type": "address"
        }
      ],
      "stateMutability": "nonpayable",
      "type": "constructor"
    },
    {
      "anonymous": false,
      "inputs": [
        {
          "indexed": true,
          "internalType": "address",
          "name": "owner",
          "type": "address"
        },
        {
          "indexed": true,
          "internalType": "address",
          "name": "approved",
          "type": "address"
        },
        {
          "indexed": true,
          "internalType": "uint256",
          "name": "tokenId",
          "type": "uint256"
        }
      ],
      "name": "Approval",
      "type": "event"
    },
    {
      "anonymous": false,
      "inputs": [
        {
          "indexed": true,
          "internalType": "address",
          "name": "owner",
          "type": "address"
        },
        {
          "indexed": true,
          "internalType": "address",
          "name": "operator",
          "type": "address"
        },
        {
          "indexed": false,
          "internalType": "bool",
          "name": "approved",
          "type": "bool"
        }
      ],
      "name": "ApprovalForAll",
      "type": "event"
    },
    {
      "anonymous": false,
      "inputs": [
        {
          "indexed": true,
          "internalType": "address",
          "name": "delegator",
          "type": "address"
        },
        {
          "indexed": true,
          "internalType": "address",
          "name": "fromDelegate",
          "type": "address"
        },
        {
          "indexed": true,
          "internalType": "address",
          "name": "toDelegate",
          "type": "address"
        }
      ],
      "name": "DelegateChanged",
      "type": "event"
    },
    {
      "anonymous": false,
      "inputs": [
        {
          "indexed": true,
          "internalType": "address",
          "name": "delegate",
          "type": "address"
        },
        {
          "indexed": false,
          "internalType": "uint256",
          "name": "previousBalance",
          "type": "uint256"
        },
        {
          "indexed": false,
          "internalType": "uint256",
          "name": "newBalance",
          "type": "uint256"
        }
      ],
      "name": "DelegateVotesChanged",
      "type": "event"
    },
    {
      "anonymous": false,
      "inputs": [
        {
          "indexed": true,
          "internalType": "address",
          "name": "previousOwner",
          "type": "address"
        },
        {
          "indexed": true,
          "internalType": "address",
          "name": "newOwner",
          "type": "address"
        }
      ],
      "name": "OwnershipTransferred",
      "type": "event"
    },
    {
      "anonymous": false,
      "inputs": [
        {
          "indexed": true,
          "internalType": "address",
          "name": "from",
          "type": "address"
        },
        {
          "indexed": true,
          "internalType": "address",
          "name": "to",
          "type": "address"
        },
        {
          "indexed": true,
          "internalType": "uint256",
          "name": "tokenId",
          "type": "uint256"
        }
      ],
      "name": "Transfer",
      "type": "event"
    },
    {
      "inputs": [],
      "name": "DOMAIN_SEPARATOR",
      "outputs": [
        {
          "internalType": "bytes32",
          "name": "",
          "type": "bytes32"
        }
      ],
      "stateMutability": "view",
      "type": "function"
    },
    {
      "inputs": [
        {
          "internalType": "address",
          "name": "to",
          "type": "address"
        },
        {
          "internalType": "uint256",
          "name": "tokenId",
          "type": "uint256"
        }
      ],
      "name": "approve",
      "outputs": [],
      "stateMutability": "nonpayable",
      "type": "function"
    },
    {
      "inputs": [],
      "name": "auctionHouse",
      "outputs": [
        {
          "internalType": "address",
          "name": "",
          "type": "address"
        }
      ],
      "stateMutability": "view",
      "type": "function"
    },
    {
      "inputs": [
        {
          "internalType": "address",
          "name": "owner",
          "type": "address"
        }
      ],
      "name": "balanceOf",
      "outputs": [
        {
          "internalType": "uint256",
          "name": "",
          "type": "uint256"
        }
      ],
      "stateMutability": "view",
      "type": "function"
    },
    {
      "inputs": [
        {
          "internalType": "uint256",
          "name": "tokenId",
          "type": "uint256"
        }
      ],
      "name": "burn",
      "outputs": [],
      "stateMutability": "nonpayable",
      "type": "function"
    },
    {
      "inputs": [],
      "name": "contractURI",
      "outputs": [
        {
          "internalType": "string",
          "name": "",
          "type": "string"
        }
      ],
      "stateMutability": "view",
      "type": "function"
    },
    {
      "inputs": [
        {
          "internalType": "address",
          "name": "delegatee",
          "type": "address"
        }
      ],
      "name": "delegate",
      "outputs": [],
      "stateMutability": "nonpayable",
      "type": "function"
    },
    {
      "inputs": [
        {
          "internalType": "address",
          "name": "delegatee",
          "type": "address"
        },
        {
          "internalType": "uint256",
          "name": "nonce",
          "type": "uint256"
        },
        {
          "internalType": "uint256",
          "name": "expiry",
          "type": "uint256"
        },
        {
          "internalType": "uint8",
          "name": "v",
          "type": "uint8"
        },
        {
          "internalType": "bytes32",
          "name": "r",
          "type": "bytes32"
        },
        {
          "internalType": "bytes32",
          "name": "s",
          "type": "bytes32"
        }
      ],
      "name": "delegateBySig",
      "outputs": [],
      "stateMutability": "nonpayable",
      "type": "function"
    },
    {
      "inputs": [
        {
          "internalType": "address",
          "name": "account",
          "type": "address"
        }
      ],
      "name": "delegates",
      "outputs": [
        {
          "internalType": "address",
          "name": "",
          "type": "address"
        }
      ],
      "stateMutability": "view",
      "type": "function"
    },
    {
      "inputs": [
        {
          "internalType": "uint256",
          "name": "",
          "type": "uint256"
        }
      ],
      "name": "dnaMap",
      "outputs": [
        {
          "internalType": "uint96",
          "name": "",
          "type": "uint96"
        }
      ],
      "stateMutability": "view",
      "type": "function"
    },
    {
      "inputs": [],
      "name": "founders",
      "outputs": [
        {
          "internalType": "address",
          "name": "",
          "type": "address"
        }
      ],
      "stateMutability": "view",
      "type": "function"
    },
    {
      "inputs": [
        {
          "internalType": "uint256",
          "name": "tokenId",
          "type": "uint256"
        }
      ],
      "name": "getApproved",
      "outputs": [
        {
          "internalType": "address",
          "name": "",
          "type": "address"
        }
      ],
      "stateMutability": "view",
      "type": "function"
    },
    {
      "inputs": [
        {
          "internalType": "uint256",
          "name": "blockNumber",
          "type": "uint256"
        }
      ],
      "name": "getPastTotalSupply",
      "outputs": [
        {
          "internalType": "uint256",
          "name": "",
          "type": "uint256"
        }
      ],
      "stateMutability": "view",
      "type": "function"
    },
    {
      "inputs": [
        {
          "internalType": "address",
          "name": "account",
          "type": "address"
        },
        {
          "internalType": "uint256",
          "name": "blockNumber",
          "type": "uint256"
        }
      ],
      "name": "getPastVotes",
      "outputs": [
        {
          "internalType": "uint256",
          "name": "",
          "type": "uint256"
        }
      ],
      "stateMutability": "view",
      "type": "function"
    },
    {
      "inputs": [
        {
          "internalType": "address",
          "name": "account",
          "type": "address"
        }
      ],
      "name": "getVotes",
      "outputs": [
        {
          "internalType": "uint256",
          "name": "",
          "type": "uint256"
        }
      ],
      "stateMutability": "view",
      "type": "function"
    },
    {
      "inputs": [
        {
          "internalType": "address",
          "name": "owner",
          "type": "address"
        },
        {
          "internalType": "address",
          "name": "operator",
          "type": "address"
        }
      ],
      "name": "isApprovedForAll",
      "outputs": [
        {
          "internalType": "bool",
          "name": "",
          "type": "bool"
        }
      ],
      "stateMutability": "view",
      "type": "function"
    },
    {
      "inputs": [],
      "name": "mint",
      "outputs": [],
      "stateMutability": "nonpayable",
      "type": "function"
    },
    {
      "inputs": [
        {
          "internalType": "address",
          "name": "to",
          "type": "address"
        },
        {
          "internalType": "uint96",
          "name": "dna",
          "type": "uint96"
        }
      ],
      "name": "mintSpecific",
      "outputs": [],
      "stateMutability": "nonpayable",
      "type": "function"
    },
    {
      "inputs": [],
      "name": "name",
      "outputs": [
        {
          "internalType": "string",
          "name": "",
          "type": "string"
        }
      ],
      "stateMutability": "view",
      "type": "function"
    },
    {
      "inputs": [
        {
          "internalType": "address",
          "name": "owner",
          "type": "address"
        }
      ],
      "name": "nonces",
      "outputs": [
        {
          "internalType": "uint256",
          "name": "",
          "type": "uint256"
        }
      ],
      "stateMutability": "view",
      "type": "function"
    },
    {
      "inputs": [],
      "name": "owner",
      "outputs": [
        {
          "internalType": "address",
          "name": "",
          "type": "address"
        }
      ],
      "stateMutability": "view",
      "type": "function"
    },
    {
      "inputs": [
        {
          "internalType": "uint256",
          "name": "tokenId",
          "type": "uint256"
        }
      ],
      "name": "ownerOf",
      "outputs": [
        {
          "internalType": "address",
          "name": "",
          "type": "address"
        }
      ],
      "stateMutability": "view",
      "type": "function"
    },
    {
      "inputs": [],
      "name": "renounceOwnership",
      "outputs": [],
      "stateMutability": "nonpayable",
      "type": "function"
    },
    {
      "inputs": [
        {
          "internalType": "address",
          "name": "from",
          "type": "address"
        },
        {
          "internalType": "address",
          "name": "to",
          "type": "address"
        },
        {
          "internalType": "uint256",
          "name": "tokenId",
          "type": "uint256"
        }
      ],
      "name": "safeTransferFrom",
      "outputs": [],
      "stateMutability": "nonpayable",
      "type": "function"
    },
    {
      "inputs": [
        {
          "internalType": "address",
          "name": "from",
          "type": "address"
        },
        {
          "internalType": "address",
          "name": "to",
          "type": "address"
        },
        {
          "internalType": "uint256",
          "name": "tokenId",
          "type": "uint256"
        },
        {
          "internalType": "bytes",
          "name": "data",
          "type": "bytes"
        }
      ],
      "name": "safeTransferFrom",
      "outputs": [],
      "stateMutability": "nonpayable",
      "type": "function"
    },
    {
      "inputs": [
        {
          "internalType": "address",
          "name": "operator",
          "type": "address"
        },
        {
          "internalType": "bool",
          "name": "approved",
          "type": "bool"
        }
      ],
      "name": "setApprovalForAll",
      "outputs": [],
      "stateMutability": "nonpayable",
      "type": "function"
    },
    {
      "inputs": [
        {
          "internalType": "address",
          "name": "_auctionHouse",
          "type": "address"
        }
      ],
      "name": "setAuctionHouse",
      "outputs": [],
      "stateMutability": "nonpayable",
      "type": "function"
    },
    {
      "inputs": [
        {
          "internalType": "string",
          "name": "_uri",
          "type": "string"
        }
      ],
      "name": "setContractURI",
      "outputs": [],
      "stateMutability": "nonpayable",
      "type": "function"
    },
    {
      "inputs": [
        {
          "internalType": "address",
          "name": "_founders",
          "type": "address"
        }
      ],
      "name": "setFounders",
      "outputs": [],
      "stateMutability": "nonpayable",
      "type": "function"
    },
    {
      "inputs": [],
      "name": "store",
      "outputs": [
        {
          "internalType": "address",
          "name": "",
          "type": "address"
        }
      ],
      "stateMutability": "view",
      "type": "function"
    },
    {
      "inputs": [
        {
          "internalType": "bytes4",
          "name": "interfaceId",
          "type": "bytes4"
        }
      ],
      "name": "supportsInterface",
      "outputs": [
        {
          "internalType": "bool",
          "name": "",
          "type": "bool"
        }
      ],
      "stateMutability": "view",
      "type": "function"
    },
    {
      "inputs": [],
      "name": "symbol",
      "outputs": [
        {
          "internalType": "string",
          "name": "",
          "type": "string"
        }
      ],
      "stateMutability": "view",
      "type": "function"
    },
    {
      "inputs": [
        {
          "internalType": "uint256",
          "name": "index",
          "type": "uint256"
        }
      ],
      "name": "tokenByIndex",
      "outputs": [
        {
          "internalType": "uint256",
          "name": "",
          "type": "uint256"
        }
      ],
      "stateMutability": "view",
      "type": "function"
    },
    {
      "inputs": [
        {
          "internalType": "address",
          "name": "owner",
          "type": "address"
        },
        {
          "internalType": "uint256",
          "name": "index",
          "type": "uint256"
        }
      ],
      "name": "tokenOfOwnerByIndex",
      "outputs": [
        {
          "internalType": "uint256",
          "name": "",
          "type": "uint256"
        }
      ],
      "stateMutability": "view",
      "type": "function"
    },
    {
      "inputs": [
        {
          "internalType": "uint256",
          "name": "tokenId",
          "type": "uint256"
        }
      ],
      "name": "tokenURI",
      "outputs": [
        {
          "internalType": "string",
          "name": "",
          "type": "string"
        }
      ],
      "stateMutability": "view",
      "type": "function"
    },
    {
      "inputs": [],
      "name": "totalSupply",
      "outputs": [
        {
          "internalType": "uint256",
          "name": "",
          "type": "uint256"
        }
      ],
      "stateMutability": "view",
      "type": "function"
    },
    {
      "inputs": [
        {
          "internalType": "address",
          "name": "from",
          "type": "address"
        },
        {
          "internalType": "address",
          "name": "to",
          "type": "address"
        },
        {
          "internalType": "uint256",
          "name": "tokenId",
          "type": "uint256"
        }
      ],
      "name": "transferFrom",
      "outputs": [],
      "stateMutability": "nonpayable",
      "type": "function"
    },
    {
      "inputs": [
        {
          "internalType": "address",
          "name": "newOwner",
          "type": "address"
        }
      ],
      "name": "transferOwnership",
      "outputs": [],
      "stateMutability": "nonpayable",
      "type": "function"
    }
  ],
  "bytecode": "0x6101a0604052603f6101408181529062003c3461016039601490620000259082620002d4565b503480156200003357600080fd5b5060405162003c7338038062003c738339810160408190526200005691620003bd565b60408051808201825260168082527f506f6c6b61646f74204275696c6465722043726573740000000000000000000060208084018290528451808601865260018152603160f81b8183015285518087018752938452838201929092528451808601909552600385526250424360e81b9085015291926000620000d98382620002d4565b506001620000e88282620002d4565b50505062000105620000ff620001d960201b60201c565b620001dd565b815160208084019190912082518383012060e08290526101008190524660a0818152604080517f8b73c3c69bb8fe3d512ecc4cf759cc79239f7b179b0ffacaa9a75d522b39400f81880181905281830187905260608201869052608082019490945230818401528151808203909301835260c00190528051940193909320919290916080523060c052610120525050601080546001600160a01b039687166001600160a01b031991821617909155601180549587169582169590951790945550506012805491909316911617905562000407565b3390565b600a80546001600160a01b038381166001600160a01b0319831681179093556040519116919082907f8be0079c531659141344cd1fd0a4f28419497f9722a3daafe3b4186f6b6457e090600090a35050565b634e487b7160e01b600052604160045260246000fd5b600181811c908216806200025a57607f821691505b6020821081036200027b57634e487b7160e01b600052602260045260246000fd5b50919050565b601f821115620002cf57600081815260208120601f850160051c81016020861015620002aa5750805b601f850160051c820191505b81811015620002cb57828155600101620002b6565b5050505b505050565b81516001600160401b03811115620002f057620002f06200022f565b620003088162000301845462000245565b8462000281565b602080601f831160018114620003405760008415620003275750858301515b600019600386901b1c1916600185901b178555620002cb565b600085815260208120601f198616915b82811015620003715788860151825594840194600190910190840162000350565b5085821015620003905787850151600019600388901b60f8161c191681555b5050505050600190811b01905550565b80516001600160a01b0381168114620003b857600080fd5b919050565b600080600060608486031215620003d357600080fd5b620003de84620003a0565b9250620003ee60208501620003a0565b9150620003fe60408501620003a0565b90509250925092565b60805160a05160c05160e05161010051610120516137dd6200045760003960006117cd0152600061181c015260006117f7015260006117500152600061177a015260006117a401526137dd6000f3fe608060405234801561001057600080fd5b50600436106102925760003560e01c80636922a963116101605780639ab24eb0116100d8578063e76d89521161008c578063e985e9c511610071578063e985e9c514610578578063ed9152c8146105b4578063f2fde38b146105c757600080fd5b8063e76d89521461055d578063e8a3d4851461057057600080fd5b8063b88d4fde116100bd578063b88d4fde14610524578063c3cda52014610537578063c87b56dd1461054a57600080fd5b80639ab24eb0146104fe578063a22cb4651461051157600080fd5b80638da5cb5b1161012f578063938e3d7b11610114578063938e3d7b146104d057806395d89b41146104e3578063975057e7146104eb57600080fd5b80638da5cb5b146104ac5780638e539e8c146104bd57600080fd5b80636922a9631461043357806370a082311461047e578063715018a6146104915780637ecebe001461049957600080fd5b80632f745c591161020e57806342966c68116101c2578063587cde1e116101a7578063587cde1e146103e15780635c19a95c1461040d5780636352211e1461042057600080fd5b806342966c68146103bb5780634f6ccce7146103ce57600080fd5b80633a46b1a8116101f35780633a46b1a814610382578063411b007e1461039557806342842e0e146103a857600080fd5b80632f745c59146103675780633644e5151461037a57600080fd5b80630b6b7eab1161026557806318160ddd1161024a57806318160ddd1461032f578063201afd831461034157806323b872dd1461035457600080fd5b80630b6b7eab146103145780631249c58b1461032757600080fd5b806301ffc9a71461029757806306fdde03146102bf578063081812fc146102d4578063095ea7b3146102ff575b600080fd5b6102aa6102a5366004613014565b6105da565b60405190151581526020015b60405180910390f35b6102c76105eb565b6040516102b69190613081565b6102e76102e2366004613094565b61067d565b6040516001600160a01b0390911681526020016102b6565b61031261030d3660046130c9565b6106a4565b005b61031261032236600461310d565b6107da565b61031261084b565b6008545b6040519081526020016102b6565b61031261034f366004613144565b610925565b61031261036236600461315f565b610967565b6103336103753660046130c9565b6109ef565b610333610a97565b6103336103903660046130c9565b610aa6565b6012546102e7906001600160a01b031681565b6103126103b636600461315f565b610acf565b6103126103c9366004613094565b610aea565b6103336103dc366004613094565b610af3565b6102e76103ef366004613144565b6001600160a01b039081166000908152600b60205260409020541690565b61031261041b366004613144565b610b97565b6102e761042e366004613094565b610ba6565b610461610441366004613094565b6013602052600090815260409020546bffffffffffffffffffffffff1681565b6040516bffffffffffffffffffffffff90911681526020016102b6565b61033361048c366004613144565b610c0b565b610312610ca5565b6103336104a7366004613144565b610cb9565b600a546001600160a01b03166102e7565b6103336104cb366004613094565b610cd7565b6103126104de366004613261565b610d33565b6102c7610d47565b6010546102e7906001600160a01b031681565b61033361050c366004613144565b610d56565b61031261051f3660046132aa565b610d9b565b6103126105323660046132db565b610da6565b610312610545366004613357565b610e34565b6102c7610558366004613094565b610f6a565b61031261056b366004613144565b611098565b6102c76110da565b6102aa6105863660046133b7565b6001600160a01b03918216600090815260056020908152604080832093909416825291909152205460ff1690565b6011546102e7906001600160a01b031681565b6103126105d5366004613144565b6110e9565b60006105e582611176565b92915050565b6060600080546105fa906133ea565b80601f0160208091040260200160405190810160405280929190818152602001828054610626906133ea565b80156106735780601f1061064857610100808354040283529160200191610673565b820191906000526020600020905b81548152906001019060200180831161065657829003601f168201915b5050505050905090565b6000610688826111cc565b506000908152600460205260409020546001600160a01b031690565b60006106af82610ba6565b9050806001600160a01b0316836001600160a01b03160361073d5760405162461bcd60e51b815260206004820152602160248201527f4552433732313a20617070726f76616c20746f2063757272656e74206f776e6560448201527f720000000000000000000000000000000000000000000000000000000000000060648201526084015b60405180910390fd5b336001600160a01b038216148061075957506107598133610586565b6107cb5760405162461bcd60e51b815260206004820152603d60248201527f4552433732313a20617070726f76652063616c6c6572206973206e6f7420746f60448201527f6b656e206f776e6572206f7220617070726f76656420666f7220616c6c0000006064820152608401610734565b6107d58383611230565b505050565b6107e26112b6565b6107f0600f80546001019055565b60006107fb600f5490565b600081815260136020526040902080547fffffffffffffffffffffffffffffffffffffffff000000000000000000000000166bffffffffffffffffffffffff851617905590506107d58382611310565b6011546001600160a01b031633146108ca5760405162461bcd60e51b8152602060048201526024808201527f4f6e6c792061756374696f6e20686f75736520636f6e74726163742063616e2060448201527f6d696e74000000000000000000000000000000000000000000000000000000006064820152608401610734565b60006108d5600f5490565b90506107d081111580156108f357506108ef600a82613466565b6009145b1561090d5760125461090d906001600160a01b031661132a565b601154610922906001600160a01b031661132a565b50565b61092d6112b6565b601280547fffffffffffffffffffffffff0000000000000000000000000000000000000000166001600160a01b0392909216919091179055565b610972335b82611450565b6109e45760405162461bcd60e51b815260206004820152602d60248201527f4552433732313a2063616c6c6572206973206e6f7420746f6b656e206f776e6560448201527f72206f7220617070726f766564000000000000000000000000000000000000006064820152608401610734565b6107d58383836114cf565b60006109fa83610c0b565b8210610a6e5760405162461bcd60e51b815260206004820152602b60248201527f455243373231456e756d657261626c653a206f776e657220696e646578206f7560448201527f74206f6620626f756e64730000000000000000000000000000000000000000006064820152608401610734565b506001600160a01b03919091166000908152600660209081526040808320938352929052205490565b6000610aa1611743565b905090565b6001600160a01b0382166000908152600c60205260408120610ac8908361186a565b9392505050565b6107d583838360405180602001604052806000815250610da6565b610922816119b0565b6000610afe60085490565b8210610b725760405162461bcd60e51b815260206004820152602c60248201527f455243373231456e756d657261626c653a20676c6f62616c20696e646578206f60448201527f7574206f6620626f756e647300000000000000000000000000000000000000006064820152608401610734565b60088281548110610b8557610b8561347a565b90600052602060002001549050919050565b33610ba28183611a34565b5050565b6000818152600260205260408120546001600160a01b0316806105e55760405162461bcd60e51b815260206004820152601860248201527f4552433732313a20696e76616c696420746f6b656e20494400000000000000006044820152606401610734565b60006001600160a01b038216610c895760405162461bcd60e51b815260206004820152602960248201527f4552433732313a2061646472657373207a65726f206973206e6f74206120766160448201527f6c6964206f776e657200000000000000000000000000000000000000000000006064820152608401610734565b506001600160a01b031660009081526003602052604090205490565b610cad6112b6565b610cb76000611abe565b565b6001600160a01b0381166000908152600e60205260408120546105e5565b6000438210610d285760405162461bcd60e51b815260206004820152601a60248201527f566f7465733a20626c6f636b206e6f7420796574206d696e65640000000000006044820152606401610734565b6105e5600d8361186a565b610d3b6112b6565b6014610ba282826134f7565b6060600180546105fa906133ea565b6001600160a01b0381166000908152600c60205260408120610d7790611b28565b7bffffffffffffffffffffffffffffffffffffffffffffffffffffffff1692915050565b610ba2338383611b77565b610db03383611450565b610e225760405162461bcd60e51b815260206004820152602d60248201527f4552433732313a2063616c6c6572206973206e6f7420746f6b656e206f776e6560448201527f72206f7220617070726f766564000000000000000000000000000000000000006064820152608401610734565b610e2e84848484611c63565b50505050565b83421115610e845760405162461bcd60e51b815260206004820152601860248201527f566f7465733a207369676e6174757265206578706972656400000000000000006044820152606401610734565b604080517fe48329057bfd03d55e49b547132e39cffd9c1820ad7b9d4c5307691425d15adf60208201526001600160a01b038816918101919091526060810186905260808101859052600090610efe90610ef69060a00160405160208183030381529060405280519060200120611cec565b858585611d55565b9050610f0981611d7d565b8614610f575760405162461bcd60e51b815260206004820152601460248201527f566f7465733a20696e76616c6964206e6f6e63650000000000000000000000006044820152606401610734565b610f618188611a34565b50505050505050565b6000818152600260205260409020546060906001600160a01b0316610fd15760405162461bcd60e51b815260206004820152601860248201527f5468697320746f6b656e20646f65736e277420657869737400000000000000006044820152606401610734565b601054600083815260136020526040908190205490517fc9bd208e0000000000000000000000000000000000000000000000000000000081526001600160a01b039092166004830152602482018490526bffffffffffffffffffffffff16604482015273__$bcc4309e5b1c034de65883751e71831340$__9063c9bd208e90606401600060405180830381865af4158015611070573d6000803e3d6000fd5b505050506040513d6000823e601f3d908101601f191682016040526105e591908101906135f3565b6110a06112b6565b601180547fffffffffffffffffffffffff0000000000000000000000000000000000000000166001600160a01b0392909216919091179055565b6060601480546105fa906133ea565b6110f16112b6565b6001600160a01b03811661116d5760405162461bcd60e51b815260206004820152602660248201527f4f776e61626c653a206e6577206f776e657220697320746865207a65726f206160448201527f64647265737300000000000000000000000000000000000000000000000000006064820152608401610734565b61092281611abe565b60007fffffffff0000000000000000000000000000000000000000000000000000000082167f780e9d630000000000000000000000000000000000000000000000000000000014806105e557506105e582611da5565b6000818152600260205260409020546001600160a01b03166109225760405162461bcd60e51b815260206004820152601860248201527f4552433732313a20696e76616c696420746f6b656e20494400000000000000006044820152606401610734565b600081815260046020526040902080547fffffffffffffffffffffffff0000000000000000000000000000000000000000166001600160a01b038416908117909155819061127d82610ba6565b6001600160a01b03167f8c5be1e5ebec7d5bd14f71427d1e84f3dd0314c0f7b2291e5b200ac8c7c3b92560405160405180910390a45050565b600a546001600160a01b03163314610cb75760405162461bcd60e51b815260206004820181905260248201527f4f776e61626c653a2063616c6c6572206973206e6f7420746865206f776e65726044820152606401610734565b610ba2828260405180602001604052806000815250611e88565b611338600f80546001019055565b6000611343600f5490565b60105490915073__$edc2690de7d32395d8b4c2b49ad9aafb7e$__9063aaa5b4d3906001600160a01b03166113788442613699565b6040517fffffffff0000000000000000000000000000000000000000000000000000000060e085901b1681526001600160a01b0390921660048301526024820152604401602060405180830381865af41580156113d9573d6000803e3d6000fd5b505050506040513d601f19601f820116820180604052508101906113fd91906136ac565b600082815260136020526040902080547fffffffffffffffffffffffffffffffffffffffff000000000000000000000000166bffffffffffffffffffffffff92909216919091179055610ba28282611310565b60008061145c83610ba6565b9050806001600160a01b0316846001600160a01b031614806114a357506001600160a01b0380821660009081526005602090815260408083209388168352929052205460ff165b806114c75750836001600160a01b03166114bc8461067d565b6001600160a01b0316145b949350505050565b826001600160a01b03166114e282610ba6565b6001600160a01b03161461155e5760405162461bcd60e51b815260206004820152602560248201527f4552433732313a207472616e736665722066726f6d20696e636f72726563742060448201527f6f776e65720000000000000000000000000000000000000000000000000000006064820152608401610734565b6001600160a01b0382166115d95760405162461bcd60e51b8152602060048201526024808201527f4552433732313a207472616e7366657220746f20746865207a65726f2061646460448201527f72657373000000000000000000000000000000000000000000000000000000006064820152608401610734565b6115e68383836001611f11565b826001600160a01b03166115f982610ba6565b6001600160a01b0316146116755760405162461bcd60e51b815260206004820152602560248201527f4552433732313a207472616e736665722066726f6d20696e636f72726563742060448201527f6f776e65720000000000000000000000000000000000000000000000000000006064820152608401610734565b600081815260046020908152604080832080547fffffffffffffffffffffffff00000000000000000000000000000000000000009081169091556001600160a01b038781168086526003855283862080547fffffffffffffffffffffffffffffffffffffffffffffffffffffffffffffffff01905590871680865283862080546001019055868652600290945282852080549092168417909155905184937fddf252ad1be2c89b69c2b068fc378daa952ba7f163c4a11628f55a4df523b3ef91a46107d58383836001611f1d565b6000306001600160a01b037f00000000000000000000000000000000000000000000000000000000000000001614801561179c57507f000000000000000000000000000000000000000000000000000000000000000046145b156117c657507f000000000000000000000000000000000000000000000000000000000000000090565b50604080517f00000000000000000000000000000000000000000000000000000000000000006020808301919091527f0000000000000000000000000000000000000000000000000000000000000000828401527f000000000000000000000000000000000000000000000000000000000000000060608301524660808301523060a0808401919091528351808403909101815260c0909201909252805191012090565b60004382106118bb5760405162461bcd60e51b815260206004820181905260248201527f436865636b706f696e74733a20626c6f636b206e6f7420796574206d696e65646044820152606401610734565b60006118c683611f29565b845490915060008160058111156119245760006118e284611fa9565b6118ec90856136c9565b60008981526020902090915081015463ffffffff908116908616101561191457809150611922565b61191f816001613699565b92505b505b600061193288868585612091565b9050801561198357611957886119496001846136c9565b600091825260209091200190565b5464010000000090047bffffffffffffffffffffffffffffffffffffffffffffffffffffffff16611986565b60005b7bffffffffffffffffffffffffffffffffffffffffffffffffffffffff1698975050505050505050565b6119b93361096c565b611a2b5760405162461bcd60e51b815260206004820152602d60248201527f4552433732313a2063616c6c6572206973206e6f7420746f6b656e206f776e6560448201527f72206f7220617070726f766564000000000000000000000000000000000000006064820152608401610734565b610922816120ef565b6001600160a01b038281166000818152600b602052604080822080548686167fffffffffffffffffffffffff0000000000000000000000000000000000000000821681179092559151919094169392849290917f3134e8a2e6d97e929a7e54011ea5485d7d196dd5f0ba4d4ef95803e8e3fc257f9190a46107d58183611ab9866121d2565b6121dd565b600a80546001600160a01b038381167fffffffffffffffffffffffff0000000000000000000000000000000000000000831681179093556040519116919082907f8be0079c531659141344cd1fd0a4f28419497f9722a3daafe3b4186f6b6457e090600090a35050565b80546000908015611b6e57611b42836119496001846136c9565b5464010000000090047bffffffffffffffffffffffffffffffffffffffffffffffffffffffff16610ac8565b60009392505050565b816001600160a01b0316836001600160a01b031603611bd85760405162461bcd60e51b815260206004820152601960248201527f4552433732313a20617070726f766520746f2063616c6c6572000000000000006044820152606401610734565b6001600160a01b0383811660008181526005602090815260408083209487168084529482529182902080547fffffffffffffffffffffffffffffffffffffffffffffffffffffffffffffff001686151590811790915591519182527f17307eab39ab6107e8899845ad3d59bd9653f200f220920489ca2b5937696c31910160405180910390a3505050565b611c6e8484846114cf565b611c7a8484848461231a565b610e2e5760405162461bcd60e51b815260206004820152603260248201527f4552433732313a207472616e7366657220746f206e6f6e20455243373231526560448201527f63656976657220696d706c656d656e74657200000000000000000000000000006064820152608401610734565b60006105e5611cf9611743565b836040517f19010000000000000000000000000000000000000000000000000000000000006020820152602281018390526042810182905260009060620160405160208183030381529060405280519060200120905092915050565b6000806000611d66878787876124b8565b91509150611d738161257c565b5095945050505050565b6001600160a01b0381166000908152600e602052604090208054600181018255905b50919050565b60007fffffffff0000000000000000000000000000000000000000000000000000000082167f80ac58cd000000000000000000000000000000000000000000000000000000001480611e3857507fffffffff0000000000000000000000000000000000000000000000000000000082167f5b5e139f00000000000000000000000000000000000000000000000000000000145b806105e557507f01ffc9a7000000000000000000000000000000000000000000000000000000007fffffffff000000000000000000000000000000000000000000000000000000008316146105e5565b611e9283836126e1565b611e9f600084848461231a565b6107d55760405162461bcd60e51b815260206004820152603260248201527f4552433732313a207472616e7366657220746f206e6f6e20455243373231526560448201527f63656976657220696d706c656d656e74657200000000000000000000000000006064820152608401610734565b610e2e8484848461289c565b610e2e848484846129d8565b600063ffffffff821115611fa55760405162461bcd60e51b815260206004820152602660248201527f53616665436173743a2076616c756520646f65736e27742066697420696e203360448201527f32206269747300000000000000000000000000000000000000000000000000006064820152608401610734565b5090565b600081600003611fbb57506000919050565b60006001611fc8846129e8565b901c6001901b90506001818481611fe157611fe1613437565b048201901c90506001818481611ff957611ff9613437565b048201901c9050600181848161201157612011613437565b048201901c9050600181848161202957612029613437565b048201901c9050600181848161204157612041613437565b048201901c9050600181848161205957612059613437565b048201901c9050600181848161207157612071613437565b048201901c9050610ac88182858161208b5761208b613437565b04612a7c565b60005b818310156120e75760006120a88484612a92565b60008781526020902090915063ffffffff86169082015463ffffffff1611156120d3578092506120e1565b6120de816001613699565b93505b50612094565b509392505050565b60006120fa82610ba6565b905061210a816000846001611f11565b61211382610ba6565b600083815260046020908152604080832080547fffffffffffffffffffffffff00000000000000000000000000000000000000009081169091556001600160a01b0385168085526003845282852080547fffffffffffffffffffffffffffffffffffffffffffffffffffffffffffffffff0190558785526002909352818420805490911690555192935084927fddf252ad1be2c89b69c2b068fc378daa952ba7f163c4a11628f55a4df523b3ef908390a4610ba2816000846001611f1d565b60006105e582610c0b565b816001600160a01b0316836001600160a01b0316141580156121ff5750600081115b156107d5576001600160a01b0383161561228d576001600160a01b0383166000908152600c60205260408120819061223a90612aad85612ab9565b91509150846001600160a01b03167fdec2bacdd2f05b59de34da9b523dff8be42e5e38e818c82fdb0bae774387a7248383604051612282929190918252602082015260400190565b60405180910390a250505b6001600160a01b038216156107d5576001600160a01b0382166000908152600c6020526040812081906122c390612b0685612ab9565b91509150836001600160a01b03167fdec2bacdd2f05b59de34da9b523dff8be42e5e38e818c82fdb0bae774387a724838360405161230b929190918252602082015260400190565b60405180910390a25050505050565b60006001600160a01b0384163b156124b0576040517f150b7a020000000000000000000000000000000000000000000000000000000081526001600160a01b0385169063150b7a02906123779033908990889088906004016136dc565b6020604051808303816000875af19250505080156123b2575060408051601f3d908101601f191682019092526123af91810190613718565b60015b612465573d8080156123e0576040519150601f19603f3d011682016040523d82523d6000602084013e6123e5565b606091505b50805160000361245d5760405162461bcd60e51b815260206004820152603260248201527f4552433732313a207472616e7366657220746f206e6f6e20455243373231526560448201527f63656976657220696d706c656d656e74657200000000000000000000000000006064820152608401610734565b805181602001fd5b7fffffffff00000000000000000000000000000000000000000000000000000000167f150b7a02000000000000000000000000000000000000000000000000000000001490506114c7565b5060016114c7565b6000807f7fffffffffffffffffffffffffffffff5d576e7357a4501ddfe92f46681b20a08311156124ef5750600090506003612573565b6040805160008082526020820180845289905260ff881692820192909252606081018690526080810185905260019060a0016020604051602081039080840390855afa158015612543573d6000803e3d6000fd5b5050604051601f1901519150506001600160a01b03811661256c57600060019250925050612573565b9150600090505b94509492505050565b600081600481111561259057612590613735565b036125985750565b60018160048111156125ac576125ac613735565b036125f95760405162461bcd60e51b815260206004820152601860248201527f45434453413a20696e76616c6964207369676e617475726500000000000000006044820152606401610734565b600281600481111561260d5761260d613735565b0361265a5760405162461bcd60e51b815260206004820152601f60248201527f45434453413a20696e76616c6964207369676e6174757265206c656e677468006044820152606401610734565b600381600481111561266e5761266e613735565b036109225760405162461bcd60e51b815260206004820152602260248201527f45434453413a20696e76616c6964207369676e6174757265202773272076616c60448201527f75650000000000000000000000000000000000000000000000000000000000006064820152608401610734565b6001600160a01b0382166127375760405162461bcd60e51b815260206004820181905260248201527f4552433732313a206d696e7420746f20746865207a65726f20616464726573736044820152606401610734565b6000818152600260205260409020546001600160a01b03161561279c5760405162461bcd60e51b815260206004820152601c60248201527f4552433732313a20746f6b656e20616c7265616479206d696e746564000000006044820152606401610734565b6127aa600083836001611f11565b6000818152600260205260409020546001600160a01b03161561280f5760405162461bcd60e51b815260206004820152601c60248201527f4552433732313a20746f6b656e20616c7265616479206d696e746564000000006044820152606401610734565b6001600160a01b038216600081815260036020908152604080832080546001019055848352600290915280822080547fffffffffffffffffffffffff0000000000000000000000000000000000000000168417905551839291907fddf252ad1be2c89b69c2b068fc378daa952ba7f163c4a11628f55a4df523b3ef908290a4610ba2600083836001611f1d565b60018111156129135760405162461bcd60e51b815260206004820152603560248201527f455243373231456e756d657261626c653a20636f6e736563757469766520747260448201527f616e7366657273206e6f7420737570706f7274656400000000000000000000006064820152608401610734565b816001600160a01b03851661296f5761296a81600880546000838152600960205260408120829055600182018355919091527ff3f7a9fe364faab93b216da50a3214154f22a0a2b415b23a84c8169e8b636ee30155565b612992565b836001600160a01b0316856001600160a01b031614612992576129928582612b12565b6001600160a01b0384166129ae576129a981612baf565b6129d1565b846001600160a01b0316846001600160a01b0316146129d1576129d18482612c5e565b5050505050565b6129e3848483612ca2565b610e2e565b600080608083901c156129fd57608092831c92015b604083901c15612a0f57604092831c92015b602083901c15612a2157602092831c92015b601083901c15612a3357601092831c92015b600883901c15612a4557600892831c92015b600483901c15612a5757600492831c92015b600283901c15612a6957600292831c92015b600183901c156105e55760010192915050565b6000818310612a8b5781610ac8565b5090919050565b6000612aa16002848418613764565b610ac890848416613699565b6000610ac882846136c9565b600080612af985612af4612acc88611b28565b7bffffffffffffffffffffffffffffffffffffffffffffffffffffffff16868863ffffffff16565b612d12565b915091505b935093915050565b6000610ac88284613699565b60006001612b1f84610c0b565b612b2991906136c9565b600083815260076020526040902054909150808214612b7c576001600160a01b03841660009081526006602090815260408083208584528252808320548484528184208190558352600790915290208190555b5060009182526007602090815260408084208490556001600160a01b039094168352600681528383209183525290812055565b600854600090612bc1906001906136c9565b60008381526009602052604081205460088054939450909284908110612be957612be961347a565b906000526020600020015490508060088381548110612c0a57612c0a61347a565b6000918252602080832090910192909255828152600990915260408082208490558582528120556008805480612c4257612c42613778565b6001900381819060005260206000200160009055905550505050565b6000612c6983610c0b565b6001600160a01b039093166000908152600660209081526040808320868452825280832085905593825260079052919091209190915550565b6001600160a01b038316612cc157612cbe600d612b0683612ab9565b50505b6001600160a01b038216612ce057612cdd600d612aad83612ab9565b50505b6001600160a01b038381166000908152600b60205260408082205485841683529120546107d5929182169116836121dd565b600080612d3084612d2243611f29565b612d2b86612d5b565b612def565b7bffffffffffffffffffffffffffffffffffffffffffffffffffffffff918216969116945092505050565b60007bffffffffffffffffffffffffffffffffffffffffffffffffffffffff821115611fa55760405162461bcd60e51b815260206004820152602760248201527f53616665436173743a2076616c756520646f65736e27742066697420696e203260448201527f32342062697473000000000000000000000000000000000000000000000000006064820152608401610734565b825460009081908015612f77576000612e0d876119496001856136c9565b60408051808201909152905463ffffffff8082168084526401000000009092047bffffffffffffffffffffffffffffffffffffffffffffffffffffffff1660208401529192509087161015612ea45760405162461bcd60e51b815260206004820152601760248201527f436865636b706f696e743a20696e76616c6964206b65790000000000000000006044820152606401610734565b805163ffffffff808816911603612f025784612ec5886119496001866136c9565b80547bffffffffffffffffffffffffffffffffffffffffffffffffffffffff929092166401000000000263ffffffff909216919091179055612f67565b6040805180820190915263ffffffff80881682527bffffffffffffffffffffffffffffffffffffffffffffffffffffffff80881660208085019182528b54600181018d5560008d81529190912094519151909216640100000000029216919091179101555b602001519250839150612afe9050565b50506040805180820190915263ffffffff80851682527bffffffffffffffffffffffffffffffffffffffffffffffffffffffff80851660208085019182528854600181018a5560008a815291822095519251909316640100000000029190931617920191909155905081612afe565b7fffffffff000000000000000000000000000000000000000000000000000000008116811461092257600080fd5b60006020828403121561302657600080fd5b8135610ac881612fe6565b60005b8381101561304c578181015183820152602001613034565b50506000910152565b6000815180845261306d816020860160208601613031565b601f01601f19169290920160200192915050565b602081526000610ac86020830184613055565b6000602082840312156130a657600080fd5b5035919050565b80356001600160a01b03811681146130c457600080fd5b919050565b600080604083850312156130dc57600080fd5b6130e5836130ad565b946020939093013593505050565b6bffffffffffffffffffffffff8116811461092257600080fd5b6000806040838503121561312057600080fd5b613129836130ad565b91506020830135613139816130f3565b809150509250929050565b60006020828403121561315657600080fd5b610ac8826130ad565b60008060006060848603121561317457600080fd5b61317d846130ad565b925061318b602085016130ad565b9150604084013590509250925092565b7f4e487b7100000000000000000000000000000000000000000000000000000000600052604160045260246000fd5b604051601f8201601f1916810167ffffffffffffffff811182821017156131f3576131f361319b565b604052919050565b600067ffffffffffffffff8211156132155761321561319b565b50601f01601f191660200190565b6000613236613231846131fb565b6131ca565b905082815283838301111561324a57600080fd5b828260208301376000602084830101529392505050565b60006020828403121561327357600080fd5b813567ffffffffffffffff81111561328a57600080fd5b8201601f8101841361329b57600080fd5b6114c784823560208401613223565b600080604083850312156132bd57600080fd5b6132c6836130ad565b91506020830135801515811461313957600080fd5b600080600080608085870312156132f157600080fd5b6132fa856130ad565b9350613308602086016130ad565b925060408501359150606085013567ffffffffffffffff81111561332b57600080fd5b8501601f8101871361333c57600080fd5b61334b87823560208401613223565b91505092959194509250565b60008060008060008060c0878903121561337057600080fd5b613379876130ad565b95506020870135945060408701359350606087013560ff8116811461339d57600080fd5b9598949750929560808101359460a0909101359350915050565b600080604083850312156133ca57600080fd5b6133d3836130ad565b91506133e1602084016130ad565b90509250929050565b600181811c908216806133fe57607f821691505b602082108103611d9f577f4e487b7100000000000000000000000000000000000000000000000000000000600052602260045260246000fd5b7f4e487b7100000000000000000000000000000000000000000000000000000000600052601260045260246000fd5b60008261347557613475613437565b500690565b7f4e487b7100000000000000000000000000000000000000000000000000000000600052603260045260246000fd5b601f8211156107d557600081815260208120601f850160051c810160208610156134d05750805b601f850160051c820191505b818110156134ef578281556001016134dc565b505050505050565b815167ffffffffffffffff8111156135115761351161319b565b6135258161351f84546133ea565b846134a9565b602080601f83116001811461357857600084156135425750858301515b7fffffffffffffffffffffffffffffffffffffffffffffffffffffffffffffffff600386901b1c1916600185901b1785556134ef565b600085815260208120601f198616915b828110156135a757888601518255948401946001909101908401613588565b50858210156135e357878501517fffffffffffffffffffffffffffffffffffffffffffffffffffffffffffffffff600388901b60f8161c191681555b5050505050600190811b01905550565b60006020828403121561360557600080fd5b815167ffffffffffffffff81111561361c57600080fd5b8201601f8101841361362d57600080fd5b805161363b613231826131fb565b81815285602083850101111561365057600080fd5b613661826020830160208601613031565b95945050505050565b7f4e487b7100000000000000000000000000000000000000000000000000000000600052601160045260246000fd5b808201808211156105e5576105e561366a565b6000602082840312156136be57600080fd5b8151610ac8816130f3565b818103818111156105e5576105e561366a565b60006001600160a01b0380871683528086166020840152508360408301526080606083015261370e6080830184613055565b9695505050505050565b60006020828403121561372a57600080fd5b8151610ac881612fe6565b7f4e487b7100000000000000000000000000000000000000000000000000000000600052602160045260246000fd5b60008261377357613773613437565b500490565b7f4e487b7100000000000000000000000000000000000000000000000000000000600052603160045260246000fdfea264697066735822122019210b7d6a1516ae697d9c78082337acd37ddab710433466d253b8211cb67aba64736f6c6343000811003368747470733a2f2f706f6c6b61646f742d6275696c646572732e78797a2f65787465726e616c2f63726573742d636f6e7472616374732d7572692e6a736f6e",
  "linkReferences": {
    "contracts/lib/DnaManager.sol": {
      "DnaManager": [
        {
          "length": 20,
          "start": 6050
        }
      ]
    },
    "contracts/lib/TokenGenerator.sol": {
      "TokenGenerator": [
        {
          "length": 20,
          "start": 5261
        }
      ]
    }
  },
  "deployedLinkReferences": {
    "contracts/lib/DnaManager.sol": {
      "DnaManager": [
        {
          "length": 20,
          "start": 4939
        }
      ]
    },
    "contracts/lib/TokenGenerator.sol": {
      "TokenGenerator": [
        {
          "length": 20,
          "start": 4150
        }
      ]
    }
  }
}