{
  "address": "0x89bE56Ce74C86eA90e429fBb98824aEf435C8e87",
  "abi": [
    {
      "inputs": [
        {
          "internalType": "contract ICrest",
          "name": "_token",
          "type": "address"
        },
        {
          "internalType": "address",
          "name": "_treasury",
          "type": "address"
        }
      ],
      "stateMutability": "nonpayable",
      "type": "constructor"
    },
    {
      "anonymous": false,
      "inputs": [
        {
          "indexed": false,
          "internalType": "uint256",
          "name": "tokenId",
          "type": "uint256"
        },
        {
          "indexed": false,
          "internalType": "address",
          "name": "bidder",
          "type": "address"
        },
        {
          "indexed": false,
          "internalType": "uint256",
          "name": "bid",
          "type": "uint256"
        }
      ],
      "name": "Bid",
      "type": "event"
    },
    {
      "anonymous": false,
      "inputs": [
        {
          "indexed": true,
          "internalType": "address",
          "name": "previousOwner",
          "type": "address"
        },
        {
          "indexed": true,
          "internalType": "address",
          "name": "newOwner",
          "type": "address"
        }
      ],
      "name": "OwnershipTransferred",
      "type": "event"
    },
    {
      "anonymous": false,
      "inputs": [
        {
          "indexed": false,
          "internalType": "address",
          "name": "account",
          "type": "address"
        }
      ],
      "name": "Paused",
      "type": "event"
    },
    {
      "anonymous": false,
      "inputs": [
        {
          "indexed": false,
          "internalType": "uint256",
          "name": "tokenId",
          "type": "uint256"
        }
      ],
      "name": "Start",
      "type": "event"
    },
    {
      "anonymous": false,
      "inputs": [
        {
          "indexed": false,
          "internalType": "address",
          "name": "account",
          "type": "address"
        }
      ],
      "name": "Unpaused",
      "type": "event"
    },
    {
      "inputs": [],
      "name": "bid",
      "outputs": [],
      "stateMutability": "payable",
      "type": "function"
    },
    {
      "inputs": [],
      "name": "getAuction",
      "outputs": [
        {
          "components": [
            {
              "internalType": "uint256",
              "name": "tokenId",
              "type": "uint256"
            },
            {
              "internalType": "uint256",
              "name": "startTime",
              "type": "uint256"
            },
            {
              "internalType": "uint256",
              "name": "endTime",
              "type": "uint256"
            },
            {
              "internalType": "uint256",
              "name": "currentBid",
              "type": "uint256"
            },
            {
              "internalType": "address",
              "name": "bidder",
              "type": "address"
            },
            {
              "internalType": "uint256",
              "name": "minBid",
              "type": "uint256"
            },
            {
              "internalType": "bool",
              "name": "isFinished",
              "type": "bool"
            }
          ],
          "internalType": "struct AuctionHouse.AuctionState",
          "name": "",
          "type": "tuple"
        }
      ],
      "stateMutability": "view",
      "type": "function"
    },
    {
      "inputs": [],
      "name": "getConfig",
      "outputs": [
        {
          "components": [
            {
              "internalType": "address",
              "name": "treasury",
              "type": "address"
            },
            {
              "internalType": "address",
              "name": "token",
              "type": "address"
            },
            {
              "internalType": "address",
              "name": "glmr",
              "type": "address"
            },
            {
              "internalType": "uint256",
              "name": "duration",
              "type": "uint256"
            },
            {
              "internalType": "uint256",
              "name": "extendedDuration",
              "type": "uint256"
            },
            {
              "internalType": "uint256",
              "name": "minFirstBid",
              "type": "uint256"
            },
            {
              "internalType": "uint256",
              "name": "minBidIncrementPercent",
              "type": "uint256"
            }
          ],
          "internalType": "struct AuctionHouse.AuctionConfig",
          "name": "",
          "type": "tuple"
        }
      ],
      "stateMutability": "view",
      "type": "function"
    },
    {
      "inputs": [],
      "name": "glmr",
      "outputs": [
        {
          "internalType": "contract IERC20",
          "name": "",
          "type": "address"
        }
      ],
      "stateMutability": "view",
      "type": "function"
    },
    {
      "inputs": [
        {
          "internalType": "address",
          "name": "",
          "type": "address"
        },
        {
          "internalType": "address",
          "name": "",
          "type": "address"
        },
        {
          "internalType": "uint256",
          "name": "",
          "type": "uint256"
        },
        {
          "internalType": "bytes",
          "name": "",
          "type": "bytes"
        }
      ],
      "name": "onERC721Received",
      "outputs": [
        {
          "internalType": "bytes4",
          "name": "",
          "type": "bytes4"
        }
      ],
      "stateMutability": "pure",
      "type": "function"
    },
    {
      "inputs": [],
      "name": "owner",
      "outputs": [
        {
          "internalType": "address",
          "name": "",
          "type": "address"
        }
      ],
      "stateMutability": "view",
      "type": "function"
    },
    {
      "inputs": [],
      "name": "pause",
      "outputs": [],
      "stateMutability": "nonpayable",
      "type": "function"
    },
    {
      "inputs": [],
      "name": "paused",
      "outputs": [
        {
          "internalType": "bool",
          "name": "",
          "type": "bool"
        }
      ],
      "stateMutability": "view",
      "type": "function"
    },
    {
      "inputs": [],
      "name": "renounceOwnership",
      "outputs": [],
      "stateMutability": "nonpayable",
      "type": "function"
    },
    {
      "inputs": [
        {
          "internalType": "uint256",
          "name": "_duration",
          "type": "uint256"
        }
      ],
      "name": "setDuration",
      "outputs": [],
      "stateMutability": "nonpayable",
      "type": "function"
    },
    {
      "inputs": [
        {
          "internalType": "uint256",
          "name": "_extendedDuration",
          "type": "uint256"
        }
      ],
      "name": "setExtendedDuration",
      "outputs": [],
      "stateMutability": "nonpayable",
      "type": "function"
    },
    {
      "inputs": [
        {
          "internalType": "contract IERC20",
          "name": "_glmr",
          "type": "address"
        }
      ],
      "name": "setGLMR",
      "outputs": [],
      "stateMutability": "nonpayable",
      "type": "function"
    },
    {
      "inputs": [
        {
          "internalType": "uint256",
          "name": "_minBidIncrementPercent",
          "type": "uint256"
        }
      ],
      "name": "setMinBidIncrementPercent",
      "outputs": [],
      "stateMutability": "nonpayable",
      "type": "function"
    },
    {
      "inputs": [
        {
          "internalType": "uint256",
          "name": "_minFirstBid",
          "type": "uint256"
        }
      ],
      "name": "setMinFirstBid",
      "outputs": [],
      "stateMutability": "nonpayable",
      "type": "function"
    },
    {
      "inputs": [
        {
          "internalType": "address",
          "name": "_treasury",
          "type": "address"
        }
      ],
      "name": "setTreasury",
      "outputs": [],
      "stateMutability": "nonpayable",
      "type": "function"
    },
    {
      "inputs": [],
      "name": "start",
      "outputs": [],
      "stateMutability": "nonpayable",
      "type": "function"
    },
    {
      "inputs": [
        {
          "internalType": "address",
          "name": "newOwner",
          "type": "address"
        }
      ],
      "name": "transferOwnership",
      "outputs": [],
      "stateMutability": "nonpayable",
      "type": "function"
    },
    {
      "inputs": [],
      "name": "treasury",
      "outputs": [
        {
          "internalType": "address",
          "name": "",
          "type": "address"
        }
      ],
      "stateMutability": "view",
      "type": "function"
    },
    {
      "inputs": [],
      "name": "unpause",
      "outputs": [],
      "stateMutability": "nonpayable",
      "type": "function"
    }
  ],
  "transactionHash": "0x69193f115f46932cee5536ebf15421a54b1a613db3cd005521df3cb07de8d9d7",
  "args": [
    "0x8417F77904a86436223942a516f00F8aDF933B70",
    "0x6bdFDC29A4bd39Bf97D4C75c7f03b9dcbb9374af"
  ],
  "numDeployments": 2,
  "solcInputHash": "84ca75526b28510547d3ce718e5855d8",
  "bytecode": "0x6080604052600380546001600160a01b03191661080217905562015180600555610258600655670de0b6b3a764000060075560016008553480156200004357600080fd5b50604051620015ed380380620015ed83398101604081905262000066916200011d565b6200007133620000b4565b6001805560028054600480546001600160a01b039586166001600160a01b031990911617905591909216610100026001600160a81b03199091161790556200015c565b600080546001600160a01b038381166001600160a01b0319831681178455604051919092169283917f8be0079c531659141344cd1fd0a4f28419497f9722a3daafe3b4186f6b6457e09190a35050565b6001600160a01b03811681146200011a57600080fd5b50565b600080604083850312156200013157600080fd5b82516200013e8162000104565b6020840151909250620001518162000104565b809150509250929050565b611481806200016c6000396000f3fe6080604052600436106101445760003560e01c80638456cb59116100c0578063c3f909d411610074578063f0f4426011610059578063f0f442601461047e578063f2fde38b1461049e578063f6be71d1146104be57600080fd5b8063c3f909d4146103d7578063e0f0815c1461045e57600080fd5b80638da5cb5b116100a55780638da5cb5b14610377578063b535ef80146103a2578063be9a6555146103c257600080fd5b80638456cb59146103425780638b0587151461035757600080fd5b80633f4ba83a1161011757806361d027b3116100fc57806361d027b314610278578063715018a6146102aa5780637327df25146102bf57600080fd5b80633f4ba83a146102405780635c975abb1461025557600080fd5b806312d8e41b14610149578063150b7a02146101a05780631998aeef146102165780633d44ce3214610220575b600080fd5b34801561015557600080fd5b506003546101769073ffffffffffffffffffffffffffffffffffffffff1681565b60405173ffffffffffffffffffffffffffffffffffffffff90911681526020015b60405180910390f35b3480156101ac57600080fd5b506101e56101bb36600461129a565b7f150b7a020000000000000000000000000000000000000000000000000000000095945050505050565b6040517fffffffff000000000000000000000000000000000000000000000000000000009091168152602001610197565b61021e6104de565b005b34801561022c57600080fd5b5061021e61023b366004611339565b610721565b34801561024c57600080fd5b5061021e61072e565b34801561026157600080fd5b5060025460ff166040519015158152602001610197565b34801561028457600080fd5b5060025461017690610100900473ffffffffffffffffffffffffffffffffffffffff1681565b3480156102b657600080fd5b5061021e61073e565b3480156102cb57600080fd5b506102d4610750565b6040516101979190600060e0820190508251825260208301516020830152604083015160408301526060830151606083015273ffffffffffffffffffffffffffffffffffffffff608084015116608083015260a083015160a083015260c0830151151560c083015292915050565b34801561034e57600080fd5b5061021e61080d565b34801561036357600080fd5b5061021e610372366004611352565b61081d565b34801561038357600080fd5b5060005473ffffffffffffffffffffffffffffffffffffffff16610176565b3480156103ae57600080fd5b5061021e6103bd366004611339565b61086c565b3480156103ce57600080fd5b5061021e610879565b3480156103e357600080fd5b506103ec610c05565b6040516101979190600060e08201905073ffffffffffffffffffffffffffffffffffffffff80845116835280602085015116602084015280604085015116604084015250606083015160608301526080830151608083015260a083015160a083015260c083015160c083015292915050565b34801561046a57600080fd5b5061021e610479366004611339565b610cec565b34801561048a57600080fd5b5061021e610499366004611352565b610cf9565b3480156104aa57600080fd5b5061021e6104b9366004611352565b610d4d565b3480156104ca57600080fd5b5061021e6104d9366004611339565b610e04565b6104e6610e11565b600954421015610557576040517f08c379a000000000000000000000000000000000000000000000000000000000815260206004820152601a60248201527f41756374696f6e206861736e277420737461727465642079657400000000000060448201526064015b60405180910390fd5b600a544211156105c3576040517f08c379a000000000000000000000000000000000000000000000000000000000815260206004820152601160248201527f41756374696f6e2068617320656e646564000000000000000000000000000000604482015260640161054e565b6105cb610e84565b341015610634576040517f08c379a000000000000000000000000000000000000000000000000000000000815260206004820152601560248201527f42696420616d6f756e7420697320746f6f206c6f770000000000000000000000604482015260640161054e565b600d5473ffffffffffffffffffffffffffffffffffffffff161561067857600d54600b546106789173ffffffffffffffffffffffffffffffffffffffff1690610ec5565b600a5460065461068890426113a5565b111561069f5760065461069b90426113a5565b600a555b600d80547fffffffffffffffffffffffff0000000000000000000000000000000000000000163390811790915534600b819055600c54604080519182526020820193909352918201527fdcd726e11f8b5e160f00290f0fe3a1abb547474e53a8e7a8f49a85e7b1ca3199906060015b60405180910390a161071f60018055565b565b610729610fd1565b600755565b610736610fd1565b61071f611052565b610746610fd1565b61071f60006110cf565b6107a86040518060e0016040528060008152602001600081526020016000815260200160008152602001600073ffffffffffffffffffffffffffffffffffffffff168152602001600081526020016000151581525090565b6040805160e081018252600c5481526009546020820152600a5491810191909152600b546060820152600d5473ffffffffffffffffffffffffffffffffffffffff16608082015260a081016107fb610e84565b8152600a544211602090910152919050565b610815610fd1565b61071f611144565b610825610fd1565b600380547fffffffffffffffffffffffff00000000000000000000000000000000000000001673ffffffffffffffffffffffffffffffffffffffff92909216919091179055565b610874610fd1565b600655565b610881610e11565b61088961119f565b600a5442116108f4576040517f08c379a000000000000000000000000000000000000000000000000000000000815260206004820152601860248201527f41756374696f6e206861736e277420656e646564207965740000000000000000604482015260640161054e565b600d5473ffffffffffffffffffffffffffffffffffffffff16156109ae5760048054600d54600c546040517f42842e0e000000000000000000000000000000000000000000000000000000008152309481019490945273ffffffffffffffffffffffffffffffffffffffff9182166024850152604484015216906342842e0e90606401600060405180830381600087803b15801561099157600080fd5b505af11580156109a5573d6000803e3d6000fd5b50505050610a3a565b600c5415610a3a5760048054600c546040517f42966c680000000000000000000000000000000000000000000000000000000081529283015273ffffffffffffffffffffffffffffffffffffffff16906342966c6890602401600060405180830381600087803b158015610a2157600080fd5b505af1158015610a35573d6000803e3d6000fd5b505050505b600b5415610a6d57600254600b54610a6d91610100900473ffffffffffffffffffffffffffffffffffffffff1690610ec5565b60048054604080517f1249c58b000000000000000000000000000000000000000000000000000000008152905173ffffffffffffffffffffffffffffffffffffffff90921692631249c58b92828201926000929082900301818387803b158015610ad657600080fd5b505af1158015610aea573d6000803e3d6000fd5b5050426009819055600554610b01935091506113a5565b600a556000600b819055600d80547fffffffffffffffffffffffff0000000000000000000000000000000000000000169055600480546040517f2f745c590000000000000000000000000000000000000000000000000000000081523092810192909252602482019290925273ffffffffffffffffffffffffffffffffffffffff90911690632f745c5990604401602060405180830381865afa158015610bac573d6000803e3d6000fd5b505050506040513d601f19601f82011682018060405250810190610bd091906113be565b600c8190556040519081527ff06a29c94c6f4edc1085072972d9441f7603e81c8535a308f214285d0653c8509060200161070e565b610c876040518060e00160405280600073ffffffffffffffffffffffffffffffffffffffff168152602001600073ffffffffffffffffffffffffffffffffffffffff168152602001600073ffffffffffffffffffffffffffffffffffffffff168152602001600081526020016000815260200160008152602001600081525090565b506040805160e08101825260025473ffffffffffffffffffffffffffffffffffffffff610100909104811682526004548116602083015260035416918101919091526005546060820152600654608082015260075460a082015260085460c082015290565b610cf4610fd1565b600855565b610d01610fd1565b6002805473ffffffffffffffffffffffffffffffffffffffff909216610100027fffffffffffffffffffffff0000000000000000000000000000000000000000ff909216919091179055565b610d55610fd1565b73ffffffffffffffffffffffffffffffffffffffff8116610df8576040517f08c379a000000000000000000000000000000000000000000000000000000000815260206004820152602660248201527f4f776e61626c653a206e6577206f776e657220697320746865207a65726f206160448201527f6464726573730000000000000000000000000000000000000000000000000000606482015260840161054e565b610e01816110cf565b50565b610e0c610fd1565b600555565b600260015403610e7d576040517f08c379a000000000000000000000000000000000000000000000000000000000815260206004820152601f60248201527f5265656e7472616e637947756172643a207265656e7472616e742063616c6c00604482015260640161054e565b6002600155565b6000600b54600003610e97575060075490565b6064600854600b54610ea991906113d7565b610eb391906113ee565b600b54610ec091906113a5565b905090565b60008273ffffffffffffffffffffffffffffffffffffffff168260405160006040518083038185875af1925050503d8060008114610f1f576040519150601f19603f3d011682016040523d82523d6000602084013e610f24565b606091505b5050905080610fcc576003546040517fa9059cbb00000000000000000000000000000000000000000000000000000000815273ffffffffffffffffffffffffffffffffffffffff8581166004830152602482018590529091169063a9059cbb906044016020604051808303816000875af1158015610fa6573d6000803e3d6000fd5b505050506040513d601f19601f82011682018060405250810190610fca9190611429565b505b505050565b60005473ffffffffffffffffffffffffffffffffffffffff16331461071f576040517f08c379a000000000000000000000000000000000000000000000000000000000815260206004820181905260248201527f4f776e61626c653a2063616c6c6572206973206e6f7420746865206f776e6572604482015260640161054e565b61105a61120c565b600280547fffffffffffffffffffffffffffffffffffffffffffffffffffffffffffffff001690557f5db9ee0a495bf2e6ff9c91a7834c1ba4fdd244a5e8aa4e537bd38aeae4b073aa335b60405173ffffffffffffffffffffffffffffffffffffffff909116815260200160405180910390a1565b6000805473ffffffffffffffffffffffffffffffffffffffff8381167fffffffffffffffffffffffff0000000000000000000000000000000000000000831681178455604051919092169283917f8be0079c531659141344cd1fd0a4f28419497f9722a3daafe3b4186f6b6457e09190a35050565b61114c61119f565b600280547fffffffffffffffffffffffffffffffffffffffffffffffffffffffffffffff001660011790557f62e78cea01bee320cd4e420270b5ea74000d11b0c9f74754ebdbfc544b05a2586110a53390565b60025460ff161561071f576040517f08c379a000000000000000000000000000000000000000000000000000000000815260206004820152601060248201527f5061757361626c653a2070617573656400000000000000000000000000000000604482015260640161054e565b60025460ff1661071f576040517f08c379a000000000000000000000000000000000000000000000000000000000815260206004820152601460248201527f5061757361626c653a206e6f7420706175736564000000000000000000000000604482015260640161054e565b73ffffffffffffffffffffffffffffffffffffffff81168114610e0157600080fd5b6000806000806000608086880312156112b257600080fd5b85356112bd81611278565b945060208601356112cd81611278565b935060408601359250606086013567ffffffffffffffff808211156112f157600080fd5b818801915088601f83011261130557600080fd5b81358181111561131457600080fd5b89602082850101111561132657600080fd5b9699959850939650602001949392505050565b60006020828403121561134b57600080fd5b5035919050565b60006020828403121561136457600080fd5b813561136f81611278565b9392505050565b7f4e487b7100000000000000000000000000000000000000000000000000000000600052601160045260246000fd5b808201808211156113b8576113b8611376565b92915050565b6000602082840312156113d057600080fd5b5051919050565b80820281158282048414176113b8576113b8611376565b600082611424577f4e487b7100000000000000000000000000000000000000000000000000000000600052601260045260246000fd5b500490565b60006020828403121561143b57600080fd5b8151801515811461136f57600080fdfea2646970667358221220f42e863b46c0972fb9e01200f77aae4d54a24d1ab7d44874006c0c380e14a65a64736f6c63430008110033",
  "devdoc": {
    "author": "Polkadot Builders",
    "custom:security-contact": "contact@polkadot-builders.xyz",
    "details": "This contract allows for the creation and execution of auctions for Polkadot Builder Crests NFTs.",
    "kind": "dev",
    "methods": {
      "bid()": {
        "details": "Place a bid for the current auction."
      },
      "constructor": {
        "details": "Initializes the contract with the given token and treasury addresses",
        "params": {
          "_token": "The ERC721 token used in the auction",
          "_treasury": "The address to receive the auction proceeds"
        }
      },
      "getAuction()": {
        "returns": {
          "_0": "AuctionState The state of the current auction."
        }
      },
      "getConfig()": {
        "details": "Returns the current auction house configuration parametersReturns the current auction house configuration parameters"
      },
      "onERC721Received(address,address,uint256,bytes)": {
        "details": "Required method for a contract to allow receiving an ERC721 token."
      },
      "owner()": {
        "details": "Returns the address of the current owner."
      },
      "pause()": {
        "details": "Pauses the contract"
      },
      "paused()": {
        "details": "Returns true if the contract is paused, and false otherwise."
      },
      "renounceOwnership()": {
        "details": "Leaves the contract without owner. It will not be possible to call `onlyOwner` functions anymore. Can only be called by the current owner. NOTE: Renouncing ownership will leave the contract without an owner, thereby removing any functionality that is only available to the owner."
      },
      "setDuration(uint256)": {
        "details": "Sets the duration, in seconds, of the auction",
        "params": {
          "_duration": "The new duration, in seconds, of the auction"
        }
      },
      "setExtendedDuration(uint256)": {
        "details": "Sets the extended duration, in seconds, of the auction",
        "params": {
          "_extendedDuration": "The new extended duration, in seconds, of the auction"
        }
      },
      "setGLMR(address)": {
        "details": "Sets the address of the ERC20 precompiled contract for GLMR",
        "params": {
          "_glmr": "The new GLMR contract address"
        }
      },
      "setMinBidIncrementPercent(uint256)": {
        "details": "Sets the minimum bid increment percentage for the auction",
        "params": {
          "_minBidIncrementPercent": "The new minimum bid increment percentage for the auction"
        }
      },
      "setMinFirstBid(uint256)": {
        "details": "Sets the minimum bid amount for the auction",
        "params": {
          "_minFirstBid": "The new minimum bid amount for the auction"
        }
      },
      "setTreasury(address)": {
        "details": "Sets the address of the treasury account",
        "params": {
          "_treasury": "The new treasury address"
        }
      },
      "start()": {
        "details": "Ends previous auction and starts a new one."
      },
      "transferOwnership(address)": {
        "details": "Transfers ownership of the contract to a new account (`newOwner`). Can only be called by the current owner."
      },
      "unpause()": {
        "details": "Unpauses the contract"
      }
    },
    "title": "Auction House contract",
    "version": 1
  },
  "userdoc": {
    "kind": "user",
    "methods": {
      "bid()": {
        "notice": "Place a bid for the current auction."
      },
      "getAuction()": {
        "notice": "Returns the state of the current auction."
      },
      "pause()": {
        "notice": "Disallows new auctions to be created"
      },
      "setDuration(uint256)": {
        "notice": "Sets the duration, in seconds, of the auction"
      },
      "setExtendedDuration(uint256)": {
        "notice": "Sets the extended duration, in seconds, of the auction"
      },
      "setGLMR(address)": {
        "notice": "Sets the address of the ERC20 precompiled contract for GLMR"
      },
      "setTreasury(address)": {
        "notice": "Sets the address of the treasury account"
      },
      "start()": {
        "notice": "Ends previous auction and starts a new one."
      },
      "unpause()": {
        "notice": "Allows new auctions to be created"
      }
    },
    "version": 1
  },
  "storageLayout": {
    "storage": [
      {
        "astId": 7,
        "contract": "contracts/AuctionHouse.sol:AuctionHouse",
        "label": "_owner",
        "offset": 0,
        "slot": "0",
        "type": "t_address"
      },
      {
        "astId": 3017,
        "contract": "contracts/AuctionHouse.sol:AuctionHouse",
        "label": "_status",
        "offset": 0,
        "slot": "1",
        "type": "t_uint256"
      },
      {
        "astId": 2916,
        "contract": "contracts/AuctionHouse.sol:AuctionHouse",
        "label": "_paused",
        "offset": 0,
        "slot": "2",
        "type": "t_bool"
      },
      {
        "astId": 10389,
        "contract": "contracts/AuctionHouse.sol:AuctionHouse",
        "label": "treasury",
        "offset": 1,
        "slot": "2",
        "type": "t_address"
      },
      {
        "astId": 10395,
        "contract": "contracts/AuctionHouse.sol:AuctionHouse",
        "label": "glmr",
        "offset": 0,
        "slot": "3",
        "type": "t_contract(IERC20)3179"
      },
      {
        "astId": 10398,
        "contract": "contracts/AuctionHouse.sol:AuctionHouse",
        "label": "token",
        "offset": 0,
        "slot": "4",
        "type": "t_contract(ICrest)12038"
      },
      {
        "astId": 10401,
        "contract": "contracts/AuctionHouse.sol:AuctionHouse",
        "label": "duration",
        "offset": 0,
        "slot": "5",
        "type": "t_uint256"
      },
      {
        "astId": 10404,
        "contract": "contracts/AuctionHouse.sol:AuctionHouse",
        "label": "extendedDuration",
        "offset": 0,
        "slot": "6",
        "type": "t_uint256"
      },
      {
        "astId": 10407,
        "contract": "contracts/AuctionHouse.sol:AuctionHouse",
        "label": "minFirstBid",
        "offset": 0,
        "slot": "7",
        "type": "t_uint256"
      },
      {
        "astId": 10410,
        "contract": "contracts/AuctionHouse.sol:AuctionHouse",
        "label": "minBidIncrementPercent",
        "offset": 0,
        "slot": "8",
        "type": "t_uint256"
      },
      {
        "astId": 10412,
        "contract": "contracts/AuctionHouse.sol:AuctionHouse",
        "label": "startTime",
        "offset": 0,
        "slot": "9",
        "type": "t_uint256"
      },
      {
        "astId": 10414,
        "contract": "contracts/AuctionHouse.sol:AuctionHouse",
        "label": "endTime",
        "offset": 0,
        "slot": "10",
        "type": "t_uint256"
      },
      {
        "astId": 10416,
        "contract": "contracts/AuctionHouse.sol:AuctionHouse",
        "label": "currentBid",
        "offset": 0,
        "slot": "11",
        "type": "t_uint256"
      },
      {
        "astId": 10418,
        "contract": "contracts/AuctionHouse.sol:AuctionHouse",
        "label": "tokenId",
        "offset": 0,
        "slot": "12",
        "type": "t_uint256"
      },
      {
        "astId": 10420,
        "contract": "contracts/AuctionHouse.sol:AuctionHouse",
        "label": "bidder",
        "offset": 0,
        "slot": "13",
        "type": "t_address"
      }
    ],
    "types": {
      "t_address": {
        "encoding": "inplace",
        "label": "address",
        "numberOfBytes": "20"
      },
      "t_bool": {
        "encoding": "inplace",
        "label": "bool",
        "numberOfBytes": "1"
      },
      "t_contract(ICrest)12038": {
        "encoding": "inplace",
        "label": "contract ICrest",
        "numberOfBytes": "20"
      },
      "t_contract(IERC20)3179": {
        "encoding": "inplace",
        "label": "contract IERC20",
        "numberOfBytes": "20"
      },
      "t_uint256": {
        "encoding": "inplace",
        "label": "uint256",
        "numberOfBytes": "32"
      }
    }
  }
}