{
  "address": "0x0CD784724A7C1789fa76563098ed8eF7fC0fae0E",
  "abi": [
    {
      "inputs": [
        {
          "internalType": "contract IVotes",
          "name": "_token",
          "type": "address"
        }
      ],
      "stateMutability": "nonpayable",
      "type": "constructor"
    },
    {
      "inputs": [],
      "name": "Empty",
      "type": "error"
    },
    {
      "anonymous": false,
      "inputs": [
        {
          "indexed": false,
          "internalType": "uint256",
          "name": "proposalId",
          "type": "uint256"
        }
      ],
      "name": "ProposalCanceled",
      "type": "event"
    },
    {
      "anonymous": false,
      "inputs": [
        {
          "indexed": false,
          "internalType": "uint256",
          "name": "proposalId",
          "type": "uint256"
        },
        {
          "indexed": false,
          "internalType": "address",
          "name": "proposer",
          "type": "address"
        },
        {
          "indexed": false,
          "internalType": "address[]",
          "name": "targets",
          "type": "address[]"
        },
        {
          "indexed": false,
          "internalType": "uint256[]",
          "name": "values",
          "type": "uint256[]"
        },
        {
          "indexed": false,
          "internalType": "string[]",
          "name": "signatures",
          "type": "string[]"
        },
        {
          "indexed": false,
          "internalType": "bytes[]",
          "name": "calldatas",
          "type": "bytes[]"
        },
        {
          "indexed": false,
          "internalType": "uint256",
          "name": "startBlock",
          "type": "uint256"
        },
        {
          "indexed": false,
          "internalType": "uint256",
          "name": "endBlock",
          "type": "uint256"
        },
        {
          "indexed": false,
          "internalType": "string",
          "name": "description",
          "type": "string"
        }
      ],
      "name": "ProposalCreated",
      "type": "event"
    },
    {
      "anonymous": false,
      "inputs": [
        {
          "indexed": false,
          "internalType": "uint256",
          "name": "proposalId",
          "type": "uint256"
        }
      ],
      "name": "ProposalExecuted",
      "type": "event"
    },
    {
      "anonymous": false,
      "inputs": [
        {
          "indexed": false,
          "internalType": "uint256",
          "name": "oldProposalThreshold",
          "type": "uint256"
        },
        {
          "indexed": false,
          "internalType": "uint256",
          "name": "newProposalThreshold",
          "type": "uint256"
        }
      ],
      "name": "ProposalThresholdSet",
      "type": "event"
    },
    {
      "anonymous": false,
      "inputs": [
        {
          "indexed": false,
          "internalType": "uint256",
          "name": "oldQuorumNumerator",
          "type": "uint256"
        },
        {
          "indexed": false,
          "internalType": "uint256",
          "name": "newQuorumNumerator",
          "type": "uint256"
        }
      ],
      "name": "QuorumNumeratorUpdated",
      "type": "event"
    },
    {
      "anonymous": false,
      "inputs": [
        {
          "indexed": true,
          "internalType": "address",
          "name": "voter",
          "type": "address"
        },
        {
          "indexed": false,
          "internalType": "uint256",
          "name": "proposalId",
          "type": "uint256"
        },
        {
          "indexed": false,
          "internalType": "uint8",
          "name": "support",
          "type": "uint8"
        },
        {
          "indexed": false,
          "internalType": "uint256",
          "name": "weight",
          "type": "uint256"
        },
        {
          "indexed": false,
          "internalType": "string",
          "name": "reason",
          "type": "string"
        }
      ],
      "name": "VoteCast",
      "type": "event"
    },
    {
      "anonymous": false,
      "inputs": [
        {
          "indexed": true,
          "internalType": "address",
          "name": "voter",
          "type": "address"
        },
        {
          "indexed": false,
          "internalType": "uint256",
          "name": "proposalId",
          "type": "uint256"
        },
        {
          "indexed": false,
          "internalType": "uint8",
          "name": "support",
          "type": "uint8"
        },
        {
          "indexed": false,
          "internalType": "uint256",
          "name": "weight",
          "type": "uint256"
        },
        {
          "indexed": false,
          "internalType": "string",
          "name": "reason",
          "type": "string"
        },
        {
          "indexed": false,
          "internalType": "bytes",
          "name": "params",
          "type": "bytes"
        }
      ],
      "name": "VoteCastWithParams",
      "type": "event"
    },
    {
      "anonymous": false,
      "inputs": [
        {
          "indexed": false,
          "internalType": "uint256",
          "name": "oldVotingDelay",
          "type": "uint256"
        },
        {
          "indexed": false,
          "internalType": "uint256",
          "name": "newVotingDelay",
          "type": "uint256"
        }
      ],
      "name": "VotingDelaySet",
      "type": "event"
    },
    {
      "anonymous": false,
      "inputs": [
        {
          "indexed": false,
          "internalType": "uint256",
          "name": "oldVotingPeriod",
          "type": "uint256"
        },
        {
          "indexed": false,
          "internalType": "uint256",
          "name": "newVotingPeriod",
          "type": "uint256"
        }
      ],
      "name": "VotingPeriodSet",
      "type": "event"
    },
    {
      "inputs": [],
      "name": "BALLOT_TYPEHASH",
      "outputs": [
        {
          "internalType": "bytes32",
          "name": "",
          "type": "bytes32"
        }
      ],
      "stateMutability": "view",
      "type": "function"
    },
    {
      "inputs": [],
      "name": "COUNTING_MODE",
      "outputs": [
        {
          "internalType": "string",
          "name": "",
          "type": "string"
        }
      ],
      "stateMutability": "pure",
      "type": "function"
    },
    {
      "inputs": [],
      "name": "EXTENDED_BALLOT_TYPEHASH",
      "outputs": [
        {
          "internalType": "bytes32",
          "name": "",
          "type": "bytes32"
        }
      ],
      "stateMutability": "view",
      "type": "function"
    },
    {
      "inputs": [
        {
          "internalType": "uint256",
          "name": "proposalId",
          "type": "uint256"
        },
        {
          "internalType": "uint8",
          "name": "support",
          "type": "uint8"
        }
      ],
      "name": "castVote",
      "outputs": [
        {
          "internalType": "uint256",
          "name": "",
          "type": "uint256"
        }
      ],
      "stateMutability": "nonpayable",
      "type": "function"
    },
    {
      "inputs": [
        {
          "internalType": "uint256",
          "name": "proposalId",
          "type": "uint256"
        },
        {
          "internalType": "uint8",
          "name": "support",
          "type": "uint8"
        },
        {
          "internalType": "uint8",
          "name": "v",
          "type": "uint8"
        },
        {
          "internalType": "bytes32",
          "name": "r",
          "type": "bytes32"
        },
        {
          "internalType": "bytes32",
          "name": "s",
          "type": "bytes32"
        }
      ],
      "name": "castVoteBySig",
      "outputs": [
        {
          "internalType": "uint256",
          "name": "",
          "type": "uint256"
        }
      ],
      "stateMutability": "nonpayable",
      "type": "function"
    },
    {
      "inputs": [
        {
          "internalType": "uint256",
          "name": "proposalId",
          "type": "uint256"
        },
        {
          "internalType": "uint8",
          "name": "support",
          "type": "uint8"
        },
        {
          "internalType": "string",
          "name": "reason",
          "type": "string"
        }
      ],
      "name": "castVoteWithReason",
      "outputs": [
        {
          "internalType": "uint256",
          "name": "",
          "type": "uint256"
        }
      ],
      "stateMutability": "nonpayable",
      "type": "function"
    },
    {
      "inputs": [
        {
          "internalType": "uint256",
          "name": "proposalId",
          "type": "uint256"
        },
        {
          "internalType": "uint8",
          "name": "support",
          "type": "uint8"
        },
        {
          "internalType": "string",
          "name": "reason",
          "type": "string"
        },
        {
          "internalType": "bytes",
          "name": "params",
          "type": "bytes"
        }
      ],
      "name": "castVoteWithReasonAndParams",
      "outputs": [
        {
          "internalType": "uint256",
          "name": "",
          "type": "uint256"
        }
      ],
      "stateMutability": "nonpayable",
      "type": "function"
    },
    {
      "inputs": [
        {
          "internalType": "uint256",
          "name": "proposalId",
          "type": "uint256"
        },
        {
          "internalType": "uint8",
          "name": "support",
          "type": "uint8"
        },
        {
          "internalType": "string",
          "name": "reason",
          "type": "string"
        },
        {
          "internalType": "bytes",
          "name": "params",
          "type": "bytes"
        },
        {
          "internalType": "uint8",
          "name": "v",
          "type": "uint8"
        },
        {
          "internalType": "bytes32",
          "name": "r",
          "type": "bytes32"
        },
        {
          "internalType": "bytes32",
          "name": "s",
          "type": "bytes32"
        }
      ],
      "name": "castVoteWithReasonAndParamsBySig",
      "outputs": [
        {
          "internalType": "uint256",
          "name": "",
          "type": "uint256"
        }
      ],
      "stateMutability": "nonpayable",
      "type": "function"
    },
    {
      "inputs": [
        {
          "internalType": "address[]",
          "name": "targets",
          "type": "address[]"
        },
        {
          "internalType": "uint256[]",
          "name": "values",
          "type": "uint256[]"
        },
        {
          "internalType": "bytes[]",
          "name": "calldatas",
          "type": "bytes[]"
        },
        {
          "internalType": "bytes32",
          "name": "descriptionHash",
          "type": "bytes32"
        }
      ],
      "name": "execute",
      "outputs": [
        {
          "internalType": "uint256",
          "name": "",
          "type": "uint256"
        }
      ],
      "stateMutability": "payable",
      "type": "function"
    },
    {
      "inputs": [
        {
          "internalType": "address",
          "name": "account",
          "type": "address"
        },
        {
          "internalType": "uint256",
          "name": "blockNumber",
          "type": "uint256"
        }
      ],
      "name": "getVotes",
      "outputs": [
        {
          "internalType": "uint256",
          "name": "",
          "type": "uint256"
        }
      ],
      "stateMutability": "view",
      "type": "function"
    },
    {
      "inputs": [
        {
          "internalType": "address",
          "name": "account",
          "type": "address"
        },
        {
          "internalType": "uint256",
          "name": "blockNumber",
          "type": "uint256"
        },
        {
          "internalType": "bytes",
          "name": "params",
          "type": "bytes"
        }
      ],
      "name": "getVotesWithParams",
      "outputs": [
        {
          "internalType": "uint256",
          "name": "",
          "type": "uint256"
        }
      ],
      "stateMutability": "view",
      "type": "function"
    },
    {
      "inputs": [
        {
          "internalType": "uint256",
          "name": "proposalId",
          "type": "uint256"
        },
        {
          "internalType": "address",
          "name": "account",
          "type": "address"
        }
      ],
      "name": "hasVoted",
      "outputs": [
        {
          "internalType": "bool",
          "name": "",
          "type": "bool"
        }
      ],
      "stateMutability": "view",
      "type": "function"
    },
    {
      "inputs": [
        {
          "internalType": "address[]",
          "name": "targets",
          "type": "address[]"
        },
        {
          "internalType": "uint256[]",
          "name": "values",
          "type": "uint256[]"
        },
        {
          "internalType": "bytes[]",
          "name": "calldatas",
          "type": "bytes[]"
        },
        {
          "internalType": "bytes32",
          "name": "descriptionHash",
          "type": "bytes32"
        }
      ],
      "name": "hashProposal",
      "outputs": [
        {
          "internalType": "uint256",
          "name": "",
          "type": "uint256"
        }
      ],
      "stateMutability": "pure",
      "type": "function"
    },
    {
      "inputs": [],
      "name": "name",
      "outputs": [
        {
          "internalType": "string",
          "name": "",
          "type": "string"
        }
      ],
      "stateMutability": "view",
      "type": "function"
    },
    {
      "inputs": [
        {
          "internalType": "address",
          "name": "",
          "type": "address"
        },
        {
          "internalType": "address",
          "name": "",
          "type": "address"
        },
        {
          "internalType": "uint256[]",
          "name": "",
          "type": "uint256[]"
        },
        {
          "internalType": "uint256[]",
          "name": "",
          "type": "uint256[]"
        },
        {
          "internalType": "bytes",
          "name": "",
          "type": "bytes"
        }
      ],
      "name": "onERC1155BatchReceived",
      "outputs": [
        {
          "internalType": "bytes4",
          "name": "",
          "type": "bytes4"
        }
      ],
      "stateMutability": "nonpayable",
      "type": "function"
    },
    {
      "inputs": [
        {
          "internalType": "address",
          "name": "",
          "type": "address"
        },
        {
          "internalType": "address",
          "name": "",
          "type": "address"
        },
        {
          "internalType": "uint256",
          "name": "",
          "type": "uint256"
        },
        {
          "internalType": "uint256",
          "name": "",
          "type": "uint256"
        },
        {
          "internalType": "bytes",
          "name": "",
          "type": "bytes"
        }
      ],
      "name": "onERC1155Received",
      "outputs": [
        {
          "internalType": "bytes4",
          "name": "",
          "type": "bytes4"
        }
      ],
      "stateMutability": "nonpayable",
      "type": "function"
    },
    {
      "inputs": [
        {
          "internalType": "address",
          "name": "",
          "type": "address"
        },
        {
          "internalType": "address",
          "name": "",
          "type": "address"
        },
        {
          "internalType": "uint256",
          "name": "",
          "type": "uint256"
        },
        {
          "internalType": "bytes",
          "name": "",
          "type": "bytes"
        }
      ],
      "name": "onERC721Received",
      "outputs": [
        {
          "internalType": "bytes4",
          "name": "",
          "type": "bytes4"
        }
      ],
      "stateMutability": "nonpayable",
      "type": "function"
    },
    {
      "inputs": [
        {
          "internalType": "uint256",
          "name": "proposalId",
          "type": "uint256"
        }
      ],
      "name": "proposalDeadline",
      "outputs": [
        {
          "internalType": "uint256",
          "name": "",
          "type": "uint256"
        }
      ],
      "stateMutability": "view",
      "type": "function"
    },
    {
      "inputs": [
        {
          "internalType": "uint256",
          "name": "proposalId",
          "type": "uint256"
        }
      ],
      "name": "proposalSnapshot",
      "outputs": [
        {
          "internalType": "uint256",
          "name": "",
          "type": "uint256"
        }
      ],
      "stateMutability": "view",
      "type": "function"
    },
    {
      "inputs": [],
      "name": "proposalThreshold",
      "outputs": [
        {
          "internalType": "uint256",
          "name": "",
          "type": "uint256"
        }
      ],
      "stateMutability": "view",
      "type": "function"
    },
    {
      "inputs": [
        {
          "internalType": "uint256",
          "name": "proposalId",
          "type": "uint256"
        }
      ],
      "name": "proposalVotes",
      "outputs": [
        {
          "internalType": "uint256",
          "name": "againstVotes",
          "type": "uint256"
        },
        {
          "internalType": "uint256",
          "name": "forVotes",
          "type": "uint256"
        },
        {
          "internalType": "uint256",
          "name": "abstainVotes",
          "type": "uint256"
        }
      ],
      "stateMutability": "view",
      "type": "function"
    },
    {
      "inputs": [
        {
          "internalType": "address[]",
          "name": "targets",
          "type": "address[]"
        },
        {
          "internalType": "uint256[]",
          "name": "values",
          "type": "uint256[]"
        },
        {
          "internalType": "bytes[]",
          "name": "calldatas",
          "type": "bytes[]"
        },
        {
          "internalType": "string",
          "name": "description",
          "type": "string"
        }
      ],
      "name": "propose",
      "outputs": [
        {
          "internalType": "uint256",
          "name": "",
          "type": "uint256"
        }
      ],
      "stateMutability": "nonpayable",
      "type": "function"
    },
    {
      "inputs": [
        {
          "internalType": "uint256",
          "name": "blockNumber",
          "type": "uint256"
        }
      ],
      "name": "quorum",
      "outputs": [
        {
          "internalType": "uint256",
          "name": "",
          "type": "uint256"
        }
      ],
      "stateMutability": "view",
      "type": "function"
    },
    {
      "inputs": [],
      "name": "quorumDenominator",
      "outputs": [
        {
          "internalType": "uint256",
          "name": "",
          "type": "uint256"
        }
      ],
      "stateMutability": "view",
      "type": "function"
    },
    {
      "inputs": [
        {
          "internalType": "uint256",
          "name": "blockNumber",
          "type": "uint256"
        }
      ],
      "name": "quorumNumerator",
      "outputs": [
        {
          "internalType": "uint256",
          "name": "",
          "type": "uint256"
        }
      ],
      "stateMutability": "view",
      "type": "function"
    },
    {
      "inputs": [],
      "name": "quorumNumerator",
      "outputs": [
        {
          "internalType": "uint256",
          "name": "",
          "type": "uint256"
        }
      ],
      "stateMutability": "view",
      "type": "function"
    },
    {
      "inputs": [
        {
          "internalType": "address",
          "name": "target",
          "type": "address"
        },
        {
          "internalType": "uint256",
          "name": "value",
          "type": "uint256"
        },
        {
          "internalType": "bytes",
          "name": "data",
          "type": "bytes"
        }
      ],
      "name": "relay",
      "outputs": [],
      "stateMutability": "payable",
      "type": "function"
    },
    {
      "inputs": [
        {
          "internalType": "uint256",
          "name": "newProposalThreshold",
          "type": "uint256"
        }
      ],
      "name": "setProposalThreshold",
      "outputs": [],
      "stateMutability": "nonpayable",
      "type": "function"
    },
    {
      "inputs": [
        {
          "internalType": "uint256",
          "name": "newVotingDelay",
          "type": "uint256"
        }
      ],
      "name": "setVotingDelay",
      "outputs": [],
      "stateMutability": "nonpayable",
      "type": "function"
    },
    {
      "inputs": [
        {
          "internalType": "uint256",
          "name": "newVotingPeriod",
          "type": "uint256"
        }
      ],
      "name": "setVotingPeriod",
      "outputs": [],
      "stateMutability": "nonpayable",
      "type": "function"
    },
    {
      "inputs": [
        {
          "internalType": "uint256",
          "name": "proposalId",
          "type": "uint256"
        }
      ],
      "name": "state",
      "outputs": [
        {
          "internalType": "enum IGovernor.ProposalState",
          "name": "",
          "type": "uint8"
        }
      ],
      "stateMutability": "view",
      "type": "function"
    },
    {
      "inputs": [
        {
          "internalType": "bytes4",
          "name": "interfaceId",
          "type": "bytes4"
        }
      ],
      "name": "supportsInterface",
      "outputs": [
        {
          "internalType": "bool",
          "name": "",
          "type": "bool"
        }
      ],
      "stateMutability": "view",
      "type": "function"
    },
    {
      "inputs": [],
      "name": "token",
      "outputs": [
        {
          "internalType": "contract IVotes",
          "name": "",
          "type": "address"
        }
      ],
      "stateMutability": "view",
      "type": "function"
    },
    {
      "inputs": [
        {
          "internalType": "uint256",
          "name": "newQuorumNumerator",
          "type": "uint256"
        }
      ],
      "name": "updateQuorumNumerator",
      "outputs": [],
      "stateMutability": "nonpayable",
      "type": "function"
    },
    {
      "inputs": [],
      "name": "version",
      "outputs": [
        {
          "internalType": "string",
          "name": "",
          "type": "string"
        }
      ],
      "stateMutability": "view",
      "type": "function"
    },
    {
      "inputs": [],
      "name": "votingDelay",
      "outputs": [
        {
          "internalType": "uint256",
          "name": "",
          "type": "uint256"
        }
      ],
      "stateMutability": "view",
      "type": "function"
    },
    {
      "inputs": [],
      "name": "votingPeriod",
      "outputs": [
        {
          "internalType": "uint256",
          "name": "",
          "type": "uint256"
        }
      ],
      "stateMutability": "view",
      "type": "function"
    },
    {
      "stateMutability": "payable",
      "type": "receive"
    }
  ],
  "transactionHash": "0x9d69157fdfdac96ae92366cf373243be2776c7d9ae7431dc4065bb36e5b65a7c",
  "args": [
    "0x8417F77904a86436223942a516f00F8aDF933B70"
  ],
  "numDeployments": 1,
  "solcInputHash": "84ca75526b28510547d3ce718e5855d8",
  "bytecode": "0x6101606040523480156200001257600080fd5b506040516200448c3803806200448c833981016040819052620000359162000788565b600481600161012c60006040518060400160405280601e81526020017f506f6c6b61646f74204275696c646572732044414f20476f7665726e6f72000081525080620000866200016a60201b60201c565b815160209283012081519183019190912060e08290526101008190524660a0818152604080517f8b73c3c69bb8fe3d512ecc4cf759cc79239f7b179b0ffacaa9a75d522b39400f818801819052818301969096526060810194909452608080850193909352308483018190528151808603909301835260c09485019091528151919095012090529190915261012052600062000123828262000858565b506200013190508362000185565b6200013c82620001c6565b62000147816200026d565b5050506001600160a01b0316610140526200016281620002ae565b50506200094c565b6040805180820190915260018152603160f81b602082015290565b60045460408051918252602082018390527fc565b045403dc03c2eea82b81a0465edad9e2e7fc4d97e11421c209da93d7a93910160405180910390a1600455565b600081116200022c5760405162461bcd60e51b815260206004820152602760248201527f476f7665726e6f7253657474696e67733a20766f74696e6720706572696f6420604482015266746f6f206c6f7760c81b60648201526084015b60405180910390fd5b60055460408051918252602082018390527f7e3f7f0708a84de9203036abaa450dccc85ad5ff52f78c170f3edb55cf5e8828910160405180910390a1600555565b60065460408051918252602082018390527fccb45da8d5717e6c4544694297c4ba5cf151d455c9bb0ed4fc7a38411bc05461910160405180910390a1600655565b6064811115620003335760405162461bcd60e51b815260206004820152604360248201527f476f7665726e6f72566f74657351756f72756d4672616374696f6e3a2071756f60448201527f72756d4e756d657261746f72206f7665722071756f72756d44656e6f6d696e616064820152623a37b960e91b608482015260a40162000223565b60006200033f62000426565b90508015801590620003515750600954155b15620003cc5760096000016040518060400160405280600063ffffffff1681526020016200038a846200045e60201b620017b81760201c565b6001600160e01b0390811690915282546001810184556000938452602093849020835194909301519091166401000000000263ffffffff909316929092179101555b620003e7826009620004cd60201b620018501790919060201c565b505060408051828152602081018490527f0553476bf02ef2726e8ce5ced78d63e26e602e4a2257b1f559418e24b4633997910160405180910390a15050565b6009546000901562000457576200044960096200052060201b6200189b1760201c565b6001600160e01b0316905090565b5060085490565b60006001600160e01b03821115620004c95760405162461bcd60e51b815260206004820152602760248201527f53616665436173743a2076616c756520646f65736e27742066697420696e20326044820152663234206269747360c81b606482015260840162000223565b5090565b6000806200050a84600001620004ee436200056e60201b620018f81760201c565b62000504866200045e60201b620017b81760201c565b620005d5565b6001600160e01b03918216969116945092505050565b8054600090801562000564576200054c836200053e60018462000924565b600091825260209091200190565b5464010000000090046001600160e01b031662000567565b60005b9392505050565b600063ffffffff821115620004c95760405162461bcd60e51b815260206004820152602660248201527f53616665436173743a2076616c756520646f65736e27742066697420696e203360448201526532206269747360d01b606482015260840162000223565b8254600090819080156200072a576000620005f7876200053e60018562000924565b60408051808201909152905463ffffffff8082168084526401000000009092046001600160e01b0316602084015291925090871610156200067b5760405162461bcd60e51b815260206004820152601760248201527f436865636b706f696e743a20696e76616c6964206b6579000000000000000000604482015260640162000223565b805163ffffffff808816911603620006c95784620006a0886200053e60018662000924565b80546001600160e01b03929092166401000000000263ffffffff90921691909117905562000719565b6040805180820190915263ffffffff80881682526001600160e01b0380881660208085019182528b54600181018d5560008d81529190912094519151909216640100000000029216919091179101555b602001519250839150620007809050565b50506040805180820190915263ffffffff80851682526001600160e01b0380851660208085019182528854600181018a5560008a8152918220955192519093166401000000000291909316179201919091559050815b935093915050565b6000602082840312156200079b57600080fd5b81516001600160a01b03811681146200056757600080fd5b634e487b7160e01b600052604160045260246000fd5b600181811c90821680620007de57607f821691505b602082108103620007ff57634e487b7160e01b600052602260045260246000fd5b50919050565b601f8211156200085357600081815260208120601f850160051c810160208610156200082e5750805b601f850160051c820191505b818110156200084f578281556001016200083a565b5050505b505050565b81516001600160401b03811115620008745762000874620007b3565b6200088c81620008858454620007c9565b8462000805565b602080601f831160018114620008c45760008415620008ab5750858301515b600019600386901b1c1916600185901b1785556200084f565b600085815260208120601f198616915b82811015620008f557888601518255948401946001909101908401620008d4565b5085821015620009145787850151600019600388901b60f8161c191681555b5050505050600190811b01905550565b818103818111156200094657634e487b7160e01b600052601160045260246000fd5b92915050565b60805160a05160c05160e051610100516101205161014051613ad7620009b56000396000818161086d015281816121c80152612382015260006126a8015260006126f7015260006126d20152600061262b015260006126550152600061267f0152613ad76000f3fe60806040526004361061026e5760003560e01c806370b0f66011610153578063c28bc2fa116100cb578063eb9019d41161007f578063f23a6e6111610064578063f23a6e61146107f6578063f8ce560a1461083b578063fc0c546a1461085b57600080fd5b8063eb9019d4146107b6578063ece40cc1146107d657600080fd5b8063dd4e2ba5116100b0578063dd4e2ba51461071c578063deaaa7cc14610762578063ea0217cf1461079657600080fd5b8063c28bc2fa146106e9578063c59057e4146106fc57600080fd5b80639a802a6d11610122578063b58131b011610107578063b58131b01461066f578063bc197c8114610684578063c01f9e37146106c957600080fd5b80639a802a6d1461063a578063a7713a701461065a57600080fd5b806370b0f660146105c65780637b3c71d3146105e65780637d5e81e21461060657806397c3d3341461062657600080fd5b80633932abb1116101e6578063544ffc9c116101b5578063567813881161019a57806356781388146105665780635f398a141461058657806360c4247f146105a657600080fd5b8063544ffc9c146104cb57806354fd4d501461052057600080fd5b80633932abb1146104125780633bccf4fd146104275780633e4f49e614610447578063438596321461047457600080fd5b806306fdde031161023d5780632656227d116102225780632656227d146103ab5780632d63f693146103be5780632fe3e261146103de57600080fd5b806306fdde0314610314578063150b7a021461033657600080fd5b806301ffc9a71461027c57806302a251a3146102b157806303420181146102d457806306f3f9e6146102f457600080fd5b3661027757005b005b600080fd5b34801561028857600080fd5b5061029c610297366004612c7c565b6108b4565b60405190151581526020015b60405180910390f35b3480156102bd57600080fd5b506102c66109e5565b6040519081526020016102a8565b3480156102e057600080fd5b506102c66102ef366004612dee565b6109f5565b34801561030057600080fd5b5061027561030f366004612e95565b610aed565b34801561032057600080fd5b50610329610b64565b6040516102a89190612efe565b34801561034257600080fd5b5061037a610351366004612f35565b7f150b7a0200000000000000000000000000000000000000000000000000000000949350505050565b6040517fffffffff0000000000000000000000000000000000000000000000000000000090911681526020016102a8565b6102c66103b936600461310e565b610bf6565b3480156103ca57600080fd5b506102c66103d9366004612e95565b610d57565b3480156103ea57600080fd5b506102c67fb3b3f3b703cd84ce352197dcff232b1b5d3cfb2025ce47cf04742d0651f1af8881565b34801561041e57600080fd5b506102c6610d90565b34801561043357600080fd5b506102c661044236600461319e565b610d9b565b34801561045357600080fd5b50610467610462366004612e95565b610e11565b6040516102a8919061321b565b34801561048057600080fd5b5061029c61048f36600461325c565b600082815260076020908152604080832073ffffffffffffffffffffffffffffffffffffffff8516845260030190915290205460ff1692915050565b3480156104d757600080fd5b506105056104e6366004612e95565b6000908152600760205260409020805460018201546002909201549092565b604080519384526020840192909252908201526060016102a8565b34801561052c57600080fd5b5060408051808201909152600181527f31000000000000000000000000000000000000000000000000000000000000006020820152610329565b34801561057257600080fd5b506102c6610581366004613288565b610f20565b34801561059257600080fd5b506102c66105a13660046132ab565b610f49565b3480156105b257600080fd5b506102c66105c1366004612e95565b610f93565b3480156105d257600080fd5b506102756105e1366004612e95565b611055565b3480156105f257600080fd5b506102c661060136600461332f565b6110c4565b34801561061257600080fd5b506102c6610621366004613389565b611116565b34801561063257600080fd5b5060646102c6565b34801561064657600080fd5b506102c661065536600461343e565b6114df565b34801561066657600080fd5b506102c66114f6565b34801561067b57600080fd5b506102c6611535565b34801561069057600080fd5b5061037a61069f366004613495565b7fbc197c810000000000000000000000000000000000000000000000000000000095945050505050565b3480156106d557600080fd5b506102c66106e4366004612e95565b611540565b6102756106f7366004613525565b611570565b34801561070857600080fd5b506102c661071736600461310e565b611674565b34801561072857600080fd5b506040805180820190915260208082527f737570706f72743d627261766f2671756f72756d3d666f722c6162737461696e90820152610329565b34801561076e57600080fd5b506102c67f150214d74d59b7d1e90c73fc22ef3d991dd0a76b046543d4d80ab92d2a50328f81565b3480156107a257600080fd5b506102756107b1366004612e95565b6116ae565b3480156107c257600080fd5b506102c66107d1366004613567565b61171d565b3480156107e257600080fd5b506102756107f1366004612e95565b61173e565b34801561080257600080fd5b5061037a610811366004613591565b7ff23a6e610000000000000000000000000000000000000000000000000000000095945050505050565b34801561084757600080fd5b506102c6610856366004612e95565b6117ad565b34801561086757600080fd5b5061088f7f000000000000000000000000000000000000000000000000000000000000000081565b60405173ffffffffffffffffffffffffffffffffffffffff90911681526020016102a8565b60007fffffffff0000000000000000000000000000000000000000000000000000000082167fbf26d89700000000000000000000000000000000000000000000000000000000148061094757507fffffffff0000000000000000000000000000000000000000000000000000000082167f79dd796f00000000000000000000000000000000000000000000000000000000145b8061099357507fffffffff0000000000000000000000000000000000000000000000000000000082167f4e2312e000000000000000000000000000000000000000000000000000000000145b806109df57507f01ffc9a7000000000000000000000000000000000000000000000000000000007fffffffff000000000000000000000000000000000000000000000000000000008316145b92915050565b60006109f060055490565b905090565b600080610a99610a917fb3b3f3b703cd84ce352197dcff232b1b5d3cfb2025ce47cf04742d0651f1af888c8c8c8c604051610a319291906135f6565b60405180910390208b80519060200120604051602001610a76959493929190948552602085019390935260ff9190911660408401526060830152608082015260a00190565b60405160208183030381529060405280519060200120611974565b8686866119dd565b9050610adf8a828b8b8b8080601f0160208091040260200160405190810160405280939291908181526020018383808284376000920191909152508d92506119fb915050565b9a9950505050505050505050565b333014610b415760405162461bcd60e51b815260206004820152601860248201527f476f7665726e6f723a206f6e6c79476f7665726e616e6365000000000000000060448201526064015b60405180910390fd5b610b58565b80610b516002611b95565b03610b4657505b610b6181611c52565b50565b606060008054610b7390613606565b80601f0160208091040260200160405190810160405280929190818152602001828054610b9f90613606565b8015610bec5780601f10610bc157610100808354040283529160200191610bec565b820191906000526020600020905b815481529060010190602001808311610bcf57829003601f168201915b5050505050905090565b600080610c0586868686611674565b90506000610c1282610e11565b90506004816007811115610c2857610c286131ec565b1480610c4557506005816007811115610c4357610c436131ec565b145b610cb75760405162461bcd60e51b815260206004820152602160248201527f476f7665726e6f723a2070726f706f73616c206e6f742073756363657373667560448201527f6c000000000000000000000000000000000000000000000000000000000000006064820152608401610b38565b60008281526001602081815260409283902060020180547fffffffffffffffffffffffffffffffffffffffffffffffffffffffffffffff001690921790915590518381527f712ae1383f79ac853f8d882153778e0260ef8f03b504e2866e0593e04d2b291f910160405180910390a1610d338288888888611dce565b610d408288888888611e75565b610d4d8288888888611dce565b5095945050505050565b600081815260016020908152604080832081519283019091525467ffffffffffffffff16908190525b67ffffffffffffffff1692915050565b60006109f060045490565b604080517f150214d74d59b7d1e90c73fc22ef3d991dd0a76b046543d4d80ab92d2a50328f602082015290810186905260ff851660608201526000908190610de990610a9190608001610a76565b9050610e0687828860405180602001604052806000815250611f78565b979650505050505050565b6000818152600160205260408120600281015460ff1615610e355750600792915050565b6002810154610100900460ff1615610e505750600292915050565b6000610e5b84610d57565b905080600003610ead5760405162461bcd60e51b815260206004820152601d60248201527f476f7665726e6f723a20756e6b6e6f776e2070726f706f73616c2069640000006044820152606401610b38565b438110610ebe575060009392505050565b6000610ec985611540565b9050438110610edd57506001949350505050565b610ee685611fa4565b8015610f05575060008581526007602052604090208054600190910154115b15610f1557506004949350505050565b506003949350505050565b600080339050610f4184828560405180602001604052806000815250611f78565b949350505050565b600080339050610e0687828888888080601f0160208091040260200160405190810160405280939291908181526020018383808284376000920191909152508a92506119fb915050565b600954600090808203610faa575050600854919050565b60006009610fb9600184613688565b81548110610fc957610fc961369b565b60009182526020918290206040805180820190915291015463ffffffff81168083526401000000009091047bffffffffffffffffffffffffffffffffffffffffffffffffffffffff16928201929092529150841061104a57602001517bffffffffffffffffffffffffffffffffffffffffffffffffffffffff169392505050565b610f41600985611fdb565b3330146110a45760405162461bcd60e51b815260206004820152601860248201527f476f7665726e6f723a206f6e6c79476f7665726e616e636500000000000000006044820152606401610b38565b6110bb565b806110b46002611b95565b036110a957505b610b61816120b8565b60008033905061110c86828787878080601f016020809104026020016040519081016040528093929190818152602001838380828437600092019190915250611f7892505050565b9695505050505050565b6000611120611535565b61112f336107d1600143613688565b10156111a35760405162461bcd60e51b815260206004820152603160248201527f476f7665726e6f723a2070726f706f73657220766f7465732062656c6f77207060448201527f726f706f73616c207468726573686f6c640000000000000000000000000000006064820152608401610b38565b60006111b88686868680519060200120611674565b905084518651146112315760405162461bcd60e51b815260206004820152602160248201527f476f7665726e6f723a20696e76616c69642070726f706f73616c206c656e677460448201527f68000000000000000000000000000000000000000000000000000000000000006064820152608401610b38565b83518651146112a85760405162461bcd60e51b815260206004820152602160248201527f476f7665726e6f723a20696e76616c69642070726f706f73616c206c656e677460448201527f68000000000000000000000000000000000000000000000000000000000000006064820152608401610b38565b60008651116112f95760405162461bcd60e51b815260206004820152601860248201527f476f7665726e6f723a20656d7074792070726f706f73616c00000000000000006044820152606401610b38565b6000818152600160209081526040918290208251918201909252815467ffffffffffffffff1690819052156113965760405162461bcd60e51b815260206004820152602160248201527f476f7665726e6f723a2070726f706f73616c20616c726561647920657869737460448201527f73000000000000000000000000000000000000000000000000000000000000006064820152608401610b38565b60006113a86113a3610d90565b6120f9565b6113b1436120f9565b6113bb91906136ca565b905060006113ca6113a36109e5565b6113d490836136ca565b83547fffffffffffffffffffffffffffffffffffffffffffffffff00000000000000001667ffffffffffffffff841617845590506001830180547fffffffffffffffffffffffffffffffffffffffffffffffff00000000000000001667ffffffffffffffff83161790557f7d84a6263ae0d98d3329bd7b46bb4e8d6f98cd35a7adb45c274c8b7fd5ebd5e084338b8b8d5167ffffffffffffffff81111561147d5761147d612d16565b6040519080825280602002602001820160405280156114b057816020015b606081526020019060019003908161149b5790505b508c88888e6040516114ca999897969594939291906137c8565b60405180910390a15091979650505050505050565b60006114ec848484612179565b90505b9392505050565b6009546000901561152e5761150b600961189b565b7bffffffffffffffffffffffffffffffffffffffffffffffffffffffff16905090565b5060085490565b60006109f060065490565b600081815260016020818152604080842081519283019091529091015467ffffffffffffffff1690819052610d80565b3330146115bf5760405162461bcd60e51b815260206004820152601860248201527f476f7665726e6f723a206f6e6c79476f7665726e616e636500000000000000006044820152606401610b38565b6115d6565b806115cf6002611b95565b036115c457505b6000808573ffffffffffffffffffffffffffffffffffffffff168585856040516116019291906135f6565b60006040518083038185875af1925050503d806000811461163e576040519150601f19603f3d011682016040523d82523d6000602084013e611643565b606091505b509150915061166b8282604051806060016040528060288152602001613a5360289139612235565b50505050505050565b60008484848460405160200161168d94939291906138c7565b60408051601f19818403018152919052805160209091012095945050505050565b3330146116fd5760405162461bcd60e51b815260206004820152601860248201527f476f7665726e6f723a206f6e6c79476f7665726e616e636500000000000000006044820152606401610b38565b611714565b8061170d6002611b95565b0361170257505b610b618161224e565b60006114ef838361173960408051602081019091526000815290565b612179565b33301461178d5760405162461bcd60e51b815260206004820152601860248201527f476f7665726e6f723a206f6e6c79476f7665726e616e636500000000000000006044820152606401610b38565b6117a4565b8061179d6002611b95565b0361179257505b610b6181612305565b60006109df82612346565b60007bffffffffffffffffffffffffffffffffffffffffffffffffffffffff82111561184c5760405162461bcd60e51b815260206004820152602760248201527f53616665436173743a2076616c756520646f65736e27742066697420696e203260448201527f32342062697473000000000000000000000000000000000000000000000000006064820152608401610b38565b5090565b60008061186e84611860436118f8565b611869866117b8565b612416565b7bffffffffffffffffffffffffffffffffffffffffffffffffffffffff91821693501690505b9250929050565b805460009080156118ef576118c3836118b5600184613688565b600091825260209091200190565b5464010000000090047bffffffffffffffffffffffffffffffffffffffffffffffffffffffff166114ef565b60009392505050565b600063ffffffff82111561184c5760405162461bcd60e51b815260206004820152602660248201527f53616665436173743a2076616c756520646f65736e27742066697420696e203360448201527f32206269747300000000000000000000000000000000000000000000000000006064820152608401610b38565b60006109df611981612611565b836040517f19010000000000000000000000000000000000000000000000000000000000006020820152602281018390526042810182905260009060620160405160208183030381529060405280519060200120905092915050565b60008060006119ee87878787612745565b91509150610d4d81612816565b6000858152600160208190526040822090611a1588610e11565b6007811115611a2657611a266131ec565b14611a995760405162461bcd60e51b815260206004820152602360248201527f476f7665726e6f723a20766f7465206e6f742063757272656e746c792061637460448201527f69766500000000000000000000000000000000000000000000000000000000006064820152608401610b38565b6040805160208101909152815467ffffffffffffffff1690819052600090611ac390889086612179565b9050611ad2888888848861297b565b8351600003611b34578673ffffffffffffffffffffffffffffffffffffffff167fb8e138887d0aa13bab447e82de9d5c1777041ecd21ca36ba824ff1e6c07ddda489888489604051611b279493929190613912565b60405180910390a2610e06565b8673ffffffffffffffffffffffffffffffffffffffff167fe2babfbac5889a709b63bb7f598b324e08bc5a4fb9ec647fb3cbc9ec07eb87128988848989604051611b8295949392919061393a565b60405180910390a2979650505050505050565b6000611bbd8254600f81810b700100000000000000000000000000000000909204900b131590565b15611bf4576040517f3db2a12a00000000000000000000000000000000000000000000000000000000815260040160405180910390fd5b508054600f0b6000818152600180840160205260408220805492905583547fffffffffffffffffffffffffffffffff000000000000000000000000000000001692016fffffffffffffffffffffffffffffffff169190911790915590565b6064811115611cef5760405162461bcd60e51b815260206004820152604360248201527f476f7665726e6f72566f74657351756f72756d4672616374696f6e3a2071756f60448201527f72756d4e756d657261746f72206f7665722071756f72756d44656e6f6d696e6160648201527f746f720000000000000000000000000000000000000000000000000000000000608482015260a401610b38565b6000611cf96114f6565b90508015801590611d0a5750600954155b15611d8457604080518082019091526000815260099060208101611d2d846117b8565b7bffffffffffffffffffffffffffffffffffffffffffffffffffffffff90811690915282546001810184556000938452602093849020835194909301519091166401000000000263ffffffff909316929092179101555b611d8f600983611850565b505060408051828152602081018490527f0553476bf02ef2726e8ce5ced78d63e26e602e4a2257b1f559418e24b4633997910160405180910390a15050565b611e6e565b8451811015611e6c573073ffffffffffffffffffffffffffffffffffffffff16858281518110611e0557611e0561369b565b602002602001015173ffffffffffffffffffffffffffffffffffffffff1603611e5c57611e5c838281518110611e3d57611e3d61369b565b6020026020010151805190602001206002612b8790919063ffffffff16565b611e6581613980565b9050611dd3565b505b5050505050565b6000604051806060016040528060278152602001613a7b60279139905060005b855181101561166b57600080878381518110611eb357611eb361369b565b602002602001015173ffffffffffffffffffffffffffffffffffffffff16878481518110611ee357611ee361369b565b6020026020010151878581518110611efd57611efd61369b565b6020026020010151604051611f1291906139b8565b60006040518083038185875af1925050503d8060008114611f4f576040519150601f19603f3d011682016040523d82523d6000602084013e611f54565b606091505b5091509150611f64828286612235565b50505080611f7190613980565b9050611e95565b6000611f9b85858585611f9660408051602081019091526000815290565b6119fb565b95945050505050565b600081815260076020526040812060028101546001820154611fc691906139d4565b611fd261085685610d57565b11159392505050565b600043821061202c5760405162461bcd60e51b815260206004820181905260248201527f436865636b706f696e74733a20626c6f636b206e6f7420796574206d696e65646044820152606401610b38565b6000612037836118f8565b8454909150600061204a86848385612bd9565b9050801561208d57612061866118b5600184613688565b5464010000000090047bffffffffffffffffffffffffffffffffffffffffffffffffffffffff16612090565b60005b7bffffffffffffffffffffffffffffffffffffffffffffffffffffffff169695505050505050565b60045460408051918252602082018390527fc565b045403dc03c2eea82b81a0465edad9e2e7fc4d97e11421c209da93d7a93910160405180910390a1600455565b600067ffffffffffffffff82111561184c5760405162461bcd60e51b815260206004820152602660248201527f53616665436173743a2076616c756520646f65736e27742066697420696e203660448201527f34206269747300000000000000000000000000000000000000000000000000006064820152608401610b38565b6040517f3a46b1a800000000000000000000000000000000000000000000000000000000815273ffffffffffffffffffffffffffffffffffffffff8481166004830152602482018490526000917f000000000000000000000000000000000000000000000000000000000000000090911690633a46b1a890604401602060405180830381865afa158015612211573d6000803e3d6000fd5b505050506040513d601f19601f820116820180604052508101906114ec91906139e7565b606083156122445750816114ef565b6114ef8383612c37565b600081116122c45760405162461bcd60e51b815260206004820152602760248201527f476f7665726e6f7253657474696e67733a20766f74696e6720706572696f642060448201527f746f6f206c6f77000000000000000000000000000000000000000000000000006064820152608401610b38565b60055460408051918252602082018390527f7e3f7f0708a84de9203036abaa450dccc85ad5ff52f78c170f3edb55cf5e8828910160405180910390a1600555565b60065460408051918252602082018390527fccb45da8d5717e6c4544694297c4ba5cf151d455c9bb0ed4fc7a38411bc05461910160405180910390a1600655565b6000606461235383610f93565b6040517f8e539e8c000000000000000000000000000000000000000000000000000000008152600481018590527f000000000000000000000000000000000000000000000000000000000000000073ffffffffffffffffffffffffffffffffffffffff1690638e539e8c90602401602060405180830381865afa1580156123de573d6000803e3d6000fd5b505050506040513d601f19601f8201168201806040525081019061240291906139e7565b61240c9190613a00565b6109df9190613a17565b82546000908190801561259e576000612434876118b5600185613688565b60408051808201909152905463ffffffff8082168084526401000000009092047bffffffffffffffffffffffffffffffffffffffffffffffffffffffff16602084015291925090871610156124cb5760405162461bcd60e51b815260206004820152601760248201527f436865636b706f696e743a20696e76616c6964206b65790000000000000000006044820152606401610b38565b805163ffffffff80881691160361252957846124ec886118b5600186613688565b80547bffffffffffffffffffffffffffffffffffffffffffffffffffffffff929092166401000000000263ffffffff90921691909117905561258e565b6040805180820190915263ffffffff80881682527bffffffffffffffffffffffffffffffffffffffffffffffffffffffff80881660208085019182528b54600181018d5560008d81529190912094519151909216640100000000029216919091179101555b6020015192508391506126099050565b50506040805180820190915263ffffffff80851682527bffffffffffffffffffffffffffffffffffffffffffffffffffffffff80851660208085019182528854600181018a5560008a8152918220955192519093166401000000000291909316179201919091559050815b935093915050565b60003073ffffffffffffffffffffffffffffffffffffffff7f00000000000000000000000000000000000000000000000000000000000000001614801561267757507f000000000000000000000000000000000000000000000000000000000000000046145b156126a157507f000000000000000000000000000000000000000000000000000000000000000090565b50604080517f00000000000000000000000000000000000000000000000000000000000000006020808301919091527f0000000000000000000000000000000000000000000000000000000000000000828401527f000000000000000000000000000000000000000000000000000000000000000060608301524660808301523060a0808401919091528351808403909101815260c0909201909252805191012090565b6000807f7fffffffffffffffffffffffffffffff5d576e7357a4501ddfe92f46681b20a083111561277c575060009050600361280d565b6040805160008082526020820180845289905260ff881692820192909252606081018690526080810185905260019060a0016020604051602081039080840390855afa1580156127d0573d6000803e3d6000fd5b5050604051601f19015191505073ffffffffffffffffffffffffffffffffffffffff81166128065760006001925092505061280d565b9150600090505b94509492505050565b600081600481111561282a5761282a6131ec565b036128325750565b6001816004811115612846576128466131ec565b036128935760405162461bcd60e51b815260206004820152601860248201527f45434453413a20696e76616c6964207369676e617475726500000000000000006044820152606401610b38565b60028160048111156128a7576128a76131ec565b036128f45760405162461bcd60e51b815260206004820152601f60248201527f45434453413a20696e76616c6964207369676e6174757265206c656e677468006044820152606401610b38565b6003816004811115612908576129086131ec565b03610b615760405162461bcd60e51b815260206004820152602260248201527f45434453413a20696e76616c6964207369676e6174757265202773272076616c60448201527f75650000000000000000000000000000000000000000000000000000000000006064820152608401610b38565b600085815260076020908152604080832073ffffffffffffffffffffffffffffffffffffffff88168452600381019092529091205460ff1615612a265760405162461bcd60e51b815260206004820152602760248201527f476f7665726e6f72566f74696e6753696d706c653a20766f746520616c72656160448201527f64792063617374000000000000000000000000000000000000000000000000006064820152608401610b38565b73ffffffffffffffffffffffffffffffffffffffff85166000908152600382016020526040902080547fffffffffffffffffffffffffffffffffffffffffffffffffffffffffffffff0016600117905560ff8416612a9d5782816000016000828254612a9291906139d4565b90915550611e6c9050565b7fffffffffffffffffffffffffffffffffffffffffffffffffffffffffffffffff60ff851601612adb5782816001016000828254612a9291906139d4565b7ffffffffffffffffffffffffffffffffffffffffffffffffffffffffffffffffe60ff851601612b195782816002016000828254612a9291906139d4565b60405162461bcd60e51b815260206004820152603560248201527f476f7665726e6f72566f74696e6753696d706c653a20696e76616c696420766160448201527f6c756520666f7220656e756d20566f74655479706500000000000000000000006064820152608401610b38565b815470010000000000000000000000000000000090819004600f0b6000818152600180860160205260409091209390935583546fffffffffffffffffffffffffffffffff908116939091011602179055565b60005b81831015612c2f576000612bf08484612c61565b60008781526020902090915063ffffffff86169082015463ffffffff161115612c1b57809250612c29565b612c268160016139d4565b93505b50612bdc565b509392505050565b815115612c475781518083602001fd5b8060405162461bcd60e51b8152600401610b389190612efe565b6000612c706002848418613a17565b6114ef908484166139d4565b600060208284031215612c8e57600080fd5b81357fffffffff00000000000000000000000000000000000000000000000000000000811681146114ef57600080fd5b803560ff81168114612ccf57600080fd5b919050565b60008083601f840112612ce657600080fd5b50813567ffffffffffffffff811115612cfe57600080fd5b60208301915083602082850101111561189457600080fd5b7f4e487b7100000000000000000000000000000000000000000000000000000000600052604160045260246000fd5b604051601f8201601f1916810167ffffffffffffffff81118282101715612d6e57612d6e612d16565b604052919050565b600067ffffffffffffffff831115612d9057612d90612d16565b612da36020601f19601f86011601612d45565b9050828152838383011115612db757600080fd5b828260208301376000602084830101529392505050565b600082601f830112612ddf57600080fd5b6114ef83833560208501612d76565b60008060008060008060008060e0898b031215612e0a57600080fd5b88359750612e1a60208a01612cbe565b9650604089013567ffffffffffffffff80821115612e3757600080fd5b612e438c838d01612cd4565b909850965060608b0135915080821115612e5c57600080fd5b50612e698b828c01612dce565b945050612e7860808a01612cbe565b925060a0890135915060c089013590509295985092959890939650565b600060208284031215612ea757600080fd5b5035919050565b60005b83811015612ec9578181015183820152602001612eb1565b50506000910152565b60008151808452612eea816020860160208601612eae565b601f01601f19169290920160200192915050565b6020815260006114ef6020830184612ed2565b803573ffffffffffffffffffffffffffffffffffffffff81168114612ccf57600080fd5b60008060008060808587031215612f4b57600080fd5b612f5485612f11565b9350612f6260208601612f11565b925060408501359150606085013567ffffffffffffffff811115612f8557600080fd5b612f9187828801612dce565b91505092959194509250565b600067ffffffffffffffff821115612fb757612fb7612d16565b5060051b60200190565b600082601f830112612fd257600080fd5b81356020612fe7612fe283612f9d565b612d45565b82815260059290921b8401810191818101908684111561300657600080fd5b8286015b848110156130285761301b81612f11565b835291830191830161300a565b509695505050505050565b600082601f83011261304457600080fd5b81356020613054612fe283612f9d565b82815260059290921b8401810191818101908684111561307357600080fd5b8286015b848110156130285780358352918301918301613077565b600082601f83011261309f57600080fd5b813560206130af612fe283612f9d565b82815260059290921b840181019181810190868411156130ce57600080fd5b8286015b8481101561302857803567ffffffffffffffff8111156130f25760008081fd5b6131008986838b0101612dce565b8452509183019183016130d2565b6000806000806080858703121561312457600080fd5b843567ffffffffffffffff8082111561313c57600080fd5b61314888838901612fc1565b9550602087013591508082111561315e57600080fd5b61316a88838901613033565b9450604087013591508082111561318057600080fd5b5061318d8782880161308e565b949793965093946060013593505050565b600080600080600060a086880312156131b657600080fd5b853594506131c660208701612cbe565b93506131d460408701612cbe565b94979396509394606081013594506080013592915050565b7f4e487b7100000000000000000000000000000000000000000000000000000000600052602160045260246000fd5b6020810160088310613256577f4e487b7100000000000000000000000000000000000000000000000000000000600052602160045260246000fd5b91905290565b6000806040838503121561326f57600080fd5b8235915061327f60208401612f11565b90509250929050565b6000806040838503121561329b57600080fd5b8235915061327f60208401612cbe565b6000806000806000608086880312156132c357600080fd5b853594506132d360208701612cbe565b9350604086013567ffffffffffffffff808211156132f057600080fd5b6132fc89838a01612cd4565b9095509350606088013591508082111561331557600080fd5b5061332288828901612dce565b9150509295509295909350565b6000806000806060858703121561334557600080fd5b8435935061335560208601612cbe565b9250604085013567ffffffffffffffff81111561337157600080fd5b61337d87828801612cd4565b95989497509550505050565b6000806000806080858703121561339f57600080fd5b843567ffffffffffffffff808211156133b757600080fd5b6133c388838901612fc1565b955060208701359150808211156133d957600080fd5b6133e588838901613033565b945060408701359150808211156133fb57600080fd5b6134078883890161308e565b9350606087013591508082111561341d57600080fd5b508501601f8101871361342f57600080fd5b612f9187823560208401612d76565b60008060006060848603121561345357600080fd5b61345c84612f11565b925060208401359150604084013567ffffffffffffffff81111561347f57600080fd5b61348b86828701612dce565b9150509250925092565b600080600080600060a086880312156134ad57600080fd5b6134b686612f11565b94506134c460208701612f11565b9350604086013567ffffffffffffffff808211156134e157600080fd5b6134ed89838a01613033565b9450606088013591508082111561350357600080fd5b61350f89838a01613033565b9350608088013591508082111561331557600080fd5b6000806000806060858703121561353b57600080fd5b61354485612f11565b935060208501359250604085013567ffffffffffffffff81111561337157600080fd5b6000806040838503121561357a57600080fd5b61358383612f11565b946020939093013593505050565b600080600080600060a086880312156135a957600080fd5b6135b286612f11565b94506135c060208701612f11565b93506040860135925060608601359150608086013567ffffffffffffffff8111156135ea57600080fd5b61332288828901612dce565b8183823760009101908152919050565b600181811c9082168061361a57607f821691505b602082108103613653577f4e487b7100000000000000000000000000000000000000000000000000000000600052602260045260246000fd5b50919050565b7f4e487b7100000000000000000000000000000000000000000000000000000000600052601160045260246000fd5b818103818111156109df576109df613659565b7f4e487b7100000000000000000000000000000000000000000000000000000000600052603260045260246000fd5b67ffffffffffffffff8181168382160190808211156136eb576136eb613659565b5092915050565b600081518084526020808501945080840160005b8381101561373857815173ffffffffffffffffffffffffffffffffffffffff1687529582019590820190600101613706565b509495945050505050565b600081518084526020808501945080840160005b8381101561373857815187529582019590820190600101613757565b600081518084526020808501808196508360051b8101915082860160005b858110156137bb5782840389526137a9848351612ed2565b98850198935090840190600101613791565b5091979650505050505050565b60006101208b8352602073ffffffffffffffffffffffffffffffffffffffff8c16818501528160408501526137ff8285018c6136f2565b91508382036060850152613813828b613743565b915083820360808501528189518084528284019150828160051b850101838c0160005b8381101561386457601f19878403018552613852838351612ed2565b94860194925090850190600101613836565b505086810360a0880152613878818c613773565b94505050505061389460c084018767ffffffffffffffff169052565b67ffffffffffffffff851660e08401528281036101008401526138b78185612ed2565b9c9b505050505050505050505050565b6080815260006138da60808301876136f2565b82810360208401526138ec8187613743565b905082810360408401526139008186613773565b91505082606083015295945050505050565b84815260ff8416602082015282604082015260806060820152600061110c6080830184612ed2565b85815260ff8516602082015283604082015260a06060820152600061396260a0830185612ed2565b82810360808401526139748185612ed2565b98975050505050505050565b60007fffffffffffffffffffffffffffffffffffffffffffffffffffffffffffffffff82036139b1576139b1613659565b5060010190565b600082516139ca818460208701612eae565b9190910192915050565b808201808211156109df576109df613659565b6000602082840312156139f957600080fd5b5051919050565b80820281158282048414176109df576109df613659565b600082613a4d577f4e487b7100000000000000000000000000000000000000000000000000000000600052601260045260246000fd5b50049056fe476f7665726e6f723a2072656c617920726576657274656420776974686f7574206d657373616765476f7665726e6f723a2063616c6c20726576657274656420776974686f7574206d657373616765a26469706673582212200479c1ef23cacabcc752e5f5531d3baa159415bde9a3bbfaf1ccca795eaae48464736f6c63430008110033",
  "devdoc": {
    "author": "Polkadot Builders",
    "errors": {
      "Empty()": [
        {
          "details": "An operation (e.g. {front}) couldn't be completed due to the queue being empty."
        }
      ]
    },
    "kind": "dev",
    "methods": {
      "COUNTING_MODE()": {
        "details": "See {IGovernor-COUNTING_MODE}."
      },
      "castVote(uint256,uint8)": {
        "details": "See {IGovernor-castVote}."
      },
      "castVoteBySig(uint256,uint8,uint8,bytes32,bytes32)": {
        "details": "See {IGovernor-castVoteBySig}."
      },
      "castVoteWithReason(uint256,uint8,string)": {
        "details": "See {IGovernor-castVoteWithReason}."
      },
      "castVoteWithReasonAndParams(uint256,uint8,string,bytes)": {
        "details": "See {IGovernor-castVoteWithReasonAndParams}."
      },
      "castVoteWithReasonAndParamsBySig(uint256,uint8,string,bytes,uint8,bytes32,bytes32)": {
        "details": "See {IGovernor-castVoteWithReasonAndParamsBySig}."
      },
      "execute(address[],uint256[],bytes[],bytes32)": {
        "details": "See {IGovernor-execute}."
      },
      "getVotes(address,uint256)": {
        "details": "See {IGovernor-getVotes}."
      },
      "getVotesWithParams(address,uint256,bytes)": {
        "details": "See {IGovernor-getVotesWithParams}."
      },
      "hasVoted(uint256,address)": {
        "details": "See {IGovernor-hasVoted}."
      },
      "hashProposal(address[],uint256[],bytes[],bytes32)": {
        "details": "See {IGovernor-hashProposal}. The proposal id is produced by hashing the ABI encoded `targets` array, the `values` array, the `calldatas` array and the descriptionHash (bytes32 which itself is the keccak256 hash of the description string). This proposal id can be produced from the proposal data which is part of the {ProposalCreated} event. It can even be computed in advance, before the proposal is submitted. Note that the chainId and the governor address are not part of the proposal id computation. Consequently, the same proposal (with same operation and same description) will have the same id if submitted on multiple governors across multiple networks. This also means that in order to execute the same operation twice (on the same governor) the proposer will have to change the description in order to avoid proposal id conflicts."
      },
      "name()": {
        "details": "See {IGovernor-name}."
      },
      "onERC1155BatchReceived(address,address,uint256[],uint256[],bytes)": {
        "details": "See {IERC1155Receiver-onERC1155BatchReceived}."
      },
      "onERC1155Received(address,address,uint256,uint256,bytes)": {
        "details": "See {IERC1155Receiver-onERC1155Received}."
      },
      "onERC721Received(address,address,uint256,bytes)": {
        "details": "See {IERC721Receiver-onERC721Received}."
      },
      "proposalDeadline(uint256)": {
        "details": "See {IGovernor-proposalDeadline}."
      },
      "proposalSnapshot(uint256)": {
        "details": "See {IGovernor-proposalSnapshot}."
      },
      "proposalVotes(uint256)": {
        "details": "Accessor to the internal vote counts."
      },
      "propose(address[],uint256[],bytes[],string)": {
        "details": "See {IGovernor-propose}."
      },
      "quorumDenominator()": {
        "details": "Returns the quorum denominator. Defaults to 100, but may be overridden."
      },
      "quorumNumerator()": {
        "details": "Returns the current quorum numerator. See {quorumDenominator}."
      },
      "quorumNumerator(uint256)": {
        "details": "Returns the quorum numerator at a specific block number. See {quorumDenominator}."
      },
      "relay(address,uint256,bytes)": {
        "details": "Relays a transaction or function call to an arbitrary target. In cases where the governance executor is some contract other than the governor itself, like when using a timelock, this function can be invoked in a governance proposal to recover tokens or Ether that was sent to the governor contract by mistake. Note that if the executor is simply the governor itself, use of `relay` is redundant."
      },
      "setProposalThreshold(uint256)": {
        "details": "Update the proposal threshold. This operation can only be performed through a governance proposal. Emits a {ProposalThresholdSet} event."
      },
      "setVotingDelay(uint256)": {
        "details": "Update the voting delay. This operation can only be performed through a governance proposal. Emits a {VotingDelaySet} event."
      },
      "setVotingPeriod(uint256)": {
        "details": "Update the voting period. This operation can only be performed through a governance proposal. Emits a {VotingPeriodSet} event."
      },
      "state(uint256)": {
        "details": "See {IGovernor-state}."
      },
      "supportsInterface(bytes4)": {
        "details": "See {IERC165-supportsInterface}."
      },
      "updateQuorumNumerator(uint256)": {
        "details": "Changes the quorum numerator. Emits a {QuorumNumeratorUpdated} event. Requirements: - Must be called through a governance proposal. - New numerator must be smaller or equal to the denominator."
      },
      "version()": {
        "details": "See {IGovernor-version}."
      }
    },
    "title": "DaoGovernor",
    "version": 1
  },
  "userdoc": {
    "kind": "user",
    "methods": {},
    "notice": "This contract allows for execution of DAO proposals.",
    "version": 1
  },
  "storageLayout": {
    "storage": [
      {
        "astId": 172,
        "contract": "contracts/DaoGovernor.sol:DaoGovernor",
        "label": "_name",
        "offset": 0,
        "slot": "0",
        "type": "t_string_storage"
      },
      {
        "astId": 177,
        "contract": "contracts/DaoGovernor.sol:DaoGovernor",
        "label": "_proposals",
        "offset": 0,
        "slot": "1",
        "type": "t_mapping(t_uint256,t_struct(ProposalCore)170_storage)"
      },
      {
        "astId": 180,
        "contract": "contracts/DaoGovernor.sol:DaoGovernor",
        "label": "_governanceCall",
        "offset": 0,
        "slot": "2",
        "type": "t_struct(Bytes32Deque)9897_storage"
      },
      {
        "astId": 1951,
        "contract": "contracts/DaoGovernor.sol:DaoGovernor",
        "label": "_votingDelay",
        "offset": 0,
        "slot": "4",
        "type": "t_uint256"
      },
      {
        "astId": 1953,
        "contract": "contracts/DaoGovernor.sol:DaoGovernor",
        "label": "_votingPeriod",
        "offset": 0,
        "slot": "5",
        "type": "t_uint256"
      },
      {
        "astId": 1955,
        "contract": "contracts/DaoGovernor.sol:DaoGovernor",
        "label": "_proposalThreshold",
        "offset": 0,
        "slot": "6",
        "type": "t_uint256"
      },
      {
        "astId": 1743,
        "contract": "contracts/DaoGovernor.sol:DaoGovernor",
        "label": "_proposalVotes",
        "offset": 0,
        "slot": "7",
        "type": "t_mapping(t_uint256,t_struct(ProposalVote)1738_storage)"
      },
      {
        "astId": 2177,
        "contract": "contracts/DaoGovernor.sol:DaoGovernor",
        "label": "_quorumNumerator",
        "offset": 0,
        "slot": "8",
        "type": "t_uint256"
      },
      {
        "astId": 2180,
        "contract": "contracts/DaoGovernor.sol:DaoGovernor",
        "label": "_quorumNumeratorHistory",
        "offset": 0,
        "slot": "9",
        "type": "t_struct(History)5075_storage"
      }
    ],
    "types": {
      "t_address": {
        "encoding": "inplace",
        "label": "address",
        "numberOfBytes": "20"
      },
      "t_array(t_struct(Checkpoint)5080_storage)dyn_storage": {
        "base": "t_struct(Checkpoint)5080_storage",
        "encoding": "dynamic_array",
        "label": "struct Checkpoints.Checkpoint[]",
        "numberOfBytes": "32"
      },
      "t_bool": {
        "encoding": "inplace",
        "label": "bool",
        "numberOfBytes": "1"
      },
      "t_bytes32": {
        "encoding": "inplace",
        "label": "bytes32",
        "numberOfBytes": "32"
      },
      "t_int128": {
        "encoding": "inplace",
        "label": "int128",
        "numberOfBytes": "16"
      },
      "t_mapping(t_address,t_bool)": {
        "encoding": "mapping",
        "key": "t_address",
        "label": "mapping(address => bool)",
        "numberOfBytes": "32",
        "value": "t_bool"
      },
      "t_mapping(t_int128,t_bytes32)": {
        "encoding": "mapping",
        "key": "t_int128",
        "label": "mapping(int128 => bytes32)",
        "numberOfBytes": "32",
        "value": "t_bytes32"
      },
      "t_mapping(t_uint256,t_struct(ProposalCore)170_storage)": {
        "encoding": "mapping",
        "key": "t_uint256",
        "label": "mapping(uint256 => struct Governor.ProposalCore)",
        "numberOfBytes": "32",
        "value": "t_struct(ProposalCore)170_storage"
      },
      "t_mapping(t_uint256,t_struct(ProposalVote)1738_storage)": {
        "encoding": "mapping",
        "key": "t_uint256",
        "label": "mapping(uint256 => struct GovernorCountingSimple.ProposalVote)",
        "numberOfBytes": "32",
        "value": "t_struct(ProposalVote)1738_storage"
      },
      "t_string_storage": {
        "encoding": "bytes",
        "label": "string",
        "numberOfBytes": "32"
      },
      "t_struct(BlockNumber)6818_storage": {
        "encoding": "inplace",
        "label": "struct Timers.BlockNumber",
        "members": [
          {
            "astId": 6817,
            "contract": "contracts/DaoGovernor.sol:DaoGovernor",
            "label": "_deadline",
            "offset": 0,
            "slot": "0",
            "type": "t_uint64"
          }
        ],
        "numberOfBytes": "32"
      },
      "t_struct(Bytes32Deque)9897_storage": {
        "encoding": "inplace",
        "label": "struct DoubleEndedQueue.Bytes32Deque",
        "members": [
          {
            "astId": 9890,
            "contract": "contracts/DaoGovernor.sol:DaoGovernor",
            "label": "_begin",
            "offset": 0,
            "slot": "0",
            "type": "t_int128"
          },
          {
            "astId": 9892,
            "contract": "contracts/DaoGovernor.sol:DaoGovernor",
            "label": "_end",
            "offset": 16,
            "slot": "0",
            "type": "t_int128"
          },
          {
            "astId": 9896,
            "contract": "contracts/DaoGovernor.sol:DaoGovernor",
            "label": "_data",
            "offset": 0,
            "slot": "1",
            "type": "t_mapping(t_int128,t_bytes32)"
          }
        ],
        "numberOfBytes": "64"
      },
      "t_struct(Checkpoint)5080_storage": {
        "encoding": "inplace",
        "label": "struct Checkpoints.Checkpoint",
        "members": [
          {
            "astId": 5077,
            "contract": "contracts/DaoGovernor.sol:DaoGovernor",
            "label": "_blockNumber",
            "offset": 0,
            "slot": "0",
            "type": "t_uint32"
          },
          {
            "astId": 5079,
            "contract": "contracts/DaoGovernor.sol:DaoGovernor",
            "label": "_value",
            "offset": 4,
            "slot": "0",
            "type": "t_uint224"
          }
        ],
        "numberOfBytes": "32"
      },
      "t_struct(History)5075_storage": {
        "encoding": "inplace",
        "label": "struct Checkpoints.History",
        "members": [
          {
            "astId": 5074,
            "contract": "contracts/DaoGovernor.sol:DaoGovernor",
            "label": "_checkpoints",
            "offset": 0,
            "slot": "0",
            "type": "t_array(t_struct(Checkpoint)5080_storage)dyn_storage"
          }
        ],
        "numberOfBytes": "32"
      },
      "t_struct(ProposalCore)170_storage": {
        "encoding": "inplace",
        "label": "struct Governor.ProposalCore",
        "members": [
          {
            "astId": 162,
            "contract": "contracts/DaoGovernor.sol:DaoGovernor",
            "label": "voteStart",
            "offset": 0,
            "slot": "0",
            "type": "t_struct(BlockNumber)6818_storage"
          },
          {
            "astId": 165,
            "contract": "contracts/DaoGovernor.sol:DaoGovernor",
            "label": "voteEnd",
            "offset": 0,
            "slot": "1",
            "type": "t_struct(BlockNumber)6818_storage"
          },
          {
            "astId": 167,
            "contract": "contracts/DaoGovernor.sol:DaoGovernor",
            "label": "executed",
            "offset": 0,
            "slot": "2",
            "type": "t_bool"
          },
          {
            "astId": 169,
            "contract": "contracts/DaoGovernor.sol:DaoGovernor",
            "label": "canceled",
            "offset": 1,
            "slot": "2",
            "type": "t_bool"
          }
        ],
        "numberOfBytes": "96"
      },
      "t_struct(ProposalVote)1738_storage": {
        "encoding": "inplace",
        "label": "struct GovernorCountingSimple.ProposalVote",
        "members": [
          {
            "astId": 1729,
            "contract": "contracts/DaoGovernor.sol:DaoGovernor",
            "label": "againstVotes",
            "offset": 0,
            "slot": "0",
            "type": "t_uint256"
          },
          {
            "astId": 1731,
            "contract": "contracts/DaoGovernor.sol:DaoGovernor",
            "label": "forVotes",
            "offset": 0,
            "slot": "1",
            "type": "t_uint256"
          },
          {
            "astId": 1733,
            "contract": "contracts/DaoGovernor.sol:DaoGovernor",
            "label": "abstainVotes",
            "offset": 0,
            "slot": "2",
            "type": "t_uint256"
          },
          {
            "astId": 1737,
            "contract": "contracts/DaoGovernor.sol:DaoGovernor",
            "label": "hasVoted",
            "offset": 0,
            "slot": "3",
            "type": "t_mapping(t_address,t_bool)"
          }
        ],
        "numberOfBytes": "128"
      },
      "t_uint224": {
        "encoding": "inplace",
        "label": "uint224",
        "numberOfBytes": "28"
      },
      "t_uint256": {
        "encoding": "inplace",
        "label": "uint256",
        "numberOfBytes": "32"
      },
      "t_uint32": {
        "encoding": "inplace",
        "label": "uint32",
        "numberOfBytes": "4"
      },
      "t_uint64": {
        "encoding": "inplace",
        "label": "uint64",
        "numberOfBytes": "8"
      }
    }
  }
}