{
  "address": "0xa3c1C92E37e2bDe5d84B4a2e406DCabb15F34Cc2",
  "abi": [
    {
      "anonymous": false,
      "inputs": [
        {
          "indexed": true,
          "internalType": "address",
          "name": "previousOwner",
          "type": "address"
        },
        {
          "indexed": true,
          "internalType": "address",
          "name": "newOwner",
          "type": "address"
        }
      ],
      "name": "OwnershipTransferred",
      "type": "event"
    },
    {
      "inputs": [
        {
          "components": [
            {
              "internalType": "string",
              "name": "name",
              "type": "string"
            },
            {
              "internalType": "string",
              "name": "color",
              "type": "string"
            }
          ],
          "internalType": "struct IPartsStore.Color",
          "name": "color",
          "type": "tuple"
        }
      ],
      "name": "addBgColor",
      "outputs": [],
      "stateMutability": "nonpayable",
      "type": "function"
    },
    {
      "inputs": [
        {
          "components": [
            {
              "internalType": "string",
              "name": "name",
              "type": "string"
            },
            {
              "internalType": "string",
              "name": "svg",
              "type": "string"
            }
          ],
          "internalType": "struct IPartsStore.ImagePart",
          "name": "part",
          "type": "tuple"
        }
      ],
      "name": "addClass",
      "outputs": [],
      "stateMutability": "nonpayable",
      "type": "function"
    },
    {
      "inputs": [
        {
          "components": [
            {
              "internalType": "string",
              "name": "name",
              "type": "string"
            },
            {
              "internalType": "string",
              "name": "svg",
              "type": "string"
            }
          ],
          "internalType": "struct IPartsStore.ImagePart",
          "name": "part",
          "type": "tuple"
        }
      ],
      "name": "addCrown",
      "outputs": [],
      "stateMutability": "nonpayable",
      "type": "function"
    },
    {
      "inputs": [
        {
          "components": [
            {
              "internalType": "string",
              "name": "name",
              "type": "string"
            },
            {
              "internalType": "string",
              "name": "svg",
              "type": "string"
            }
          ],
          "internalType": "struct IPartsStore.ImagePart",
          "name": "part",
          "type": "tuple"
        }
      ],
      "name": "addDoodad",
      "outputs": [],
      "stateMutability": "nonpayable",
      "type": "function"
    },
    {
      "inputs": [
        {
          "components": [
            {
              "internalType": "string",
              "name": "name",
              "type": "string"
            },
            {
              "internalType": "string",
              "name": "svg",
              "type": "string"
            }
          ],
          "internalType": "struct IPartsStore.ImagePart",
          "name": "part",
          "type": "tuple"
        }
      ],
      "name": "addGarland",
      "outputs": [],
      "stateMutability": "nonpayable",
      "type": "function"
    },
    {
      "inputs": [
        {
          "components": [
            {
              "internalType": "string",
              "name": "name",
              "type": "string"
            },
            {
              "internalType": "string",
              "name": "color",
              "type": "string"
            }
          ],
          "internalType": "struct IPartsStore.Color",
          "name": "color",
          "type": "tuple"
        }
      ],
      "name": "addNogglesColor",
      "outputs": [],
      "stateMutability": "nonpayable",
      "type": "function"
    },
    {
      "inputs": [
        {
          "components": [
            {
              "internalType": "string",
              "name": "name",
              "type": "string"
            },
            {
              "internalType": "string",
              "name": "primary",
              "type": "string"
            },
            {
              "internalType": "string",
              "name": "secondary",
              "type": "string"
            }
          ],
          "internalType": "struct IPartsStore.Palette",
          "name": "palette",
          "type": "tuple"
        }
      ],
      "name": "addQuadrantPalette",
      "outputs": [],
      "stateMutability": "nonpayable",
      "type": "function"
    },
    {
      "inputs": [
        {
          "components": [
            {
              "internalType": "string",
              "name": "name",
              "type": "string"
            },
            {
              "internalType": "string",
              "name": "svg",
              "type": "string"
            }
          ],
          "internalType": "struct IPartsStore.ImagePart",
          "name": "part",
          "type": "tuple"
        }
      ],
      "name": "addRep",
      "outputs": [],
      "stateMutability": "nonpayable",
      "type": "function"
    },
    {
      "inputs": [
        {
          "components": [
            {
              "internalType": "string",
              "name": "name",
              "type": "string"
            },
            {
              "internalType": "string",
              "name": "svg",
              "type": "string"
            }
          ],
          "internalType": "struct IPartsStore.ImagePart",
          "name": "part",
          "type": "tuple"
        }
      ],
      "name": "addShield",
      "outputs": [],
      "stateMutability": "nonpayable",
      "type": "function"
    },
    {
      "inputs": [
        {
          "components": [
            {
              "internalType": "string",
              "name": "name",
              "type": "string"
            },
            {
              "internalType": "string",
              "name": "svg",
              "type": "string"
            }
          ],
          "internalType": "struct IPartsStore.ImagePart",
          "name": "part",
          "type": "tuple"
        }
      ],
      "name": "addSkill",
      "outputs": [],
      "stateMutability": "nonpayable",
      "type": "function"
    },
    {
      "inputs": [
        {
          "components": [
            {
              "internalType": "string",
              "name": "name",
              "type": "string"
            },
            {
              "internalType": "string",
              "name": "svg",
              "type": "string"
            }
          ],
          "internalType": "struct IPartsStore.ImagePart",
          "name": "part",
          "type": "tuple"
        }
      ],
      "name": "addTrait",
      "outputs": [],
      "stateMutability": "nonpayable",
      "type": "function"
    },
    {
      "inputs": [
        {
          "internalType": "uint256",
          "name": "",
          "type": "uint256"
        }
      ],
      "name": "bgColors",
      "outputs": [
        {
          "internalType": "string",
          "name": "name",
          "type": "string"
        },
        {
          "internalType": "string",
          "name": "color",
          "type": "string"
        }
      ],
      "stateMutability": "view",
      "type": "function"
    },
    {
      "inputs": [],
      "name": "bgColorsCount",
      "outputs": [
        {
          "internalType": "uint256",
          "name": "",
          "type": "uint256"
        }
      ],
      "stateMutability": "view",
      "type": "function"
    },
    {
      "inputs": [
        {
          "internalType": "uint256",
          "name": "",
          "type": "uint256"
        }
      ],
      "name": "classes",
      "outputs": [
        {
          "internalType": "string",
          "name": "name",
          "type": "string"
        },
        {
          "internalType": "string",
          "name": "svg",
          "type": "string"
        }
      ],
      "stateMutability": "view",
      "type": "function"
    },
    {
      "inputs": [],
      "name": "classesCount",
      "outputs": [
        {
          "internalType": "uint256",
          "name": "",
          "type": "uint256"
        }
      ],
      "stateMutability": "view",
      "type": "function"
    },
    {
      "inputs": [
        {
          "internalType": "uint256",
          "name": "",
          "type": "uint256"
        }
      ],
      "name": "crowns",
      "outputs": [
        {
          "internalType": "string",
          "name": "name",
          "type": "string"
        },
        {
          "internalType": "string",
          "name": "svg",
          "type": "string"
        }
      ],
      "stateMutability": "view",
      "type": "function"
    },
    {
      "inputs": [],
      "name": "crownsCount",
      "outputs": [
        {
          "internalType": "uint256",
          "name": "",
          "type": "uint256"
        }
      ],
      "stateMutability": "view",
      "type": "function"
    },
    {
      "inputs": [
        {
          "internalType": "uint256",
          "name": "",
          "type": "uint256"
        }
      ],
      "name": "doodads",
      "outputs": [
        {
          "internalType": "string",
          "name": "name",
          "type": "string"
        },
        {
          "internalType": "string",
          "name": "svg",
          "type": "string"
        }
      ],
      "stateMutability": "view",
      "type": "function"
    },
    {
      "inputs": [],
      "name": "doodadsCount",
      "outputs": [
        {
          "internalType": "uint256",
          "name": "",
          "type": "uint256"
        }
      ],
      "stateMutability": "view",
      "type": "function"
    },
    {
      "inputs": [
        {
          "internalType": "uint256",
          "name": "",
          "type": "uint256"
        }
      ],
      "name": "garlands",
      "outputs": [
        {
          "internalType": "string",
          "name": "name",
          "type": "string"
        },
        {
          "internalType": "string",
          "name": "svg",
          "type": "string"
        }
      ],
      "stateMutability": "view",
      "type": "function"
    },
    {
      "inputs": [],
      "name": "garlandsCount",
      "outputs": [
        {
          "internalType": "uint256",
          "name": "",
          "type": "uint256"
        }
      ],
      "stateMutability": "view",
      "type": "function"
    },
    {
      "inputs": [],
      "name": "getAllParts",
      "outputs": [
        {
          "components": [
            {
              "internalType": "string[]",
              "name": "bgColors",
              "type": "string[]"
            },
            {
              "internalType": "string[]",
              "name": "nogglesColors",
              "type": "string[]"
            },
            {
              "internalType": "string[]",
              "name": "crowns",
              "type": "string[]"
            },
            {
              "internalType": "string[]",
              "name": "doodads",
              "type": "string[]"
            },
            {
              "internalType": "string[]",
              "name": "garlands",
              "type": "string[]"
            },
            {
              "internalType": "string[]",
              "name": "shields",
              "type": "string[]"
            },
            {
              "internalType": "string[]",
              "name": "quadrantPalettes",
              "type": "string[]"
            },
            {
              "internalType": "string[]",
              "name": "reps",
              "type": "string[]"
            },
            {
              "internalType": "string[]",
              "name": "skills",
              "type": "string[]"
            },
            {
              "internalType": "string[]",
              "name": "classes",
              "type": "string[]"
            },
            {
              "internalType": "string[]",
              "name": "traits",
              "type": "string[]"
            }
          ],
          "internalType": "struct IPartsStore.AllParts",
          "name": "",
          "type": "tuple"
        }
      ],
      "stateMutability": "view",
      "type": "function"
    },
    {
      "inputs": [
        {
          "internalType": "uint8",
          "name": "id",
          "type": "uint8"
        }
      ],
      "name": "getBgColor",
      "outputs": [
        {
          "components": [
            {
              "internalType": "string",
              "name": "name",
              "type": "string"
            },
            {
              "internalType": "string",
              "name": "color",
              "type": "string"
            }
          ],
          "internalType": "struct IPartsStore.Color",
          "name": "",
          "type": "tuple"
        }
      ],
      "stateMutability": "view",
      "type": "function"
    },
    {
      "inputs": [
        {
          "internalType": "uint8",
          "name": "id",
          "type": "uint8"
        }
      ],
      "name": "getClass",
      "outputs": [
        {
          "components": [
            {
              "internalType": "string",
              "name": "name",
              "type": "string"
            },
            {
              "internalType": "string",
              "name": "svg",
              "type": "string"
            }
          ],
          "internalType": "struct IPartsStore.ImagePart",
          "name": "",
          "type": "tuple"
        }
      ],
      "stateMutability": "view",
      "type": "function"
    },
    {
      "inputs": [
        {
          "internalType": "uint8",
          "name": "id",
          "type": "uint8"
        }
      ],
      "name": "getCrown",
      "outputs": [
        {
          "components": [
            {
              "internalType": "string",
              "name": "name",
              "type": "string"
            },
            {
              "internalType": "string",
              "name": "svg",
              "type": "string"
            }
          ],
          "internalType": "struct IPartsStore.ImagePart",
          "name": "",
          "type": "tuple"
        }
      ],
      "stateMutability": "view",
      "type": "function"
    },
    {
      "inputs": [
        {
          "internalType": "uint8",
          "name": "id",
          "type": "uint8"
        }
      ],
      "name": "getDoodad",
      "outputs": [
        {
          "components": [
            {
              "internalType": "string",
              "name": "name",
              "type": "string"
            },
            {
              "internalType": "string",
              "name": "svg",
              "type": "string"
            }
          ],
          "internalType": "struct IPartsStore.ImagePart",
          "name": "",
          "type": "tuple"
        }
      ],
      "stateMutability": "view",
      "type": "function"
    },
    {
      "inputs": [
        {
          "internalType": "uint8",
          "name": "id",
          "type": "uint8"
        }
      ],
      "name": "getGarland",
      "outputs": [
        {
          "components": [
            {
              "internalType": "string",
              "name": "name",
              "type": "string"
            },
            {
              "internalType": "string",
              "name": "svg",
              "type": "string"
            }
          ],
          "internalType": "struct IPartsStore.ImagePart",
          "name": "",
          "type": "tuple"
        }
      ],
      "stateMutability": "view",
      "type": "function"
    },
    {
      "inputs": [
        {
          "internalType": "uint8",
          "name": "id",
          "type": "uint8"
        }
      ],
      "name": "getNogglesColor",
      "outputs": [
        {
          "components": [
            {
              "internalType": "string",
              "name": "name",
              "type": "string"
            },
            {
              "internalType": "string",
              "name": "color",
              "type": "string"
            }
          ],
          "internalType": "struct IPartsStore.Color",
          "name": "",
          "type": "tuple"
        }
      ],
      "stateMutability": "view",
      "type": "function"
    },
    {
      "inputs": [
        {
          "internalType": "uint8",
          "name": "id",
          "type": "uint8"
        }
      ],
      "name": "getQuadrantPalette",
      "outputs": [
        {
          "components": [
            {
              "internalType": "string",
              "name": "name",
              "type": "string"
            },
            {
              "internalType": "string",
              "name": "primary",
              "type": "string"
            },
            {
              "internalType": "string",
              "name": "secondary",
              "type": "string"
            }
          ],
          "internalType": "struct IPartsStore.Palette",
          "name": "",
          "type": "tuple"
        }
      ],
      "stateMutability": "view",
      "type": "function"
    },
    {
      "inputs": [
        {
          "internalType": "uint8",
          "name": "id",
          "type": "uint8"
        }
      ],
      "name": "getRep",
      "outputs": [
        {
          "components": [
            {
              "internalType": "string",
              "name": "name",
              "type": "string"
            },
            {
              "internalType": "string",
              "name": "svg",
              "type": "string"
            }
          ],
          "internalType": "struct IPartsStore.ImagePart",
          "name": "",
          "type": "tuple"
        }
      ],
      "stateMutability": "view",
      "type": "function"
    },
    {
      "inputs": [
        {
          "internalType": "uint8",
          "name": "id",
          "type": "uint8"
        }
      ],
      "name": "getShield",
      "outputs": [
        {
          "components": [
            {
              "internalType": "string",
              "name": "name",
              "type": "string"
            },
            {
              "internalType": "string",
              "name": "svg",
              "type": "string"
            }
          ],
          "internalType": "struct IPartsStore.ImagePart",
          "name": "",
          "type": "tuple"
        }
      ],
      "stateMutability": "view",
      "type": "function"
    },
    {
      "inputs": [
        {
          "internalType": "uint8",
          "name": "id",
          "type": "uint8"
        }
      ],
      "name": "getSkill",
      "outputs": [
        {
          "components": [
            {
              "internalType": "string",
              "name": "name",
              "type": "string"
            },
            {
              "internalType": "string",
              "name": "svg",
              "type": "string"
            }
          ],
          "internalType": "struct IPartsStore.ImagePart",
          "name": "",
          "type": "tuple"
        }
      ],
      "stateMutability": "view",
      "type": "function"
    },
    {
      "inputs": [
        {
          "internalType": "uint8",
          "name": "id",
          "type": "uint8"
        }
      ],
      "name": "getTrait",
      "outputs": [
        {
          "components": [
            {
              "internalType": "string",
              "name": "name",
              "type": "string"
            },
            {
              "internalType": "string",
              "name": "svg",
              "type": "string"
            }
          ],
          "internalType": "struct IPartsStore.ImagePart",
          "name": "",
          "type": "tuple"
        }
      ],
      "stateMutability": "view",
      "type": "function"
    },
    {
      "inputs": [
        {
          "internalType": "uint256",
          "name": "",
          "type": "uint256"
        }
      ],
      "name": "nogglesColors",
      "outputs": [
        {
          "internalType": "string",
          "name": "name",
          "type": "string"
        },
        {
          "internalType": "string",
          "name": "color",
          "type": "string"
        }
      ],
      "stateMutability": "view",
      "type": "function"
    },
    {
      "inputs": [],
      "name": "nogglesColorsCount",
      "outputs": [
        {
          "internalType": "uint256",
          "name": "",
          "type": "uint256"
        }
      ],
      "stateMutability": "view",
      "type": "function"
    },
    {
      "inputs": [],
      "name": "owner",
      "outputs": [
        {
          "internalType": "address",
          "name": "",
          "type": "address"
        }
      ],
      "stateMutability": "view",
      "type": "function"
    },
    {
      "inputs": [
        {
          "internalType": "uint256",
          "name": "",
          "type": "uint256"
        }
      ],
      "name": "quadrantPalettes",
      "outputs": [
        {
          "internalType": "string",
          "name": "name",
          "type": "string"
        },
        {
          "internalType": "string",
          "name": "primary",
          "type": "string"
        },
        {
          "internalType": "string",
          "name": "secondary",
          "type": "string"
        }
      ],
      "stateMutability": "view",
      "type": "function"
    },
    {
      "inputs": [],
      "name": "quadrantPalettesCount",
      "outputs": [
        {
          "internalType": "uint256",
          "name": "",
          "type": "uint256"
        }
      ],
      "stateMutability": "view",
      "type": "function"
    },
    {
      "inputs": [],
      "name": "renounceOwnership",
      "outputs": [],
      "stateMutability": "nonpayable",
      "type": "function"
    },
    {
      "inputs": [
        {
          "internalType": "uint256",
          "name": "",
          "type": "uint256"
        }
      ],
      "name": "reps",
      "outputs": [
        {
          "internalType": "string",
          "name": "name",
          "type": "string"
        },
        {
          "internalType": "string",
          "name": "svg",
          "type": "string"
        }
      ],
      "stateMutability": "view",
      "type": "function"
    },
    {
      "inputs": [],
      "name": "repsCount",
      "outputs": [
        {
          "internalType": "uint256",
          "name": "",
          "type": "uint256"
        }
      ],
      "stateMutability": "view",
      "type": "function"
    },
    {
      "inputs": [
        {
          "internalType": "uint256",
          "name": "",
          "type": "uint256"
        }
      ],
      "name": "shields",
      "outputs": [
        {
          "internalType": "string",
          "name": "name",
          "type": "string"
        },
        {
          "internalType": "string",
          "name": "svg",
          "type": "string"
        }
      ],
      "stateMutability": "view",
      "type": "function"
    },
    {
      "inputs": [],
      "name": "shieldsCount",
      "outputs": [
        {
          "internalType": "uint256",
          "name": "",
          "type": "uint256"
        }
      ],
      "stateMutability": "view",
      "type": "function"
    },
    {
      "inputs": [
        {
          "internalType": "uint256",
          "name": "",
          "type": "uint256"
        }
      ],
      "name": "skills",
      "outputs": [
        {
          "internalType": "string",
          "name": "name",
          "type": "string"
        },
        {
          "internalType": "string",
          "name": "svg",
          "type": "string"
        }
      ],
      "stateMutability": "view",
      "type": "function"
    },
    {
      "inputs": [],
      "name": "skillsCount",
      "outputs": [
        {
          "internalType": "uint256",
          "name": "",
          "type": "uint256"
        }
      ],
      "stateMutability": "view",
      "type": "function"
    },
    {
      "inputs": [
        {
          "internalType": "uint256",
          "name": "",
          "type": "uint256"
        }
      ],
      "name": "traits",
      "outputs": [
        {
          "internalType": "string",
          "name": "name",
          "type": "string"
        },
        {
          "internalType": "string",
          "name": "svg",
          "type": "string"
        }
      ],
      "stateMutability": "view",
      "type": "function"
    },
    {
      "inputs": [],
      "name": "traitsCount",
      "outputs": [
        {
          "internalType": "uint256",
          "name": "",
          "type": "uint256"
        }
      ],
      "stateMutability": "view",
      "type": "function"
    },
    {
      "inputs": [
        {
          "internalType": "address",
          "name": "newOwner",
          "type": "address"
        }
      ],
      "name": "transferOwnership",
      "outputs": [],
      "stateMutability": "nonpayable",
      "type": "function"
    }
  ],
  "transactionHash": "0x7cc76cf5e0533f2af4125248efb65dcfd3a02b8a9fbe6a3fcd78c8b9f3d7e738",
  "args": [],
  "numDeployments": 1,
  "solcInputHash": "9e7cd3cfef600a1b4c551bb6afd2ef35",
  "bytecode": "0x608060405234801561001057600080fd5b5061001a3361001f565b61006f565b600080546001600160a01b038381166001600160a01b0319831681178455604051919092169283917f8be0079c531659141344cd1fd0a4f28419497f9722a3daafe3b4186f6b6457e09190a35050565b6131b3806200007f6000396000f3fe608060405234801561001057600080fd5b50600436106103205760003560e01c80638d915d1f116101a7578063d2c957e9116100ee578063e703c18611610097578063f2fde38b11610071578063f2fde38b1461064e578063f862ab1b14610661578063f87b5d6a1461067457600080fd5b8063e703c18614610620578063e986366414610628578063ee9a808f1461063b57600080fd5b8063e2c24605116100c8578063e2c24605146105e7578063e3ec8b98146105fa578063e465b0551461060d57600080fd5b8063d2c957e9146105b9578063d8a4234d146105cc578063ddee33b5146105df57600080fd5b8063abb26ac411610150578063c80adbdb1161012a578063c80adbdb14610571578063ceed017514610584578063d19893c31461059757600080fd5b8063abb26ac414610543578063b09c691c14610556578063b122c74f1461056957600080fd5b80639da775d0116101815780639da775d0146105085780639df263dd1461051b5780639f76a1e51461053057600080fd5b80638d915d1f146104dd5780638da5cb5b146104e55780639d1f65891461050057600080fd5b80636f25dcd51161026b57806384a5d1c61161021457806387f30789116101ee57806387f30789146104af5780638bb5ad96146104b75780638ce33c25146104ca57600080fd5b806384a5d1c614610481578063872f5b4c1461048957806387dddae51461049c57600080fd5b80637cca159e116102455780637cca159e1461045357806380942bfe1461045b578063817dbe9f1461046e57600080fd5b80636f25dcd514610430578063715018a6146104435780637576bf871461044b57600080fd5b80633d0cf8cb116102cd5780635e39eee0116102a75780635e39eee0146103f7578063621dc7361461040a57806365c1b3f11461041d57600080fd5b80633d0cf8cb146103bc57806350d15fbe146103d15780635bca69ec146103e457600080fd5b80632d72225b116102fe5780632d72225b146103815780632f6171cb146103a2578063320d7b4b146103b457600080fd5b8063077e69cc1461032557806315c507db1461034e5780632c0d2de61461036e575b600080fd5b6103386103333660046129c0565b610687565b6040516103459190612a30565b60405180910390f35b61036161035c3660046129c0565b610897565b6040516103459190612abf565b61036161037c3660046129c0565b61097c565b61039461038f366004612ad2565b6109a6565b604051610345929190612aeb565b6007545b604051908152602001610345565b600a546103a6565b6103cf6103ca366004612b28565b610aea565b005b6103946103df366004612ad2565b610b80565b6103946103f2366004612ad2565b610b90565b6103616104053660046129c0565b610ba0565b610394610418366004612ad2565b610bca565b6103cf61042b366004612b65565b610bda565b61036161043e3660046129c0565b610c67565b6103cf610c91565b6006546103a6565b6002546103a6565b6103cf610469366004612b28565b610ca5565b61039461047c366004612ad2565b610d32565b6009546103a6565b6103cf610497366004612b28565b610d42565b6103616104aa3660046129c0565b610dcf565b6001546103a6565b6103616104c53660046129c0565b610df9565b6103cf6104d8366004612b28565b610e23565b600b546103a6565b6000546040516001600160a01b039091168152602001610345565b6004546103a6565b6103cf610516366004612b28565b610eb0565b610523610f3d565b6040516103459190612bf5565b6103cf61053e366004612b28565b6120d5565b6103cf610551366004612b28565b612162565b6103cf610564366004612b28565b6121ef565b6008546103a6565b61039461057f366004612ad2565b61227c565b610394610592366004612ad2565b61228c565b6105aa6105a5366004612ad2565b61229c565b60405161034593929190612d46565b6103cf6105c7366004612b28565b61246e565b6103616105da3660046129c0565b6124f8565b6005546103a6565b6103946105f5366004612ad2565b612522565b6103616106083660046129c0565b612532565b61036161061b3660046129c0565b61255c565b6003546103a6565b6103cf610636366004612b28565b612586565b610394610649366004612ad2565b612613565b6103cf61065c366004612d7f565b612623565b61039461066f366004612ad2565b6126b3565b6103616106823660046129c0565b6126c3565b6106ab60405180606001604052806060815260200160608152602001606081525090565b60078260ff16815481106106c1576106c1612da8565b90600052602060002090600302016040518060600160405290816000820180546106ea90612dbe565b80601f016020809104026020016040519081016040528092919081815260200182805461071690612dbe565b80156107635780601f1061073857610100808354040283529160200191610763565b820191906000526020600020905b81548152906001019060200180831161074657829003601f168201915b5050505050815260200160018201805461077c90612dbe565b80601f01602080910402602001604051908101604052809291908181526020018280546107a890612dbe565b80156107f55780601f106107ca576101008083540402835291602001916107f5565b820191906000526020600020905b8154815290600101906020018083116107d857829003601f168201915b5050505050815260200160028201805461080e90612dbe565b80601f016020809104026020016040519081016040528092919081815260200182805461083a90612dbe565b80156108875780601f1061085c57610100808354040283529160200191610887565b820191906000526020600020905b81548152906001019060200180831161086a57829003601f168201915b5050505050815250509050919050565b604080518082019091526060808252602082015260018260ff16815481106108c1576108c1612da8565b90600052602060002090600202016040518060400160405290816000820180546108ea90612dbe565b80601f016020809104026020016040519081016040528092919081815260200182805461091690612dbe565b80156109635780601f1061093857610100808354040283529160200191610963565b820191906000526020600020905b81548152906001019060200180831161094657829003601f168201915b5050505050815260200160018201805461080e90612dbe565b604080518082019091526060808252602082015260028260ff16815481106108c1576108c1612da8565b600b81815481106109b657600080fd5b90600052602060002090600202016000915090508060000180546109d990612dbe565b80601f0160208091040260200160405190810160405280929190818152602001828054610a0590612dbe565b8015610a525780601f10610a2757610100808354040283529160200191610a52565b820191906000526020600020905b815481529060010190602001808311610a3557829003601f168201915b505050505090806001018054610a6790612dbe565b80601f0160208091040260200160405190810160405280929190818152602001828054610a9390612dbe565b8015610ae05780601f10610ab557610100808354040283529160200191610ae0565b820191906000526020600020905b815481529060010190602001808311610ac357829003601f168201915b5050505050905082565b610af26126ed565b60015460ff11610b3b5760405162461bcd60e51b815260206004820152600f60248201526e546f206d616e7920656e747269657360881b60448201526064015b60405180910390fd5b60018054808201825560009190915281906002027fb10e2d527612073b26eecdfd717e6a320cf44b4afac2b0732d9fcbe2b7fa0cf601610b7b828261304e565b505050565b600981815481106109b657600080fd5b600881815481106109b657600080fd5b604080518082019091526060808252602082015260048260ff16815481106108c1576108c1612da8565b600581815481106109b657600080fd5b610be26126ed565b60075460ff11610c265760405162461bcd60e51b815260206004820152600f60248201526e546f206d616e7920656e747269657360881b6044820152606401610b32565b6007805460018101825560009190915281906003027fa66cc928b5edb82af9bd49922954155ab7b0942694bea4ce44661d9a8736c68801610b7b828261305c565b604080518082019091526060808252602082015260038260ff16815481106108c1576108c1612da8565b610c996126ed565b610ca36000612747565b565b610cad6126ed565b60035460ff11610cf15760405162461bcd60e51b815260206004820152600f60248201526e546f206d616e7920656e747269657360881b6044820152606401610b32565b6003805460018101825560009190915281906002027fc2575a0e9e593c00f959f8c92f12db2869c3395a3b0502d05e2516446f71f85b01610b7b828261304e565b600a81815481106109b657600080fd5b610d4a6126ed565b600a5460ff11610d8e5760405162461bcd60e51b815260206004820152600f60248201526e546f206d616e7920656e747269657360881b6044820152606401610b32565b600a805460018101825560009190915281906002027fc65a7bb8d6351c1cf70c95a316cc6a92839c986682d98bc35f958f4883f9d2a801610b7b828261304e565b604080518082019091526060808252602082015260088260ff16815481106108c1576108c1612da8565b6040805180820190915260608082526020820152600a8260ff16815481106108c1576108c1612da8565b610e2b6126ed565b60085460ff11610e6f5760405162461bcd60e51b815260206004820152600f60248201526e546f206d616e7920656e747269657360881b6044820152606401610b32565b6008805460018101825560009190915281906002027ff3f7a9fe364faab93b216da50a3214154f22a0a2b415b23a84c8169e8b636ee301610b7b828261304e565b610eb86126ed565b60065460ff11610efc5760405162461bcd60e51b815260206004820152600f60248201526e546f206d616e7920656e747269657360881b6044820152606401610b32565b6006805460018101825560009190915281906002027ff652222313e28459528d920b65115c16c04f3efc82aaedc97be59f3f377c0d3f01610b7b828261304e565b610f9a60405180610160016040528060608152602001606081526020016060815260200160608152602001606081526020016060815260200160608152602001606081526020016060815260200160608152602001606081525090565b60405180610160016040528061112a6001805480602002602001604051908101604052809291908181526020016000905b828210156111215783829060005260206000209060020201604051806040016040529081600082018054610ffe90612dbe565b80601f016020809104026020016040519081016040528092919081815260200182805461102a90612dbe565b80156110775780601f1061104c57610100808354040283529160200191611077565b820191906000526020600020905b81548152906001019060200180831161105a57829003601f168201915b5050505050815260200160018201805461109090612dbe565b80601f01602080910402602001604051908101604052809291908181526020018280546110bc90612dbe565b80156111095780601f106110de57610100808354040283529160200191611109565b820191906000526020600020905b8154815290600101906020018083116110ec57829003601f168201915b50505050508152505081526020019060010190610fcb565b505050506127af565b81526020016112aa6002805480602002602001604051908101604052809291908181526020016000905b82821015611121578382906000526020600020906002020160405180604001604052908160008201805461118790612dbe565b80601f01602080910402602001604051908101604052809291908181526020018280546111b390612dbe565b80156112005780601f106111d557610100808354040283529160200191611200565b820191906000526020600020905b8154815290600101906020018083116111e357829003601f168201915b5050505050815260200160018201805461121990612dbe565b80601f016020809104026020016040519081016040528092919081815260200182805461124590612dbe565b80156112925780601f1061126757610100808354040283529160200191611292565b820191906000526020600020905b81548152906001019060200180831161127557829003601f168201915b50505050508152505081526020019060010190611154565b81526020016114336003805480602002602001604051908101604052809291908181526020016000905b8282101561142a578382906000526020600020906002020160405180604001604052908160008201805461130790612dbe565b80601f016020809104026020016040519081016040528092919081815260200182805461133390612dbe565b80156113805780601f1061135557610100808354040283529160200191611380565b820191906000526020600020905b81548152906001019060200180831161136357829003601f168201915b5050505050815260200160018201805461139990612dbe565b80601f01602080910402602001604051908101604052809291908181526020018280546113c590612dbe565b80156114125780601f106113e757610100808354040283529160200191611412565b820191906000526020600020905b8154815290600101906020018083116113f557829003601f168201915b505050505081525050815260200190600101906112d4565b50505050612864565b81526020016115b36004805480602002602001604051908101604052809291908181526020016000905b8282101561142a578382906000526020600020906002020160405180604001604052908160008201805461149090612dbe565b80601f01602080910402602001604051908101604052809291908181526020018280546114bc90612dbe565b80156115095780601f106114de57610100808354040283529160200191611509565b820191906000526020600020905b8154815290600101906020018083116114ec57829003601f168201915b5050505050815260200160018201805461152290612dbe565b80601f016020809104026020016040519081016040528092919081815260200182805461154e90612dbe565b801561159b5780601f106115705761010080835404028352916020019161159b565b820191906000526020600020905b81548152906001019060200180831161157e57829003601f168201915b5050505050815250508152602001906001019061145d565b81526020016117336005805480602002602001604051908101604052809291908181526020016000905b8282101561142a578382906000526020600020906002020160405180604001604052908160008201805461161090612dbe565b80601f016020809104026020016040519081016040528092919081815260200182805461163c90612dbe565b80156116895780601f1061165e57610100808354040283529160200191611689565b820191906000526020600020905b81548152906001019060200180831161166c57829003601f168201915b505050505081526020016001820180546116a290612dbe565b80601f01602080910402602001604051908101604052809291908181526020018280546116ce90612dbe565b801561171b5780601f106116f05761010080835404028352916020019161171b565b820191906000526020600020905b8154815290600101906020018083116116fe57829003601f168201915b505050505081525050815260200190600101906115dd565b81526020016118b36006805480602002602001604051908101604052809291908181526020016000905b8282101561142a578382906000526020600020906002020160405180604001604052908160008201805461179090612dbe565b80601f01602080910402602001604051908101604052809291908181526020018280546117bc90612dbe565b80156118095780601f106117de57610100808354040283529160200191611809565b820191906000526020600020905b8154815290600101906020018083116117ec57829003601f168201915b5050505050815260200160018201805461182290612dbe565b80601f016020809104026020016040519081016040528092919081815260200182805461184e90612dbe565b801561189b5780601f106118705761010080835404028352916020019161189b565b820191906000526020600020905b81548152906001019060200180831161187e57829003601f168201915b5050505050815250508152602001906001019061175d565b8152602001611ace6007805480602002602001604051908101604052809291908181526020016000905b82821015611ac5578382906000526020600020906003020160405180606001604052908160008201805461191090612dbe565b80601f016020809104026020016040519081016040528092919081815260200182805461193c90612dbe565b80156119895780601f1061195e57610100808354040283529160200191611989565b820191906000526020600020905b81548152906001019060200180831161196c57829003601f168201915b505050505081526020016001820180546119a290612dbe565b80601f01602080910402602001604051908101604052809291908181526020018280546119ce90612dbe565b8015611a1b5780601f106119f057610100808354040283529160200191611a1b565b820191906000526020600020905b8154815290600101906020018083116119fe57829003601f168201915b50505050508152602001600282018054611a3490612dbe565b80601f0160208091040260200160405190810160405280929190818152602001828054611a6090612dbe565b8015611aad5780601f10611a8257610100808354040283529160200191611aad565b820191906000526020600020905b815481529060010190602001808311611a9057829003601f168201915b505050505081525050815260200190600101906118dd565b50505050612912565b8152602001611c4e6008805480602002602001604051908101604052809291908181526020016000905b8282101561142a5783829060005260206000209060020201604051806040016040529081600082018054611b2b90612dbe565b80601f0160208091040260200160405190810160405280929190818152602001828054611b5790612dbe565b8015611ba45780601f10611b7957610100808354040283529160200191611ba4565b820191906000526020600020905b815481529060010190602001808311611b8757829003601f168201915b50505050508152602001600182018054611bbd90612dbe565b80601f0160208091040260200160405190810160405280929190818152602001828054611be990612dbe565b8015611c365780601f10611c0b57610100808354040283529160200191611c36565b820191906000526020600020905b815481529060010190602001808311611c1957829003601f168201915b50505050508152505081526020019060010190611af8565b8152602001611dce6009805480602002602001604051908101604052809291908181526020016000905b8282101561142a5783829060005260206000209060020201604051806040016040529081600082018054611cab90612dbe565b80601f0160208091040260200160405190810160405280929190818152602001828054611cd790612dbe565b8015611d245780601f10611cf957610100808354040283529160200191611d24565b820191906000526020600020905b815481529060010190602001808311611d0757829003601f168201915b50505050508152602001600182018054611d3d90612dbe565b80601f0160208091040260200160405190810160405280929190818152602001828054611d6990612dbe565b8015611db65780601f10611d8b57610100808354040283529160200191611db6565b820191906000526020600020905b815481529060010190602001808311611d9957829003601f168201915b50505050508152505081526020019060010190611c78565b8152602001611f4e600a805480602002602001604051908101604052809291908181526020016000905b8282101561142a5783829060005260206000209060020201604051806040016040529081600082018054611e2b90612dbe565b80601f0160208091040260200160405190810160405280929190818152602001828054611e5790612dbe565b8015611ea45780601f10611e7957610100808354040283529160200191611ea4565b820191906000526020600020905b815481529060010190602001808311611e8757829003601f168201915b50505050508152602001600182018054611ebd90612dbe565b80601f0160208091040260200160405190810160405280929190818152602001828054611ee990612dbe565b8015611f365780601f10611f0b57610100808354040283529160200191611f36565b820191906000526020600020905b815481529060010190602001808311611f1957829003601f168201915b50505050508152505081526020019060010190611df8565b81526020016120ce600b805480602002602001604051908101604052809291908181526020016000905b8282101561142a5783829060005260206000209060020201604051806040016040529081600082018054611fab90612dbe565b80601f0160208091040260200160405190810160405280929190818152602001828054611fd790612dbe565b80156120245780601f10611ff957610100808354040283529160200191612024565b820191906000526020600020905b81548152906001019060200180831161200757829003601f168201915b5050505050815260200160018201805461203d90612dbe565b80601f016020809104026020016040519081016040528092919081815260200182805461206990612dbe565b80156120b65780601f1061208b576101008083540402835291602001916120b6565b820191906000526020600020905b81548152906001019060200180831161209957829003601f168201915b50505050508152505081526020019060010190611f78565b9052919050565b6120dd6126ed565b600b5460ff116121215760405162461bcd60e51b815260206004820152600f60248201526e546f206d616e7920656e747269657360881b6044820152606401610b32565b600b805460018101825560009190915281906002027f0175b7a638427703f0dbe7bb9bbf987a2551717b34e79f33b5b1008d1fa01db901610b7b828261304e565b61216a6126ed565b60055460ff116121ae5760405162461bcd60e51b815260206004820152600f60248201526e546f206d616e7920656e747269657360881b6044820152606401610b32565b6005805460018101825560009190915281906002027f036b6384b5eca791c62761152d0c79bb0604c104a5fb6f4eb0703f3154bb3db001610b7b828261304e565b6121f76126ed565b60045460ff1161223b5760405162461bcd60e51b815260206004820152600f60248201526e546f206d616e7920656e747269657360881b6044820152606401610b32565b6004805460018101825560009190915281906002027f8a35acfbc15ff81a39ae7d344fd709f28e8600b4aa8c65c6b64bfe7fe36bd19b01610b7b828261304e565b600281815481106109b657600080fd5b600481815481106109b657600080fd5b600781815481106122ac57600080fd5b90600052602060002090600302016000915090508060000180546122cf90612dbe565b80601f01602080910402602001604051908101604052809291908181526020018280546122fb90612dbe565b80156123485780601f1061231d57610100808354040283529160200191612348565b820191906000526020600020905b81548152906001019060200180831161232b57829003601f168201915b50505050509080600101805461235d90612dbe565b80601f016020809104026020016040519081016040528092919081815260200182805461238990612dbe565b80156123d65780601f106123ab576101008083540402835291602001916123d6565b820191906000526020600020905b8154815290600101906020018083116123b957829003601f168201915b5050505050908060020180546123eb90612dbe565b80601f016020809104026020016040519081016040528092919081815260200182805461241790612dbe565b80156124645780601f1061243957610100808354040283529160200191612464565b820191906000526020600020905b81548152906001019060200180831161244757829003601f168201915b5050505050905083565b6124766126ed565b60025460ff116124ba5760405162461bcd60e51b815260206004820152600f60248201526e546f206d616e7920656e747269657360881b6044820152606401610b32565b6002805460018101825560008290528291027f405787fa12a823e0f2b7631cc41b3ba8828b3321ca811111fa75cd3aa3bb5ace01610b7b828261304e565b604080518082019091526060808252602082015260058260ff16815481106108c1576108c1612da8565b600181815481106109b657600080fd5b604080518082019091526060808252602082015260068260ff16815481106108c1576108c1612da8565b604080518082019091526060808252602082015260098260ff16815481106108c1576108c1612da8565b61258e6126ed565b60095460ff116125d25760405162461bcd60e51b815260206004820152600f60248201526e546f206d616e7920656e747269657360881b6044820152606401610b32565b6009805460018101825560009190915281906002027f6e1540171b6c0c960b71a7020d9f60077f6af931a8bbf590da0223dacf75c7af01610b7b828261304e565b600381815481106109b657600080fd5b61262b6126ed565b6001600160a01b0381166126a75760405162461bcd60e51b815260206004820152602660248201527f4f776e61626c653a206e6577206f776e657220697320746865207a65726f206160448201527f64647265737300000000000000000000000000000000000000000000000000006064820152608401610b32565b6126b081612747565b50565b600681815481106109b657600080fd5b6040805180820190915260608082526020820152600b8260ff16815481106108c1576108c1612da8565b6000546001600160a01b03163314610ca35760405162461bcd60e51b815260206004820181905260248201527f4f776e61626c653a2063616c6c6572206973206e6f7420746865206f776e65726044820152606401610b32565b600080546001600160a01b038381167fffffffffffffffffffffffff0000000000000000000000000000000000000000831681178455604051919092169283917f8be0079c531659141344cd1fd0a4f28419497f9722a3daafe3b4186f6b6457e09190a35050565b60606000825167ffffffffffffffff8111156127cd576127cd612e40565b60405190808252806020026020018201604052801561280057816020015b60608152602001906001900390816127eb5790505b50905060005b835181101561285d5783818151811061282157612821612da8565b60200260200101516000015182828151811061283f5761283f612da8565b6020026020010181905250808061285590613156565b915050612806565b5092915050565b60606000825167ffffffffffffffff81111561288257612882612e40565b6040519080825280602002602001820160405280156128b557816020015b60608152602001906001900390816128a05790505b50905060005b835181101561285d578381815181106128d6576128d6612da8565b6020026020010151600001518282815181106128f4576128f4612da8565b6020026020010181905250808061290a90613156565b9150506128bb565b60606000825167ffffffffffffffff81111561293057612930612e40565b60405190808252806020026020018201604052801561296357816020015b606081526020019060019003908161294e5790505b50905060005b835181101561285d5783818151811061298457612984612da8565b6020026020010151600001518282815181106129a2576129a2612da8565b602002602001018190525080806129b890613156565b915050612969565b6000602082840312156129d257600080fd5b813560ff811681146129e357600080fd5b9392505050565b6000815180845260005b81811015612a10576020818501810151868301820152016129f4565b506000602082860101526020601f19601f83011685010191505092915050565b602081526000825160606020840152612a4c60808401826129ea565b90506020840151601f1980858403016040860152612a6a83836129ea565b9250604086015191508085840301606086015250612a8882826129ea565b95945050505050565b6000815160408452612aa660408501826129ea565b905060208301518482036020860152612a8882826129ea565b6020815260006129e36020830184612a91565b600060208284031215612ae457600080fd5b5035919050565b604081526000612afe60408301856129ea565b8281036020840152612a8881856129ea565b600060408284031215612b2257600080fd5b50919050565b600060208284031215612b3a57600080fd5b813567ffffffffffffffff811115612b5157600080fd5b612b5d84828501612b10565b949350505050565b600060208284031215612b7757600080fd5b813567ffffffffffffffff811115612b8e57600080fd5b8201606081850312156129e357600080fd5b600081518084526020808501808196508360051b8101915082860160005b85811015612be8578284038952612bd68483516129ea565b98850198935090840190600101612bbe565b5091979650505050505050565b6020815260008251610160806020850152612c14610180850183612ba0565b91506020850151601f1980868503016040870152612c328483612ba0565b93506040870151915080868503016060870152612c4f8483612ba0565b93506060870151915080868503016080870152612c6c8483612ba0565b935060808701519150808685030160a0870152612c898483612ba0565b935060a08701519150808685030160c0870152612ca68483612ba0565b935060c08701519150808685030160e0870152612cc38483612ba0565b935060e08701519150610100818786030181880152612ce28584612ba0565b945080880151925050610120818786030181880152612d018584612ba0565b945080880151925050610140818786030181880152612d208584612ba0565b908801518782039092018488015293509050612d3c8382612ba0565b9695505050505050565b606081526000612d5960608301866129ea565b8281036020840152612d6b81866129ea565b90508281036040840152612d3c81856129ea565b600060208284031215612d9157600080fd5b81356001600160a01b03811681146129e357600080fd5b634e487b7160e01b600052603260045260246000fd5b600181811c90821680612dd257607f821691505b602082108103612b2257634e487b7160e01b600052602260045260246000fd5b6000808335601e19843603018112612e0957600080fd5b83018035915067ffffffffffffffff821115612e2457600080fd5b602001915036819003821315612e3957600080fd5b9250929050565b634e487b7160e01b600052604160045260246000fd5b601f821115610b7b57600081815260208120601f850160051c81016020861015612e7d5750805b601f850160051c820191505b81811015612e9c57828155600101612e89565b505050505050565b67ffffffffffffffff831115612ebc57612ebc612e40565b612ed083612eca8354612dbe565b83612e56565b6000601f841160018114612f045760008515612eec5750838201355b600019600387901b1c1916600186901b178355612f5e565b600083815260209020601f19861690835b82811015612f355786850135825560209485019460019092019101612f15565b5086821015612f525760001960f88860031b161c19848701351681555b505060018560011b0183555b5050505050565b612f6f8283612df2565b67ffffffffffffffff811115612f8757612f87612e40565b612f9b81612f958554612dbe565b85612e56565b6000601f821160018114612fcf5760008315612fb75750838201355b600019600385901b1c1916600184901b178555613029565b600085815260209020601f19841690835b828110156130005786850135825560209485019460019092019101612fe0565b508482101561301d5760001960f88660031b161c19848701351681555b505060018360011b0185555b5050505061303a6020830183612df2565b613048818360018601612ea4565b50505050565b6130588282612f65565b5050565b6130668283612df2565b67ffffffffffffffff81111561307e5761307e612e40565b61308c81612f958554612dbe565b6000601f8211600181146130c057600083156130a85750838201355b600019600385901b1c1916600184901b17855561311a565b600085815260209020601f19841690835b828110156130f157868501358255602094850194600190920191016130d1565b508482101561310e5760001960f88660031b161c19848701351681555b505060018360011b0185555b5050505061312b6020830183612df2565b613139818360018601612ea4565b50506131486040830183612df2565b613048818360028601612ea4565b60006001820161317657634e487b7160e01b600052601160045260246000fd5b506001019056fea264697066735822122054d055bceeba5e476e312683a7829c5f36b88037769820be24d2cf260920942c64736f6c63430008110033",
  "devdoc": {
    "kind": "dev",
    "methods": {
      "owner()": {
        "details": "Returns the address of the current owner."
      },
      "renounceOwnership()": {
        "details": "Leaves the contract without owner. It will not be possible to call `onlyOwner` functions anymore. Can only be called by the current owner. NOTE: Renouncing ownership will leave the contract without an owner, thereby removing any functionality that is only available to the owner."
      },
      "transferOwnership(address)": {
        "details": "Transfers ownership of the contract to a new account (`newOwner`). Can only be called by the current owner."
      }
    },
    "version": 1
  },
  "userdoc": {
    "kind": "user",
    "methods": {},
    "version": 1
  },
  "storageLayout": {
    "storage": [
      {
        "astId": 7,
        "contract": "contracts/PartsStore.sol:PartsStore",
        "label": "_owner",
        "offset": 0,
        "slot": "0",
        "type": "t_address"
      },
      {
        "astId": 11023,
        "contract": "contracts/PartsStore.sol:PartsStore",
        "label": "bgColors",
        "offset": 0,
        "slot": "1",
        "type": "t_array(t_struct(Color)11774_storage)dyn_storage"
      },
      {
        "astId": 11027,
        "contract": "contracts/PartsStore.sol:PartsStore",
        "label": "nogglesColors",
        "offset": 0,
        "slot": "2",
        "type": "t_array(t_struct(Color)11774_storage)dyn_storage"
      },
      {
        "astId": 11031,
        "contract": "contracts/PartsStore.sol:PartsStore",
        "label": "crowns",
        "offset": 0,
        "slot": "3",
        "type": "t_array(t_struct(ImagePart)11786_storage)dyn_storage"
      },
      {
        "astId": 11035,
        "contract": "contracts/PartsStore.sol:PartsStore",
        "label": "doodads",
        "offset": 0,
        "slot": "4",
        "type": "t_array(t_struct(ImagePart)11786_storage)dyn_storage"
      },
      {
        "astId": 11039,
        "contract": "contracts/PartsStore.sol:PartsStore",
        "label": "garlands",
        "offset": 0,
        "slot": "5",
        "type": "t_array(t_struct(ImagePart)11786_storage)dyn_storage"
      },
      {
        "astId": 11043,
        "contract": "contracts/PartsStore.sol:PartsStore",
        "label": "shields",
        "offset": 0,
        "slot": "6",
        "type": "t_array(t_struct(ImagePart)11786_storage)dyn_storage"
      },
      {
        "astId": 11047,
        "contract": "contracts/PartsStore.sol:PartsStore",
        "label": "quadrantPalettes",
        "offset": 0,
        "slot": "7",
        "type": "t_array(t_struct(Palette)11781_storage)dyn_storage"
      },
      {
        "astId": 11051,
        "contract": "contracts/PartsStore.sol:PartsStore",
        "label": "reps",
        "offset": 0,
        "slot": "8",
        "type": "t_array(t_struct(ImagePart)11786_storage)dyn_storage"
      },
      {
        "astId": 11055,
        "contract": "contracts/PartsStore.sol:PartsStore",
        "label": "skills",
        "offset": 0,
        "slot": "9",
        "type": "t_array(t_struct(ImagePart)11786_storage)dyn_storage"
      },
      {
        "astId": 11059,
        "contract": "contracts/PartsStore.sol:PartsStore",
        "label": "classes",
        "offset": 0,
        "slot": "10",
        "type": "t_array(t_struct(ImagePart)11786_storage)dyn_storage"
      },
      {
        "astId": 11063,
        "contract": "contracts/PartsStore.sol:PartsStore",
        "label": "traits",
        "offset": 0,
        "slot": "11",
        "type": "t_array(t_struct(ImagePart)11786_storage)dyn_storage"
      }
    ],
    "types": {
      "t_address": {
        "encoding": "inplace",
        "label": "address",
        "numberOfBytes": "20"
      },
      "t_array(t_struct(Color)11774_storage)dyn_storage": {
        "base": "t_struct(Color)11774_storage",
        "encoding": "dynamic_array",
        "label": "struct IPartsStore.Color[]",
        "numberOfBytes": "32"
      },
      "t_array(t_struct(ImagePart)11786_storage)dyn_storage": {
        "base": "t_struct(ImagePart)11786_storage",
        "encoding": "dynamic_array",
        "label": "struct IPartsStore.ImagePart[]",
        "numberOfBytes": "32"
      },
      "t_array(t_struct(Palette)11781_storage)dyn_storage": {
        "base": "t_struct(Palette)11781_storage",
        "encoding": "dynamic_array",
        "label": "struct IPartsStore.Palette[]",
        "numberOfBytes": "32"
      },
      "t_string_storage": {
        "encoding": "bytes",
        "label": "string",
        "numberOfBytes": "32"
      },
      "t_struct(Color)11774_storage": {
        "encoding": "inplace",
        "label": "struct IPartsStore.Color",
        "members": [
          {
            "astId": 11771,
            "contract": "contracts/PartsStore.sol:PartsStore",
            "label": "name",
            "offset": 0,
            "slot": "0",
            "type": "t_string_storage"
          },
          {
            "astId": 11773,
            "contract": "contracts/PartsStore.sol:PartsStore",
            "label": "color",
            "offset": 0,
            "slot": "1",
            "type": "t_string_storage"
          }
        ],
        "numberOfBytes": "64"
      },
      "t_struct(ImagePart)11786_storage": {
        "encoding": "inplace",
        "label": "struct IPartsStore.ImagePart",
        "members": [
          {
            "astId": 11783,
            "contract": "contracts/PartsStore.sol:PartsStore",
            "label": "name",
            "offset": 0,
            "slot": "0",
            "type": "t_string_storage"
          },
          {
            "astId": 11785,
            "contract": "contracts/PartsStore.sol:PartsStore",
            "label": "svg",
            "offset": 0,
            "slot": "1",
            "type": "t_string_storage"
          }
        ],
        "numberOfBytes": "64"
      },
      "t_struct(Palette)11781_storage": {
        "encoding": "inplace",
        "label": "struct IPartsStore.Palette",
        "members": [
          {
            "astId": 11776,
            "contract": "contracts/PartsStore.sol:PartsStore",
            "label": "name",
            "offset": 0,
            "slot": "0",
            "type": "t_string_storage"
          },
          {
            "astId": 11778,
            "contract": "contracts/PartsStore.sol:PartsStore",
            "label": "primary",
            "offset": 0,
            "slot": "1",
            "type": "t_string_storage"
          },
          {
            "astId": 11780,
            "contract": "contracts/PartsStore.sol:PartsStore",
            "label": "secondary",
            "offset": 0,
            "slot": "2",
            "type": "t_string_storage"
          }
        ],
        "numberOfBytes": "96"
      }
    }
  }
}