{
  "address": "0xaB101e543D31cb025a64eeBFAeE08D82b9Bd4fc3",
  "abi": [
    {
      "inputs": [
        {
          "internalType": "contract IPBToken",
          "name": "_token",
          "type": "address"
        },
        {
          "internalType": "address",
          "name": "_treasury",
          "type": "address"
        }
      ],
      "stateMutability": "nonpayable",
      "type": "constructor"
    },
    {
      "anonymous": false,
      "inputs": [
        {
          "indexed": false,
          "internalType": "uint256",
          "name": "tokenId",
          "type": "uint256"
        },
        {
          "indexed": false,
          "internalType": "address",
          "name": "bidder",
          "type": "address"
        },
        {
          "indexed": false,
          "internalType": "uint256",
          "name": "bid",
          "type": "uint256"
        }
      ],
      "name": "Bid",
      "type": "event"
    },
    {
      "anonymous": false,
      "inputs": [
        {
          "indexed": true,
          "internalType": "address",
          "name": "previousOwner",
          "type": "address"
        },
        {
          "indexed": true,
          "internalType": "address",
          "name": "newOwner",
          "type": "address"
        }
      ],
      "name": "OwnershipTransferred",
      "type": "event"
    },
    {
      "anonymous": false,
      "inputs": [
        {
          "indexed": false,
          "internalType": "uint256",
          "name": "tokenId",
          "type": "uint256"
        }
      ],
      "name": "Start",
      "type": "event"
    },
    {
      "inputs": [],
      "name": "bid",
      "outputs": [],
      "stateMutability": "payable",
      "type": "function"
    },
    {
      "inputs": [],
      "name": "getAuction",
      "outputs": [
        {
          "components": [
            {
              "internalType": "uint256",
              "name": "tokenId",
              "type": "uint256"
            },
            {
              "internalType": "uint256",
              "name": "startTime",
              "type": "uint256"
            },
            {
              "internalType": "uint256",
              "name": "endTime",
              "type": "uint256"
            },
            {
              "internalType": "uint256",
              "name": "currentBid",
              "type": "uint256"
            },
            {
              "internalType": "address",
              "name": "bidder",
              "type": "address"
            },
            {
              "internalType": "uint256",
              "name": "minBid",
              "type": "uint256"
            },
            {
              "internalType": "bool",
              "name": "isFinished",
              "type": "bool"
            }
          ],
          "internalType": "struct PBAuctionHouse.AuctionState",
          "name": "",
          "type": "tuple"
        }
      ],
      "stateMutability": "view",
      "type": "function"
    },
    {
      "inputs": [],
      "name": "getConfig",
      "outputs": [
        {
          "components": [
            {
              "internalType": "address",
              "name": "treasury",
              "type": "address"
            },
            {
              "internalType": "address",
              "name": "token",
              "type": "address"
            },
            {
              "internalType": "uint256",
              "name": "duration",
              "type": "uint256"
            },
            {
              "internalType": "uint256",
              "name": "extendedDuration",
              "type": "uint256"
            },
            {
              "internalType": "uint256",
              "name": "minFirstBid",
              "type": "uint256"
            },
            {
              "internalType": "uint256",
              "name": "minBidIncrementPercent",
              "type": "uint256"
            }
          ],
          "internalType": "struct PBAuctionHouse.AuctionConfig",
          "name": "",
          "type": "tuple"
        }
      ],
      "stateMutability": "view",
      "type": "function"
    },
    {
      "inputs": [
        {
          "internalType": "address",
          "name": "",
          "type": "address"
        },
        {
          "internalType": "address",
          "name": "",
          "type": "address"
        },
        {
          "internalType": "uint256",
          "name": "",
          "type": "uint256"
        },
        {
          "internalType": "bytes",
          "name": "",
          "type": "bytes"
        }
      ],
      "name": "onERC721Received",
      "outputs": [
        {
          "internalType": "bytes4",
          "name": "",
          "type": "bytes4"
        }
      ],
      "stateMutability": "pure",
      "type": "function"
    },
    {
      "inputs": [],
      "name": "owner",
      "outputs": [
        {
          "internalType": "address",
          "name": "",
          "type": "address"
        }
      ],
      "stateMutability": "view",
      "type": "function"
    },
    {
      "inputs": [],
      "name": "renounceOwnership",
      "outputs": [],
      "stateMutability": "nonpayable",
      "type": "function"
    },
    {
      "inputs": [
        {
          "internalType": "uint256",
          "name": "_duration",
          "type": "uint256"
        }
      ],
      "name": "setDuration",
      "outputs": [],
      "stateMutability": "nonpayable",
      "type": "function"
    },
    {
      "inputs": [
        {
          "internalType": "uint256",
          "name": "_extendedDuration",
          "type": "uint256"
        }
      ],
      "name": "setExtendedDuration",
      "outputs": [],
      "stateMutability": "nonpayable",
      "type": "function"
    },
    {
      "inputs": [
        {
          "internalType": "uint256",
          "name": "_minBidIncrementPercent",
          "type": "uint256"
        }
      ],
      "name": "setMinBidIncrementPercent",
      "outputs": [],
      "stateMutability": "nonpayable",
      "type": "function"
    },
    {
      "inputs": [
        {
          "internalType": "uint256",
          "name": "_minFirstBid",
          "type": "uint256"
        }
      ],
      "name": "setMinFirstBid",
      "outputs": [],
      "stateMutability": "nonpayable",
      "type": "function"
    },
    {
      "inputs": [
        {
          "internalType": "address",
          "name": "_treasury",
          "type": "address"
        }
      ],
      "name": "setTreasury",
      "outputs": [],
      "stateMutability": "nonpayable",
      "type": "function"
    },
    {
      "inputs": [],
      "name": "start",
      "outputs": [],
      "stateMutability": "nonpayable",
      "type": "function"
    },
    {
      "inputs": [
        {
          "internalType": "address",
          "name": "newOwner",
          "type": "address"
        }
      ],
      "name": "transferOwnership",
      "outputs": [],
      "stateMutability": "nonpayable",
      "type": "function"
    }
  ],
  "transactionHash": "0x714d4c1d40f5c69c041548d803fec6c6db4d317006e6fc575ab5107001dffefb",
  "args": [
    "0xb584985CE48766B997f9Bd7b4E23fF50a93846B5",
    "0x5A78F12fF5dD11ee0b83CF84F47c0FCc602cA5E4"
  ],
  "numDeployments": 1,
  "solcInputHash": "e8c80c662056d99847a1a806e3d8d432",
  "bytecode": "0x608060405262015180600455610258600555670de0b6b3a7640000600655600160075534801561002e57600080fd5b50604051610f94380380610f9483398101604081905261004d916100f3565b6100563361008b565b60018055600380546001600160a01b039384166001600160a01b0319918216179091556002805492909316911617905561012d565b600080546001600160a01b038381166001600160a01b0319831681178455604051919092169283917f8be0079c531659141344cd1fd0a4f28419497f9722a3daafe3b4186f6b6457e09190a35050565b6001600160a01b03811681146100f057600080fd5b50565b6000806040838503121561010657600080fd5b8251610111816100db565b6020840151909250610122816100db565b809150509250929050565b610e588061013c6000396000f3fe6080604052600436106100d25760003560e01c8063b535ef801161007f578063e0f0815c11610059578063e0f0815c146102d2578063f0f44260146102f2578063f2fde38b14610312578063f6be71d11461033257600080fd5b8063b535ef801461022f578063be9a65551461024f578063c3f909d41461026457600080fd5b8063715018a6116100b0578063715018a61461017c5780637327df25146101915780638da5cb5b1461020757600080fd5b8063150b7a02146100d75780631998aeef146101525780633d44ce321461015c575b600080fd5b3480156100e357600080fd5b5061011c6100f2366004610ccb565b7f150b7a020000000000000000000000000000000000000000000000000000000095945050505050565b6040517fffffffff0000000000000000000000000000000000000000000000000000000090911681526020015b60405180910390f35b61015a610352565b005b34801561016857600080fd5b5061015a610177366004610d66565b610574565b34801561018857600080fd5b5061015a610581565b34801561019d57600080fd5b506101a6610593565b6040516101499190600060e082019050825182526020830151602083015260408301516040830152606083015160608301526001600160a01b03608084015116608083015260a083015160a083015260c0830151151560c083015292915050565b34801561021357600080fd5b506000546040516001600160a01b039091168152602001610149565b34801561023b57600080fd5b5061015a61024a366004610d66565b610636565b34801561025b57600080fd5b5061015a610643565b34801561027057600080fd5b50610279610941565b6040516101499190600060c0820190506001600160a01b038084511683528060208501511660208401525060408301516040830152606083015160608301526080830151608083015260a083015160a083015292915050565b3480156102de57600080fd5b5061015a6102ed366004610d66565b6109d5565b3480156102fe57600080fd5b5061015a61030d366004610d7f565b6109e2565b34801561031e57600080fd5b5061015a61032d366004610d7f565b610a19565b34801561033e57600080fd5b5061015a61034d366004610d66565b610aa9565b61035a610ab6565b6008544210156103b15760405162461bcd60e51b815260206004820152601a60248201527f41756374696f6e206861736e277420737461727465642079657400000000000060448201526064015b60405180910390fd5b6009544211156104035760405162461bcd60e51b815260206004820152601160248201527f41756374696f6e2068617320656e64656400000000000000000000000000000060448201526064016103a8565b6006543410156104555760405162461bcd60e51b815260206004820152601560248201527f42696420616d6f756e7420697320746f6f206c6f77000000000000000000000060448201526064016103a8565b61045d610b0f565b3410156104ac5760405162461bcd60e51b815260206004820152601560248201527f42696420616d6f756e7420697320746f6f206c6f77000000000000000000000060448201526064016103a8565b600c546001600160a01b0316156104d657600c54600a546104d6916001600160a01b031690610b50565b6009546005546104e69042610db7565b11156104fd576005546104f99042610db7565b6009555b600c805473ffffffffffffffffffffffffffffffffffffffff19163390811790915534600a819055600b54604080519182526020820193909352918201527fdcd726e11f8b5e160f00290f0fe3a1abb547474e53a8e7a8f49a85e7b1ca3199906060015b60405180910390a161057260018055565b565b61057c610bf8565b600655565b610589610bf8565b6105726000610c52565b6105de6040518060e001604052806000815260200160008152602001600081526020016000815260200160006001600160a01b03168152602001600081526020016000151581525090565b6040805160e081018252600b548152600854602082015260095491810191909152600a546060820152600c546001600160a01b0316608082015260a08101610624610b0f565b81526009544211602090910152919050565b61063e610bf8565b600555565b61064b610ab6565b600954421161069c5760405162461bcd60e51b815260206004820152601860248201527f41756374696f6e206861736e277420656e64656420796574000000000000000060448201526064016103a8565b600c546001600160a01b03161561073d57600354600c54600b546040517f42842e0e0000000000000000000000000000000000000000000000000000000081523060048201526001600160a01b03928316602482015260448101919091529116906342842e0e90606401600060405180830381600087803b15801561072057600080fd5b505af1158015610734573d6000803e3d6000fd5b505050506107c6565b600b54156107c657600354600b546040517f42966c680000000000000000000000000000000000000000000000000000000081526001600160a01b03909216916342966c68916107939160040190815260200190565b600060405180830381600087803b1580156107ad57600080fd5b505af11580156107c1573d6000803e3d6000fd5b505050505b600254600a546107df916001600160a01b031690610b50565b600360009054906101000a90046001600160a01b03166001600160a01b0316631249c58b6040518163ffffffff1660e01b8152600401600060405180830381600087803b15801561082f57600080fd5b505af1158015610843573d6000803e3d6000fd5b505042600881905560045461085a93509150610db7565b6009556000600a819055600c805473ffffffffffffffffffffffffffffffffffffffff191690556003546040517f2f745c5900000000000000000000000000000000000000000000000000000000815230600482015260248101929092526001600160a01b031690632f745c5990604401602060405180830381865afa1580156108e8573d6000803e3d6000fd5b505050506040513d601f19601f8201168201806040525081019061090c9190610dd0565b600b8190556040519081527ff06a29c94c6f4edc1085072972d9441f7603e81c8535a308f214285d0653c85090602001610561565b61098c6040518060c0016040528060006001600160a01b0316815260200160006001600160a01b03168152602001600081526020016000815260200160008152602001600081525090565b506040805160c0810182526002546001600160a01b039081168252600354166020820152600454918101919091526005546060820152600654608082015260075460a082015290565b6109dd610bf8565b600755565b6109ea610bf8565b6002805473ffffffffffffffffffffffffffffffffffffffff19166001600160a01b0392909216919091179055565b610a21610bf8565b6001600160a01b038116610a9d5760405162461bcd60e51b815260206004820152602660248201527f4f776e61626c653a206e6577206f776e657220697320746865207a65726f206160448201527f646472657373000000000000000000000000000000000000000000000000000060648201526084016103a8565b610aa681610c52565b50565b610ab1610bf8565b600455565b600260015403610b085760405162461bcd60e51b815260206004820152601f60248201527f5265656e7472616e637947756172643a207265656e7472616e742063616c6c0060448201526064016103a8565b6002600155565b6000600a54600003610b22575060065490565b6064600754600a54610b349190610de9565b610b3e9190610e00565b600a54610b4b9190610db7565b905090565b6000826001600160a01b03168260405160006040518083038185875af1925050503d8060008114610b9d576040519150601f19603f3d011682016040523d82523d6000602084013e610ba2565b606091505b5050905080610bf35760405162461bcd60e51b815260206004820152601460248201527f4661696c656420746f2073656e6420457468657200000000000000000000000060448201526064016103a8565b505050565b6000546001600160a01b031633146105725760405162461bcd60e51b815260206004820181905260248201527f4f776e61626c653a2063616c6c6572206973206e6f7420746865206f776e657260448201526064016103a8565b600080546001600160a01b0383811673ffffffffffffffffffffffffffffffffffffffff19831681178455604051919092169283917f8be0079c531659141344cd1fd0a4f28419497f9722a3daafe3b4186f6b6457e09190a35050565b80356001600160a01b0381168114610cc657600080fd5b919050565b600080600080600060808688031215610ce357600080fd5b610cec86610caf565b9450610cfa60208701610caf565b935060408601359250606086013567ffffffffffffffff80821115610d1e57600080fd5b818801915088601f830112610d3257600080fd5b813581811115610d4157600080fd5b896020828501011115610d5357600080fd5b9699959850939650602001949392505050565b600060208284031215610d7857600080fd5b5035919050565b600060208284031215610d9157600080fd5b610d9a82610caf565b9392505050565b634e487b7160e01b600052601160045260246000fd5b80820180821115610dca57610dca610da1565b92915050565b600060208284031215610de257600080fd5b5051919050565b8082028115828204841417610dca57610dca610da1565b600082610e1d57634e487b7160e01b600052601260045260246000fd5b50049056fea2646970667358221220d0bcd8e29631335193b51395bfa57ae8cbbd39bd9c1dd95d2f6b466ed481695464736f6c63430008110033",
  "devdoc": {
    "kind": "dev",
    "methods": {
      "owner()": {
        "details": "Returns the address of the current owner."
      },
      "renounceOwnership()": {
        "details": "Leaves the contract without owner. It will not be possible to call `onlyOwner` functions anymore. Can only be called by the current owner. NOTE: Renouncing ownership will leave the contract without an owner, thereby removing any functionality that is only available to the owner."
      },
      "transferOwnership(address)": {
        "details": "Transfers ownership of the contract to a new account (`newOwner`). Can only be called by the current owner."
      }
    },
    "version": 1
  },
  "userdoc": {
    "kind": "user",
    "methods": {},
    "version": 1
  },
  "storageLayout": {
    "storage": [
      {
        "astId": 7,
        "contract": "contracts/PBAuctionHouse.sol:PBAuctionHouse",
        "label": "_owner",
        "offset": 0,
        "slot": "0",
        "type": "t_address"
      },
      {
        "astId": 655,
        "contract": "contracts/PBAuctionHouse.sol:PBAuctionHouse",
        "label": "_status",
        "offset": 0,
        "slot": "1",
        "type": "t_uint256"
      },
      {
        "astId": 7363,
        "contract": "contracts/PBAuctionHouse.sol:PBAuctionHouse",
        "label": "treasury",
        "offset": 0,
        "slot": "2",
        "type": "t_address"
      },
      {
        "astId": 7366,
        "contract": "contracts/PBAuctionHouse.sol:PBAuctionHouse",
        "label": "token",
        "offset": 0,
        "slot": "3",
        "type": "t_contract(IPBToken)8691"
      },
      {
        "astId": 7369,
        "contract": "contracts/PBAuctionHouse.sol:PBAuctionHouse",
        "label": "duration",
        "offset": 0,
        "slot": "4",
        "type": "t_uint256"
      },
      {
        "astId": 7372,
        "contract": "contracts/PBAuctionHouse.sol:PBAuctionHouse",
        "label": "extendedDuration",
        "offset": 0,
        "slot": "5",
        "type": "t_uint256"
      },
      {
        "astId": 7375,
        "contract": "contracts/PBAuctionHouse.sol:PBAuctionHouse",
        "label": "minFirstBid",
        "offset": 0,
        "slot": "6",
        "type": "t_uint256"
      },
      {
        "astId": 7378,
        "contract": "contracts/PBAuctionHouse.sol:PBAuctionHouse",
        "label": "minBidIncrementPercent",
        "offset": 0,
        "slot": "7",
        "type": "t_uint256"
      },
      {
        "astId": 7380,
        "contract": "contracts/PBAuctionHouse.sol:PBAuctionHouse",
        "label": "startTime",
        "offset": 0,
        "slot": "8",
        "type": "t_uint256"
      },
      {
        "astId": 7382,
        "contract": "contracts/PBAuctionHouse.sol:PBAuctionHouse",
        "label": "endTime",
        "offset": 0,
        "slot": "9",
        "type": "t_uint256"
      },
      {
        "astId": 7384,
        "contract": "contracts/PBAuctionHouse.sol:PBAuctionHouse",
        "label": "currentBid",
        "offset": 0,
        "slot": "10",
        "type": "t_uint256"
      },
      {
        "astId": 7386,
        "contract": "contracts/PBAuctionHouse.sol:PBAuctionHouse",
        "label": "tokenId",
        "offset": 0,
        "slot": "11",
        "type": "t_uint256"
      },
      {
        "astId": 7388,
        "contract": "contracts/PBAuctionHouse.sol:PBAuctionHouse",
        "label": "bidder",
        "offset": 0,
        "slot": "12",
        "type": "t_address"
      }
    ],
    "types": {
      "t_address": {
        "encoding": "inplace",
        "label": "address",
        "numberOfBytes": "20"
      },
      "t_contract(IPBToken)8691": {
        "encoding": "inplace",
        "label": "contract IPBToken",
        "numberOfBytes": "20"
      },
      "t_uint256": {
        "encoding": "inplace",
        "label": "uint256",
        "numberOfBytes": "32"
      }
    }
  }
}