{
  "address": "0x44D3a4d884380327272072051381CcF202aa74B6",
  "abi": [
    {
      "inputs": [
        {
          "internalType": "address",
          "name": "_store",
          "type": "address"
        },
        {
          "internalType": "address",
          "name": "_auctionHouse",
          "type": "address"
        },
        {
          "internalType": "address",
          "name": "_founders",
          "type": "address"
        }
      ],
      "stateMutability": "nonpayable",
      "type": "constructor"
    },
    {
      "anonymous": false,
      "inputs": [
        {
          "indexed": true,
          "internalType": "address",
          "name": "owner",
          "type": "address"
        },
        {
          "indexed": true,
          "internalType": "address",
          "name": "approved",
          "type": "address"
        },
        {
          "indexed": true,
          "internalType": "uint256",
          "name": "tokenId",
          "type": "uint256"
        }
      ],
      "name": "Approval",
      "type": "event"
    },
    {
      "anonymous": false,
      "inputs": [
        {
          "indexed": true,
          "internalType": "address",
          "name": "owner",
          "type": "address"
        },
        {
          "indexed": true,
          "internalType": "address",
          "name": "operator",
          "type": "address"
        },
        {
          "indexed": false,
          "internalType": "bool",
          "name": "approved",
          "type": "bool"
        }
      ],
      "name": "ApprovalForAll",
      "type": "event"
    },
    {
      "anonymous": false,
      "inputs": [
        {
          "indexed": true,
          "internalType": "address",
          "name": "delegator",
          "type": "address"
        },
        {
          "indexed": true,
          "internalType": "address",
          "name": "fromDelegate",
          "type": "address"
        },
        {
          "indexed": true,
          "internalType": "address",
          "name": "toDelegate",
          "type": "address"
        }
      ],
      "name": "DelegateChanged",
      "type": "event"
    },
    {
      "anonymous": false,
      "inputs": [
        {
          "indexed": true,
          "internalType": "address",
          "name": "delegate",
          "type": "address"
        },
        {
          "indexed": false,
          "internalType": "uint256",
          "name": "previousBalance",
          "type": "uint256"
        },
        {
          "indexed": false,
          "internalType": "uint256",
          "name": "newBalance",
          "type": "uint256"
        }
      ],
      "name": "DelegateVotesChanged",
      "type": "event"
    },
    {
      "anonymous": false,
      "inputs": [
        {
          "indexed": true,
          "internalType": "address",
          "name": "previousOwner",
          "type": "address"
        },
        {
          "indexed": true,
          "internalType": "address",
          "name": "newOwner",
          "type": "address"
        }
      ],
      "name": "OwnershipTransferred",
      "type": "event"
    },
    {
      "anonymous": false,
      "inputs": [
        {
          "indexed": true,
          "internalType": "address",
          "name": "from",
          "type": "address"
        },
        {
          "indexed": true,
          "internalType": "address",
          "name": "to",
          "type": "address"
        },
        {
          "indexed": true,
          "internalType": "uint256",
          "name": "tokenId",
          "type": "uint256"
        }
      ],
      "name": "Transfer",
      "type": "event"
    },
    {
      "inputs": [],
      "name": "DOMAIN_SEPARATOR",
      "outputs": [
        {
          "internalType": "bytes32",
          "name": "",
          "type": "bytes32"
        }
      ],
      "stateMutability": "view",
      "type": "function"
    },
    {
      "inputs": [
        {
          "internalType": "address",
          "name": "to",
          "type": "address"
        },
        {
          "internalType": "uint256",
          "name": "tokenId",
          "type": "uint256"
        }
      ],
      "name": "approve",
      "outputs": [],
      "stateMutability": "nonpayable",
      "type": "function"
    },
    {
      "inputs": [],
      "name": "auctionHouse",
      "outputs": [
        {
          "internalType": "address",
          "name": "",
          "type": "address"
        }
      ],
      "stateMutability": "view",
      "type": "function"
    },
    {
      "inputs": [
        {
          "internalType": "address",
          "name": "owner",
          "type": "address"
        }
      ],
      "name": "balanceOf",
      "outputs": [
        {
          "internalType": "uint256",
          "name": "",
          "type": "uint256"
        }
      ],
      "stateMutability": "view",
      "type": "function"
    },
    {
      "inputs": [
        {
          "internalType": "uint256",
          "name": "tokenId",
          "type": "uint256"
        }
      ],
      "name": "burn",
      "outputs": [],
      "stateMutability": "nonpayable",
      "type": "function"
    },
    {
      "inputs": [
        {
          "internalType": "address",
          "name": "delegatee",
          "type": "address"
        }
      ],
      "name": "delegate",
      "outputs": [],
      "stateMutability": "nonpayable",
      "type": "function"
    },
    {
      "inputs": [
        {
          "internalType": "address",
          "name": "delegatee",
          "type": "address"
        },
        {
          "internalType": "uint256",
          "name": "nonce",
          "type": "uint256"
        },
        {
          "internalType": "uint256",
          "name": "expiry",
          "type": "uint256"
        },
        {
          "internalType": "uint8",
          "name": "v",
          "type": "uint8"
        },
        {
          "internalType": "bytes32",
          "name": "r",
          "type": "bytes32"
        },
        {
          "internalType": "bytes32",
          "name": "s",
          "type": "bytes32"
        }
      ],
      "name": "delegateBySig",
      "outputs": [],
      "stateMutability": "nonpayable",
      "type": "function"
    },
    {
      "inputs": [
        {
          "internalType": "address",
          "name": "account",
          "type": "address"
        }
      ],
      "name": "delegates",
      "outputs": [
        {
          "internalType": "address",
          "name": "",
          "type": "address"
        }
      ],
      "stateMutability": "view",
      "type": "function"
    },
    {
      "inputs": [
        {
          "internalType": "uint256",
          "name": "",
          "type": "uint256"
        }
      ],
      "name": "dnaMap",
      "outputs": [
        {
          "internalType": "uint96",
          "name": "",
          "type": "uint96"
        }
      ],
      "stateMutability": "view",
      "type": "function"
    },
    {
      "inputs": [],
      "name": "founders",
      "outputs": [
        {
          "internalType": "address",
          "name": "",
          "type": "address"
        }
      ],
      "stateMutability": "view",
      "type": "function"
    },
    {
      "inputs": [
        {
          "internalType": "uint256",
          "name": "tokenId",
          "type": "uint256"
        }
      ],
      "name": "getApproved",
      "outputs": [
        {
          "internalType": "address",
          "name": "",
          "type": "address"
        }
      ],
      "stateMutability": "view",
      "type": "function"
    },
    {
      "inputs": [
        {
          "internalType": "uint256",
          "name": "blockNumber",
          "type": "uint256"
        }
      ],
      "name": "getPastTotalSupply",
      "outputs": [
        {
          "internalType": "uint256",
          "name": "",
          "type": "uint256"
        }
      ],
      "stateMutability": "view",
      "type": "function"
    },
    {
      "inputs": [
        {
          "internalType": "address",
          "name": "account",
          "type": "address"
        },
        {
          "internalType": "uint256",
          "name": "blockNumber",
          "type": "uint256"
        }
      ],
      "name": "getPastVotes",
      "outputs": [
        {
          "internalType": "uint256",
          "name": "",
          "type": "uint256"
        }
      ],
      "stateMutability": "view",
      "type": "function"
    },
    {
      "inputs": [
        {
          "internalType": "address",
          "name": "account",
          "type": "address"
        }
      ],
      "name": "getVotes",
      "outputs": [
        {
          "internalType": "uint256",
          "name": "",
          "type": "uint256"
        }
      ],
      "stateMutability": "view",
      "type": "function"
    },
    {
      "inputs": [
        {
          "internalType": "address",
          "name": "owner",
          "type": "address"
        },
        {
          "internalType": "address",
          "name": "operator",
          "type": "address"
        }
      ],
      "name": "isApprovedForAll",
      "outputs": [
        {
          "internalType": "bool",
          "name": "",
          "type": "bool"
        }
      ],
      "stateMutability": "view",
      "type": "function"
    },
    {
      "inputs": [],
      "name": "mint",
      "outputs": [],
      "stateMutability": "nonpayable",
      "type": "function"
    },
    {
      "inputs": [],
      "name": "name",
      "outputs": [
        {
          "internalType": "string",
          "name": "",
          "type": "string"
        }
      ],
      "stateMutability": "view",
      "type": "function"
    },
    {
      "inputs": [
        {
          "internalType": "address",
          "name": "owner",
          "type": "address"
        }
      ],
      "name": "nonces",
      "outputs": [
        {
          "internalType": "uint256",
          "name": "",
          "type": "uint256"
        }
      ],
      "stateMutability": "view",
      "type": "function"
    },
    {
      "inputs": [],
      "name": "owner",
      "outputs": [
        {
          "internalType": "address",
          "name": "",
          "type": "address"
        }
      ],
      "stateMutability": "view",
      "type": "function"
    },
    {
      "inputs": [
        {
          "internalType": "uint256",
          "name": "tokenId",
          "type": "uint256"
        }
      ],
      "name": "ownerOf",
      "outputs": [
        {
          "internalType": "address",
          "name": "",
          "type": "address"
        }
      ],
      "stateMutability": "view",
      "type": "function"
    },
    {
      "inputs": [],
      "name": "renounceOwnership",
      "outputs": [],
      "stateMutability": "nonpayable",
      "type": "function"
    },
    {
      "inputs": [
        {
          "internalType": "address",
          "name": "from",
          "type": "address"
        },
        {
          "internalType": "address",
          "name": "to",
          "type": "address"
        },
        {
          "internalType": "uint256",
          "name": "tokenId",
          "type": "uint256"
        }
      ],
      "name": "safeTransferFrom",
      "outputs": [],
      "stateMutability": "nonpayable",
      "type": "function"
    },
    {
      "inputs": [
        {
          "internalType": "address",
          "name": "from",
          "type": "address"
        },
        {
          "internalType": "address",
          "name": "to",
          "type": "address"
        },
        {
          "internalType": "uint256",
          "name": "tokenId",
          "type": "uint256"
        },
        {
          "internalType": "bytes",
          "name": "data",
          "type": "bytes"
        }
      ],
      "name": "safeTransferFrom",
      "outputs": [],
      "stateMutability": "nonpayable",
      "type": "function"
    },
    {
      "inputs": [
        {
          "internalType": "address",
          "name": "operator",
          "type": "address"
        },
        {
          "internalType": "bool",
          "name": "approved",
          "type": "bool"
        }
      ],
      "name": "setApprovalForAll",
      "outputs": [],
      "stateMutability": "nonpayable",
      "type": "function"
    },
    {
      "inputs": [
        {
          "internalType": "address",
          "name": "_auctionHouse",
          "type": "address"
        }
      ],
      "name": "setAuctionHouse",
      "outputs": [],
      "stateMutability": "nonpayable",
      "type": "function"
    },
    {
      "inputs": [],
      "name": "store",
      "outputs": [
        {
          "internalType": "address",
          "name": "",
          "type": "address"
        }
      ],
      "stateMutability": "view",
      "type": "function"
    },
    {
      "inputs": [
        {
          "internalType": "bytes4",
          "name": "interfaceId",
          "type": "bytes4"
        }
      ],
      "name": "supportsInterface",
      "outputs": [
        {
          "internalType": "bool",
          "name": "",
          "type": "bool"
        }
      ],
      "stateMutability": "view",
      "type": "function"
    },
    {
      "inputs": [],
      "name": "symbol",
      "outputs": [
        {
          "internalType": "string",
          "name": "",
          "type": "string"
        }
      ],
      "stateMutability": "view",
      "type": "function"
    },
    {
      "inputs": [
        {
          "internalType": "uint256",
          "name": "index",
          "type": "uint256"
        }
      ],
      "name": "tokenByIndex",
      "outputs": [
        {
          "internalType": "uint256",
          "name": "",
          "type": "uint256"
        }
      ],
      "stateMutability": "view",
      "type": "function"
    },
    {
      "inputs": [
        {
          "internalType": "address",
          "name": "owner",
          "type": "address"
        },
        {
          "internalType": "uint256",
          "name": "index",
          "type": "uint256"
        }
      ],
      "name": "tokenOfOwnerByIndex",
      "outputs": [
        {
          "internalType": "uint256",
          "name": "",
          "type": "uint256"
        }
      ],
      "stateMutability": "view",
      "type": "function"
    },
    {
      "inputs": [
        {
          "internalType": "uint256",
          "name": "tokenId",
          "type": "uint256"
        }
      ],
      "name": "tokenURI",
      "outputs": [
        {
          "internalType": "string",
          "name": "",
          "type": "string"
        }
      ],
      "stateMutability": "view",
      "type": "function"
    },
    {
      "inputs": [],
      "name": "totalSupply",
      "outputs": [
        {
          "internalType": "uint256",
          "name": "",
          "type": "uint256"
        }
      ],
      "stateMutability": "view",
      "type": "function"
    },
    {
      "inputs": [
        {
          "internalType": "address",
          "name": "from",
          "type": "address"
        },
        {
          "internalType": "address",
          "name": "to",
          "type": "address"
        },
        {
          "internalType": "uint256",
          "name": "tokenId",
          "type": "uint256"
        }
      ],
      "name": "transferFrom",
      "outputs": [],
      "stateMutability": "nonpayable",
      "type": "function"
    },
    {
      "inputs": [
        {
          "internalType": "address",
          "name": "newOwner",
          "type": "address"
        }
      ],
      "name": "transferOwnership",
      "outputs": [],
      "stateMutability": "nonpayable",
      "type": "function"
    }
  ],
  "transactionHash": "0x196d1bf8f4df7365fe9edb6fa0693442c3063b67026cfde2107ec070671df15e",
  "args": [
    "0xAE11251A74b59D8f63787A4419a65cD047148506",
    "0x5A78F12fF5dD11ee0b83CF84F47c0FCc602cA5E4",
    "0x5A78F12fF5dD11ee0b83CF84F47c0FCc602cA5E4"
  ],
  "numDeployments": 1,
  "solcInputHash": "dfdb8b990de62fa4271d2e4aa2862bd2",
  "bytecode": "0x6101406040523480156200001257600080fd5b50604051620035393803806200353983398101604081905262000035916200021f565b604080518082018252601180825270506f6c6b61646f74204275696c6465727360781b60208084018290528451808601865260018152603160f81b8183015285518087018752938452838201929092528451808601909552600385526214109560ea1b9085015291926000620000ac83826200030e565b506001620000bb82826200030e565b505050620000d8620000d2620001ac60201b60201c565b620001b0565b815160208084019190912082518383012060e08290526101008190524660a0818152604080517f8b73c3c69bb8fe3d512ecc4cf759cc79239f7b179b0ffacaa9a75d522b39400f81880181905281830187905260608201869052608082019490945230818401528151808203909301835260c00190528051940193909320919290916080523060c052610120525050601080546001600160a01b039687166001600160a01b0319918216179091556011805495871695821695909517909455505060128054919093169116179055620003da565b3390565b600a80546001600160a01b038381166001600160a01b0319831681179093556040519116919082907f8be0079c531659141344cd1fd0a4f28419497f9722a3daafe3b4186f6b6457e090600090a35050565b80516001600160a01b03811681146200021a57600080fd5b919050565b6000806000606084860312156200023557600080fd5b620002408462000202565b9250620002506020850162000202565b9150620002606040850162000202565b90509250925092565b634e487b7160e01b600052604160045260246000fd5b600181811c908216806200029457607f821691505b602082108103620002b557634e487b7160e01b600052602260045260246000fd5b50919050565b601f8211156200030957600081815260208120601f850160051c81016020861015620002e45750805b601f850160051c820191505b818110156200030557828155600101620002f0565b5050505b505050565b81516001600160401b038111156200032a576200032a62000269565b62000342816200033b84546200027f565b84620002bb565b602080601f8311600181146200037a5760008415620003615750858301515b600019600386901b1c1916600185901b17855562000305565b600085815260208120601f198616915b82811015620003ab578886015182559484019460019091019084016200038a565b5085821015620003ca5787850151600019600388901b60f8161c191681555b5050505050600190811b01905550565b60805160a05160c05160e051610100516101205161310f6200042a60003960006114c601526000611515015260006114f001526000611449015260006114730152600061149d015261310f6000f3fe608060405234801561001057600080fd5b50600436106102265760003560e01c80636922a9631161012a5780639ab24eb0116100bd578063c87b56dd1161008c578063e985e9c511610071578063e985e9c5146104cb578063ed9152c814610507578063f2fde38b1461051a57600080fd5b8063c87b56dd146104a5578063e76d8952146104b857600080fd5b80639ab24eb014610459578063a22cb4651461046c578063b88d4fde1461047f578063c3cda5201461049257600080fd5b80638da5cb5b116100f95780638da5cb5b1461041a5780638e539e8c1461042b57806395d89b411461043e578063975057e71461044657600080fd5b80636922a963146103a157806370a08231146103ec578063715018a6146103ff5780637ecebe001461040757600080fd5b80633644e515116101bd57806342966c681161018c578063587cde1e11610171578063587cde1e1461034f5780635c19a95c1461037b5780636352211e1461038e57600080fd5b806342966c68146103295780634f6ccce71461033c57600080fd5b80633644e515146102e85780633a46b1a8146102f0578063411b007e1461030357806342842e0e1461031657600080fd5b80631249c58b116101f95780631249c58b146102a857806318160ddd146102b057806323b872dd146102c25780632f745c59146102d557600080fd5b806301ffc9a71461022b57806306fdde0314610253578063081812fc14610268578063095ea7b314610293575b600080fd5b61023e610239366004612bcc565b61052d565b60405190151581526020015b60405180910390f35b61025b61053e565b60405161024a9190612c39565b61027b610276366004612c4c565b6105d0565b6040516001600160a01b03909116815260200161024a565b6102a66102a1366004612c81565b6105f7565b005b6102a661072d565b6008545b60405190815260200161024a565b6102a66102d0366004612cab565b610805565b6102b46102e3366004612c81565b61087d565b6102b4610925565b6102b46102fe366004612c81565b610934565b60125461027b906001600160a01b031681565b6102a6610324366004612cab565b61095d565b6102a6610337366004612c4c565b610978565b6102b461034a366004612c4c565b610981565b61027b61035d366004612ce7565b6001600160a01b039081166000908152600b60205260409020541690565b6102a6610389366004612ce7565b610a25565b61027b61039c366004612c4c565b610a34565b6103cf6103af366004612c4c565b6013602052600090815260409020546bffffffffffffffffffffffff1681565b6040516bffffffffffffffffffffffff909116815260200161024a565b6102b46103fa366004612ce7565b610a99565b6102a6610b33565b6102b4610415366004612ce7565b610b47565b600a546001600160a01b031661027b565b6102b4610439366004612c4c565b610b65565b61025b610bc1565b60105461027b906001600160a01b031681565b6102b4610467366004612ce7565b610bd0565b6102a661047a366004612d02565b610c00565b6102a661048d366004612dad565b610c0b565b6102a66104a0366004612e58565b610c89565b61025b6104b3366004612c4c565b610dbf565b6102a66104c6366004612ce7565b610eed565b61023e6104d9366004612eb8565b6001600160a01b03918216600090815260056020908152604080832093909416825291909152205460ff1690565b60115461027b906001600160a01b031681565b6102a6610528366004612ce7565b610f17565b600061053882610fa4565b92915050565b60606000805461054d90612eeb565b80601f016020809104026020016040519081016040528092919081815260200182805461057990612eeb565b80156105c65780601f1061059b576101008083540402835291602001916105c6565b820191906000526020600020905b8154815290600101906020018083116105a957829003601f168201915b5050505050905090565b60006105db82610fe2565b506000908152600460205260409020546001600160a01b031690565b600061060282610a34565b9050806001600160a01b0316836001600160a01b0316036106905760405162461bcd60e51b815260206004820152602160248201527f4552433732313a20617070726f76616c20746f2063757272656e74206f776e6560448201527f720000000000000000000000000000000000000000000000000000000000000060648201526084015b60405180910390fd5b336001600160a01b03821614806106ac57506106ac81336104d9565b61071e5760405162461bcd60e51b815260206004820152603d60248201527f4552433732313a20617070726f76652063616c6c6572206973206e6f7420746f60448201527f6b656e206f776e6572206f7220617070726f76656420666f7220616c6c0000006064820152608401610687565b6107288383611046565b505050565b6011546001600160a01b031633146107ac5760405162461bcd60e51b8152602060048201526024808201527f4f6e6c792061756374696f6e20686f75736520636f6e74726163742063616e2060448201527f6d696e74000000000000000000000000000000000000000000000000000000006064820152608401610687565b6011546107c1906001600160a01b03166110b4565b60006107cc600f5490565b90506107d081111580156107e857506107e6600a82612f35565b155b1561080257601254610802906001600160a01b03166110b4565b50565b610810335b826111af565b6108725760405162461bcd60e51b815260206004820152602d60248201527f4552433732313a2063616c6c6572206973206e6f7420746f6b656e206f776e6560448201526c1c881bdc88185c1c1c9bdd9959609a1b6064820152608401610687565b61072883838361122e565b600061088883610a99565b82106108fc5760405162461bcd60e51b815260206004820152602b60248201527f455243373231456e756d657261626c653a206f776e657220696e646578206f7560448201527f74206f6620626f756e64730000000000000000000000000000000000000000006064820152608401610687565b506001600160a01b03919091166000908152600660209081526040808320938352929052205490565b600061092f61143c565b905090565b6001600160a01b0382166000908152600c602052604081206109569083611563565b9392505050565b61072883838360405180602001604052806000815250610c0b565b6108028161167f565b600061098c60085490565b8210610a005760405162461bcd60e51b815260206004820152602c60248201527f455243373231456e756d657261626c653a20676c6f62616c20696e646578206f60448201527f7574206f6620626f756e647300000000000000000000000000000000000000006064820152608401610687565b60088281548110610a1357610a13612f49565b90600052602060002001549050919050565b33610a3081836116f3565b5050565b6000818152600260205260408120546001600160a01b0316806105385760405162461bcd60e51b815260206004820152601860248201527f4552433732313a20696e76616c696420746f6b656e20494400000000000000006044820152606401610687565b60006001600160a01b038216610b175760405162461bcd60e51b815260206004820152602960248201527f4552433732313a2061646472657373207a65726f206973206e6f74206120766160448201527f6c6964206f776e657200000000000000000000000000000000000000000000006064820152608401610687565b506001600160a01b031660009081526003602052604090205490565b610b3b611765565b610b4560006117bf565b565b6001600160a01b0381166000908152600e6020526040812054610538565b6000438210610bb65760405162461bcd60e51b815260206004820152601a60248201527f566f7465733a20626c6f636b206e6f7420796574206d696e65640000000000006044820152606401610687565b610538600d83611563565b60606001805461054d90612eeb565b6001600160a01b0381166000908152600c60205260408120610bf190611811565b6001600160e01b031692915050565b610a3033838361184b565b610c1533836111af565b610c775760405162461bcd60e51b815260206004820152602d60248201527f4552433732313a2063616c6c6572206973206e6f7420746f6b656e206f776e6560448201526c1c881bdc88185c1c1c9bdd9959609a1b6064820152608401610687565b610c8384848484611919565b50505050565b83421115610cd95760405162461bcd60e51b815260206004820152601860248201527f566f7465733a207369676e6174757265206578706972656400000000000000006044820152606401610687565b604080517fe48329057bfd03d55e49b547132e39cffd9c1820ad7b9d4c5307691425d15adf60208201526001600160a01b038816918101919091526060810186905260808101859052600090610d5390610d4b9060a00160405160208183030381529060405280519060200120611997565b858585611a00565b9050610d5e81611a28565b8614610dac5760405162461bcd60e51b815260206004820152601460248201527f566f7465733a20696e76616c6964206e6f6e63650000000000000000000000006044820152606401610687565b610db681886116f3565b50505050505050565b6000818152600260205260409020546060906001600160a01b0316610e265760405162461bcd60e51b815260206004820152601860248201527f5468697320746f6b656e20646f65736e277420657869737400000000000000006044820152606401610687565b601054600083815260136020526040908190205490517fa029d3950000000000000000000000000000000000000000000000000000000081526001600160a01b039092166004830152602482018490526bffffffffffffffffffffffff16604482015273218110DF2b0B1bDaA54C024eB336952e73ae9Df49063a029d39590606401600060405180830381865af4158015610ec5573d6000803e3d6000fd5b505050506040513d6000823e601f3d908101601f191682016040526105389190810190612f5f565b610ef5611765565b601180546001600160a01b0319166001600160a01b0392909216919091179055565b610f1f611765565b6001600160a01b038116610f9b5760405162461bcd60e51b815260206004820152602660248201527f4f776e61626c653a206e6577206f776e657220697320746865207a65726f206160448201527f64647265737300000000000000000000000000000000000000000000000000006064820152608401610687565b610802816117bf565b60006001600160e01b031982167f780e9d63000000000000000000000000000000000000000000000000000000001480610538575061053882611a50565b6000818152600260205260409020546001600160a01b03166108025760405162461bcd60e51b815260206004820152601860248201527f4552433732313a20696e76616c696420746f6b656e20494400000000000000006044820152606401610687565b600081815260046020526040902080546001600160a01b0319166001600160a01b038416908117909155819061107b82610a34565b6001600160a01b03167f8c5be1e5ebec7d5bd14f71427d1e84f3dd0314c0f7b2291e5b200ac8c7c3b92560405160405180910390a45050565b6110c2600f80546001019055565b60006110cd600f5490565b60105490915073cFC251dec86aFaf69Cd8b20a702fE291Da346c209063aaa5b4d3906001600160a01b03166111028442612fec565b6040516001600160e01b031960e085901b1681526001600160a01b0390921660048301526024820152604401602060405180830381865af415801561114b573d6000803e3d6000fd5b505050506040513d601f19601f8201168201806040525081019061116f9190612fff565b600082815260136020526040902080546bffffffffffffffffffffffff19166bffffffffffffffffffffffff92909216919091179055610a308282611aeb565b6000806111bb83610a34565b9050806001600160a01b0316846001600160a01b0316148061120257506001600160a01b0380821660009081526005602090815260408083209388168352929052205460ff165b806112265750836001600160a01b031661121b846105d0565b6001600160a01b0316145b949350505050565b826001600160a01b031661124182610a34565b6001600160a01b0316146112a55760405162461bcd60e51b815260206004820152602560248201527f4552433732313a207472616e736665722066726f6d20696e636f72726563742060448201526437bbb732b960d91b6064820152608401610687565b6001600160a01b0382166113205760405162461bcd60e51b8152602060048201526024808201527f4552433732313a207472616e7366657220746f20746865207a65726f2061646460448201527f72657373000000000000000000000000000000000000000000000000000000006064820152608401610687565b61132d8383836001611b05565b826001600160a01b031661134082610a34565b6001600160a01b0316146113a45760405162461bcd60e51b815260206004820152602560248201527f4552433732313a207472616e736665722066726f6d20696e636f72726563742060448201526437bbb732b960d91b6064820152608401610687565b600081815260046020908152604080832080546001600160a01b03199081169091556001600160a01b0387811680865260038552838620805460001901905590871680865283862080546001019055868652600290945282852080549092168417909155905184937fddf252ad1be2c89b69c2b068fc378daa952ba7f163c4a11628f55a4df523b3ef91a46107288383836001611b11565b6000306001600160a01b037f00000000000000000000000000000000000000000000000000000000000000001614801561149557507f000000000000000000000000000000000000000000000000000000000000000046145b156114bf57507f000000000000000000000000000000000000000000000000000000000000000090565b50604080517f00000000000000000000000000000000000000000000000000000000000000006020808301919091527f0000000000000000000000000000000000000000000000000000000000000000828401527f000000000000000000000000000000000000000000000000000000000000000060608301524660808301523060a0808401919091528351808403909101815260c0909201909252805191012090565b60004382106115b45760405162461bcd60e51b815260206004820181905260248201527f436865636b706f696e74733a20626c6f636b206e6f7420796574206d696e65646044820152606401610687565b60006115bf83611b1d565b8454909150600081600581111561161d5760006115db84611b9d565b6115e5908561302d565b60008981526020902090915081015463ffffffff908116908616101561160d5780915061161b565b611618816001612fec565b92505b505b600061162b88868585611c85565b90508015611667576116508861164260018461302d565b600091825260209091200190565b5464010000000090046001600160e01b031661166a565b60005b6001600160e01b031698975050505050505050565b6116883361080a565b6116ea5760405162461bcd60e51b815260206004820152602d60248201527f4552433732313a2063616c6c6572206973206e6f7420746f6b656e206f776e6560448201526c1c881bdc88185c1c1c9bdd9959609a1b6064820152608401610687565b61080281611ce3565b6001600160a01b038281166000818152600b602052604080822080548686166001600160a01b0319821681179092559151919094169392849290917f3134e8a2e6d97e929a7e54011ea5485d7d196dd5f0ba4d4ef95803e8e3fc257f9190a4610728818361176086611d90565b611d9b565b600a546001600160a01b03163314610b455760405162461bcd60e51b815260206004820181905260248201527f4f776e61626c653a2063616c6c6572206973206e6f7420746865206f776e65726044820152606401610687565b600a80546001600160a01b038381166001600160a01b0319831681179093556040519116919082907f8be0079c531659141344cd1fd0a4f28419497f9722a3daafe3b4186f6b6457e090600090a35050565b805460009080156118425761182b8361164260018461302d565b5464010000000090046001600160e01b0316610956565b60009392505050565b816001600160a01b0316836001600160a01b0316036118ac5760405162461bcd60e51b815260206004820152601960248201527f4552433732313a20617070726f766520746f2063616c6c6572000000000000006044820152606401610687565b6001600160a01b03838116600081815260056020908152604080832094871680845294825291829020805460ff191686151590811790915591519182527f17307eab39ab6107e8899845ad3d59bd9653f200f220920489ca2b5937696c31910160405180910390a3505050565b61192484848461122e565b61193084848484611ed8565b610c835760405162461bcd60e51b815260206004820152603260248201527f4552433732313a207472616e7366657220746f206e6f6e20455243373231526560448201527131b2b4bb32b91034b6b83632b6b2b73a32b960711b6064820152608401610687565b60006105386119a461143c565b836040517f19010000000000000000000000000000000000000000000000000000000000006020820152602281018390526042810182905260009060620160405160208183030381529060405280519060200120905092915050565b6000806000611a1187878787612021565b91509150611a1e816120e5565b5095945050505050565b6001600160a01b0381166000908152600e602052604090208054600181018255905b50919050565b60006001600160e01b031982167f80ac58cd000000000000000000000000000000000000000000000000000000001480611ab357506001600160e01b031982167f5b5e139f00000000000000000000000000000000000000000000000000000000145b8061053857507f01ffc9a7000000000000000000000000000000000000000000000000000000006001600160e01b0319831614610538565b610a3082826040518060200160405280600081525061224a565b610c83848484846122c8565b610c8384848484612410565b600063ffffffff821115611b995760405162461bcd60e51b815260206004820152602660248201527f53616665436173743a2076616c756520646f65736e27742066697420696e203360448201527f32206269747300000000000000000000000000000000000000000000000000006064820152608401610687565b5090565b600081600003611baf57506000919050565b60006001611bbc84612420565b901c6001901b90506001818481611bd557611bd5612f1f565b048201901c90506001818481611bed57611bed612f1f565b048201901c90506001818481611c0557611c05612f1f565b048201901c90506001818481611c1d57611c1d612f1f565b048201901c90506001818481611c3557611c35612f1f565b048201901c90506001818481611c4d57611c4d612f1f565b048201901c90506001818481611c6557611c65612f1f565b048201901c905061095681828581611c7f57611c7f612f1f565b046124b4565b60005b81831015611cdb576000611c9c84846124ca565b60008781526020902090915063ffffffff86169082015463ffffffff161115611cc757809250611cd5565b611cd2816001612fec565b93505b50611c88565b509392505050565b6000611cee82610a34565b9050611cfe816000846001611b05565b611d0782610a34565b600083815260046020908152604080832080546001600160a01b03199081169091556001600160a01b0385168085526003845282852080546000190190558785526002909352818420805490911690555192935084927fddf252ad1be2c89b69c2b068fc378daa952ba7f163c4a11628f55a4df523b3ef908390a4610a30816000846001611b11565b600061053882610a99565b816001600160a01b0316836001600160a01b031614158015611dbd5750600081115b15610728576001600160a01b03831615611e4b576001600160a01b0383166000908152600c602052604081208190611df8906124e5856124f1565b91509150846001600160a01b03167fdec2bacdd2f05b59de34da9b523dff8be42e5e38e818c82fdb0bae774387a7248383604051611e40929190918252602082015260400190565b60405180910390a250505b6001600160a01b03821615610728576001600160a01b0382166000908152600c602052604081208190611e8190612529856124f1565b91509150836001600160a01b03167fdec2bacdd2f05b59de34da9b523dff8be42e5e38e818c82fdb0bae774387a7248383604051611ec9929190918252602082015260400190565b60405180910390a25050505050565b60006001600160a01b0384163b1561201957604051630a85bd0160e11b81526001600160a01b0385169063150b7a0290611f1c903390899088908890600401613040565b6020604051808303816000875af1925050508015611f57575060408051601f3d908101601f19168201909252611f549181019061307c565b60015b611fff573d808015611f85576040519150601f19603f3d011682016040523d82523d6000602084013e611f8a565b606091505b508051600003611ff75760405162461bcd60e51b815260206004820152603260248201527f4552433732313a207472616e7366657220746f206e6f6e20455243373231526560448201527131b2b4bb32b91034b6b83632b6b2b73a32b960711b6064820152608401610687565b805181602001fd5b6001600160e01b031916630a85bd0160e11b149050611226565b506001611226565b6000807f7fffffffffffffffffffffffffffffff5d576e7357a4501ddfe92f46681b20a083111561205857506000905060036120dc565b6040805160008082526020820180845289905260ff881692820192909252606081018690526080810185905260019060a0016020604051602081039080840390855afa1580156120ac573d6000803e3d6000fd5b5050604051601f1901519150506001600160a01b0381166120d5576000600192509250506120dc565b9150600090505b94509492505050565b60008160048111156120f9576120f9613099565b036121015750565b600181600481111561211557612115613099565b036121625760405162461bcd60e51b815260206004820152601860248201527f45434453413a20696e76616c6964207369676e617475726500000000000000006044820152606401610687565b600281600481111561217657612176613099565b036121c35760405162461bcd60e51b815260206004820152601f60248201527f45434453413a20696e76616c6964207369676e6174757265206c656e677468006044820152606401610687565b60038160048111156121d7576121d7613099565b036108025760405162461bcd60e51b815260206004820152602260248201527f45434453413a20696e76616c6964207369676e6174757265202773272076616c60448201527f75650000000000000000000000000000000000000000000000000000000000006064820152608401610687565b6122548383612535565b6122616000848484611ed8565b6107285760405162461bcd60e51b815260206004820152603260248201527f4552433732313a207472616e7366657220746f206e6f6e20455243373231526560448201527131b2b4bb32b91034b6b83632b6b2b73a32b960711b6064820152608401610687565b6122d4848484846126d8565b600181111561234b5760405162461bcd60e51b815260206004820152603560248201527f455243373231456e756d657261626c653a20636f6e736563757469766520747260448201527f616e7366657273206e6f7420737570706f7274656400000000000000000000006064820152608401610687565b816001600160a01b0385166123a7576123a281600880546000838152600960205260408120829055600182018355919091527ff3f7a9fe364faab93b216da50a3214154f22a0a2b415b23a84c8169e8b636ee30155565b6123ca565b836001600160a01b0316856001600160a01b0316146123ca576123ca8582612760565b6001600160a01b0384166123e6576123e1816127fd565b612409565b846001600160a01b0316846001600160a01b0316146124095761240984826128ac565b5050505050565b61241b8484836128f0565b610c83565b600080608083901c1561243557608092831c92015b604083901c1561244757604092831c92015b602083901c1561245957602092831c92015b601083901c1561246b57601092831c92015b600883901c1561247d57600892831c92015b600483901c1561248f57600492831c92015b600283901c156124a157600292831c92015b600183901c156105385760010192915050565b60008183106124c35781610956565b5090919050565b60006124d960028484186130af565b61095690848416612fec565b6000610956828461302d565b60008061251c8561251761250488611811565b6001600160e01b0316868863ffffffff16565b612960565b915091505b935093915050565b60006109568284612fec565b6001600160a01b03821661258b5760405162461bcd60e51b815260206004820181905260248201527f4552433732313a206d696e7420746f20746865207a65726f20616464726573736044820152606401610687565b6000818152600260205260409020546001600160a01b0316156125f05760405162461bcd60e51b815260206004820152601c60248201527f4552433732313a20746f6b656e20616c7265616479206d696e746564000000006044820152606401610687565b6125fe600083836001611b05565b6000818152600260205260409020546001600160a01b0316156126635760405162461bcd60e51b815260206004820152601c60248201527f4552433732313a20746f6b656e20616c7265616479206d696e746564000000006044820152606401610687565b6001600160a01b038216600081815260036020908152604080832080546001019055848352600290915280822080546001600160a01b0319168417905551839291907fddf252ad1be2c89b69c2b068fc378daa952ba7f163c4a11628f55a4df523b3ef908290a4610a30600083836001611b11565b6001811115610c83576001600160a01b0384161561271e576001600160a01b0384166000908152600360205260408120805483929061271890849061302d565b90915550505b6001600160a01b03831615610c83576001600160a01b03831660009081526003602052604081208054839290612755908490612fec565b909155505050505050565b6000600161276d84610a99565b612777919061302d565b6000838152600760205260409020549091508082146127ca576001600160a01b03841660009081526006602090815260408083208584528252808320548484528184208190558352600790915290208190555b5060009182526007602090815260408084208490556001600160a01b039094168352600681528383209183525290812055565b60085460009061280f9060019061302d565b6000838152600960205260408120546008805493945090928490811061283757612837612f49565b90600052602060002001549050806008838154811061285857612858612f49565b6000918252602080832090910192909255828152600990915260408082208490558582528120556008805480612890576128906130c3565b6001900381819060005260206000200160009055905550505050565b60006128b783610a99565b6001600160a01b039093166000908152600660209081526040808320868452825280832085905593825260079052919091209190915550565b6001600160a01b03831661290f5761290c600d612529836124f1565b50505b6001600160a01b03821661292e5761292b600d6124e5836124f1565b50505b6001600160a01b038381166000908152600b602052604080822054858416835291205461072892918216911683611d9b565b60008061297e8461297043611b1d565b61297986612994565b612a13565b6001600160e01b03918216969116945092505050565b60006001600160e01b03821115611b995760405162461bcd60e51b815260206004820152602760248201527f53616665436173743a2076616c756520646f65736e27742066697420696e203260448201527f32342062697473000000000000000000000000000000000000000000000000006064820152608401610687565b825460009081908015612b5c576000612a318761164260018561302d565b60408051808201909152905463ffffffff8082168084526401000000009092046001600160e01b031660208401529192509087161015612ab35760405162461bcd60e51b815260206004820152601760248201527f436865636b706f696e743a20696e76616c6964206b65790000000000000000006044820152606401610687565b805163ffffffff808816911603612afc5784612ad48861164260018661302d565b80546001600160e01b03929092166401000000000263ffffffff909216919091179055612b4c565b6040805180820190915263ffffffff80881682526001600160e01b0380881660208085019182528b54600181018d5560008d81529190912094519151909216640100000000029216919091179101555b6020015192508391506125219050565b50506040805180820190915263ffffffff80851682526001600160e01b0380851660208085019182528854600181018a5560008a815291822095519251909316640100000000029190931617920191909155905081612521565b6001600160e01b03198116811461080257600080fd5b600060208284031215612bde57600080fd5b813561095681612bb6565b60005b83811015612c04578181015183820152602001612bec565b50506000910152565b60008151808452612c25816020860160208601612be9565b601f01601f19169290920160200192915050565b6020815260006109566020830184612c0d565b600060208284031215612c5e57600080fd5b5035919050565b80356001600160a01b0381168114612c7c57600080fd5b919050565b60008060408385031215612c9457600080fd5b612c9d83612c65565b946020939093013593505050565b600080600060608486031215612cc057600080fd5b612cc984612c65565b9250612cd760208501612c65565b9150604084013590509250925092565b600060208284031215612cf957600080fd5b61095682612c65565b60008060408385031215612d1557600080fd5b612d1e83612c65565b915060208301358015158114612d3357600080fd5b809150509250929050565b634e487b7160e01b600052604160045260246000fd5b604051601f8201601f1916810167ffffffffffffffff81118282101715612d7d57612d7d612d3e565b604052919050565b600067ffffffffffffffff821115612d9f57612d9f612d3e565b50601f01601f191660200190565b60008060008060808587031215612dc357600080fd5b612dcc85612c65565b9350612dda60208601612c65565b925060408501359150606085013567ffffffffffffffff811115612dfd57600080fd5b8501601f81018713612e0e57600080fd5b8035612e21612e1c82612d85565b612d54565b818152886020838501011115612e3657600080fd5b8160208401602083013760006020838301015280935050505092959194509250565b60008060008060008060c08789031215612e7157600080fd5b612e7a87612c65565b95506020870135945060408701359350606087013560ff81168114612e9e57600080fd5b9598949750929560808101359460a0909101359350915050565b60008060408385031215612ecb57600080fd5b612ed483612c65565b9150612ee260208401612c65565b90509250929050565b600181811c90821680612eff57607f821691505b602082108103611a4a57634e487b7160e01b600052602260045260246000fd5b634e487b7160e01b600052601260045260246000fd5b600082612f4457612f44612f1f565b500690565b634e487b7160e01b600052603260045260246000fd5b600060208284031215612f7157600080fd5b815167ffffffffffffffff811115612f8857600080fd5b8201601f81018413612f9957600080fd5b8051612fa7612e1c82612d85565b818152856020838501011115612fbc57600080fd5b612fcd826020830160208601612be9565b95945050505050565b634e487b7160e01b600052601160045260246000fd5b8082018082111561053857610538612fd6565b60006020828403121561301157600080fd5b81516bffffffffffffffffffffffff8116811461095657600080fd5b8181038181111561053857610538612fd6565b60006001600160a01b038087168352808616602084015250836040830152608060608301526130726080830184612c0d565b9695505050505050565b60006020828403121561308e57600080fd5b815161095681612bb6565b634e487b7160e01b600052602160045260246000fd5b6000826130be576130be612f1f565b500490565b634e487b7160e01b600052603160045260246000fdfea2646970667358221220139b1cc4c0be6598c19f4cdfa6ca2b691c536e2b3255c3ce3e4bf56c18dccc2b64736f6c63430008110033",
  "deployedBytecode": "0x608060405234801561001057600080fd5b50600436106102265760003560e01c80636922a9631161012a5780639ab24eb0116100bd578063c87b56dd1161008c578063e985e9c511610071578063e985e9c5146104cb578063ed9152c814610507578063f2fde38b1461051a57600080fd5b8063c87b56dd146104a5578063e76d8952146104b857600080fd5b80639ab24eb014610459578063a22cb4651461046c578063b88d4fde1461047f578063c3cda5201461049257600080fd5b80638da5cb5b116100f95780638da5cb5b1461041a5780638e539e8c1461042b57806395d89b411461043e578063975057e71461044657600080fd5b80636922a963146103a157806370a08231146103ec578063715018a6146103ff5780637ecebe001461040757600080fd5b80633644e515116101bd57806342966c681161018c578063587cde1e11610171578063587cde1e1461034f5780635c19a95c1461037b5780636352211e1461038e57600080fd5b806342966c68146103295780634f6ccce71461033c57600080fd5b80633644e515146102e85780633a46b1a8146102f0578063411b007e1461030357806342842e0e1461031657600080fd5b80631249c58b116101f95780631249c58b146102a857806318160ddd146102b057806323b872dd146102c25780632f745c59146102d557600080fd5b806301ffc9a71461022b57806306fdde0314610253578063081812fc14610268578063095ea7b314610293575b600080fd5b61023e610239366004612bcc565b61052d565b60405190151581526020015b60405180910390f35b61025b61053e565b60405161024a9190612c39565b61027b610276366004612c4c565b6105d0565b6040516001600160a01b03909116815260200161024a565b6102a66102a1366004612c81565b6105f7565b005b6102a661072d565b6008545b60405190815260200161024a565b6102a66102d0366004612cab565b610805565b6102b46102e3366004612c81565b61087d565b6102b4610925565b6102b46102fe366004612c81565b610934565b60125461027b906001600160a01b031681565b6102a6610324366004612cab565b61095d565b6102a6610337366004612c4c565b610978565b6102b461034a366004612c4c565b610981565b61027b61035d366004612ce7565b6001600160a01b039081166000908152600b60205260409020541690565b6102a6610389366004612ce7565b610a25565b61027b61039c366004612c4c565b610a34565b6103cf6103af366004612c4c565b6013602052600090815260409020546bffffffffffffffffffffffff1681565b6040516bffffffffffffffffffffffff909116815260200161024a565b6102b46103fa366004612ce7565b610a99565b6102a6610b33565b6102b4610415366004612ce7565b610b47565b600a546001600160a01b031661027b565b6102b4610439366004612c4c565b610b65565b61025b610bc1565b60105461027b906001600160a01b031681565b6102b4610467366004612ce7565b610bd0565b6102a661047a366004612d02565b610c00565b6102a661048d366004612dad565b610c0b565b6102a66104a0366004612e58565b610c89565b61025b6104b3366004612c4c565b610dbf565b6102a66104c6366004612ce7565b610eed565b61023e6104d9366004612eb8565b6001600160a01b03918216600090815260056020908152604080832093909416825291909152205460ff1690565b60115461027b906001600160a01b031681565b6102a6610528366004612ce7565b610f17565b600061053882610fa4565b92915050565b60606000805461054d90612eeb565b80601f016020809104026020016040519081016040528092919081815260200182805461057990612eeb565b80156105c65780601f1061059b576101008083540402835291602001916105c6565b820191906000526020600020905b8154815290600101906020018083116105a957829003601f168201915b5050505050905090565b60006105db82610fe2565b506000908152600460205260409020546001600160a01b031690565b600061060282610a34565b9050806001600160a01b0316836001600160a01b0316036106905760405162461bcd60e51b815260206004820152602160248201527f4552433732313a20617070726f76616c20746f2063757272656e74206f776e6560448201527f720000000000000000000000000000000000000000000000000000000000000060648201526084015b60405180910390fd5b336001600160a01b03821614806106ac57506106ac81336104d9565b61071e5760405162461bcd60e51b815260206004820152603d60248201527f4552433732313a20617070726f76652063616c6c6572206973206e6f7420746f60448201527f6b656e206f776e6572206f7220617070726f76656420666f7220616c6c0000006064820152608401610687565b6107288383611046565b505050565b6011546001600160a01b031633146107ac5760405162461bcd60e51b8152602060048201526024808201527f4f6e6c792061756374696f6e20686f75736520636f6e74726163742063616e2060448201527f6d696e74000000000000000000000000000000000000000000000000000000006064820152608401610687565b6011546107c1906001600160a01b03166110b4565b60006107cc600f5490565b90506107d081111580156107e857506107e6600a82612f35565b155b1561080257601254610802906001600160a01b03166110b4565b50565b610810335b826111af565b6108725760405162461bcd60e51b815260206004820152602d60248201527f4552433732313a2063616c6c6572206973206e6f7420746f6b656e206f776e6560448201526c1c881bdc88185c1c1c9bdd9959609a1b6064820152608401610687565b61072883838361122e565b600061088883610a99565b82106108fc5760405162461bcd60e51b815260206004820152602b60248201527f455243373231456e756d657261626c653a206f776e657220696e646578206f7560448201527f74206f6620626f756e64730000000000000000000000000000000000000000006064820152608401610687565b506001600160a01b03919091166000908152600660209081526040808320938352929052205490565b600061092f61143c565b905090565b6001600160a01b0382166000908152600c602052604081206109569083611563565b9392505050565b61072883838360405180602001604052806000815250610c0b565b6108028161167f565b600061098c60085490565b8210610a005760405162461bcd60e51b815260206004820152602c60248201527f455243373231456e756d657261626c653a20676c6f62616c20696e646578206f60448201527f7574206f6620626f756e647300000000000000000000000000000000000000006064820152608401610687565b60088281548110610a1357610a13612f49565b90600052602060002001549050919050565b33610a3081836116f3565b5050565b6000818152600260205260408120546001600160a01b0316806105385760405162461bcd60e51b815260206004820152601860248201527f4552433732313a20696e76616c696420746f6b656e20494400000000000000006044820152606401610687565b60006001600160a01b038216610b175760405162461bcd60e51b815260206004820152602960248201527f4552433732313a2061646472657373207a65726f206973206e6f74206120766160448201527f6c6964206f776e657200000000000000000000000000000000000000000000006064820152608401610687565b506001600160a01b031660009081526003602052604090205490565b610b3b611765565b610b4560006117bf565b565b6001600160a01b0381166000908152600e6020526040812054610538565b6000438210610bb65760405162461bcd60e51b815260206004820152601a60248201527f566f7465733a20626c6f636b206e6f7420796574206d696e65640000000000006044820152606401610687565b610538600d83611563565b60606001805461054d90612eeb565b6001600160a01b0381166000908152600c60205260408120610bf190611811565b6001600160e01b031692915050565b610a3033838361184b565b610c1533836111af565b610c775760405162461bcd60e51b815260206004820152602d60248201527f4552433732313a2063616c6c6572206973206e6f7420746f6b656e206f776e6560448201526c1c881bdc88185c1c1c9bdd9959609a1b6064820152608401610687565b610c8384848484611919565b50505050565b83421115610cd95760405162461bcd60e51b815260206004820152601860248201527f566f7465733a207369676e6174757265206578706972656400000000000000006044820152606401610687565b604080517fe48329057bfd03d55e49b547132e39cffd9c1820ad7b9d4c5307691425d15adf60208201526001600160a01b038816918101919091526060810186905260808101859052600090610d5390610d4b9060a00160405160208183030381529060405280519060200120611997565b858585611a00565b9050610d5e81611a28565b8614610dac5760405162461bcd60e51b815260206004820152601460248201527f566f7465733a20696e76616c6964206e6f6e63650000000000000000000000006044820152606401610687565b610db681886116f3565b50505050505050565b6000818152600260205260409020546060906001600160a01b0316610e265760405162461bcd60e51b815260206004820152601860248201527f5468697320746f6b656e20646f65736e277420657869737400000000000000006044820152606401610687565b601054600083815260136020526040908190205490517fa029d3950000000000000000000000000000000000000000000000000000000081526001600160a01b039092166004830152602482018490526bffffffffffffffffffffffff16604482015273__$6041e109778036b55253c1967594800196$__9063a029d39590606401600060405180830381865af4158015610ec5573d6000803e3d6000fd5b505050506040513d6000823e601f3d908101601f191682016040526105389190810190612f5f565b610ef5611765565b601180546001600160a01b0319166001600160a01b0392909216919091179055565b610f1f611765565b6001600160a01b038116610f9b5760405162461bcd60e51b815260206004820152602660248201527f4f776e61626c653a206e6577206f776e657220697320746865207a65726f206160448201527f64647265737300000000000000000000000000000000000000000000000000006064820152608401610687565b610802816117bf565b60006001600160e01b031982167f780e9d63000000000000000000000000000000000000000000000000000000001480610538575061053882611a50565b6000818152600260205260409020546001600160a01b03166108025760405162461bcd60e51b815260206004820152601860248201527f4552433732313a20696e76616c696420746f6b656e20494400000000000000006044820152606401610687565b600081815260046020526040902080546001600160a01b0319166001600160a01b038416908117909155819061107b82610a34565b6001600160a01b03167f8c5be1e5ebec7d5bd14f71427d1e84f3dd0314c0f7b2291e5b200ac8c7c3b92560405160405180910390a45050565b6110c2600f80546001019055565b60006110cd600f5490565b60105490915073__$818e336b571047c87a195fbe356458cc3b$__9063aaa5b4d3906001600160a01b03166111028442612fec565b6040516001600160e01b031960e085901b1681526001600160a01b0390921660048301526024820152604401602060405180830381865af415801561114b573d6000803e3d6000fd5b505050506040513d601f19601f8201168201806040525081019061116f9190612fff565b600082815260136020526040902080546bffffffffffffffffffffffff19166bffffffffffffffffffffffff92909216919091179055610a308282611aeb565b6000806111bb83610a34565b9050806001600160a01b0316846001600160a01b0316148061120257506001600160a01b0380821660009081526005602090815260408083209388168352929052205460ff165b806112265750836001600160a01b031661121b846105d0565b6001600160a01b0316145b949350505050565b826001600160a01b031661124182610a34565b6001600160a01b0316146112a55760405162461bcd60e51b815260206004820152602560248201527f4552433732313a207472616e736665722066726f6d20696e636f72726563742060448201526437bbb732b960d91b6064820152608401610687565b6001600160a01b0382166113205760405162461bcd60e51b8152602060048201526024808201527f4552433732313a207472616e7366657220746f20746865207a65726f2061646460448201527f72657373000000000000000000000000000000000000000000000000000000006064820152608401610687565b61132d8383836001611b05565b826001600160a01b031661134082610a34565b6001600160a01b0316146113a45760405162461bcd60e51b815260206004820152602560248201527f4552433732313a207472616e736665722066726f6d20696e636f72726563742060448201526437bbb732b960d91b6064820152608401610687565b600081815260046020908152604080832080546001600160a01b03199081169091556001600160a01b0387811680865260038552838620805460001901905590871680865283862080546001019055868652600290945282852080549092168417909155905184937fddf252ad1be2c89b69c2b068fc378daa952ba7f163c4a11628f55a4df523b3ef91a46107288383836001611b11565b6000306001600160a01b037f00000000000000000000000000000000000000000000000000000000000000001614801561149557507f000000000000000000000000000000000000000000000000000000000000000046145b156114bf57507f000000000000000000000000000000000000000000000000000000000000000090565b50604080517f00000000000000000000000000000000000000000000000000000000000000006020808301919091527f0000000000000000000000000000000000000000000000000000000000000000828401527f000000000000000000000000000000000000000000000000000000000000000060608301524660808301523060a0808401919091528351808403909101815260c0909201909252805191012090565b60004382106115b45760405162461bcd60e51b815260206004820181905260248201527f436865636b706f696e74733a20626c6f636b206e6f7420796574206d696e65646044820152606401610687565b60006115bf83611b1d565b8454909150600081600581111561161d5760006115db84611b9d565b6115e5908561302d565b60008981526020902090915081015463ffffffff908116908616101561160d5780915061161b565b611618816001612fec565b92505b505b600061162b88868585611c85565b90508015611667576116508861164260018461302d565b600091825260209091200190565b5464010000000090046001600160e01b031661166a565b60005b6001600160e01b031698975050505050505050565b6116883361080a565b6116ea5760405162461bcd60e51b815260206004820152602d60248201527f4552433732313a2063616c6c6572206973206e6f7420746f6b656e206f776e6560448201526c1c881bdc88185c1c1c9bdd9959609a1b6064820152608401610687565b61080281611ce3565b6001600160a01b038281166000818152600b602052604080822080548686166001600160a01b0319821681179092559151919094169392849290917f3134e8a2e6d97e929a7e54011ea5485d7d196dd5f0ba4d4ef95803e8e3fc257f9190a4610728818361176086611d90565b611d9b565b600a546001600160a01b03163314610b455760405162461bcd60e51b815260206004820181905260248201527f4f776e61626c653a2063616c6c6572206973206e6f7420746865206f776e65726044820152606401610687565b600a80546001600160a01b038381166001600160a01b0319831681179093556040519116919082907f8be0079c531659141344cd1fd0a4f28419497f9722a3daafe3b4186f6b6457e090600090a35050565b805460009080156118425761182b8361164260018461302d565b5464010000000090046001600160e01b0316610956565b60009392505050565b816001600160a01b0316836001600160a01b0316036118ac5760405162461bcd60e51b815260206004820152601960248201527f4552433732313a20617070726f766520746f2063616c6c6572000000000000006044820152606401610687565b6001600160a01b03838116600081815260056020908152604080832094871680845294825291829020805460ff191686151590811790915591519182527f17307eab39ab6107e8899845ad3d59bd9653f200f220920489ca2b5937696c31910160405180910390a3505050565b61192484848461122e565b61193084848484611ed8565b610c835760405162461bcd60e51b815260206004820152603260248201527f4552433732313a207472616e7366657220746f206e6f6e20455243373231526560448201527131b2b4bb32b91034b6b83632b6b2b73a32b960711b6064820152608401610687565b60006105386119a461143c565b836040517f19010000000000000000000000000000000000000000000000000000000000006020820152602281018390526042810182905260009060620160405160208183030381529060405280519060200120905092915050565b6000806000611a1187878787612021565b91509150611a1e816120e5565b5095945050505050565b6001600160a01b0381166000908152600e602052604090208054600181018255905b50919050565b60006001600160e01b031982167f80ac58cd000000000000000000000000000000000000000000000000000000001480611ab357506001600160e01b031982167f5b5e139f00000000000000000000000000000000000000000000000000000000145b8061053857507f01ffc9a7000000000000000000000000000000000000000000000000000000006001600160e01b0319831614610538565b610a3082826040518060200160405280600081525061224a565b610c83848484846122c8565b610c8384848484612410565b600063ffffffff821115611b995760405162461bcd60e51b815260206004820152602660248201527f53616665436173743a2076616c756520646f65736e27742066697420696e203360448201527f32206269747300000000000000000000000000000000000000000000000000006064820152608401610687565b5090565b600081600003611baf57506000919050565b60006001611bbc84612420565b901c6001901b90506001818481611bd557611bd5612f1f565b048201901c90506001818481611bed57611bed612f1f565b048201901c90506001818481611c0557611c05612f1f565b048201901c90506001818481611c1d57611c1d612f1f565b048201901c90506001818481611c3557611c35612f1f565b048201901c90506001818481611c4d57611c4d612f1f565b048201901c90506001818481611c6557611c65612f1f565b048201901c905061095681828581611c7f57611c7f612f1f565b046124b4565b60005b81831015611cdb576000611c9c84846124ca565b60008781526020902090915063ffffffff86169082015463ffffffff161115611cc757809250611cd5565b611cd2816001612fec565b93505b50611c88565b509392505050565b6000611cee82610a34565b9050611cfe816000846001611b05565b611d0782610a34565b600083815260046020908152604080832080546001600160a01b03199081169091556001600160a01b0385168085526003845282852080546000190190558785526002909352818420805490911690555192935084927fddf252ad1be2c89b69c2b068fc378daa952ba7f163c4a11628f55a4df523b3ef908390a4610a30816000846001611b11565b600061053882610a99565b816001600160a01b0316836001600160a01b031614158015611dbd5750600081115b15610728576001600160a01b03831615611e4b576001600160a01b0383166000908152600c602052604081208190611df8906124e5856124f1565b91509150846001600160a01b03167fdec2bacdd2f05b59de34da9b523dff8be42e5e38e818c82fdb0bae774387a7248383604051611e40929190918252602082015260400190565b60405180910390a250505b6001600160a01b03821615610728576001600160a01b0382166000908152600c602052604081208190611e8190612529856124f1565b91509150836001600160a01b03167fdec2bacdd2f05b59de34da9b523dff8be42e5e38e818c82fdb0bae774387a7248383604051611ec9929190918252602082015260400190565b60405180910390a25050505050565b60006001600160a01b0384163b1561201957604051630a85bd0160e11b81526001600160a01b0385169063150b7a0290611f1c903390899088908890600401613040565b6020604051808303816000875af1925050508015611f57575060408051601f3d908101601f19168201909252611f549181019061307c565b60015b611fff573d808015611f85576040519150601f19603f3d011682016040523d82523d6000602084013e611f8a565b606091505b508051600003611ff75760405162461bcd60e51b815260206004820152603260248201527f4552433732313a207472616e7366657220746f206e6f6e20455243373231526560448201527131b2b4bb32b91034b6b83632b6b2b73a32b960711b6064820152608401610687565b805181602001fd5b6001600160e01b031916630a85bd0160e11b149050611226565b506001611226565b6000807f7fffffffffffffffffffffffffffffff5d576e7357a4501ddfe92f46681b20a083111561205857506000905060036120dc565b6040805160008082526020820180845289905260ff881692820192909252606081018690526080810185905260019060a0016020604051602081039080840390855afa1580156120ac573d6000803e3d6000fd5b5050604051601f1901519150506001600160a01b0381166120d5576000600192509250506120dc565b9150600090505b94509492505050565b60008160048111156120f9576120f9613099565b036121015750565b600181600481111561211557612115613099565b036121625760405162461bcd60e51b815260206004820152601860248201527f45434453413a20696e76616c6964207369676e617475726500000000000000006044820152606401610687565b600281600481111561217657612176613099565b036121c35760405162461bcd60e51b815260206004820152601f60248201527f45434453413a20696e76616c6964207369676e6174757265206c656e677468006044820152606401610687565b60038160048111156121d7576121d7613099565b036108025760405162461bcd60e51b815260206004820152602260248201527f45434453413a20696e76616c6964207369676e6174757265202773272076616c60448201527f75650000000000000000000000000000000000000000000000000000000000006064820152608401610687565b6122548383612535565b6122616000848484611ed8565b6107285760405162461bcd60e51b815260206004820152603260248201527f4552433732313a207472616e7366657220746f206e6f6e20455243373231526560448201527131b2b4bb32b91034b6b83632b6b2b73a32b960711b6064820152608401610687565b6122d4848484846126d8565b600181111561234b5760405162461bcd60e51b815260206004820152603560248201527f455243373231456e756d657261626c653a20636f6e736563757469766520747260448201527f616e7366657273206e6f7420737570706f7274656400000000000000000000006064820152608401610687565b816001600160a01b0385166123a7576123a281600880546000838152600960205260408120829055600182018355919091527ff3f7a9fe364faab93b216da50a3214154f22a0a2b415b23a84c8169e8b636ee30155565b6123ca565b836001600160a01b0316856001600160a01b0316146123ca576123ca8582612760565b6001600160a01b0384166123e6576123e1816127fd565b612409565b846001600160a01b0316846001600160a01b0316146124095761240984826128ac565b5050505050565b61241b8484836128f0565b610c83565b600080608083901c1561243557608092831c92015b604083901c1561244757604092831c92015b602083901c1561245957602092831c92015b601083901c1561246b57601092831c92015b600883901c1561247d57600892831c92015b600483901c1561248f57600492831c92015b600283901c156124a157600292831c92015b600183901c156105385760010192915050565b60008183106124c35781610956565b5090919050565b60006124d960028484186130af565b61095690848416612fec565b6000610956828461302d565b60008061251c8561251761250488611811565b6001600160e01b0316868863ffffffff16565b612960565b915091505b935093915050565b60006109568284612fec565b6001600160a01b03821661258b5760405162461bcd60e51b815260206004820181905260248201527f4552433732313a206d696e7420746f20746865207a65726f20616464726573736044820152606401610687565b6000818152600260205260409020546001600160a01b0316156125f05760405162461bcd60e51b815260206004820152601c60248201527f4552433732313a20746f6b656e20616c7265616479206d696e746564000000006044820152606401610687565b6125fe600083836001611b05565b6000818152600260205260409020546001600160a01b0316156126635760405162461bcd60e51b815260206004820152601c60248201527f4552433732313a20746f6b656e20616c7265616479206d696e746564000000006044820152606401610687565b6001600160a01b038216600081815260036020908152604080832080546001019055848352600290915280822080546001600160a01b0319168417905551839291907fddf252ad1be2c89b69c2b068fc378daa952ba7f163c4a11628f55a4df523b3ef908290a4610a30600083836001611b11565b6001811115610c83576001600160a01b0384161561271e576001600160a01b0384166000908152600360205260408120805483929061271890849061302d565b90915550505b6001600160a01b03831615610c83576001600160a01b03831660009081526003602052604081208054839290612755908490612fec565b909155505050505050565b6000600161276d84610a99565b612777919061302d565b6000838152600760205260409020549091508082146127ca576001600160a01b03841660009081526006602090815260408083208584528252808320548484528184208190558352600790915290208190555b5060009182526007602090815260408084208490556001600160a01b039094168352600681528383209183525290812055565b60085460009061280f9060019061302d565b6000838152600960205260408120546008805493945090928490811061283757612837612f49565b90600052602060002001549050806008838154811061285857612858612f49565b6000918252602080832090910192909255828152600990915260408082208490558582528120556008805480612890576128906130c3565b6001900381819060005260206000200160009055905550505050565b60006128b783610a99565b6001600160a01b039093166000908152600660209081526040808320868452825280832085905593825260079052919091209190915550565b6001600160a01b03831661290f5761290c600d612529836124f1565b50505b6001600160a01b03821661292e5761292b600d6124e5836124f1565b50505b6001600160a01b038381166000908152600b602052604080822054858416835291205461072892918216911683611d9b565b60008061297e8461297043611b1d565b61297986612994565b612a13565b6001600160e01b03918216969116945092505050565b60006001600160e01b03821115611b995760405162461bcd60e51b815260206004820152602760248201527f53616665436173743a2076616c756520646f65736e27742066697420696e203260448201527f32342062697473000000000000000000000000000000000000000000000000006064820152608401610687565b825460009081908015612b5c576000612a318761164260018561302d565b60408051808201909152905463ffffffff8082168084526401000000009092046001600160e01b031660208401529192509087161015612ab35760405162461bcd60e51b815260206004820152601760248201527f436865636b706f696e743a20696e76616c6964206b65790000000000000000006044820152606401610687565b805163ffffffff808816911603612afc5784612ad48861164260018661302d565b80546001600160e01b03929092166401000000000263ffffffff909216919091179055612b4c565b6040805180820190915263ffffffff80881682526001600160e01b0380881660208085019182528b54600181018d5560008d81529190912094519151909216640100000000029216919091179101555b6020015192508391506125219050565b50506040805180820190915263ffffffff80851682526001600160e01b0380851660208085019182528854600181018a5560008a815291822095519251909316640100000000029190931617920191909155905081612521565b6001600160e01b03198116811461080257600080fd5b600060208284031215612bde57600080fd5b813561095681612bb6565b60005b83811015612c04578181015183820152602001612bec565b50506000910152565b60008151808452612c25816020860160208601612be9565b601f01601f19169290920160200192915050565b6020815260006109566020830184612c0d565b600060208284031215612c5e57600080fd5b5035919050565b80356001600160a01b0381168114612c7c57600080fd5b919050565b60008060408385031215612c9457600080fd5b612c9d83612c65565b946020939093013593505050565b600080600060608486031215612cc057600080fd5b612cc984612c65565b9250612cd760208501612c65565b9150604084013590509250925092565b600060208284031215612cf957600080fd5b61095682612c65565b60008060408385031215612d1557600080fd5b612d1e83612c65565b915060208301358015158114612d3357600080fd5b809150509250929050565b634e487b7160e01b600052604160045260246000fd5b604051601f8201601f1916810167ffffffffffffffff81118282101715612d7d57612d7d612d3e565b604052919050565b600067ffffffffffffffff821115612d9f57612d9f612d3e565b50601f01601f191660200190565b60008060008060808587031215612dc357600080fd5b612dcc85612c65565b9350612dda60208601612c65565b925060408501359150606085013567ffffffffffffffff811115612dfd57600080fd5b8501601f81018713612e0e57600080fd5b8035612e21612e1c82612d85565b612d54565b818152886020838501011115612e3657600080fd5b8160208401602083013760006020838301015280935050505092959194509250565b60008060008060008060c08789031215612e7157600080fd5b612e7a87612c65565b95506020870135945060408701359350606087013560ff81168114612e9e57600080fd5b9598949750929560808101359460a0909101359350915050565b60008060408385031215612ecb57600080fd5b612ed483612c65565b9150612ee260208401612c65565b90509250929050565b600181811c90821680612eff57607f821691505b602082108103611a4a57634e487b7160e01b600052602260045260246000fd5b634e487b7160e01b600052601260045260246000fd5b600082612f4457612f44612f1f565b500690565b634e487b7160e01b600052603260045260246000fd5b600060208284031215612f7157600080fd5b815167ffffffffffffffff811115612f8857600080fd5b8201601f81018413612f9957600080fd5b8051612fa7612e1c82612d85565b818152856020838501011115612fbc57600080fd5b612fcd826020830160208601612be9565b95945050505050565b634e487b7160e01b600052601160045260246000fd5b8082018082111561053857610538612fd6565b60006020828403121561301157600080fd5b81516bffffffffffffffffffffffff8116811461095657600080fd5b8181038181111561053857610538612fd6565b60006001600160a01b038087168352808616602084015250836040830152608060608301526130726080830184612c0d565b9695505050505050565b60006020828403121561308e57600080fd5b815161095681612bb6565b634e487b7160e01b600052602160045260246000fd5b6000826130be576130be612f1f565b500490565b634e487b7160e01b600052603160045260246000fdfea2646970667358221220139b1cc4c0be6598c19f4cdfa6ca2b691c536e2b3255c3ce3e4bf56c18dccc2b64736f6c63430008110033",
  "libraries": {
    "PBTokenComposer": "0x218110DF2b0B1bDaA54C024eB336952e73ae9Df4",
    "PBTokenDna": "0xcFC251dec86aFaf69Cd8b20a702fE291Da346c20"
  },
  "devdoc": {
    "custom:security-contact": "contact@polkadot-builders.xyz",
    "kind": "dev",
    "methods": {
      "DOMAIN_SEPARATOR()": {
        "details": "Returns the contract's {EIP712} domain separator."
      },
      "approve(address,uint256)": {
        "details": "See {IERC721-approve}."
      },
      "balanceOf(address)": {
        "details": "See {IERC721-balanceOf}."
      },
      "delegate(address)": {
        "details": "Delegates votes from the sender to `delegatee`."
      },
      "delegateBySig(address,uint256,uint256,uint8,bytes32,bytes32)": {
        "details": "Delegates votes from signer to `delegatee`."
      },
      "delegates(address)": {
        "details": "Returns the delegate that `account` has chosen."
      },
      "getApproved(uint256)": {
        "details": "See {IERC721-getApproved}."
      },
      "getPastTotalSupply(uint256)": {
        "details": "Returns the total supply of votes available at the end of a past block (`blockNumber`). NOTE: This value is the sum of all available votes, which is not necessarily the sum of all delegated votes. Votes that have not been delegated are still part of total supply, even though they would not participate in a vote. Requirements: - `blockNumber` must have been already mined"
      },
      "getPastVotes(address,uint256)": {
        "details": "Returns the amount of votes that `account` had at the end of a past block (`blockNumber`). Requirements: - `blockNumber` must have been already mined"
      },
      "getVotes(address)": {
        "details": "Returns the current amount of votes that `account` has."
      },
      "isApprovedForAll(address,address)": {
        "details": "See {IERC721-isApprovedForAll}."
      },
      "name()": {
        "details": "See {IERC721Metadata-name}."
      },
      "nonces(address)": {
        "details": "Returns an address nonce."
      },
      "owner()": {
        "details": "Returns the address of the current owner."
      },
      "ownerOf(uint256)": {
        "details": "See {IERC721-ownerOf}."
      },
      "renounceOwnership()": {
        "details": "Leaves the contract without owner. It will not be possible to call `onlyOwner` functions anymore. Can only be called by the current owner. NOTE: Renouncing ownership will leave the contract without an owner, thereby removing any functionality that is only available to the owner."
      },
      "safeTransferFrom(address,address,uint256)": {
        "details": "See {IERC721-safeTransferFrom}."
      },
      "safeTransferFrom(address,address,uint256,bytes)": {
        "details": "See {IERC721-safeTransferFrom}."
      },
      "setApprovalForAll(address,bool)": {
        "details": "See {IERC721-setApprovalForAll}."
      },
      "symbol()": {
        "details": "See {IERC721Metadata-symbol}."
      },
      "tokenByIndex(uint256)": {
        "details": "See {IERC721Enumerable-tokenByIndex}."
      },
      "tokenOfOwnerByIndex(address,uint256)": {
        "details": "See {IERC721Enumerable-tokenOfOwnerByIndex}."
      },
      "tokenURI(uint256)": {
        "details": "See {IERC721Metadata-tokenURI}."
      },
      "totalSupply()": {
        "details": "See {IERC721Enumerable-totalSupply}."
      },
      "transferFrom(address,address,uint256)": {
        "details": "See {IERC721-transferFrom}."
      },
      "transferOwnership(address)": {
        "details": "Transfers ownership of the contract to a new account (`newOwner`). Can only be called by the current owner."
      }
    },
    "version": 1
  },
  "userdoc": {
    "kind": "user",
    "methods": {},
    "version": 1
  },
  "storageLayout": {
    "storage": [
      {
        "astId": 670,
        "contract": "contracts/PBToken.sol:PBToken",
        "label": "_name",
        "offset": 0,
        "slot": "0",
        "type": "t_string_storage"
      },
      {
        "astId": 672,
        "contract": "contracts/PBToken.sol:PBToken",
        "label": "_symbol",
        "offset": 0,
        "slot": "1",
        "type": "t_string_storage"
      },
      {
        "astId": 676,
        "contract": "contracts/PBToken.sol:PBToken",
        "label": "_owners",
        "offset": 0,
        "slot": "2",
        "type": "t_mapping(t_uint256,t_address)"
      },
      {
        "astId": 680,
        "contract": "contracts/PBToken.sol:PBToken",
        "label": "_balances",
        "offset": 0,
        "slot": "3",
        "type": "t_mapping(t_address,t_uint256)"
      },
      {
        "astId": 684,
        "contract": "contracts/PBToken.sol:PBToken",
        "label": "_tokenApprovals",
        "offset": 0,
        "slot": "4",
        "type": "t_mapping(t_uint256,t_address)"
      },
      {
        "astId": 690,
        "contract": "contracts/PBToken.sol:PBToken",
        "label": "_operatorApprovals",
        "offset": 0,
        "slot": "5",
        "type": "t_mapping(t_address,t_mapping(t_address,t_bool))"
      },
      {
        "astId": 1768,
        "contract": "contracts/PBToken.sol:PBToken",
        "label": "_ownedTokens",
        "offset": 0,
        "slot": "6",
        "type": "t_mapping(t_address,t_mapping(t_uint256,t_uint256))"
      },
      {
        "astId": 1772,
        "contract": "contracts/PBToken.sol:PBToken",
        "label": "_ownedTokensIndex",
        "offset": 0,
        "slot": "7",
        "type": "t_mapping(t_uint256,t_uint256)"
      },
      {
        "astId": 1775,
        "contract": "contracts/PBToken.sol:PBToken",
        "label": "_allTokens",
        "offset": 0,
        "slot": "8",
        "type": "t_array(t_uint256)dyn_storage"
      },
      {
        "astId": 1779,
        "contract": "contracts/PBToken.sol:PBToken",
        "label": "_allTokensIndex",
        "offset": 0,
        "slot": "9",
        "type": "t_mapping(t_uint256,t_uint256)"
      },
      {
        "astId": 7,
        "contract": "contracts/PBToken.sol:PBToken",
        "label": "_owner",
        "offset": 0,
        "slot": "10",
        "type": "t_address"
      },
      {
        "astId": 221,
        "contract": "contracts/PBToken.sol:PBToken",
        "label": "_delegation",
        "offset": 0,
        "slot": "11",
        "type": "t_mapping(t_address,t_address)"
      },
      {
        "astId": 226,
        "contract": "contracts/PBToken.sol:PBToken",
        "label": "_delegateCheckpoints",
        "offset": 0,
        "slot": "12",
        "type": "t_mapping(t_address,t_struct(History)2558_storage)"
      },
      {
        "astId": 229,
        "contract": "contracts/PBToken.sol:PBToken",
        "label": "_totalCheckpoints",
        "offset": 0,
        "slot": "13",
        "type": "t_struct(History)2558_storage"
      },
      {
        "astId": 234,
        "contract": "contracts/PBToken.sol:PBToken",
        "label": "_nonces",
        "offset": 0,
        "slot": "14",
        "type": "t_mapping(t_address,t_struct(Counter)3947_storage)"
      },
      {
        "astId": 7301,
        "contract": "contracts/PBToken.sol:PBToken",
        "label": "_tokenIdCounter",
        "offset": 0,
        "slot": "15",
        "type": "t_struct(Counter)3947_storage"
      },
      {
        "astId": 7303,
        "contract": "contracts/PBToken.sol:PBToken",
        "label": "store",
        "offset": 0,
        "slot": "16",
        "type": "t_address"
      },
      {
        "astId": 7305,
        "contract": "contracts/PBToken.sol:PBToken",
        "label": "auctionHouse",
        "offset": 0,
        "slot": "17",
        "type": "t_address"
      },
      {
        "astId": 7307,
        "contract": "contracts/PBToken.sol:PBToken",
        "label": "founders",
        "offset": 0,
        "slot": "18",
        "type": "t_address"
      },
      {
        "astId": 7311,
        "contract": "contracts/PBToken.sol:PBToken",
        "label": "dnaMap",
        "offset": 0,
        "slot": "19",
        "type": "t_mapping(t_uint256,t_uint96)"
      }
    ],
    "types": {
      "t_address": {
        "encoding": "inplace",
        "label": "address",
        "numberOfBytes": "20"
      },
      "t_array(t_struct(Checkpoint)2563_storage)dyn_storage": {
        "base": "t_struct(Checkpoint)2563_storage",
        "encoding": "dynamic_array",
        "label": "struct Checkpoints.Checkpoint[]",
        "numberOfBytes": "32"
      },
      "t_array(t_uint256)dyn_storage": {
        "base": "t_uint256",
        "encoding": "dynamic_array",
        "label": "uint256[]",
        "numberOfBytes": "32"
      },
      "t_bool": {
        "encoding": "inplace",
        "label": "bool",
        "numberOfBytes": "1"
      },
      "t_mapping(t_address,t_address)": {
        "encoding": "mapping",
        "key": "t_address",
        "label": "mapping(address => address)",
        "numberOfBytes": "32",
        "value": "t_address"
      },
      "t_mapping(t_address,t_bool)": {
        "encoding": "mapping",
        "key": "t_address",
        "label": "mapping(address => bool)",
        "numberOfBytes": "32",
        "value": "t_bool"
      },
      "t_mapping(t_address,t_mapping(t_address,t_bool))": {
        "encoding": "mapping",
        "key": "t_address",
        "label": "mapping(address => mapping(address => bool))",
        "numberOfBytes": "32",
        "value": "t_mapping(t_address,t_bool)"
      },
      "t_mapping(t_address,t_mapping(t_uint256,t_uint256))": {
        "encoding": "mapping",
        "key": "t_address",
        "label": "mapping(address => mapping(uint256 => uint256))",
        "numberOfBytes": "32",
        "value": "t_mapping(t_uint256,t_uint256)"
      },
      "t_mapping(t_address,t_struct(Counter)3947_storage)": {
        "encoding": "mapping",
        "key": "t_address",
        "label": "mapping(address => struct Counters.Counter)",
        "numberOfBytes": "32",
        "value": "t_struct(Counter)3947_storage"
      },
      "t_mapping(t_address,t_struct(History)2558_storage)": {
        "encoding": "mapping",
        "key": "t_address",
        "label": "mapping(address => struct Checkpoints.History)",
        "numberOfBytes": "32",
        "value": "t_struct(History)2558_storage"
      },
      "t_mapping(t_address,t_uint256)": {
        "encoding": "mapping",
        "key": "t_address",
        "label": "mapping(address => uint256)",
        "numberOfBytes": "32",
        "value": "t_uint256"
      },
      "t_mapping(t_uint256,t_address)": {
        "encoding": "mapping",
        "key": "t_uint256",
        "label": "mapping(uint256 => address)",
        "numberOfBytes": "32",
        "value": "t_address"
      },
      "t_mapping(t_uint256,t_uint256)": {
        "encoding": "mapping",
        "key": "t_uint256",
        "label": "mapping(uint256 => uint256)",
        "numberOfBytes": "32",
        "value": "t_uint256"
      },
      "t_mapping(t_uint256,t_uint96)": {
        "encoding": "mapping",
        "key": "t_uint256",
        "label": "mapping(uint256 => uint96)",
        "numberOfBytes": "32",
        "value": "t_uint96"
      },
      "t_string_storage": {
        "encoding": "bytes",
        "label": "string",
        "numberOfBytes": "32"
      },
      "t_struct(Checkpoint)2563_storage": {
        "encoding": "inplace",
        "label": "struct Checkpoints.Checkpoint",
        "members": [
          {
            "astId": 2560,
            "contract": "contracts/PBToken.sol:PBToken",
            "label": "_blockNumber",
            "offset": 0,
            "slot": "0",
            "type": "t_uint32"
          },
          {
            "astId": 2562,
            "contract": "contracts/PBToken.sol:PBToken",
            "label": "_value",
            "offset": 4,
            "slot": "0",
            "type": "t_uint224"
          }
        ],
        "numberOfBytes": "32"
      },
      "t_struct(Counter)3947_storage": {
        "encoding": "inplace",
        "label": "struct Counters.Counter",
        "members": [
          {
            "astId": 3946,
            "contract": "contracts/PBToken.sol:PBToken",
            "label": "_value",
            "offset": 0,
            "slot": "0",
            "type": "t_uint256"
          }
        ],
        "numberOfBytes": "32"
      },
      "t_struct(History)2558_storage": {
        "encoding": "inplace",
        "label": "struct Checkpoints.History",
        "members": [
          {
            "astId": 2557,
            "contract": "contracts/PBToken.sol:PBToken",
            "label": "_checkpoints",
            "offset": 0,
            "slot": "0",
            "type": "t_array(t_struct(Checkpoint)2563_storage)dyn_storage"
          }
        ],
        "numberOfBytes": "32"
      },
      "t_uint224": {
        "encoding": "inplace",
        "label": "uint224",
        "numberOfBytes": "28"
      },
      "t_uint256": {
        "encoding": "inplace",
        "label": "uint256",
        "numberOfBytes": "32"
      },
      "t_uint32": {
        "encoding": "inplace",
        "label": "uint32",
        "numberOfBytes": "4"
      },
      "t_uint96": {
        "encoding": "inplace",
        "label": "uint96",
        "numberOfBytes": "12"
      }
    }
  }
}