{
  "address": "0x115946FEDEc32d53f9D6560B688163bF45927bf9",
  "abi": [
    {
      "anonymous": false,
      "inputs": [
        {
          "indexed": true,
          "internalType": "address",
          "name": "previousOwner",
          "type": "address"
        },
        {
          "indexed": true,
          "internalType": "address",
          "name": "newOwner",
          "type": "address"
        }
      ],
      "name": "OwnershipTransferred",
      "type": "event"
    },
    {
      "inputs": [
        {
          "components": [
            {
              "internalType": "string",
              "name": "name",
              "type": "string"
            },
            {
              "internalType": "string",
              "name": "color",
              "type": "string"
            }
          ],
          "internalType": "struct IPBTokenPartsStore.Color",
          "name": "color",
          "type": "tuple"
        }
      ],
      "name": "addBgColor",
      "outputs": [],
      "stateMutability": "nonpayable",
      "type": "function"
    },
    {
      "inputs": [
        {
          "components": [
            {
              "internalType": "string",
              "name": "name",
              "type": "string"
            },
            {
              "internalType": "string",
              "name": "svg",
              "type": "string"
            }
          ],
          "internalType": "struct IPBTokenPartsStore.ImagePart",
          "name": "part",
          "type": "tuple"
        }
      ],
      "name": "addCrown",
      "outputs": [],
      "stateMutability": "nonpayable",
      "type": "function"
    },
    {
      "inputs": [
        {
          "components": [
            {
              "internalType": "string",
              "name": "name",
              "type": "string"
            },
            {
              "internalType": "string",
              "name": "svg",
              "type": "string"
            }
          ],
          "internalType": "struct IPBTokenPartsStore.ImagePart",
          "name": "part",
          "type": "tuple"
        }
      ],
      "name": "addDecoration",
      "outputs": [],
      "stateMutability": "nonpayable",
      "type": "function"
    },
    {
      "inputs": [
        {
          "components": [
            {
              "internalType": "string",
              "name": "name",
              "type": "string"
            },
            {
              "internalType": "string",
              "name": "svg",
              "type": "string"
            }
          ],
          "internalType": "struct IPBTokenPartsStore.ImagePart",
          "name": "part",
          "type": "tuple"
        }
      ],
      "name": "addGarland",
      "outputs": [],
      "stateMutability": "nonpayable",
      "type": "function"
    },
    {
      "inputs": [
        {
          "components": [
            {
              "internalType": "string",
              "name": "name",
              "type": "string"
            },
            {
              "internalType": "string",
              "name": "color",
              "type": "string"
            }
          ],
          "internalType": "struct IPBTokenPartsStore.Color",
          "name": "color",
          "type": "tuple"
        }
      ],
      "name": "addGooglesColor",
      "outputs": [],
      "stateMutability": "nonpayable",
      "type": "function"
    },
    {
      "inputs": [
        {
          "components": [
            {
              "internalType": "string",
              "name": "name",
              "type": "string"
            },
            {
              "internalType": "string",
              "name": "svg",
              "type": "string"
            }
          ],
          "internalType": "struct IPBTokenPartsStore.ImagePart",
          "name": "part",
          "type": "tuple"
        }
      ],
      "name": "addLogo1",
      "outputs": [],
      "stateMutability": "nonpayable",
      "type": "function"
    },
    {
      "inputs": [
        {
          "components": [
            {
              "internalType": "string",
              "name": "name",
              "type": "string"
            },
            {
              "internalType": "string",
              "name": "svg",
              "type": "string"
            }
          ],
          "internalType": "struct IPBTokenPartsStore.ImagePart",
          "name": "part",
          "type": "tuple"
        }
      ],
      "name": "addLogo2",
      "outputs": [],
      "stateMutability": "nonpayable",
      "type": "function"
    },
    {
      "inputs": [
        {
          "components": [
            {
              "internalType": "string",
              "name": "name",
              "type": "string"
            },
            {
              "internalType": "string",
              "name": "svg",
              "type": "string"
            }
          ],
          "internalType": "struct IPBTokenPartsStore.ImagePart",
          "name": "part",
          "type": "tuple"
        }
      ],
      "name": "addLogo3",
      "outputs": [],
      "stateMutability": "nonpayable",
      "type": "function"
    },
    {
      "inputs": [
        {
          "components": [
            {
              "internalType": "string",
              "name": "name",
              "type": "string"
            },
            {
              "internalType": "string",
              "name": "svg",
              "type": "string"
            }
          ],
          "internalType": "struct IPBTokenPartsStore.ImagePart",
          "name": "part",
          "type": "tuple"
        }
      ],
      "name": "addLogo4",
      "outputs": [],
      "stateMutability": "nonpayable",
      "type": "function"
    },
    {
      "inputs": [
        {
          "components": [
            {
              "internalType": "string",
              "name": "name",
              "type": "string"
            },
            {
              "internalType": "string",
              "name": "primary",
              "type": "string"
            },
            {
              "internalType": "string",
              "name": "secondary",
              "type": "string"
            }
          ],
          "internalType": "struct IPBTokenPartsStore.Palette",
          "name": "palette",
          "type": "tuple"
        }
      ],
      "name": "addLogoPalette",
      "outputs": [],
      "stateMutability": "nonpayable",
      "type": "function"
    },
    {
      "inputs": [
        {
          "components": [
            {
              "internalType": "string",
              "name": "name",
              "type": "string"
            },
            {
              "internalType": "string",
              "name": "svg",
              "type": "string"
            }
          ],
          "internalType": "struct IPBTokenPartsStore.ImagePart",
          "name": "part",
          "type": "tuple"
        }
      ],
      "name": "addShield",
      "outputs": [],
      "stateMutability": "nonpayable",
      "type": "function"
    },
    {
      "inputs": [
        {
          "internalType": "uint256",
          "name": "",
          "type": "uint256"
        }
      ],
      "name": "bgColors",
      "outputs": [
        {
          "internalType": "string",
          "name": "name",
          "type": "string"
        },
        {
          "internalType": "string",
          "name": "color",
          "type": "string"
        }
      ],
      "stateMutability": "view",
      "type": "function"
    },
    {
      "inputs": [],
      "name": "bgColorsCount",
      "outputs": [
        {
          "internalType": "uint256",
          "name": "",
          "type": "uint256"
        }
      ],
      "stateMutability": "view",
      "type": "function"
    },
    {
      "inputs": [
        {
          "internalType": "uint256",
          "name": "",
          "type": "uint256"
        }
      ],
      "name": "crowns",
      "outputs": [
        {
          "internalType": "string",
          "name": "name",
          "type": "string"
        },
        {
          "internalType": "string",
          "name": "svg",
          "type": "string"
        }
      ],
      "stateMutability": "view",
      "type": "function"
    },
    {
      "inputs": [],
      "name": "crownsCount",
      "outputs": [
        {
          "internalType": "uint256",
          "name": "",
          "type": "uint256"
        }
      ],
      "stateMutability": "view",
      "type": "function"
    },
    {
      "inputs": [
        {
          "internalType": "uint256",
          "name": "",
          "type": "uint256"
        }
      ],
      "name": "decorations",
      "outputs": [
        {
          "internalType": "string",
          "name": "name",
          "type": "string"
        },
        {
          "internalType": "string",
          "name": "svg",
          "type": "string"
        }
      ],
      "stateMutability": "view",
      "type": "function"
    },
    {
      "inputs": [],
      "name": "decorationsCount",
      "outputs": [
        {
          "internalType": "uint256",
          "name": "",
          "type": "uint256"
        }
      ],
      "stateMutability": "view",
      "type": "function"
    },
    {
      "inputs": [
        {
          "internalType": "uint256",
          "name": "",
          "type": "uint256"
        }
      ],
      "name": "garlands",
      "outputs": [
        {
          "internalType": "string",
          "name": "name",
          "type": "string"
        },
        {
          "internalType": "string",
          "name": "svg",
          "type": "string"
        }
      ],
      "stateMutability": "view",
      "type": "function"
    },
    {
      "inputs": [],
      "name": "garlandsCount",
      "outputs": [
        {
          "internalType": "uint256",
          "name": "",
          "type": "uint256"
        }
      ],
      "stateMutability": "view",
      "type": "function"
    },
    {
      "inputs": [],
      "name": "getAllTraits",
      "outputs": [
        {
          "components": [
            {
              "internalType": "string[]",
              "name": "bgColors",
              "type": "string[]"
            },
            {
              "internalType": "string[]",
              "name": "googlesColors",
              "type": "string[]"
            },
            {
              "internalType": "string[]",
              "name": "crowns",
              "type": "string[]"
            },
            {
              "internalType": "string[]",
              "name": "decorations",
              "type": "string[]"
            },
            {
              "internalType": "string[]",
              "name": "garlands",
              "type": "string[]"
            },
            {
              "internalType": "string[]",
              "name": "shields",
              "type": "string[]"
            },
            {
              "internalType": "string[]",
              "name": "logoPalettes",
              "type": "string[]"
            },
            {
              "internalType": "string[]",
              "name": "logos1",
              "type": "string[]"
            },
            {
              "internalType": "string[]",
              "name": "logos2",
              "type": "string[]"
            },
            {
              "internalType": "string[]",
              "name": "logos3",
              "type": "string[]"
            },
            {
              "internalType": "string[]",
              "name": "logos4",
              "type": "string[]"
            }
          ],
          "internalType": "struct IPBTokenPartsStore.AvailableTraits",
          "name": "",
          "type": "tuple"
        }
      ],
      "stateMutability": "view",
      "type": "function"
    },
    {
      "inputs": [
        {
          "internalType": "uint8",
          "name": "id",
          "type": "uint8"
        }
      ],
      "name": "getBgColor",
      "outputs": [
        {
          "components": [
            {
              "internalType": "string",
              "name": "name",
              "type": "string"
            },
            {
              "internalType": "string",
              "name": "color",
              "type": "string"
            }
          ],
          "internalType": "struct IPBTokenPartsStore.Color",
          "name": "",
          "type": "tuple"
        }
      ],
      "stateMutability": "view",
      "type": "function"
    },
    {
      "inputs": [
        {
          "internalType": "uint8",
          "name": "id",
          "type": "uint8"
        }
      ],
      "name": "getCrown",
      "outputs": [
        {
          "components": [
            {
              "internalType": "string",
              "name": "name",
              "type": "string"
            },
            {
              "internalType": "string",
              "name": "svg",
              "type": "string"
            }
          ],
          "internalType": "struct IPBTokenPartsStore.ImagePart",
          "name": "",
          "type": "tuple"
        }
      ],
      "stateMutability": "view",
      "type": "function"
    },
    {
      "inputs": [
        {
          "internalType": "uint8",
          "name": "id",
          "type": "uint8"
        }
      ],
      "name": "getDecoration",
      "outputs": [
        {
          "components": [
            {
              "internalType": "string",
              "name": "name",
              "type": "string"
            },
            {
              "internalType": "string",
              "name": "svg",
              "type": "string"
            }
          ],
          "internalType": "struct IPBTokenPartsStore.ImagePart",
          "name": "",
          "type": "tuple"
        }
      ],
      "stateMutability": "view",
      "type": "function"
    },
    {
      "inputs": [
        {
          "internalType": "uint8",
          "name": "id",
          "type": "uint8"
        }
      ],
      "name": "getGarland",
      "outputs": [
        {
          "components": [
            {
              "internalType": "string",
              "name": "name",
              "type": "string"
            },
            {
              "internalType": "string",
              "name": "svg",
              "type": "string"
            }
          ],
          "internalType": "struct IPBTokenPartsStore.ImagePart",
          "name": "",
          "type": "tuple"
        }
      ],
      "stateMutability": "view",
      "type": "function"
    },
    {
      "inputs": [
        {
          "internalType": "uint8",
          "name": "id",
          "type": "uint8"
        }
      ],
      "name": "getGooglesColor",
      "outputs": [
        {
          "components": [
            {
              "internalType": "string",
              "name": "name",
              "type": "string"
            },
            {
              "internalType": "string",
              "name": "color",
              "type": "string"
            }
          ],
          "internalType": "struct IPBTokenPartsStore.Color",
          "name": "",
          "type": "tuple"
        }
      ],
      "stateMutability": "view",
      "type": "function"
    },
    {
      "inputs": [
        {
          "internalType": "uint8",
          "name": "id",
          "type": "uint8"
        }
      ],
      "name": "getLogo1",
      "outputs": [
        {
          "components": [
            {
              "internalType": "string",
              "name": "name",
              "type": "string"
            },
            {
              "internalType": "string",
              "name": "svg",
              "type": "string"
            }
          ],
          "internalType": "struct IPBTokenPartsStore.ImagePart",
          "name": "",
          "type": "tuple"
        }
      ],
      "stateMutability": "view",
      "type": "function"
    },
    {
      "inputs": [
        {
          "internalType": "uint8",
          "name": "id",
          "type": "uint8"
        }
      ],
      "name": "getLogo2",
      "outputs": [
        {
          "components": [
            {
              "internalType": "string",
              "name": "name",
              "type": "string"
            },
            {
              "internalType": "string",
              "name": "svg",
              "type": "string"
            }
          ],
          "internalType": "struct IPBTokenPartsStore.ImagePart",
          "name": "",
          "type": "tuple"
        }
      ],
      "stateMutability": "view",
      "type": "function"
    },
    {
      "inputs": [
        {
          "internalType": "uint8",
          "name": "id",
          "type": "uint8"
        }
      ],
      "name": "getLogo3",
      "outputs": [
        {
          "components": [
            {
              "internalType": "string",
              "name": "name",
              "type": "string"
            },
            {
              "internalType": "string",
              "name": "svg",
              "type": "string"
            }
          ],
          "internalType": "struct IPBTokenPartsStore.ImagePart",
          "name": "",
          "type": "tuple"
        }
      ],
      "stateMutability": "view",
      "type": "function"
    },
    {
      "inputs": [
        {
          "internalType": "uint8",
          "name": "id",
          "type": "uint8"
        }
      ],
      "name": "getLogo4",
      "outputs": [
        {
          "components": [
            {
              "internalType": "string",
              "name": "name",
              "type": "string"
            },
            {
              "internalType": "string",
              "name": "svg",
              "type": "string"
            }
          ],
          "internalType": "struct IPBTokenPartsStore.ImagePart",
          "name": "",
          "type": "tuple"
        }
      ],
      "stateMutability": "view",
      "type": "function"
    },
    {
      "inputs": [
        {
          "internalType": "uint8",
          "name": "id",
          "type": "uint8"
        }
      ],
      "name": "getLogoPalette",
      "outputs": [
        {
          "components": [
            {
              "internalType": "string",
              "name": "name",
              "type": "string"
            },
            {
              "internalType": "string",
              "name": "primary",
              "type": "string"
            },
            {
              "internalType": "string",
              "name": "secondary",
              "type": "string"
            }
          ],
          "internalType": "struct IPBTokenPartsStore.Palette",
          "name": "",
          "type": "tuple"
        }
      ],
      "stateMutability": "view",
      "type": "function"
    },
    {
      "inputs": [
        {
          "internalType": "uint8",
          "name": "id",
          "type": "uint8"
        }
      ],
      "name": "getShield",
      "outputs": [
        {
          "components": [
            {
              "internalType": "string",
              "name": "name",
              "type": "string"
            },
            {
              "internalType": "string",
              "name": "svg",
              "type": "string"
            }
          ],
          "internalType": "struct IPBTokenPartsStore.ImagePart",
          "name": "",
          "type": "tuple"
        }
      ],
      "stateMutability": "view",
      "type": "function"
    },
    {
      "inputs": [
        {
          "internalType": "uint256",
          "name": "",
          "type": "uint256"
        }
      ],
      "name": "googlesColors",
      "outputs": [
        {
          "internalType": "string",
          "name": "name",
          "type": "string"
        },
        {
          "internalType": "string",
          "name": "color",
          "type": "string"
        }
      ],
      "stateMutability": "view",
      "type": "function"
    },
    {
      "inputs": [],
      "name": "googlesColorsCount",
      "outputs": [
        {
          "internalType": "uint256",
          "name": "",
          "type": "uint256"
        }
      ],
      "stateMutability": "view",
      "type": "function"
    },
    {
      "inputs": [
        {
          "internalType": "uint256",
          "name": "",
          "type": "uint256"
        }
      ],
      "name": "logoPalettes",
      "outputs": [
        {
          "internalType": "string",
          "name": "name",
          "type": "string"
        },
        {
          "internalType": "string",
          "name": "primary",
          "type": "string"
        },
        {
          "internalType": "string",
          "name": "secondary",
          "type": "string"
        }
      ],
      "stateMutability": "view",
      "type": "function"
    },
    {
      "inputs": [],
      "name": "logoPalettesCount",
      "outputs": [
        {
          "internalType": "uint256",
          "name": "",
          "type": "uint256"
        }
      ],
      "stateMutability": "view",
      "type": "function"
    },
    {
      "inputs": [
        {
          "internalType": "uint256",
          "name": "",
          "type": "uint256"
        }
      ],
      "name": "logos1",
      "outputs": [
        {
          "internalType": "string",
          "name": "name",
          "type": "string"
        },
        {
          "internalType": "string",
          "name": "svg",
          "type": "string"
        }
      ],
      "stateMutability": "view",
      "type": "function"
    },
    {
      "inputs": [],
      "name": "logos1Count",
      "outputs": [
        {
          "internalType": "uint256",
          "name": "",
          "type": "uint256"
        }
      ],
      "stateMutability": "view",
      "type": "function"
    },
    {
      "inputs": [
        {
          "internalType": "uint256",
          "name": "",
          "type": "uint256"
        }
      ],
      "name": "logos2",
      "outputs": [
        {
          "internalType": "string",
          "name": "name",
          "type": "string"
        },
        {
          "internalType": "string",
          "name": "svg",
          "type": "string"
        }
      ],
      "stateMutability": "view",
      "type": "function"
    },
    {
      "inputs": [],
      "name": "logos2Count",
      "outputs": [
        {
          "internalType": "uint256",
          "name": "",
          "type": "uint256"
        }
      ],
      "stateMutability": "view",
      "type": "function"
    },
    {
      "inputs": [
        {
          "internalType": "uint256",
          "name": "",
          "type": "uint256"
        }
      ],
      "name": "logos3",
      "outputs": [
        {
          "internalType": "string",
          "name": "name",
          "type": "string"
        },
        {
          "internalType": "string",
          "name": "svg",
          "type": "string"
        }
      ],
      "stateMutability": "view",
      "type": "function"
    },
    {
      "inputs": [],
      "name": "logos3Count",
      "outputs": [
        {
          "internalType": "uint256",
          "name": "",
          "type": "uint256"
        }
      ],
      "stateMutability": "view",
      "type": "function"
    },
    {
      "inputs": [
        {
          "internalType": "uint256",
          "name": "",
          "type": "uint256"
        }
      ],
      "name": "logos4",
      "outputs": [
        {
          "internalType": "string",
          "name": "name",
          "type": "string"
        },
        {
          "internalType": "string",
          "name": "svg",
          "type": "string"
        }
      ],
      "stateMutability": "view",
      "type": "function"
    },
    {
      "inputs": [],
      "name": "logos4Count",
      "outputs": [
        {
          "internalType": "uint256",
          "name": "",
          "type": "uint256"
        }
      ],
      "stateMutability": "view",
      "type": "function"
    },
    {
      "inputs": [],
      "name": "owner",
      "outputs": [
        {
          "internalType": "address",
          "name": "",
          "type": "address"
        }
      ],
      "stateMutability": "view",
      "type": "function"
    },
    {
      "inputs": [],
      "name": "renounceOwnership",
      "outputs": [],
      "stateMutability": "nonpayable",
      "type": "function"
    },
    {
      "inputs": [
        {
          "internalType": "uint256",
          "name": "",
          "type": "uint256"
        }
      ],
      "name": "shields",
      "outputs": [
        {
          "internalType": "string",
          "name": "name",
          "type": "string"
        },
        {
          "internalType": "string",
          "name": "svg",
          "type": "string"
        }
      ],
      "stateMutability": "view",
      "type": "function"
    },
    {
      "inputs": [],
      "name": "shieldsCount",
      "outputs": [
        {
          "internalType": "uint256",
          "name": "",
          "type": "uint256"
        }
      ],
      "stateMutability": "view",
      "type": "function"
    },
    {
      "inputs": [
        {
          "internalType": "address",
          "name": "newOwner",
          "type": "address"
        }
      ],
      "name": "transferOwnership",
      "outputs": [],
      "stateMutability": "nonpayable",
      "type": "function"
    }
  ],
  "transactionHash": "0xc925fdc0765e3b5b82389b4c2df09a02ca8581310da29d22989c7c823d44216e",
  "args": [],
  "numDeployments": 1,
  "solcInputHash": "e8c80c662056d99847a1a806e3d8d432",
  "bytecode": "0x608060405234801561001057600080fd5b5061001a3361001f565b61006f565b600080546001600160a01b038381166001600160a01b0319831681178455604051919092169283917f8be0079c531659141344cd1fd0a4f28419497f9722a3daafe3b4186f6b6457e09190a35050565b612ec7806200007f6000396000f3fe608060405234801561001057600080fd5b50600436106103205760003560e01c80639da775d0116101a7578063ddee33b5116100ee578063ee9a808f11610097578063f54924a911610071578063f54924a914610664578063f862ab1b1461066c578063fad5e7091461067f57600080fd5b8063ee9a808f1461062b578063f2fde38b1461063e578063f450b1e61461065157600080fd5b8063e703c186116100c8578063e703c18614610606578063ebfb90a71461060e578063ee14918c1461061657600080fd5b8063ddee33b5146105d8578063e2c24605146105e0578063e3ec8b98146105f357600080fd5b8063ae2e595311610150578063c9f023c21161012a578063c9f023c21461059f578063d55f8f36146105b2578063d8a4234d146105c557600080fd5b8063ae2e595314610559578063b0f364eb14610579578063c3f9ab991461058c57600080fd5b8063aa46a23c11610181578063aa46a23c14610520578063aae2cba214610533578063abb26ac41461054657600080fd5b80639da775d0146104e7578063a009d5ce146104fa578063a6c216701461050d57600080fd5b80636f25dcd51161026b57806387f30789116102145780638da5cb5b116101ee5780638da5cb5b146104a65780639030ba3e146104c157806392529b8f146104d457600080fd5b806387f307891461048e578063881ae30b146104965780638ba723501461049e57600080fd5b80637763e315116102455780637763e3151461045557806380942bfe14610468578063864bfa1a1461047b57600080fd5b80636f25dcd514610432578063715018a6146104455780637576bf871461044d57600080fd5b80633d0cf8cb116102cd5780635c7b96f3116102a75780635c7b96f3146103f95780635fe1d0eb1461040c578063621dc7361461041f57600080fd5b80633d0cf8cb146103b1578063446480ba146103c45780634c82e406146103e657600080fd5b806322894684116102fe57806322894684146103755780632360729d14610396578063303e5cdc1461039e57600080fd5b806315c507db146103255780631f24954a1461034e57806320ddb91c14610363575b600080fd5b6103386103333660046126d4565b610687565b604051610345919061277b565b60405180910390f35b61036161035c3660046127a6565b6107f5565b005b600b545b604051908152602001610345565b6103886103833660046127e3565b610843565b6040516103459291906127fc565b600954610367565b6103616103ac3660046127a6565b610987565b6103616103bf3660046127a6565b6109cd565b6103d76103d23660046127e3565b610a15565b60405161034593929190612821565b6103616103f4366004612864565b610be7565b6103886104073660046127e3565b610c30565b61036161041a3660046127a6565b610c40565b61038861042d3660046127e3565b610c89565b6103386104403660046126d4565b610c99565b610361610cc3565b600654610367565b6103886104633660046127e3565b610cd7565b6103616104763660046127a6565b610ce7565b6103886104893660046127e3565b610d30565b600154610367565b600854610367565b600754610367565b6000546040516001600160a01b039091168152602001610345565b6103616104cf3660046127a6565b610d40565b6103886104e23660046127e3565b610d89565b6103616104f53660046127a6565b610d99565b6103386105083660046126d4565b610de2565b61033861051b3660046126d4565b610e0c565b61033861052e3660046126d4565b610e36565b6103386105413660046126d4565b610e60565b6103616105543660046127a6565b610e8a565b61056c6105673660046126d4565b610ed3565b604051610345919061289f565b6103386105873660046126d4565b61105a565b61036161059a3660046127a6565b611084565b6103386105ad3660046126d4565b6110cd565b6103616105c03660046127a6565b6110f7565b6103386105d33660046126d4565b611140565b600554610367565b6103886105ee3660046127e3565b61116a565b6103386106013660046126d4565b61117a565b600354610367565b600454610367565b61061e6111a4565b604051610345919061294c565b6103886106393660046127e3565b61233c565b61036161064c366004612a93565b61234c565b61038861065f3660046127e3565b6123e1565b600a54610367565b61038861067a3660046127e3565b6123f1565b600254610367565b604080518082019091526060808252602082015260018260ff16815481106106b1576106b1612abc565b90600052602060002090600202016040518060400160405290816000820180546106da90612ad2565b80601f016020809104026020016040519081016040528092919081815260200182805461070690612ad2565b80156107535780601f1061072857610100808354040283529160200191610753565b820191906000526020600020905b81548152906001019060200180831161073657829003601f168201915b5050505050815260200160018201805461076c90612ad2565b80601f016020809104026020016040519081016040528092919081815260200182805461079890612ad2565b80156107e55780601f106107ba576101008083540402835291602001916107e5565b820191906000526020600020905b8154815290600101906020018083116107c857829003601f168201915b5050505050815250509050919050565b6107fd612401565b600b805460018101825560009190915281906002027f0175b7a638427703f0dbe7bb9bbf987a2551717b34e79f33b5b1008d1fa01db90161083e8282612d62565b505050565b6002818154811061085357600080fd5b906000526020600020906002020160009150905080600001805461087690612ad2565b80601f01602080910402602001604051908101604052809291908181526020018280546108a290612ad2565b80156108ef5780601f106108c4576101008083540402835291602001916108ef565b820191906000526020600020905b8154815290600101906020018083116108d257829003601f168201915b50505050509080600101805461090490612ad2565b80601f016020809104026020016040519081016040528092919081815260200182805461093090612ad2565b801561097d5780601f106109525761010080835404028352916020019161097d565b820191906000526020600020905b81548152906001019060200180831161096057829003601f168201915b5050505050905082565b61098f612401565b6002805460018101825560008290528291027f405787fa12a823e0f2b7631cc41b3ba8828b3321ca811111fa75cd3aa3bb5ace0161083e8282612d62565b6109d5612401565b60018054808201825560009190915281906002027fb10e2d527612073b26eecdfd717e6a320cf44b4afac2b0732d9fcbe2b7fa0cf60161083e8282612d62565b60078181548110610a2557600080fd5b9060005260206000209060030201600091509050806000018054610a4890612ad2565b80601f0160208091040260200160405190810160405280929190818152602001828054610a7490612ad2565b8015610ac15780601f10610a9657610100808354040283529160200191610ac1565b820191906000526020600020905b815481529060010190602001808311610aa457829003601f168201915b505050505090806001018054610ad690612ad2565b80601f0160208091040260200160405190810160405280929190818152602001828054610b0290612ad2565b8015610b4f5780601f10610b2457610100808354040283529160200191610b4f565b820191906000526020600020905b815481529060010190602001808311610b3257829003601f168201915b505050505090806002018054610b6490612ad2565b80601f0160208091040260200160405190810160405280929190818152602001828054610b9090612ad2565b8015610bdd5780601f10610bb257610100808354040283529160200191610bdd565b820191906000526020600020905b815481529060010190602001808311610bc057829003601f168201915b5050505050905083565b610bef612401565b6007805460018101825560009190915281906003027fa66cc928b5edb82af9bd49922954155ab7b0942694bea4ce44661d9a8736c6880161083e8282612d70565b6009818154811061085357600080fd5b610c48612401565b6008805460018101825560009190915281906002027ff3f7a9fe364faab93b216da50a3214154f22a0a2b415b23a84c8169e8b636ee30161083e8282612d62565b6005818154811061085357600080fd5b604080518082019091526060808252602082015260038260ff16815481106106b1576106b1612abc565b610ccb612401565b610cd5600061245b565b565b600a818154811061085357600080fd5b610cef612401565b6003805460018101825560009190915281906002027fc2575a0e9e593c00f959f8c92f12db2869c3395a3b0502d05e2516446f71f85b0161083e8282612d62565b6008818154811061085357600080fd5b610d48612401565b6004805460018101825560009190915281906002027f8a35acfbc15ff81a39ae7d344fd709f28e8600b4aa8c65c6b64bfe7fe36bd19b0161083e8282612d62565b6004818154811061085357600080fd5b610da1612401565b6006805460018101825560009190915281906002027ff652222313e28459528d920b65115c16c04f3efc82aaedc97be59f3f377c0d3f0161083e8282612d62565b604080518082019091526060808252602082015260098260ff16815481106106b1576106b1612abc565b6040805180820190915260608082526020820152600b8260ff16815481106106b1576106b1612abc565b604080518082019091526060808252602082015260028260ff16815481106106b1576106b1612abc565b604080518082019091526060808252602082015260048260ff16815481106106b1576106b1612abc565b610e92612401565b6005805460018101825560009190915281906002027f036b6384b5eca791c62761152d0c79bb0604c104a5fb6f4eb0703f3154bb3db00161083e8282612d62565b610ef760405180606001604052806060815260200160608152602001606081525090565b60078260ff1681548110610f0d57610f0d612abc565b9060005260206000209060030201604051806060016040529081600082018054610f3690612ad2565b80601f0160208091040260200160405190810160405280929190818152602001828054610f6290612ad2565b8015610faf5780601f10610f8457610100808354040283529160200191610faf565b820191906000526020600020905b815481529060010190602001808311610f9257829003601f168201915b50505050508152602001600182018054610fc890612ad2565b80601f0160208091040260200160405190810160405280929190818152602001828054610ff490612ad2565b80156110415780601f1061101657610100808354040283529160200191611041565b820191906000526020600020905b81548152906001019060200180831161102457829003601f168201915b5050505050815260200160028201805461076c90612ad2565b6040805180820190915260608082526020820152600a8260ff16815481106106b1576106b1612abc565b61108c612401565b6009805460018101825560009190915281906002027f6e1540171b6c0c960b71a7020d9f60077f6af931a8bbf590da0223dacf75c7af0161083e8282612d62565b604080518082019091526060808252602082015260088260ff16815481106106b1576106b1612abc565b6110ff612401565b600a805460018101825560009190915281906002027fc65a7bb8d6351c1cf70c95a316cc6a92839c986682d98bc35f958f4883f9d2a80161083e8282612d62565b604080518082019091526060808252602082015260058260ff16815481106106b1576106b1612abc565b6001818154811061085357600080fd5b604080518082019091526060808252602082015260068260ff16815481106106b1576106b1612abc565b61120160405180610160016040528060608152602001606081526020016060815260200160608152602001606081526020016060815260200160608152602001606081526020016060815260200160608152602001606081525090565b6040518061016001604052806113916001805480602002602001604051908101604052809291908181526020016000905b82821015611388578382906000526020600020906002020160405180604001604052908160008201805461126590612ad2565b80601f016020809104026020016040519081016040528092919081815260200182805461129190612ad2565b80156112de5780601f106112b3576101008083540402835291602001916112de565b820191906000526020600020905b8154815290600101906020018083116112c157829003601f168201915b505050505081526020016001820180546112f790612ad2565b80601f016020809104026020016040519081016040528092919081815260200182805461132390612ad2565b80156113705780601f1061134557610100808354040283529160200191611370565b820191906000526020600020905b81548152906001019060200180831161135357829003601f168201915b50505050508152505081526020019060010190611232565b505050506124c3565b81526020016115116002805480602002602001604051908101604052809291908181526020016000905b8282101561138857838290600052602060002090600202016040518060400160405290816000820180546113ee90612ad2565b80601f016020809104026020016040519081016040528092919081815260200182805461141a90612ad2565b80156114675780601f1061143c57610100808354040283529160200191611467565b820191906000526020600020905b81548152906001019060200180831161144a57829003601f168201915b5050505050815260200160018201805461148090612ad2565b80601f01602080910402602001604051908101604052809291908181526020018280546114ac90612ad2565b80156114f95780601f106114ce576101008083540402835291602001916114f9565b820191906000526020600020905b8154815290600101906020018083116114dc57829003601f168201915b505050505081525050815260200190600101906113bb565b815260200161169a6003805480602002602001604051908101604052809291908181526020016000905b82821015611691578382906000526020600020906002020160405180604001604052908160008201805461156e90612ad2565b80601f016020809104026020016040519081016040528092919081815260200182805461159a90612ad2565b80156115e75780601f106115bc576101008083540402835291602001916115e7565b820191906000526020600020905b8154815290600101906020018083116115ca57829003601f168201915b5050505050815260200160018201805461160090612ad2565b80601f016020809104026020016040519081016040528092919081815260200182805461162c90612ad2565b80156116795780601f1061164e57610100808354040283529160200191611679565b820191906000526020600020905b81548152906001019060200180831161165c57829003601f168201915b5050505050815250508152602001906001019061153b565b50505050612578565b815260200161181a6004805480602002602001604051908101604052809291908181526020016000905b8282101561169157838290600052602060002090600202016040518060400160405290816000820180546116f790612ad2565b80601f016020809104026020016040519081016040528092919081815260200182805461172390612ad2565b80156117705780601f1061174557610100808354040283529160200191611770565b820191906000526020600020905b81548152906001019060200180831161175357829003601f168201915b5050505050815260200160018201805461178990612ad2565b80601f01602080910402602001604051908101604052809291908181526020018280546117b590612ad2565b80156118025780601f106117d757610100808354040283529160200191611802565b820191906000526020600020905b8154815290600101906020018083116117e557829003601f168201915b505050505081525050815260200190600101906116c4565b815260200161199a6005805480602002602001604051908101604052809291908181526020016000905b82821015611691578382906000526020600020906002020160405180604001604052908160008201805461187790612ad2565b80601f01602080910402602001604051908101604052809291908181526020018280546118a390612ad2565b80156118f05780601f106118c5576101008083540402835291602001916118f0565b820191906000526020600020905b8154815290600101906020018083116118d357829003601f168201915b5050505050815260200160018201805461190990612ad2565b80601f016020809104026020016040519081016040528092919081815260200182805461193590612ad2565b80156119825780601f1061195757610100808354040283529160200191611982565b820191906000526020600020905b81548152906001019060200180831161196557829003601f168201915b50505050508152505081526020019060010190611844565b8152602001611b1a6006805480602002602001604051908101604052809291908181526020016000905b8282101561169157838290600052602060002090600202016040518060400160405290816000820180546119f790612ad2565b80601f0160208091040260200160405190810160405280929190818152602001828054611a2390612ad2565b8015611a705780601f10611a4557610100808354040283529160200191611a70565b820191906000526020600020905b815481529060010190602001808311611a5357829003601f168201915b50505050508152602001600182018054611a8990612ad2565b80601f0160208091040260200160405190810160405280929190818152602001828054611ab590612ad2565b8015611b025780601f10611ad757610100808354040283529160200191611b02565b820191906000526020600020905b815481529060010190602001808311611ae557829003601f168201915b505050505081525050815260200190600101906119c4565b8152602001611d356007805480602002602001604051908101604052809291908181526020016000905b82821015611d2c5783829060005260206000209060030201604051806060016040529081600082018054611b7790612ad2565b80601f0160208091040260200160405190810160405280929190818152602001828054611ba390612ad2565b8015611bf05780601f10611bc557610100808354040283529160200191611bf0565b820191906000526020600020905b815481529060010190602001808311611bd357829003601f168201915b50505050508152602001600182018054611c0990612ad2565b80601f0160208091040260200160405190810160405280929190818152602001828054611c3590612ad2565b8015611c825780601f10611c5757610100808354040283529160200191611c82565b820191906000526020600020905b815481529060010190602001808311611c6557829003601f168201915b50505050508152602001600282018054611c9b90612ad2565b80601f0160208091040260200160405190810160405280929190818152602001828054611cc790612ad2565b8015611d145780601f10611ce957610100808354040283529160200191611d14565b820191906000526020600020905b815481529060010190602001808311611cf757829003601f168201915b50505050508152505081526020019060010190611b44565b50505050612626565b8152602001611eb56008805480602002602001604051908101604052809291908181526020016000905b828210156116915783829060005260206000209060020201604051806040016040529081600082018054611d9290612ad2565b80601f0160208091040260200160405190810160405280929190818152602001828054611dbe90612ad2565b8015611e0b5780601f10611de057610100808354040283529160200191611e0b565b820191906000526020600020905b815481529060010190602001808311611dee57829003601f168201915b50505050508152602001600182018054611e2490612ad2565b80601f0160208091040260200160405190810160405280929190818152602001828054611e5090612ad2565b8015611e9d5780601f10611e7257610100808354040283529160200191611e9d565b820191906000526020600020905b815481529060010190602001808311611e8057829003601f168201915b50505050508152505081526020019060010190611d5f565b81526020016120356009805480602002602001604051908101604052809291908181526020016000905b828210156116915783829060005260206000209060020201604051806040016040529081600082018054611f1290612ad2565b80601f0160208091040260200160405190810160405280929190818152602001828054611f3e90612ad2565b8015611f8b5780601f10611f6057610100808354040283529160200191611f8b565b820191906000526020600020905b815481529060010190602001808311611f6e57829003601f168201915b50505050508152602001600182018054611fa490612ad2565b80601f0160208091040260200160405190810160405280929190818152602001828054611fd090612ad2565b801561201d5780601f10611ff25761010080835404028352916020019161201d565b820191906000526020600020905b81548152906001019060200180831161200057829003601f168201915b50505050508152505081526020019060010190611edf565b81526020016121b5600a805480602002602001604051908101604052809291908181526020016000905b82821015611691578382906000526020600020906002020160405180604001604052908160008201805461209290612ad2565b80601f01602080910402602001604051908101604052809291908181526020018280546120be90612ad2565b801561210b5780601f106120e05761010080835404028352916020019161210b565b820191906000526020600020905b8154815290600101906020018083116120ee57829003601f168201915b5050505050815260200160018201805461212490612ad2565b80601f016020809104026020016040519081016040528092919081815260200182805461215090612ad2565b801561219d5780601f106121725761010080835404028352916020019161219d565b820191906000526020600020905b81548152906001019060200180831161218057829003601f168201915b5050505050815250508152602001906001019061205f565b8152602001612335600b805480602002602001604051908101604052809291908181526020016000905b82821015611691578382906000526020600020906002020160405180604001604052908160008201805461221290612ad2565b80601f016020809104026020016040519081016040528092919081815260200182805461223e90612ad2565b801561228b5780601f106122605761010080835404028352916020019161228b565b820191906000526020600020905b81548152906001019060200180831161226e57829003601f168201915b505050505081526020016001820180546122a490612ad2565b80601f01602080910402602001604051908101604052809291908181526020018280546122d090612ad2565b801561231d5780601f106122f25761010080835404028352916020019161231d565b820191906000526020600020905b81548152906001019060200180831161230057829003601f168201915b505050505081525050815260200190600101906121df565b9052919050565b6003818154811061085357600080fd5b612354612401565b6001600160a01b0381166123d55760405162461bcd60e51b815260206004820152602660248201527f4f776e61626c653a206e6577206f776e657220697320746865207a65726f206160448201527f646472657373000000000000000000000000000000000000000000000000000060648201526084015b60405180910390fd5b6123de8161245b565b50565b600b818154811061085357600080fd5b6006818154811061085357600080fd5b6000546001600160a01b03163314610cd55760405162461bcd60e51b815260206004820181905260248201527f4f776e61626c653a2063616c6c6572206973206e6f7420746865206f776e657260448201526064016123cc565b600080546001600160a01b038381167fffffffffffffffffffffffff0000000000000000000000000000000000000000831681178455604051919092169283917f8be0079c531659141344cd1fd0a4f28419497f9722a3daafe3b4186f6b6457e09190a35050565b60606000825167ffffffffffffffff8111156124e1576124e1612b54565b60405190808252806020026020018201604052801561251457816020015b60608152602001906001900390816124ff5790505b50905060005b83518110156125715783818151811061253557612535612abc565b60200260200101516000015182828151811061255357612553612abc565b6020026020010181905250808061256990612e6a565b91505061251a565b5092915050565b60606000825167ffffffffffffffff81111561259657612596612b54565b6040519080825280602002602001820160405280156125c957816020015b60608152602001906001900390816125b45790505b50905060005b8351811015612571578381815181106125ea576125ea612abc565b60200260200101516000015182828151811061260857612608612abc565b6020026020010181905250808061261e90612e6a565b9150506125cf565b60606000825167ffffffffffffffff81111561264457612644612b54565b60405190808252806020026020018201604052801561267757816020015b60608152602001906001900390816126625790505b50905060005b83518110156125715783818151811061269857612698612abc565b6020026020010151600001518282815181106126b6576126b6612abc565b602002602001018190525080806126cc90612e6a565b91505061267d565b6000602082840312156126e657600080fd5b813560ff811681146126f757600080fd5b9392505050565b6000815180845260005b8181101561272457602081850181015186830182015201612708565b506000602082860101526020601f19601f83011685010191505092915050565b600081516040845261275960408501826126fe565b90506020830151848203602086015261277282826126fe565b95945050505050565b6020815260006126f76020830184612744565b6000604082840312156127a057600080fd5b50919050565b6000602082840312156127b857600080fd5b813567ffffffffffffffff8111156127cf57600080fd5b6127db8482850161278e565b949350505050565b6000602082840312156127f557600080fd5b5035919050565b60408152600061280f60408301856126fe565b828103602084015261277281856126fe565b60608152600061283460608301866126fe565b828103602084015261284681866126fe565b9050828103604084015261285a81856126fe565b9695505050505050565b60006020828403121561287657600080fd5b813567ffffffffffffffff81111561288d57600080fd5b8201606081850312156126f757600080fd5b6020815260008251606060208401526128bb60808401826126fe565b90506020840151601f19808584030160408601526128d983836126fe565b925060408601519150808584030160608601525061277282826126fe565b600081518084526020808501808196508360051b8101915082860160005b8581101561293f57828403895261292d8483516126fe565b98850198935090840190600101612915565b5091979650505050505050565b602081526000825161016080602085015261296b6101808501836128f7565b91506020850151601f198086850301604087015261298984836128f7565b935060408701519150808685030160608701526129a684836128f7565b935060608701519150808685030160808701526129c384836128f7565b935060808701519150808685030160a08701526129e084836128f7565b935060a08701519150808685030160c08701526129fd84836128f7565b935060c08701519150808685030160e0870152612a1a84836128f7565b935060e08701519150610100818786030181880152612a3985846128f7565b945080880151925050610120818786030181880152612a5885846128f7565b945080880151925050610140818786030181880152612a7785846128f7565b90880151878203909201848801529350905061285a83826128f7565b600060208284031215612aa557600080fd5b81356001600160a01b03811681146126f757600080fd5b634e487b7160e01b600052603260045260246000fd5b600181811c90821680612ae657607f821691505b6020821081036127a057634e487b7160e01b600052602260045260246000fd5b6000808335601e19843603018112612b1d57600080fd5b83018035915067ffffffffffffffff821115612b3857600080fd5b602001915036819003821315612b4d57600080fd5b9250929050565b634e487b7160e01b600052604160045260246000fd5b601f82111561083e57600081815260208120601f850160051c81016020861015612b915750805b601f850160051c820191505b81811015612bb057828155600101612b9d565b505050505050565b67ffffffffffffffff831115612bd057612bd0612b54565b612be483612bde8354612ad2565b83612b6a565b6000601f841160018114612c185760008515612c005750838201355b600019600387901b1c1916600186901b178355612c72565b600083815260209020601f19861690835b82811015612c495786850135825560209485019460019092019101612c29565b5086821015612c665760001960f88860031b161c19848701351681555b505060018560011b0183555b5050505050565b612c838283612b06565b67ffffffffffffffff811115612c9b57612c9b612b54565b612caf81612ca98554612ad2565b85612b6a565b6000601f821160018114612ce35760008315612ccb5750838201355b600019600385901b1c1916600184901b178555612d3d565b600085815260209020601f19841690835b82811015612d145786850135825560209485019460019092019101612cf4565b5084821015612d315760001960f88660031b161c19848701351681555b505060018360011b0185555b50505050612d4e6020830183612b06565b612d5c818360018601612bb8565b50505050565b612d6c8282612c79565b5050565b612d7a8283612b06565b67ffffffffffffffff811115612d9257612d92612b54565b612da081612ca98554612ad2565b6000601f821160018114612dd45760008315612dbc5750838201355b600019600385901b1c1916600184901b178555612e2e565b600085815260209020601f19841690835b82811015612e055786850135825560209485019460019092019101612de5565b5084821015612e225760001960f88660031b161c19848701351681555b505060018360011b0185555b50505050612e3f6020830183612b06565b612e4d818360018601612bb8565b5050612e5c6040830183612b06565b612d5c818360028601612bb8565b600060018201612e8a57634e487b7160e01b600052601160045260246000fd5b506001019056fea2646970667358221220c15e105a5f7cba5b6695a417c9856011a734a93a735fbc4849f73dbc03c2218864736f6c63430008110033",
  "devdoc": {
    "kind": "dev",
    "methods": {
      "owner()": {
        "details": "Returns the address of the current owner."
      },
      "renounceOwnership()": {
        "details": "Leaves the contract without owner. It will not be possible to call `onlyOwner` functions anymore. Can only be called by the current owner. NOTE: Renouncing ownership will leave the contract without an owner, thereby removing any functionality that is only available to the owner."
      },
      "transferOwnership(address)": {
        "details": "Transfers ownership of the contract to a new account (`newOwner`). Can only be called by the current owner."
      }
    },
    "version": 1
  },
  "userdoc": {
    "kind": "user",
    "methods": {},
    "version": 1
  },
  "storageLayout": {
    "storage": [
      {
        "astId": 7,
        "contract": "contracts/PBTokenPartsStore.sol:PBTokenPartsStore",
        "label": "_owner",
        "offset": 0,
        "slot": "0",
        "type": "t_address"
      },
      {
        "astId": 8042,
        "contract": "contracts/PBTokenPartsStore.sol:PBTokenPartsStore",
        "label": "bgColors",
        "offset": 0,
        "slot": "1",
        "type": "t_array(t_struct(Color)8698_storage)dyn_storage"
      },
      {
        "astId": 8046,
        "contract": "contracts/PBTokenPartsStore.sol:PBTokenPartsStore",
        "label": "googlesColors",
        "offset": 0,
        "slot": "2",
        "type": "t_array(t_struct(Color)8698_storage)dyn_storage"
      },
      {
        "astId": 8050,
        "contract": "contracts/PBTokenPartsStore.sol:PBTokenPartsStore",
        "label": "crowns",
        "offset": 0,
        "slot": "3",
        "type": "t_array(t_struct(ImagePart)8710_storage)dyn_storage"
      },
      {
        "astId": 8054,
        "contract": "contracts/PBTokenPartsStore.sol:PBTokenPartsStore",
        "label": "decorations",
        "offset": 0,
        "slot": "4",
        "type": "t_array(t_struct(ImagePart)8710_storage)dyn_storage"
      },
      {
        "astId": 8058,
        "contract": "contracts/PBTokenPartsStore.sol:PBTokenPartsStore",
        "label": "garlands",
        "offset": 0,
        "slot": "5",
        "type": "t_array(t_struct(ImagePart)8710_storage)dyn_storage"
      },
      {
        "astId": 8062,
        "contract": "contracts/PBTokenPartsStore.sol:PBTokenPartsStore",
        "label": "shields",
        "offset": 0,
        "slot": "6",
        "type": "t_array(t_struct(ImagePart)8710_storage)dyn_storage"
      },
      {
        "astId": 8066,
        "contract": "contracts/PBTokenPartsStore.sol:PBTokenPartsStore",
        "label": "logoPalettes",
        "offset": 0,
        "slot": "7",
        "type": "t_array(t_struct(Palette)8705_storage)dyn_storage"
      },
      {
        "astId": 8070,
        "contract": "contracts/PBTokenPartsStore.sol:PBTokenPartsStore",
        "label": "logos1",
        "offset": 0,
        "slot": "8",
        "type": "t_array(t_struct(ImagePart)8710_storage)dyn_storage"
      },
      {
        "astId": 8074,
        "contract": "contracts/PBTokenPartsStore.sol:PBTokenPartsStore",
        "label": "logos2",
        "offset": 0,
        "slot": "9",
        "type": "t_array(t_struct(ImagePart)8710_storage)dyn_storage"
      },
      {
        "astId": 8078,
        "contract": "contracts/PBTokenPartsStore.sol:PBTokenPartsStore",
        "label": "logos3",
        "offset": 0,
        "slot": "10",
        "type": "t_array(t_struct(ImagePart)8710_storage)dyn_storage"
      },
      {
        "astId": 8082,
        "contract": "contracts/PBTokenPartsStore.sol:PBTokenPartsStore",
        "label": "logos4",
        "offset": 0,
        "slot": "11",
        "type": "t_array(t_struct(ImagePart)8710_storage)dyn_storage"
      }
    ],
    "types": {
      "t_address": {
        "encoding": "inplace",
        "label": "address",
        "numberOfBytes": "20"
      },
      "t_array(t_struct(Color)8698_storage)dyn_storage": {
        "base": "t_struct(Color)8698_storage",
        "encoding": "dynamic_array",
        "label": "struct IPBTokenPartsStore.Color[]",
        "numberOfBytes": "32"
      },
      "t_array(t_struct(ImagePart)8710_storage)dyn_storage": {
        "base": "t_struct(ImagePart)8710_storage",
        "encoding": "dynamic_array",
        "label": "struct IPBTokenPartsStore.ImagePart[]",
        "numberOfBytes": "32"
      },
      "t_array(t_struct(Palette)8705_storage)dyn_storage": {
        "base": "t_struct(Palette)8705_storage",
        "encoding": "dynamic_array",
        "label": "struct IPBTokenPartsStore.Palette[]",
        "numberOfBytes": "32"
      },
      "t_string_storage": {
        "encoding": "bytes",
        "label": "string",
        "numberOfBytes": "32"
      },
      "t_struct(Color)8698_storage": {
        "encoding": "inplace",
        "label": "struct IPBTokenPartsStore.Color",
        "members": [
          {
            "astId": 8695,
            "contract": "contracts/PBTokenPartsStore.sol:PBTokenPartsStore",
            "label": "name",
            "offset": 0,
            "slot": "0",
            "type": "t_string_storage"
          },
          {
            "astId": 8697,
            "contract": "contracts/PBTokenPartsStore.sol:PBTokenPartsStore",
            "label": "color",
            "offset": 0,
            "slot": "1",
            "type": "t_string_storage"
          }
        ],
        "numberOfBytes": "64"
      },
      "t_struct(ImagePart)8710_storage": {
        "encoding": "inplace",
        "label": "struct IPBTokenPartsStore.ImagePart",
        "members": [
          {
            "astId": 8707,
            "contract": "contracts/PBTokenPartsStore.sol:PBTokenPartsStore",
            "label": "name",
            "offset": 0,
            "slot": "0",
            "type": "t_string_storage"
          },
          {
            "astId": 8709,
            "contract": "contracts/PBTokenPartsStore.sol:PBTokenPartsStore",
            "label": "svg",
            "offset": 0,
            "slot": "1",
            "type": "t_string_storage"
          }
        ],
        "numberOfBytes": "64"
      },
      "t_struct(Palette)8705_storage": {
        "encoding": "inplace",
        "label": "struct IPBTokenPartsStore.Palette",
        "members": [
          {
            "astId": 8700,
            "contract": "contracts/PBTokenPartsStore.sol:PBTokenPartsStore",
            "label": "name",
            "offset": 0,
            "slot": "0",
            "type": "t_string_storage"
          },
          {
            "astId": 8702,
            "contract": "contracts/PBTokenPartsStore.sol:PBTokenPartsStore",
            "label": "primary",
            "offset": 0,
            "slot": "1",
            "type": "t_string_storage"
          },
          {
            "astId": 8704,
            "contract": "contracts/PBTokenPartsStore.sol:PBTokenPartsStore",
            "label": "secondary",
            "offset": 0,
            "slot": "2",
            "type": "t_string_storage"
          }
        ],
        "numberOfBytes": "96"
      }
    }
  }
}