{
  "address": "0x66cc25181aC97e4dec5647c9B556ab3b5C8fFC4E",
  "abi": [
    {
      "anonymous": false,
      "inputs": [
        {
          "indexed": true,
          "internalType": "address",
          "name": "previousOwner",
          "type": "address"
        },
        {
          "indexed": true,
          "internalType": "address",
          "name": "newOwner",
          "type": "address"
        }
      ],
      "name": "OwnershipTransferred",
      "type": "event"
    },
    {
      "inputs": [
        {
          "components": [
            {
              "internalType": "string",
              "name": "name",
              "type": "string"
            },
            {
              "internalType": "string",
              "name": "color",
              "type": "string"
            }
          ],
          "internalType": "struct IPBTokenPartsStore.Color",
          "name": "color",
          "type": "tuple"
        }
      ],
      "name": "addBgColor",
      "outputs": [],
      "stateMutability": "nonpayable",
      "type": "function"
    },
    {
      "inputs": [
        {
          "components": [
            {
              "internalType": "string",
              "name": "name",
              "type": "string"
            },
            {
              "internalType": "string",
              "name": "svg",
              "type": "string"
            }
          ],
          "internalType": "struct IPBTokenPartsStore.ImagePart",
          "name": "part",
          "type": "tuple"
        }
      ],
      "name": "addClass",
      "outputs": [],
      "stateMutability": "nonpayable",
      "type": "function"
    },
    {
      "inputs": [
        {
          "components": [
            {
              "internalType": "string",
              "name": "name",
              "type": "string"
            },
            {
              "internalType": "string",
              "name": "svg",
              "type": "string"
            }
          ],
          "internalType": "struct IPBTokenPartsStore.ImagePart",
          "name": "part",
          "type": "tuple"
        }
      ],
      "name": "addCrown",
      "outputs": [],
      "stateMutability": "nonpayable",
      "type": "function"
    },
    {
      "inputs": [
        {
          "components": [
            {
              "internalType": "string",
              "name": "name",
              "type": "string"
            },
            {
              "internalType": "string",
              "name": "svg",
              "type": "string"
            }
          ],
          "internalType": "struct IPBTokenPartsStore.ImagePart",
          "name": "part",
          "type": "tuple"
        }
      ],
      "name": "addDoodad",
      "outputs": [],
      "stateMutability": "nonpayable",
      "type": "function"
    },
    {
      "inputs": [
        {
          "components": [
            {
              "internalType": "string",
              "name": "name",
              "type": "string"
            },
            {
              "internalType": "string",
              "name": "svg",
              "type": "string"
            }
          ],
          "internalType": "struct IPBTokenPartsStore.ImagePart",
          "name": "part",
          "type": "tuple"
        }
      ],
      "name": "addGarland",
      "outputs": [],
      "stateMutability": "nonpayable",
      "type": "function"
    },
    {
      "inputs": [
        {
          "components": [
            {
              "internalType": "string",
              "name": "name",
              "type": "string"
            },
            {
              "internalType": "string",
              "name": "color",
              "type": "string"
            }
          ],
          "internalType": "struct IPBTokenPartsStore.Color",
          "name": "color",
          "type": "tuple"
        }
      ],
      "name": "addNogglesColor",
      "outputs": [],
      "stateMutability": "nonpayable",
      "type": "function"
    },
    {
      "inputs": [
        {
          "components": [
            {
              "internalType": "string",
              "name": "name",
              "type": "string"
            },
            {
              "internalType": "string",
              "name": "primary",
              "type": "string"
            },
            {
              "internalType": "string",
              "name": "secondary",
              "type": "string"
            }
          ],
          "internalType": "struct IPBTokenPartsStore.Palette",
          "name": "palette",
          "type": "tuple"
        }
      ],
      "name": "addQuadrantPalette",
      "outputs": [],
      "stateMutability": "nonpayable",
      "type": "function"
    },
    {
      "inputs": [
        {
          "components": [
            {
              "internalType": "string",
              "name": "name",
              "type": "string"
            },
            {
              "internalType": "string",
              "name": "svg",
              "type": "string"
            }
          ],
          "internalType": "struct IPBTokenPartsStore.ImagePart",
          "name": "part",
          "type": "tuple"
        }
      ],
      "name": "addRep",
      "outputs": [],
      "stateMutability": "nonpayable",
      "type": "function"
    },
    {
      "inputs": [
        {
          "components": [
            {
              "internalType": "string",
              "name": "name",
              "type": "string"
            },
            {
              "internalType": "string",
              "name": "svg",
              "type": "string"
            }
          ],
          "internalType": "struct IPBTokenPartsStore.ImagePart",
          "name": "part",
          "type": "tuple"
        }
      ],
      "name": "addShield",
      "outputs": [],
      "stateMutability": "nonpayable",
      "type": "function"
    },
    {
      "inputs": [
        {
          "components": [
            {
              "internalType": "string",
              "name": "name",
              "type": "string"
            },
            {
              "internalType": "string",
              "name": "svg",
              "type": "string"
            }
          ],
          "internalType": "struct IPBTokenPartsStore.ImagePart",
          "name": "part",
          "type": "tuple"
        }
      ],
      "name": "addSkill",
      "outputs": [],
      "stateMutability": "nonpayable",
      "type": "function"
    },
    {
      "inputs": [
        {
          "components": [
            {
              "internalType": "string",
              "name": "name",
              "type": "string"
            },
            {
              "internalType": "string",
              "name": "svg",
              "type": "string"
            }
          ],
          "internalType": "struct IPBTokenPartsStore.ImagePart",
          "name": "part",
          "type": "tuple"
        }
      ],
      "name": "addTrait",
      "outputs": [],
      "stateMutability": "nonpayable",
      "type": "function"
    },
    {
      "inputs": [
        {
          "internalType": "uint256",
          "name": "",
          "type": "uint256"
        }
      ],
      "name": "bgColors",
      "outputs": [
        {
          "internalType": "string",
          "name": "name",
          "type": "string"
        },
        {
          "internalType": "string",
          "name": "color",
          "type": "string"
        }
      ],
      "stateMutability": "view",
      "type": "function"
    },
    {
      "inputs": [],
      "name": "bgColorsCount",
      "outputs": [
        {
          "internalType": "uint256",
          "name": "",
          "type": "uint256"
        }
      ],
      "stateMutability": "view",
      "type": "function"
    },
    {
      "inputs": [
        {
          "internalType": "uint256",
          "name": "",
          "type": "uint256"
        }
      ],
      "name": "classes",
      "outputs": [
        {
          "internalType": "string",
          "name": "name",
          "type": "string"
        },
        {
          "internalType": "string",
          "name": "svg",
          "type": "string"
        }
      ],
      "stateMutability": "view",
      "type": "function"
    },
    {
      "inputs": [],
      "name": "classesCount",
      "outputs": [
        {
          "internalType": "uint256",
          "name": "",
          "type": "uint256"
        }
      ],
      "stateMutability": "view",
      "type": "function"
    },
    {
      "inputs": [
        {
          "internalType": "uint256",
          "name": "",
          "type": "uint256"
        }
      ],
      "name": "crowns",
      "outputs": [
        {
          "internalType": "string",
          "name": "name",
          "type": "string"
        },
        {
          "internalType": "string",
          "name": "svg",
          "type": "string"
        }
      ],
      "stateMutability": "view",
      "type": "function"
    },
    {
      "inputs": [],
      "name": "crownsCount",
      "outputs": [
        {
          "internalType": "uint256",
          "name": "",
          "type": "uint256"
        }
      ],
      "stateMutability": "view",
      "type": "function"
    },
    {
      "inputs": [
        {
          "internalType": "uint256",
          "name": "",
          "type": "uint256"
        }
      ],
      "name": "doodads",
      "outputs": [
        {
          "internalType": "string",
          "name": "name",
          "type": "string"
        },
        {
          "internalType": "string",
          "name": "svg",
          "type": "string"
        }
      ],
      "stateMutability": "view",
      "type": "function"
    },
    {
      "inputs": [],
      "name": "doodadsCount",
      "outputs": [
        {
          "internalType": "uint256",
          "name": "",
          "type": "uint256"
        }
      ],
      "stateMutability": "view",
      "type": "function"
    },
    {
      "inputs": [
        {
          "internalType": "uint256",
          "name": "",
          "type": "uint256"
        }
      ],
      "name": "garlands",
      "outputs": [
        {
          "internalType": "string",
          "name": "name",
          "type": "string"
        },
        {
          "internalType": "string",
          "name": "svg",
          "type": "string"
        }
      ],
      "stateMutability": "view",
      "type": "function"
    },
    {
      "inputs": [],
      "name": "garlandsCount",
      "outputs": [
        {
          "internalType": "uint256",
          "name": "",
          "type": "uint256"
        }
      ],
      "stateMutability": "view",
      "type": "function"
    },
    {
      "inputs": [],
      "name": "getAllParts",
      "outputs": [
        {
          "components": [
            {
              "internalType": "string[]",
              "name": "bgColors",
              "type": "string[]"
            },
            {
              "internalType": "string[]",
              "name": "nogglesColors",
              "type": "string[]"
            },
            {
              "internalType": "string[]",
              "name": "crowns",
              "type": "string[]"
            },
            {
              "internalType": "string[]",
              "name": "doodads",
              "type": "string[]"
            },
            {
              "internalType": "string[]",
              "name": "garlands",
              "type": "string[]"
            },
            {
              "internalType": "string[]",
              "name": "shields",
              "type": "string[]"
            },
            {
              "internalType": "string[]",
              "name": "quadrantPalettes",
              "type": "string[]"
            },
            {
              "internalType": "string[]",
              "name": "reps",
              "type": "string[]"
            },
            {
              "internalType": "string[]",
              "name": "skills",
              "type": "string[]"
            },
            {
              "internalType": "string[]",
              "name": "classes",
              "type": "string[]"
            },
            {
              "internalType": "string[]",
              "name": "traits",
              "type": "string[]"
            }
          ],
          "internalType": "struct IPBTokenPartsStore.AvailableParts",
          "name": "",
          "type": "tuple"
        }
      ],
      "stateMutability": "view",
      "type": "function"
    },
    {
      "inputs": [
        {
          "internalType": "uint8",
          "name": "id",
          "type": "uint8"
        }
      ],
      "name": "getBgColor",
      "outputs": [
        {
          "components": [
            {
              "internalType": "string",
              "name": "name",
              "type": "string"
            },
            {
              "internalType": "string",
              "name": "color",
              "type": "string"
            }
          ],
          "internalType": "struct IPBTokenPartsStore.Color",
          "name": "",
          "type": "tuple"
        }
      ],
      "stateMutability": "view",
      "type": "function"
    },
    {
      "inputs": [
        {
          "internalType": "uint8",
          "name": "id",
          "type": "uint8"
        }
      ],
      "name": "getClass",
      "outputs": [
        {
          "components": [
            {
              "internalType": "string",
              "name": "name",
              "type": "string"
            },
            {
              "internalType": "string",
              "name": "svg",
              "type": "string"
            }
          ],
          "internalType": "struct IPBTokenPartsStore.ImagePart",
          "name": "",
          "type": "tuple"
        }
      ],
      "stateMutability": "view",
      "type": "function"
    },
    {
      "inputs": [
        {
          "internalType": "uint8",
          "name": "id",
          "type": "uint8"
        }
      ],
      "name": "getCrown",
      "outputs": [
        {
          "components": [
            {
              "internalType": "string",
              "name": "name",
              "type": "string"
            },
            {
              "internalType": "string",
              "name": "svg",
              "type": "string"
            }
          ],
          "internalType": "struct IPBTokenPartsStore.ImagePart",
          "name": "",
          "type": "tuple"
        }
      ],
      "stateMutability": "view",
      "type": "function"
    },
    {
      "inputs": [
        {
          "internalType": "uint8",
          "name": "id",
          "type": "uint8"
        }
      ],
      "name": "getDoodad",
      "outputs": [
        {
          "components": [
            {
              "internalType": "string",
              "name": "name",
              "type": "string"
            },
            {
              "internalType": "string",
              "name": "svg",
              "type": "string"
            }
          ],
          "internalType": "struct IPBTokenPartsStore.ImagePart",
          "name": "",
          "type": "tuple"
        }
      ],
      "stateMutability": "view",
      "type": "function"
    },
    {
      "inputs": [
        {
          "internalType": "uint8",
          "name": "id",
          "type": "uint8"
        }
      ],
      "name": "getGarland",
      "outputs": [
        {
          "components": [
            {
              "internalType": "string",
              "name": "name",
              "type": "string"
            },
            {
              "internalType": "string",
              "name": "svg",
              "type": "string"
            }
          ],
          "internalType": "struct IPBTokenPartsStore.ImagePart",
          "name": "",
          "type": "tuple"
        }
      ],
      "stateMutability": "view",
      "type": "function"
    },
    {
      "inputs": [
        {
          "internalType": "uint8",
          "name": "id",
          "type": "uint8"
        }
      ],
      "name": "getNogglesColor",
      "outputs": [
        {
          "components": [
            {
              "internalType": "string",
              "name": "name",
              "type": "string"
            },
            {
              "internalType": "string",
              "name": "color",
              "type": "string"
            }
          ],
          "internalType": "struct IPBTokenPartsStore.Color",
          "name": "",
          "type": "tuple"
        }
      ],
      "stateMutability": "view",
      "type": "function"
    },
    {
      "inputs": [
        {
          "internalType": "uint8",
          "name": "id",
          "type": "uint8"
        }
      ],
      "name": "getQuadrantPalette",
      "outputs": [
        {
          "components": [
            {
              "internalType": "string",
              "name": "name",
              "type": "string"
            },
            {
              "internalType": "string",
              "name": "primary",
              "type": "string"
            },
            {
              "internalType": "string",
              "name": "secondary",
              "type": "string"
            }
          ],
          "internalType": "struct IPBTokenPartsStore.Palette",
          "name": "",
          "type": "tuple"
        }
      ],
      "stateMutability": "view",
      "type": "function"
    },
    {
      "inputs": [
        {
          "internalType": "uint8",
          "name": "id",
          "type": "uint8"
        }
      ],
      "name": "getRep",
      "outputs": [
        {
          "components": [
            {
              "internalType": "string",
              "name": "name",
              "type": "string"
            },
            {
              "internalType": "string",
              "name": "svg",
              "type": "string"
            }
          ],
          "internalType": "struct IPBTokenPartsStore.ImagePart",
          "name": "",
          "type": "tuple"
        }
      ],
      "stateMutability": "view",
      "type": "function"
    },
    {
      "inputs": [
        {
          "internalType": "uint8",
          "name": "id",
          "type": "uint8"
        }
      ],
      "name": "getShield",
      "outputs": [
        {
          "components": [
            {
              "internalType": "string",
              "name": "name",
              "type": "string"
            },
            {
              "internalType": "string",
              "name": "svg",
              "type": "string"
            }
          ],
          "internalType": "struct IPBTokenPartsStore.ImagePart",
          "name": "",
          "type": "tuple"
        }
      ],
      "stateMutability": "view",
      "type": "function"
    },
    {
      "inputs": [
        {
          "internalType": "uint8",
          "name": "id",
          "type": "uint8"
        }
      ],
      "name": "getSkill",
      "outputs": [
        {
          "components": [
            {
              "internalType": "string",
              "name": "name",
              "type": "string"
            },
            {
              "internalType": "string",
              "name": "svg",
              "type": "string"
            }
          ],
          "internalType": "struct IPBTokenPartsStore.ImagePart",
          "name": "",
          "type": "tuple"
        }
      ],
      "stateMutability": "view",
      "type": "function"
    },
    {
      "inputs": [
        {
          "internalType": "uint8",
          "name": "id",
          "type": "uint8"
        }
      ],
      "name": "getTrait",
      "outputs": [
        {
          "components": [
            {
              "internalType": "string",
              "name": "name",
              "type": "string"
            },
            {
              "internalType": "string",
              "name": "svg",
              "type": "string"
            }
          ],
          "internalType": "struct IPBTokenPartsStore.ImagePart",
          "name": "",
          "type": "tuple"
        }
      ],
      "stateMutability": "view",
      "type": "function"
    },
    {
      "inputs": [
        {
          "internalType": "uint256",
          "name": "",
          "type": "uint256"
        }
      ],
      "name": "nogglesColors",
      "outputs": [
        {
          "internalType": "string",
          "name": "name",
          "type": "string"
        },
        {
          "internalType": "string",
          "name": "color",
          "type": "string"
        }
      ],
      "stateMutability": "view",
      "type": "function"
    },
    {
      "inputs": [],
      "name": "nogglesColorsCount",
      "outputs": [
        {
          "internalType": "uint256",
          "name": "",
          "type": "uint256"
        }
      ],
      "stateMutability": "view",
      "type": "function"
    },
    {
      "inputs": [],
      "name": "owner",
      "outputs": [
        {
          "internalType": "address",
          "name": "",
          "type": "address"
        }
      ],
      "stateMutability": "view",
      "type": "function"
    },
    {
      "inputs": [
        {
          "internalType": "uint256",
          "name": "",
          "type": "uint256"
        }
      ],
      "name": "quadrantPalettes",
      "outputs": [
        {
          "internalType": "string",
          "name": "name",
          "type": "string"
        },
        {
          "internalType": "string",
          "name": "primary",
          "type": "string"
        },
        {
          "internalType": "string",
          "name": "secondary",
          "type": "string"
        }
      ],
      "stateMutability": "view",
      "type": "function"
    },
    {
      "inputs": [],
      "name": "quadrantPalettesCount",
      "outputs": [
        {
          "internalType": "uint256",
          "name": "",
          "type": "uint256"
        }
      ],
      "stateMutability": "view",
      "type": "function"
    },
    {
      "inputs": [],
      "name": "renounceOwnership",
      "outputs": [],
      "stateMutability": "nonpayable",
      "type": "function"
    },
    {
      "inputs": [
        {
          "internalType": "uint256",
          "name": "",
          "type": "uint256"
        }
      ],
      "name": "reps",
      "outputs": [
        {
          "internalType": "string",
          "name": "name",
          "type": "string"
        },
        {
          "internalType": "string",
          "name": "svg",
          "type": "string"
        }
      ],
      "stateMutability": "view",
      "type": "function"
    },
    {
      "inputs": [],
      "name": "repsCount",
      "outputs": [
        {
          "internalType": "uint256",
          "name": "",
          "type": "uint256"
        }
      ],
      "stateMutability": "view",
      "type": "function"
    },
    {
      "inputs": [
        {
          "internalType": "uint256",
          "name": "",
          "type": "uint256"
        }
      ],
      "name": "shields",
      "outputs": [
        {
          "internalType": "string",
          "name": "name",
          "type": "string"
        },
        {
          "internalType": "string",
          "name": "svg",
          "type": "string"
        }
      ],
      "stateMutability": "view",
      "type": "function"
    },
    {
      "inputs": [],
      "name": "shieldsCount",
      "outputs": [
        {
          "internalType": "uint256",
          "name": "",
          "type": "uint256"
        }
      ],
      "stateMutability": "view",
      "type": "function"
    },
    {
      "inputs": [
        {
          "internalType": "uint256",
          "name": "",
          "type": "uint256"
        }
      ],
      "name": "skills",
      "outputs": [
        {
          "internalType": "string",
          "name": "name",
          "type": "string"
        },
        {
          "internalType": "string",
          "name": "svg",
          "type": "string"
        }
      ],
      "stateMutability": "view",
      "type": "function"
    },
    {
      "inputs": [],
      "name": "skillsCount",
      "outputs": [
        {
          "internalType": "uint256",
          "name": "",
          "type": "uint256"
        }
      ],
      "stateMutability": "view",
      "type": "function"
    },
    {
      "inputs": [
        {
          "internalType": "uint256",
          "name": "",
          "type": "uint256"
        }
      ],
      "name": "traits",
      "outputs": [
        {
          "internalType": "string",
          "name": "name",
          "type": "string"
        },
        {
          "internalType": "string",
          "name": "svg",
          "type": "string"
        }
      ],
      "stateMutability": "view",
      "type": "function"
    },
    {
      "inputs": [],
      "name": "traitsCount",
      "outputs": [
        {
          "internalType": "uint256",
          "name": "",
          "type": "uint256"
        }
      ],
      "stateMutability": "view",
      "type": "function"
    },
    {
      "inputs": [
        {
          "internalType": "address",
          "name": "newOwner",
          "type": "address"
        }
      ],
      "name": "transferOwnership",
      "outputs": [],
      "stateMutability": "nonpayable",
      "type": "function"
    }
  ],
  "transactionHash": "0x9cee07884833dd4fb32a04a2a4498bdf5a5c189bbb43bb69d0a2a68c1f0f2ab6",
  "args": [],
  "numDeployments": 2,
  "solcInputHash": "3961c41626645b987f8abcabe7d6a1a2",
  "bytecode": "0x608060405234801561001057600080fd5b5061001a3361001f565b61006f565b600080546001600160a01b038381166001600160a01b0319831681178455604051919092169283917f8be0079c531659141344cd1fd0a4f28419497f9722a3daafe3b4186f6b6457e09190a35050565b612ec7806200007f6000396000f3fe608060405234801561001057600080fd5b50600436106103205760003560e01c80638d915d1f116101a7578063d2c957e9116100ee578063e703c18611610097578063f2fde38b11610071578063f2fde38b1461064e578063f862ab1b14610661578063f87b5d6a1461067457600080fd5b8063e703c18614610620578063e986366414610628578063ee9a808f1461063b57600080fd5b8063e2c24605116100c8578063e2c24605146105e7578063e3ec8b98146105fa578063e465b0551461060d57600080fd5b8063d2c957e9146105b9578063d8a4234d146105cc578063ddee33b5146105df57600080fd5b8063abb26ac411610150578063c80adbdb1161012a578063c80adbdb14610571578063ceed017514610584578063d19893c31461059757600080fd5b8063abb26ac414610543578063b09c691c14610556578063b122c74f1461056957600080fd5b80639da775d0116101815780639da775d0146105085780639df263dd1461051b5780639f76a1e51461053057600080fd5b80638d915d1f146104dd5780638da5cb5b146104e55780639d1f65891461050057600080fd5b80636f25dcd51161026b57806384a5d1c61161021457806387f30789116101ee57806387f30789146104af5780638bb5ad96146104b75780638ce33c25146104ca57600080fd5b806384a5d1c614610481578063872f5b4c1461048957806387dddae51461049c57600080fd5b80637cca159e116102455780637cca159e1461045357806380942bfe1461045b578063817dbe9f1461046e57600080fd5b80636f25dcd514610430578063715018a6146104435780637576bf871461044b57600080fd5b80633d0cf8cb116102cd5780635e39eee0116102a75780635e39eee0146103f7578063621dc7361461040a57806365c1b3f11461041d57600080fd5b80633d0cf8cb146103bc57806350d15fbe146103d15780635bca69ec146103e457600080fd5b80632d72225b116102fe5780632d72225b146103815780632f6171cb146103a2578063320d7b4b146103b457600080fd5b8063077e69cc1461032557806315c507db1461034e5780632c0d2de61461036e575b600080fd5b6103386103333660046126d4565b610687565b6040516103459190612744565b60405180910390f35b61036161035c3660046126d4565b610897565b60405161034591906127d3565b61036161037c3660046126d4565b61097c565b61039461038f3660046127e6565b6109a6565b6040516103459291906127ff565b6007545b604051908152602001610345565b600a546103a6565b6103cf6103ca36600461283c565b610aea565b005b6103946103df3660046127e6565b610b37565b6103946103f23660046127e6565b610b47565b6103616104053660046126d4565b610b57565b6103946104183660046127e6565b610b81565b6103cf61042b366004612879565b610b91565b61036161043e3660046126d4565b610bda565b6103cf610c04565b6006546103a6565b6002546103a6565b6103cf61046936600461283c565b610c18565b61039461047c3660046127e6565b610c61565b6009546103a6565b6103cf61049736600461283c565b610c71565b6103616104aa3660046126d4565b610cba565b6001546103a6565b6103616104c53660046126d4565b610ce4565b6103cf6104d836600461283c565b610d0e565b600b546103a6565b6000546040516001600160a01b039091168152602001610345565b6004546103a6565b6103cf61051636600461283c565b610d57565b610523610da0565b6040516103459190612909565b6103cf61053e36600461283c565b611f38565b6103cf61055136600461283c565b611f81565b6103cf61056436600461283c565b611fca565b6008546103a6565b61039461057f3660046127e6565b612013565b6103946105923660046127e6565b612023565b6105aa6105a53660046127e6565b612033565b60405161034593929190612a5a565b6103cf6105c736600461283c565b612205565b6103616105da3660046126d4565b61224b565b6005546103a6565b6103946105f53660046127e6565b612275565b6103616106083660046126d4565b612285565b61036161061b3660046126d4565b6122af565b6003546103a6565b6103cf61063636600461283c565b6122d9565b6103946106493660046127e6565b612322565b6103cf61065c366004612a93565b612332565b61039461066f3660046127e6565b6123c7565b6103616106823660046126d4565b6123d7565b6106ab60405180606001604052806060815260200160608152602001606081525090565b60078260ff16815481106106c1576106c1612abc565b90600052602060002090600302016040518060600160405290816000820180546106ea90612ad2565b80601f016020809104026020016040519081016040528092919081815260200182805461071690612ad2565b80156107635780601f1061073857610100808354040283529160200191610763565b820191906000526020600020905b81548152906001019060200180831161074657829003601f168201915b5050505050815260200160018201805461077c90612ad2565b80601f01602080910402602001604051908101604052809291908181526020018280546107a890612ad2565b80156107f55780601f106107ca576101008083540402835291602001916107f5565b820191906000526020600020905b8154815290600101906020018083116107d857829003601f168201915b5050505050815260200160028201805461080e90612ad2565b80601f016020809104026020016040519081016040528092919081815260200182805461083a90612ad2565b80156108875780601f1061085c57610100808354040283529160200191610887565b820191906000526020600020905b81548152906001019060200180831161086a57829003601f168201915b5050505050815250509050919050565b604080518082019091526060808252602082015260018260ff16815481106108c1576108c1612abc565b90600052602060002090600202016040518060400160405290816000820180546108ea90612ad2565b80601f016020809104026020016040519081016040528092919081815260200182805461091690612ad2565b80156109635780601f1061093857610100808354040283529160200191610963565b820191906000526020600020905b81548152906001019060200180831161094657829003601f168201915b5050505050815260200160018201805461080e90612ad2565b604080518082019091526060808252602082015260028260ff16815481106108c1576108c1612abc565b600b81815481106109b657600080fd5b90600052602060002090600202016000915090508060000180546109d990612ad2565b80601f0160208091040260200160405190810160405280929190818152602001828054610a0590612ad2565b8015610a525780601f10610a2757610100808354040283529160200191610a52565b820191906000526020600020905b815481529060010190602001808311610a3557829003601f168201915b505050505090806001018054610a6790612ad2565b80601f0160208091040260200160405190810160405280929190818152602001828054610a9390612ad2565b8015610ae05780601f10610ab557610100808354040283529160200191610ae0565b820191906000526020600020905b815481529060010190602001808311610ac357829003601f168201915b5050505050905082565b610af2612401565b60018054808201825560009190915281906002027fb10e2d527612073b26eecdfd717e6a320cf44b4afac2b0732d9fcbe2b7fa0cf601610b328282612d62565b505050565b600981815481106109b657600080fd5b600881815481106109b657600080fd5b604080518082019091526060808252602082015260048260ff16815481106108c1576108c1612abc565b600581815481106109b657600080fd5b610b99612401565b6007805460018101825560009190915281906003027fa66cc928b5edb82af9bd49922954155ab7b0942694bea4ce44661d9a8736c68801610b328282612d70565b604080518082019091526060808252602082015260038260ff16815481106108c1576108c1612abc565b610c0c612401565b610c16600061245b565b565b610c20612401565b6003805460018101825560009190915281906002027fc2575a0e9e593c00f959f8c92f12db2869c3395a3b0502d05e2516446f71f85b01610b328282612d62565b600a81815481106109b657600080fd5b610c79612401565b600a805460018101825560009190915281906002027fc65a7bb8d6351c1cf70c95a316cc6a92839c986682d98bc35f958f4883f9d2a801610b328282612d62565b604080518082019091526060808252602082015260088260ff16815481106108c1576108c1612abc565b6040805180820190915260608082526020820152600a8260ff16815481106108c1576108c1612abc565b610d16612401565b6008805460018101825560009190915281906002027ff3f7a9fe364faab93b216da50a3214154f22a0a2b415b23a84c8169e8b636ee301610b328282612d62565b610d5f612401565b6006805460018101825560009190915281906002027ff652222313e28459528d920b65115c16c04f3efc82aaedc97be59f3f377c0d3f01610b328282612d62565b610dfd60405180610160016040528060608152602001606081526020016060815260200160608152602001606081526020016060815260200160608152602001606081526020016060815260200160608152602001606081525090565b604051806101600160405280610f8d6001805480602002602001604051908101604052809291908181526020016000905b82821015610f845783829060005260206000209060020201604051806040016040529081600082018054610e6190612ad2565b80601f0160208091040260200160405190810160405280929190818152602001828054610e8d90612ad2565b8015610eda5780601f10610eaf57610100808354040283529160200191610eda565b820191906000526020600020905b815481529060010190602001808311610ebd57829003601f168201915b50505050508152602001600182018054610ef390612ad2565b80601f0160208091040260200160405190810160405280929190818152602001828054610f1f90612ad2565b8015610f6c5780601f10610f4157610100808354040283529160200191610f6c565b820191906000526020600020905b815481529060010190602001808311610f4f57829003601f168201915b50505050508152505081526020019060010190610e2e565b505050506124c3565b815260200161110d6002805480602002602001604051908101604052809291908181526020016000905b82821015610f845783829060005260206000209060020201604051806040016040529081600082018054610fea90612ad2565b80601f016020809104026020016040519081016040528092919081815260200182805461101690612ad2565b80156110635780601f1061103857610100808354040283529160200191611063565b820191906000526020600020905b81548152906001019060200180831161104657829003601f168201915b5050505050815260200160018201805461107c90612ad2565b80601f01602080910402602001604051908101604052809291908181526020018280546110a890612ad2565b80156110f55780601f106110ca576101008083540402835291602001916110f5565b820191906000526020600020905b8154815290600101906020018083116110d857829003601f168201915b50505050508152505081526020019060010190610fb7565b81526020016112966003805480602002602001604051908101604052809291908181526020016000905b8282101561128d578382906000526020600020906002020160405180604001604052908160008201805461116a90612ad2565b80601f016020809104026020016040519081016040528092919081815260200182805461119690612ad2565b80156111e35780601f106111b8576101008083540402835291602001916111e3565b820191906000526020600020905b8154815290600101906020018083116111c657829003601f168201915b505050505081526020016001820180546111fc90612ad2565b80601f016020809104026020016040519081016040528092919081815260200182805461122890612ad2565b80156112755780601f1061124a57610100808354040283529160200191611275565b820191906000526020600020905b81548152906001019060200180831161125857829003601f168201915b50505050508152505081526020019060010190611137565b50505050612578565b81526020016114166004805480602002602001604051908101604052809291908181526020016000905b8282101561128d57838290600052602060002090600202016040518060400160405290816000820180546112f390612ad2565b80601f016020809104026020016040519081016040528092919081815260200182805461131f90612ad2565b801561136c5780601f106113415761010080835404028352916020019161136c565b820191906000526020600020905b81548152906001019060200180831161134f57829003601f168201915b5050505050815260200160018201805461138590612ad2565b80601f01602080910402602001604051908101604052809291908181526020018280546113b190612ad2565b80156113fe5780601f106113d3576101008083540402835291602001916113fe565b820191906000526020600020905b8154815290600101906020018083116113e157829003601f168201915b505050505081525050815260200190600101906112c0565b81526020016115966005805480602002602001604051908101604052809291908181526020016000905b8282101561128d578382906000526020600020906002020160405180604001604052908160008201805461147390612ad2565b80601f016020809104026020016040519081016040528092919081815260200182805461149f90612ad2565b80156114ec5780601f106114c1576101008083540402835291602001916114ec565b820191906000526020600020905b8154815290600101906020018083116114cf57829003601f168201915b5050505050815260200160018201805461150590612ad2565b80601f016020809104026020016040519081016040528092919081815260200182805461153190612ad2565b801561157e5780601f106115535761010080835404028352916020019161157e565b820191906000526020600020905b81548152906001019060200180831161156157829003601f168201915b50505050508152505081526020019060010190611440565b81526020016117166006805480602002602001604051908101604052809291908181526020016000905b8282101561128d57838290600052602060002090600202016040518060400160405290816000820180546115f390612ad2565b80601f016020809104026020016040519081016040528092919081815260200182805461161f90612ad2565b801561166c5780601f106116415761010080835404028352916020019161166c565b820191906000526020600020905b81548152906001019060200180831161164f57829003601f168201915b5050505050815260200160018201805461168590612ad2565b80601f01602080910402602001604051908101604052809291908181526020018280546116b190612ad2565b80156116fe5780601f106116d3576101008083540402835291602001916116fe565b820191906000526020600020905b8154815290600101906020018083116116e157829003601f168201915b505050505081525050815260200190600101906115c0565b81526020016119316007805480602002602001604051908101604052809291908181526020016000905b82821015611928578382906000526020600020906003020160405180606001604052908160008201805461177390612ad2565b80601f016020809104026020016040519081016040528092919081815260200182805461179f90612ad2565b80156117ec5780601f106117c1576101008083540402835291602001916117ec565b820191906000526020600020905b8154815290600101906020018083116117cf57829003601f168201915b5050505050815260200160018201805461180590612ad2565b80601f016020809104026020016040519081016040528092919081815260200182805461183190612ad2565b801561187e5780601f106118535761010080835404028352916020019161187e565b820191906000526020600020905b81548152906001019060200180831161186157829003601f168201915b5050505050815260200160028201805461189790612ad2565b80601f01602080910402602001604051908101604052809291908181526020018280546118c390612ad2565b80156119105780601f106118e557610100808354040283529160200191611910565b820191906000526020600020905b8154815290600101906020018083116118f357829003601f168201915b50505050508152505081526020019060010190611740565b50505050612626565b8152602001611ab16008805480602002602001604051908101604052809291908181526020016000905b8282101561128d578382906000526020600020906002020160405180604001604052908160008201805461198e90612ad2565b80601f01602080910402602001604051908101604052809291908181526020018280546119ba90612ad2565b8015611a075780601f106119dc57610100808354040283529160200191611a07565b820191906000526020600020905b8154815290600101906020018083116119ea57829003601f168201915b50505050508152602001600182018054611a2090612ad2565b80601f0160208091040260200160405190810160405280929190818152602001828054611a4c90612ad2565b8015611a995780601f10611a6e57610100808354040283529160200191611a99565b820191906000526020600020905b815481529060010190602001808311611a7c57829003601f168201915b5050505050815250508152602001906001019061195b565b8152602001611c316009805480602002602001604051908101604052809291908181526020016000905b8282101561128d5783829060005260206000209060020201604051806040016040529081600082018054611b0e90612ad2565b80601f0160208091040260200160405190810160405280929190818152602001828054611b3a90612ad2565b8015611b875780601f10611b5c57610100808354040283529160200191611b87565b820191906000526020600020905b815481529060010190602001808311611b6a57829003601f168201915b50505050508152602001600182018054611ba090612ad2565b80601f0160208091040260200160405190810160405280929190818152602001828054611bcc90612ad2565b8015611c195780601f10611bee57610100808354040283529160200191611c19565b820191906000526020600020905b815481529060010190602001808311611bfc57829003601f168201915b50505050508152505081526020019060010190611adb565b8152602001611db1600a805480602002602001604051908101604052809291908181526020016000905b8282101561128d5783829060005260206000209060020201604051806040016040529081600082018054611c8e90612ad2565b80601f0160208091040260200160405190810160405280929190818152602001828054611cba90612ad2565b8015611d075780601f10611cdc57610100808354040283529160200191611d07565b820191906000526020600020905b815481529060010190602001808311611cea57829003601f168201915b50505050508152602001600182018054611d2090612ad2565b80601f0160208091040260200160405190810160405280929190818152602001828054611d4c90612ad2565b8015611d995780601f10611d6e57610100808354040283529160200191611d99565b820191906000526020600020905b815481529060010190602001808311611d7c57829003601f168201915b50505050508152505081526020019060010190611c5b565b8152602001611f31600b805480602002602001604051908101604052809291908181526020016000905b8282101561128d5783829060005260206000209060020201604051806040016040529081600082018054611e0e90612ad2565b80601f0160208091040260200160405190810160405280929190818152602001828054611e3a90612ad2565b8015611e875780601f10611e5c57610100808354040283529160200191611e87565b820191906000526020600020905b815481529060010190602001808311611e6a57829003601f168201915b50505050508152602001600182018054611ea090612ad2565b80601f0160208091040260200160405190810160405280929190818152602001828054611ecc90612ad2565b8015611f195780601f10611eee57610100808354040283529160200191611f19565b820191906000526020600020905b815481529060010190602001808311611efc57829003601f168201915b50505050508152505081526020019060010190611ddb565b9052919050565b611f40612401565b600b805460018101825560009190915281906002027f0175b7a638427703f0dbe7bb9bbf987a2551717b34e79f33b5b1008d1fa01db901610b328282612d62565b611f89612401565b6005805460018101825560009190915281906002027f036b6384b5eca791c62761152d0c79bb0604c104a5fb6f4eb0703f3154bb3db001610b328282612d62565b611fd2612401565b6004805460018101825560009190915281906002027f8a35acfbc15ff81a39ae7d344fd709f28e8600b4aa8c65c6b64bfe7fe36bd19b01610b328282612d62565b600281815481106109b657600080fd5b600481815481106109b657600080fd5b6007818154811061204357600080fd5b906000526020600020906003020160009150905080600001805461206690612ad2565b80601f016020809104026020016040519081016040528092919081815260200182805461209290612ad2565b80156120df5780601f106120b4576101008083540402835291602001916120df565b820191906000526020600020905b8154815290600101906020018083116120c257829003601f168201915b5050505050908060010180546120f490612ad2565b80601f016020809104026020016040519081016040528092919081815260200182805461212090612ad2565b801561216d5780601f106121425761010080835404028352916020019161216d565b820191906000526020600020905b81548152906001019060200180831161215057829003601f168201915b50505050509080600201805461218290612ad2565b80601f01602080910402602001604051908101604052809291908181526020018280546121ae90612ad2565b80156121fb5780601f106121d0576101008083540402835291602001916121fb565b820191906000526020600020905b8154815290600101906020018083116121de57829003601f168201915b5050505050905083565b61220d612401565b6002805460018101825560008290528291027f405787fa12a823e0f2b7631cc41b3ba8828b3321ca811111fa75cd3aa3bb5ace01610b328282612d62565b604080518082019091526060808252602082015260058260ff16815481106108c1576108c1612abc565b600181815481106109b657600080fd5b604080518082019091526060808252602082015260068260ff16815481106108c1576108c1612abc565b604080518082019091526060808252602082015260098260ff16815481106108c1576108c1612abc565b6122e1612401565b6009805460018101825560009190915281906002027f6e1540171b6c0c960b71a7020d9f60077f6af931a8bbf590da0223dacf75c7af01610b328282612d62565b600381815481106109b657600080fd5b61233a612401565b6001600160a01b0381166123bb5760405162461bcd60e51b815260206004820152602660248201527f4f776e61626c653a206e6577206f776e657220697320746865207a65726f206160448201527f646472657373000000000000000000000000000000000000000000000000000060648201526084015b60405180910390fd5b6123c48161245b565b50565b600681815481106109b657600080fd5b6040805180820190915260608082526020820152600b8260ff16815481106108c1576108c1612abc565b6000546001600160a01b03163314610c165760405162461bcd60e51b815260206004820181905260248201527f4f776e61626c653a2063616c6c6572206973206e6f7420746865206f776e657260448201526064016123b2565b600080546001600160a01b038381167fffffffffffffffffffffffff0000000000000000000000000000000000000000831681178455604051919092169283917f8be0079c531659141344cd1fd0a4f28419497f9722a3daafe3b4186f6b6457e09190a35050565b60606000825167ffffffffffffffff8111156124e1576124e1612b54565b60405190808252806020026020018201604052801561251457816020015b60608152602001906001900390816124ff5790505b50905060005b83518110156125715783818151811061253557612535612abc565b60200260200101516000015182828151811061255357612553612abc565b6020026020010181905250808061256990612e6a565b91505061251a565b5092915050565b60606000825167ffffffffffffffff81111561259657612596612b54565b6040519080825280602002602001820160405280156125c957816020015b60608152602001906001900390816125b45790505b50905060005b8351811015612571578381815181106125ea576125ea612abc565b60200260200101516000015182828151811061260857612608612abc565b6020026020010181905250808061261e90612e6a565b9150506125cf565b60606000825167ffffffffffffffff81111561264457612644612b54565b60405190808252806020026020018201604052801561267757816020015b60608152602001906001900390816126625790505b50905060005b83518110156125715783818151811061269857612698612abc565b6020026020010151600001518282815181106126b6576126b6612abc565b602002602001018190525080806126cc90612e6a565b91505061267d565b6000602082840312156126e657600080fd5b813560ff811681146126f757600080fd5b9392505050565b6000815180845260005b8181101561272457602081850181015186830182015201612708565b506000602082860101526020601f19601f83011685010191505092915050565b60208152600082516060602084015261276060808401826126fe565b90506020840151601f198085840301604086015261277e83836126fe565b925060408601519150808584030160608601525061279c82826126fe565b95945050505050565b60008151604084526127ba60408501826126fe565b90506020830151848203602086015261279c82826126fe565b6020815260006126f760208301846127a5565b6000602082840312156127f857600080fd5b5035919050565b60408152600061281260408301856126fe565b828103602084015261279c81856126fe565b60006040828403121561283657600080fd5b50919050565b60006020828403121561284e57600080fd5b813567ffffffffffffffff81111561286557600080fd5b61287184828501612824565b949350505050565b60006020828403121561288b57600080fd5b813567ffffffffffffffff8111156128a257600080fd5b8201606081850312156126f757600080fd5b600081518084526020808501808196508360051b8101915082860160005b858110156128fc5782840389526128ea8483516126fe565b988501989350908401906001016128d2565b5091979650505050505050565b60208152600082516101608060208501526129286101808501836128b4565b91506020850151601f198086850301604087015261294684836128b4565b9350604087015191508086850301606087015261296384836128b4565b9350606087015191508086850301608087015261298084836128b4565b935060808701519150808685030160a087015261299d84836128b4565b935060a08701519150808685030160c08701526129ba84836128b4565b935060c08701519150808685030160e08701526129d784836128b4565b935060e087015191506101008187860301818801526129f685846128b4565b945080880151925050610120818786030181880152612a1585846128b4565b945080880151925050610140818786030181880152612a3485846128b4565b908801518782039092018488015293509050612a5083826128b4565b9695505050505050565b606081526000612a6d60608301866126fe565b8281036020840152612a7f81866126fe565b90508281036040840152612a5081856126fe565b600060208284031215612aa557600080fd5b81356001600160a01b03811681146126f757600080fd5b634e487b7160e01b600052603260045260246000fd5b600181811c90821680612ae657607f821691505b60208210810361283657634e487b7160e01b600052602260045260246000fd5b6000808335601e19843603018112612b1d57600080fd5b83018035915067ffffffffffffffff821115612b3857600080fd5b602001915036819003821315612b4d57600080fd5b9250929050565b634e487b7160e01b600052604160045260246000fd5b601f821115610b3257600081815260208120601f850160051c81016020861015612b915750805b601f850160051c820191505b81811015612bb057828155600101612b9d565b505050505050565b67ffffffffffffffff831115612bd057612bd0612b54565b612be483612bde8354612ad2565b83612b6a565b6000601f841160018114612c185760008515612c005750838201355b600019600387901b1c1916600186901b178355612c72565b600083815260209020601f19861690835b82811015612c495786850135825560209485019460019092019101612c29565b5086821015612c665760001960f88860031b161c19848701351681555b505060018560011b0183555b5050505050565b612c838283612b06565b67ffffffffffffffff811115612c9b57612c9b612b54565b612caf81612ca98554612ad2565b85612b6a565b6000601f821160018114612ce35760008315612ccb5750838201355b600019600385901b1c1916600184901b178555612d3d565b600085815260209020601f19841690835b82811015612d145786850135825560209485019460019092019101612cf4565b5084821015612d315760001960f88660031b161c19848701351681555b505060018360011b0185555b50505050612d4e6020830183612b06565b612d5c818360018601612bb8565b50505050565b612d6c8282612c79565b5050565b612d7a8283612b06565b67ffffffffffffffff811115612d9257612d92612b54565b612da081612ca98554612ad2565b6000601f821160018114612dd45760008315612dbc5750838201355b600019600385901b1c1916600184901b178555612e2e565b600085815260209020601f19841690835b82811015612e055786850135825560209485019460019092019101612de5565b5084821015612e225760001960f88660031b161c19848701351681555b505060018360011b0185555b50505050612e3f6020830183612b06565b612e4d818360018601612bb8565b5050612e5c6040830183612b06565b612d5c818360028601612bb8565b600060018201612e8a57634e487b7160e01b600052601160045260246000fd5b506001019056fea264697066735822122041a8a478b0ad85a4ef1a806a2d78a8b16ca9b48bd06992af994eb6d8ed3c620a64736f6c63430008110033",
  "devdoc": {
    "kind": "dev",
    "methods": {
      "owner()": {
        "details": "Returns the address of the current owner."
      },
      "renounceOwnership()": {
        "details": "Leaves the contract without owner. It will not be possible to call `onlyOwner` functions anymore. Can only be called by the current owner. NOTE: Renouncing ownership will leave the contract without an owner, thereby removing any functionality that is only available to the owner."
      },
      "transferOwnership(address)": {
        "details": "Transfers ownership of the contract to a new account (`newOwner`). Can only be called by the current owner."
      }
    },
    "version": 1
  },
  "userdoc": {
    "kind": "user",
    "methods": {},
    "version": 1
  },
  "storageLayout": {
    "storage": [
      {
        "astId": 7,
        "contract": "contracts/PBTokenPartsStore.sol:PBTokenPartsStore",
        "label": "_owner",
        "offset": 0,
        "slot": "0",
        "type": "t_address"
      },
      {
        "astId": 8042,
        "contract": "contracts/PBTokenPartsStore.sol:PBTokenPartsStore",
        "label": "bgColors",
        "offset": 0,
        "slot": "1",
        "type": "t_array(t_struct(Color)8698_storage)dyn_storage"
      },
      {
        "astId": 8046,
        "contract": "contracts/PBTokenPartsStore.sol:PBTokenPartsStore",
        "label": "nogglesColors",
        "offset": 0,
        "slot": "2",
        "type": "t_array(t_struct(Color)8698_storage)dyn_storage"
      },
      {
        "astId": 8050,
        "contract": "contracts/PBTokenPartsStore.sol:PBTokenPartsStore",
        "label": "crowns",
        "offset": 0,
        "slot": "3",
        "type": "t_array(t_struct(ImagePart)8710_storage)dyn_storage"
      },
      {
        "astId": 8054,
        "contract": "contracts/PBTokenPartsStore.sol:PBTokenPartsStore",
        "label": "doodads",
        "offset": 0,
        "slot": "4",
        "type": "t_array(t_struct(ImagePart)8710_storage)dyn_storage"
      },
      {
        "astId": 8058,
        "contract": "contracts/PBTokenPartsStore.sol:PBTokenPartsStore",
        "label": "garlands",
        "offset": 0,
        "slot": "5",
        "type": "t_array(t_struct(ImagePart)8710_storage)dyn_storage"
      },
      {
        "astId": 8062,
        "contract": "contracts/PBTokenPartsStore.sol:PBTokenPartsStore",
        "label": "shields",
        "offset": 0,
        "slot": "6",
        "type": "t_array(t_struct(ImagePart)8710_storage)dyn_storage"
      },
      {
        "astId": 8066,
        "contract": "contracts/PBTokenPartsStore.sol:PBTokenPartsStore",
        "label": "quadrantPalettes",
        "offset": 0,
        "slot": "7",
        "type": "t_array(t_struct(Palette)8705_storage)dyn_storage"
      },
      {
        "astId": 8070,
        "contract": "contracts/PBTokenPartsStore.sol:PBTokenPartsStore",
        "label": "reps",
        "offset": 0,
        "slot": "8",
        "type": "t_array(t_struct(ImagePart)8710_storage)dyn_storage"
      },
      {
        "astId": 8074,
        "contract": "contracts/PBTokenPartsStore.sol:PBTokenPartsStore",
        "label": "skills",
        "offset": 0,
        "slot": "9",
        "type": "t_array(t_struct(ImagePart)8710_storage)dyn_storage"
      },
      {
        "astId": 8078,
        "contract": "contracts/PBTokenPartsStore.sol:PBTokenPartsStore",
        "label": "classes",
        "offset": 0,
        "slot": "10",
        "type": "t_array(t_struct(ImagePart)8710_storage)dyn_storage"
      },
      {
        "astId": 8082,
        "contract": "contracts/PBTokenPartsStore.sol:PBTokenPartsStore",
        "label": "traits",
        "offset": 0,
        "slot": "11",
        "type": "t_array(t_struct(ImagePart)8710_storage)dyn_storage"
      }
    ],
    "types": {
      "t_address": {
        "encoding": "inplace",
        "label": "address",
        "numberOfBytes": "20"
      },
      "t_array(t_struct(Color)8698_storage)dyn_storage": {
        "base": "t_struct(Color)8698_storage",
        "encoding": "dynamic_array",
        "label": "struct IPBTokenPartsStore.Color[]",
        "numberOfBytes": "32"
      },
      "t_array(t_struct(ImagePart)8710_storage)dyn_storage": {
        "base": "t_struct(ImagePart)8710_storage",
        "encoding": "dynamic_array",
        "label": "struct IPBTokenPartsStore.ImagePart[]",
        "numberOfBytes": "32"
      },
      "t_array(t_struct(Palette)8705_storage)dyn_storage": {
        "base": "t_struct(Palette)8705_storage",
        "encoding": "dynamic_array",
        "label": "struct IPBTokenPartsStore.Palette[]",
        "numberOfBytes": "32"
      },
      "t_string_storage": {
        "encoding": "bytes",
        "label": "string",
        "numberOfBytes": "32"
      },
      "t_struct(Color)8698_storage": {
        "encoding": "inplace",
        "label": "struct IPBTokenPartsStore.Color",
        "members": [
          {
            "astId": 8695,
            "contract": "contracts/PBTokenPartsStore.sol:PBTokenPartsStore",
            "label": "name",
            "offset": 0,
            "slot": "0",
            "type": "t_string_storage"
          },
          {
            "astId": 8697,
            "contract": "contracts/PBTokenPartsStore.sol:PBTokenPartsStore",
            "label": "color",
            "offset": 0,
            "slot": "1",
            "type": "t_string_storage"
          }
        ],
        "numberOfBytes": "64"
      },
      "t_struct(ImagePart)8710_storage": {
        "encoding": "inplace",
        "label": "struct IPBTokenPartsStore.ImagePart",
        "members": [
          {
            "astId": 8707,
            "contract": "contracts/PBTokenPartsStore.sol:PBTokenPartsStore",
            "label": "name",
            "offset": 0,
            "slot": "0",
            "type": "t_string_storage"
          },
          {
            "astId": 8709,
            "contract": "contracts/PBTokenPartsStore.sol:PBTokenPartsStore",
            "label": "svg",
            "offset": 0,
            "slot": "1",
            "type": "t_string_storage"
          }
        ],
        "numberOfBytes": "64"
      },
      "t_struct(Palette)8705_storage": {
        "encoding": "inplace",
        "label": "struct IPBTokenPartsStore.Palette",
        "members": [
          {
            "astId": 8700,
            "contract": "contracts/PBTokenPartsStore.sol:PBTokenPartsStore",
            "label": "name",
            "offset": 0,
            "slot": "0",
            "type": "t_string_storage"
          },
          {
            "astId": 8702,
            "contract": "contracts/PBTokenPartsStore.sol:PBTokenPartsStore",
            "label": "primary",
            "offset": 0,
            "slot": "1",
            "type": "t_string_storage"
          },
          {
            "astId": 8704,
            "contract": "contracts/PBTokenPartsStore.sol:PBTokenPartsStore",
            "label": "secondary",
            "offset": 0,
            "slot": "2",
            "type": "t_string_storage"
          }
        ],
        "numberOfBytes": "96"
      }
    }
  }
}